{
	"data": {
		"bytecode": {
			"linkReferences": {},
			"object": "60c06040523480156200001157600080fd5b5060405162004ccf38038062004ccf833981810160405260e08110156200003757600080fd5b81019080805160405193929190846401000000008211156200005857600080fd5b9083019060208201858111156200006e57600080fd5b82518660208202830111640100000000821117156200008c57600080fd5b82525081516020918201928201910280838360005b83811015620000bb578181015183820152602001620000a1565b50505050919091016040908152602083015190830151606084015160808086015160a08088015160c09098015192889052829052600080546001600160a01b0319166001600160a01b0387161781558a51959950939750919591945090929091849186918a918a918a91889188918691906200013357fe5b6020908102919091010151600a80546001600160a01b0319166001600160a01b039092169190911790556200016885620001b9565b5050600b80546001600160a01b03199081166001600160a01b0393841617909155600c8054821695831695909517909455600d805490941694169390931790915550620003d8975050505050505050565b80600181518110620001c757fe5b6020026020010151600160006101000a8154816001600160a01b0302191690836001600160a01b03160217905550806002815181106200020357fe5b6020026020010151600260006101000a8154816001600160a01b0302191690836001600160a01b03160217905550806003815181106200023f57fe5b6020026020010151600360006101000a8154816001600160a01b0302191690836001600160a01b03160217905550806004815181106200027b57fe5b6020026020010151600460006101000a8154816001600160a01b0302191690836001600160a01b0316021790555080600581518110620002b757fe5b6020026020010151600560006101000a8154816001600160a01b0302191690836001600160a01b0316021790555080600681518110620002f357fe5b6020026020010151600660006101000a8154816001600160a01b0302191690836001600160a01b03160217905550806007815181106200032f57fe5b6020026020010151600760006101000a8154816001600160a01b0302191690836001600160a01b03160217905550806008815181106200036b57fe5b6020026020010151600860006101000a8154816001600160a01b0302191690836001600160a01b0316021790555080600981518110620003a757fe5b6020026020010151600960006101000a8154816001600160a01b0302191690836001600160a01b0316021790555050565b60805160a0516148ce6200040160003980610d78525080610dd7528061110b52506148ce6000f3fe608060405234801561001057600080fd5b50600436106100935760003560e01c80634c14a6f9116100665780634c14a6f91461028c5780635b4c41c2146102945780638080fdfb1461029c578063b7a771f7146102bd578063e5b62b29146102c557610093565b806312b3cbee146100985780631cb7dd79146100c357806329e10520146101d157806345819b59146101eb575b600080fd5b6100c1600480360360608110156100ae57600080fd5b50803590602081013590604001356102cd565b005b6100c1600480360360608110156100d957600080fd5b810190602081018135600160201b8111156100f357600080fd5b82018360208201111561010557600080fd5b803590602001918460208302840111600160201b8311171561012657600080fd5b919390929091602081019035600160201b81111561014357600080fd5b82018360208201111561015557600080fd5b803590602001918460208302840111600160201b8311171561017657600080fd5b919390929091602081019035600160201b81111561019357600080fd5b8201836020820111156101a557600080fd5b803590602001918460208302840111600160201b831117156101c657600080fd5b50909250905061039f565b6101d9610471565b60408051918252519081900360200190f35b6101d96004803603602081101561020157600080fd5b810190602081018135600160201b81111561021b57600080fd5b82018360208201111561022d57600080fd5b803590602001918460208302840111600160201b8311171561024e57600080fd5b919080806020026020016040519081016040528093929190818152602001838360200280828437600092019190915250929550610476945050505050565b6101d96104af565b6101d96104b4565b6102a46104b9565b6040805192835260208301919091528051918290030190f35b6101d96104c1565b6101d96104c6565b63010000008210610325576040805162461bcd60e51b815260206004820152601b60248201527f4f766572666c6f772070726f74656374696f6e206661696c65642e0000000000604482015290519081900360640190fd5b601f67f80000000000020f60c01b0160208401604085016020850284015b8085101561039657835b8481106103655750604083208251600101835261034d565b6001601160c01b01600160fb1b016e40000000000001100000000000012160801b8209865250602085019450610343565b50505050505050565b6103cb6040518060400160405280600b81526020016a21b83aab32b934b334b2b960a91b8152506104cb565b61046986868080602002602001604051908101604052809392919081815260200183836020028082843760009201919091525050604080516020808a028281018201909352898252909350899250889182918501908490808284376000920191909152505060408051602080890282810182019093528882529093508892508791829185019084908082843760009201919091525061057492505050565b505050505050565b600281565b6000808260188151811061048657fe5b60200260200101519050600061049d600083610b96565b60209081029401939093209392505050565b600381565b600181565b60189060bf90565b606081565b600081565b610571816040516024018080602001828103825283818151815260200191508051906020019080838360005b8381101561050f5781810151838201526020016104f7565b50505050905090810190601f16801561053c5780820380516001836020036101000a031916815260200191505b5060408051601f198184030181529190526020810180516001600160e01b031663104c13eb60e21b1790529250610bb1915050565b50565b61059b6040518060400160405280600681526020016574657374203160d01b8152506104cb565b60606105a78285610bd2565b90506105d0604051806040016040528060068152602001653a32b9ba101960d11b8152506104cb565b60006105db82611270565b90506106046040518060400160405280600681526020016574657374203360d01b8152506104cb565b600061060f84610476565b9050610638604051806040016040528060068152602001651d195cdd080d60d21b8152506104cb565b61064b8261064587611277565b8361127a565b6106726040518060400160405280600681526020016574657374203560d01b8152506104cb565b61067d826001611297565b60001c8360068151811061068d57fe5b6020026020010181815250506106c0604051806040016040528060068152602001653a32b9ba101b60d11b8152506104cb565b6106c86112ac565b15610763576106ef826106d96112bd565b6106ea866106e56112c2565b6112c8565b6102cd565b6107166040518060400160405280600681526020016574657374203760d01b8152506104cb565b610721826001611297565b83518490600790811061073057fe5b602002602001018181525050610763604051806040016040528060068152602001650e8cae6e840760d31b8152506104cb565b6107758260016106ea8661016f6112c8565b61079c6040518060400160405280600681526020016574657374203960d01b8152506104cb565b6107a7826001611297565b60001c836008815181106107b757fe5b6020026020010181815250506107eb604051806040016040528060078152602001660746573742031360cc1b8152506104cb565b6107fd8260016106ea866101686112c8565b610825604051806040016040528060078152602001667465737420313160c81b8152506104cb565b600061082f611330565b9050805b61083b611336565b820181101561086e5761084f84600161133c565b85828151811061085b57fe5b6020908102919091010152600101610833565b50610897604051806040016040528060078152602001663a32b9ba10189960c91b8152506104cb565b6108a084611351565b6108c8604051806040016040528060078152602001667465737420313360c81b8152506104cb565b6108da8360016106ea876102af6112c8565b610902604051806040016040528060078152602001661d195cdd080c4d60ca1b8152506104cb565b61090d836001611297565b60001c846101318151811061091e57fe5b602002602001018181525050610952604051806040016040528060078152602001667465737420313560c81b8152506104cb565b600061095d856114f3565b519050600061096e866101276112c8565b905060015b600183038110156109c05761098f8660018360200285016102cd565b61099a866001611297565b60001c878261013101815181106109ad57fe5b6020908102919091010152600101610973565b506109e9604051806040016040528060078152602001663a32b9ba10189b60c91b8152506104cb565b6109fd8560016106ea8961012687016112c8565b610a25604051806040016040528060078152602001667465737420313760c81b8152506104cb565b610a2e8661150b565b610a56604051806040016040528060078152602001660e8cae6e84062760cb1b8152506104cb565b610a748587600381518110610a6757fe5b602002602001015161161d565b610a9c604051806040016040528060078152602001667465737420313960c81b8152506104cb565b610adf8587600981518110610aad57fe5b6020026020010151600189600081518110610ac457fe5b602002602001015103610ad88a606d6112c8565b60606116ea565b86600981518110610aec57fe5b602002602001018181525050610b20604051806040016040528060078152602001660746573742032360cc1b8152506104cb565b610b295a6117ed565b610b328661182e565b610b5a604051806040016040528060078152602001667465737420323160c81b8152506104cb565b610b6386611a65565b610b8b604051806040016040528060078152602001663a32b9ba10191960c91b8152506104cb565b505050505050505050565b600082600183600302610ba7611a6e565b0103019392505050565b80516a636f6e736f6c652e6c6f67602083016000808483855afa5050505050565b60606005825111610c21576040805162461bcd60e51b815260206004820152601460248201527324b73b30b634b210383937b7b32830b930b6b99760611b604482015290519081900360640190fd5b81600481518110610c2e57fe5b6020026020010151600501825114610c84576040805162461bcd60e51b815260206004820152601460248201527324b73b30b634b210383937b7b32830b930b6b99760611b604482015290519081900360640190fd5b600082600181518110610c9357fe5b602002602001015190506010811115610cdd5760405162461bcd60e51b81526004018080602001828103825260228152602001806147f16022913960400191505060405180910390fd5b6001811015610d1d5760405162461bcd60e51b81526004018080602001828103825260228152602001806147726022913960400191505060405180910390fd5b600083600281518110610d2c57fe5b602002602001015190506032811115610d765760405162461bcd60e51b81526004018080602001828103825260228152602001806148456022913960400191505060405180910390fd5b7f0000000000000000000000000000000000000000000000000000000000000000811015610dd55760405162461bcd60e51b81526004018080602001828103825260258152602001806147946025913960400191505060405180910390fd5b7f00000000000000000000000000000000000000000000000000000000000000008110610e335760405162461bcd60e51b81526004018080602001828103825260268152602001806145486026913960400191505060405180910390fd5b600084600381518110610e4257fe5b60200260200101519050600a811115610e8c5760405162461bcd60e51b815260040180806020018281038252602b8152602001806145b6602b913960400191505060405180910390fd5b600085600481518110610e9b57fe5b60200260200101519050600a811115610ef1576040805162461bcd60e51b81526020600482015260136024820152722a37b79036b0b73c903339349039ba32b8399760691b604482015290519081900360640190fd5b60018111610f3e576040805162461bcd60e51b81526020600482015260156024820152742737ba1032b737bab3b4103339349039ba32b8399760591b604482015290519081900360640190fd5b60608167ffffffffffffffff81118015610f5757600080fd5b50604051908082528060200260200182016040528015610f81578160200160208202803683370190505b50905060005b82811015610fc557878160050181518110610f9e57fe5b6020026020010151828281518110610fb257fe5b6020908102919091010152600101610f87565b506000610fd189611a73565b9097509050610fe18282866120ec565b6000610fef886101266112c8565b90508281528460020a8861013b8151811061100657fe5b6020026020010181815250508160020a886101468151811061102457fe5b6020026020010181815250508660020a8860018151811061104157fe5b602002602001018181525050858860038151811061105b57fe5b60200260200101818152505060008960008151811061107657fe5b60200260200101519050600081116110bf5760405162461bcd60e51b81526004018080602001828103825260268152602001806146556026913960400191505060405180910390fd5b6030811115611109576040805162461bcd60e51b81526020600482015260116024820152702a37b79036b0b73c9038bab2b934b2b99760791b604482015290519081900360640190fd5b7f00000000000000000000000000000000000000000000000000000000000000008789830201101561116c5760405162461bcd60e51b81526004018080602001828103825260328152602001806146fa6032913960400191505060405180910390fd5b808960098151811061117a57fe5b6020026020010181815250508783018960028151811061119657fe5b602002602001018181525050886002815181106111af57fe5b602002602001015160020a896000815181106111c757fe5b602002602001018181525050600061120d60038b6000815181106111e757fe5b602002602001015160016001601160c01b01600160fb1b01038161120757fe5b04612232565b9050808a60048151811061121d57fe5b602002602001018181525050611247818b60018151811061123a57fe5b6020026020010151612232565b8a6101678151811061125557fe5b60200260200101818152505050505050505050505092915050565b6101600190565b90565b60208201835261129261128c84612253565b82612259565b505050565b6000806112a48484612265565b949350505050565b6000806112b761229f565b11905090565b600690565b61016990565b6000806104f38310611321576040805162461bcd60e51b815260206004820152601a60248201527f4f766572666c6f772070726f74656374696f6e206661696c6564000000000000604482015290519081900360640190fd5b50506020908102919091010190565b61017090565b61010f90565b6000806112a461134c8585612265565b6122a4565b61135a816122cf565b806101698151811061136857fe5b60200260200101518161014d8151811061137e57fe5b602002602001018181525050806101696001018151811061139b57fe5b60200260200101518161014e815181106113b157fe5b60200260200101818152505080610169600201815181106113ce57fe5b602002602001015181610150815181106113e457fe5b60200260200101818152505060006113fb8261252d565b9050808261014f8151811061140c57fe5b6020026020010181815250505061142281612729565b600a546040516000916001600160a01b0316906127c090612800906020818388860187600019fa611457573d6000803e3d6000fd5b805194505060006114b38661027d8151811061146f57fe5b60200260200101516114ae886101688151811061148857fe5b60200260200101518961027d600101815181106114a157fe5b6020026020010151612dda565b612df4565b90508085146104695760405162461bcd60e51b815260040180806020018281038252602781526020018061456e6027913960400191505060405180910390fd5b60606000611503836101266112c8565b519392505050565b6000600a905060008261013b8151811061152157fe5b6020026020010151905060008060009050600067080000000000001160c01b6020860260208801018051945060208602808601865b8181101561156f57805185109690961795602001611556565b5060208381018051600101601f198a0190815293909101909220918290526000604084018190529252925090505b848110156115ad5760010161159d565b5081156115fa576040805162461bcd60e51b815260206004820152601660248201527524b73b30b634b2103334b2b6321032b632b6b2b73a1760511b604482015290519081900360640190fd5b828661013c8151811061160957fe5b602002602001018181525050505050505050565b80611627576116e6565b600080670123456789abcded60c01b600052602084015180600852836028536029600020600052600051925084518051602052602860002092506001820160005260286000206020870152600060408701526008810186525050600083610100036001901b90508082106116e2576040805162461bcd60e51b815260206004820152601b60248201527f50726f6f66206f6620776f726b20636865636b206661696c65642e0000000000604482015290519081900360640190fd5b5050505b5050565b6000600160401b841061173c576040805162461bcd60e51b815260206004820152601560248201527436b0b9b59036bab9ba103132901e101915151b1a1760591b604482015290519081900360640190fd5b60008084815b888110156117d357826117685761176061175b8b612253565b612e0e565b935061010092505b603f199092019183831c8816826000195b8982111561179f5750878103518083106117925761179f565b8082528882039150611779565b8083146117b257828252938801936117c8565b5b848210156117c85781890180519092526117b3565b505050600101611742565b5084868203816117df57fe5b049998505050505050505050565b6040805160248082018490528251808303909101815260449091019091526020810180516001600160e01b031663f5b1bba960e01b17905261057190610bb1565b6118596040518060400160405280600a81526020016974657374696e6720333160b01b8152506104cb565b6118625a6117ed565b61186b81612e44565b6118966040518060400160405280600a8152602001693a32b9ba34b73390199960b11b8152506104cb565b61189f5a6117ed565b6118dc816118ab613028565b6118b361302d565b6118bf856102b06112c8565b856006815181106118cc57fe5b602002602001015160001b613032565b6119076040518060400160405280600a81526020016974657374696e6720333360b01b8152506104cb565b6119105a6117ed565b6119186112ac565b156119565761195681611929613028565b61193161229f565b6119468561193d61302d565b6102b0016112c8565b856006600101815181106118cc57fe5b6119816040518060400160405280600a8152602001691d195cdd1a5b99c80ccd60b21b8152506104cb565b61198a5a6117ed565b6119b781611996613179565b61199e613179565b6119aa856104906112c8565b856008815181106118cc57fe5b6119e26040518060400160405280600a81526020016974657374696e6720333560b01b8152506104cb565b6119eb5a6117ed565b600080546001600160a01b031690611a0483606d6112c8565b835190915061120090819083906001016020028686600019fa611a2b573d6000803e3d6000fd5b611a566040518060400160405280600a8152602001693a32b9ba34b73390199b60b11b8152506104cb565b611a5f5a6117ed565b50505050565b6105718161317e565b601990565b60606000601983511015611ace576040805162461bcd60e51b815260206004820152601960248201527f7075626c6963496e70757420697320746f6f2073686f72742e00000000000000604482015290519081900360640190fd5b604080516104f3808252619e8082019092529060208201619e6080368337019050509150620100008261014781518110611b0457fe5b6020026020010181815250506180008261014881518110611b2157fe5b602002602001018181525050600083600081518110611b3c57fe5b6020026020010151905060328110611b9b576040805162461bcd60e51b815260206004820152601d60248201527f4e756d626572206f6620737465707320697320746f6f206c617267652e000000604482015290519081900360640190fd5b80836104f081518110611baa57fe5b60200260200101818152505060048101915083600181518110611bc957fe5b60200260200101518361015281518110611bdf57fe5b60200260200101818152505083600281518110611bf857fe5b60200260200101518361015381518110611c0e57fe5b6020026020010181815250508261015381518110611c2857fe5b60200260200101518361015281518110611c3e57fe5b60200260200101511115611c99576040805162461bcd60e51b815260206004820152601860248201527f72635f6d696e206d757374206265203c3d2072635f6d61780000000000000000604482015290519081900360640190fd5b8261014781518110611ca757fe5b60200260200101518361015381518110611cbd57fe5b602002602001015110611d0d576040805162461bcd60e51b815260206004820152601360248201527272635f6d6178206f7574206f662072616e676560681b604482015290519081900360640190fd5b67737461726b6e657484600381518110611d2357fe5b602002602001015114611d75576040805162461bcd60e51b81526020600482015260156024820152742630bcb7baba1031b7b2329036b4b9b6b0ba31b41760591b604482015290519081900360640190fd5b83600481518110611d8257fe5b60200260200101518361014a81518110611d9857fe5b60200260200101818152505083600581518110611db157fe5b60200260200101518361014c81518110611dc757fe5b60200260200101818152505060018361014a81518110611de357fe5b602002602001015114611e32576040805162461bcd60e51b8152602060048201526012602482015271496e76616c696420696e697469616c20706360701b604482015290519081900360640190fd5b60016004018361014c81518110611e4557fe5b602002602001015114611e92576040805162461bcd60e51b815260206004820152601060248201526f496e76616c69642066696e616c20706360801b604482015290519081900360640190fd5b83600681518110611e9f57fe5b60200260200101518361014981518110611eb557fe5b60200260200101818152505083600781518110611ece57fe5b60200260200101518361014b81518110611ee457fe5b602002602001018181525050600184601881518110611eff57fe5b602002602001015110158015611f2b5750620186a084601881518110611f2157fe5b6020026020010151105b611f7c576040805162461bcd60e51b815260206004820152601f60248201527f496e76616c6964206e756d626572206f66206d656d6f72792070616765732e00604482015290519081900360640190fd5b83601881518110611f8957fe5b6020026020010151836104f281518110611f9f57fe5b6020026020010181815250506000805b846104f281518110611fbd57fe5b602002602001015181101561203b57600086611fd8836135ef565b81518110611fe257fe5b602002602001015190506340000000811061202e5760405162461bcd60e51b815260040180806020018281038252602b81526020018061462a602b913960400191505060405180910390fd5b9190910190600101611faf565b5080846104f18151811061204b57fe5b602002602001018181525050506000612078846104f28151811061206b57fe5b6020026020010151613609565b9050845181146120cf576040805162461bcd60e51b815260206004820152601d60248201527f5075626c696320696e707574206c656e677468206d69736d617463682e000000604482015290519081900360640190fd5b6020850160c085015260056120e48587613621565b505050915091565b826000815181106120f957fe5b602002602001015160001461213f5760405162461bcd60e51b815260040180806020018281038252602581526020018061472c6025913960400191505060405180910390fd5b8251819060015b818110156121f357600086828151811061215c57fe5b6020026020010151905060028110156121a65760405162461bcd60e51b81526004018080602001828103825260218152602001806147516021913960400191505060405180910390fd5b60048111156121e65760405162461bcd60e51b81526004018080602001828103825260218152602001806145956021913960400191505060405180910390fd5b9290920191600101612146565b508382146116e25760405162461bcd60e51b81526004018080602001828103825260248152602001806146a76024913960400191505060405180910390fd5b600061224c83836001601160c01b01600160fb1b01613be8565b9392505050565b60200190565b6116e682826000613c23565b815180516020820184526000919083156112a457602085016020810160018251018252828152604082208252600081525050949350505050565b600190565b60006001601160c01b01600160fb1b016e40000000000001100000000000012160801b830992915050565b6000816104f2815181106122df57fe5b6020026020010151905060005b818110156112925760006122ff82613c2e565b6020028460058151811061230f57fe5b60200260200101510190506000806123278486610b96565b6020028660058151811061233757fe5b602002602001015101905060008061234e866135ef565b6020028860058151811061235e57fe5b602002602001015101905060008151905083519250855194506000808811156123ad57600061238c89613c40565b6020028b60058151811061239c57fe5b602002602001015101905080519150505b600088156123bc5760016123bf565b60005b6001601160c01b01600160fb1b01848d610169815181106123dc57fe5b60200260200101518e610169600101815181106123f557fe5b6020026020010151898c886040516020018089815260200188815260200187815260200186815260200185815260200184815260200183815260200182815260200198505050505050505050604051602081830303815290604052805190602001209050600b60009054906101000a90046001600160a01b03166001600160a01b0316636a938567826040518263ffffffff1660e01b81526004018082815260200191505060206040518083038186803b1580156124b257600080fd5b505afa1580156124c6573d6000803e3d6000fd5b505050506040513d60208110156124dc57600080fd5b50516125195760405162461bcd60e51b81526004018080602001828103825260248152602001806145e16024913960400191505060405180910390fd5b5050600190960195506122ec945050505050565b600080826104f18151811061253e57fe5b6020026020010151905060008361014d8151811061255857fe5b6020026020010151905060008461014e8151811061257257fe5b60200260200101519050600061259e866101468151811061258f57fe5b60200260200101516008613c92565b9050630100000084106125f8576040805162461bcd60e51b815260206004820152601b60248201527f4f766572666c6f772070726f74656374696f6e206661696c65642e0000000000604482015290519081900360640190fd5b808411156126375760405162461bcd60e51b815260040180806020018281038252602f8152602001806146cb602f913960400191505060405180910390fd5b6000866104f28151811061264757fe5b60200260200101519050600061265e600083610b96565b6020028860058151811061266e57fe5b6020026020010151019050600061269382846001601160c01b01600160fb1b01613d3f565b90506000896005815181106126a457fe5b60209081029190910101516102c08101516102e08201519192509060006126cf836114ae848c612dda565b905060006126e86126e08c84613d69565b8d8b03612232565b90506126f48682612dda565b955060006127028c8b612232565b90506127168161271189613d92565b612dda565b9f9e505050505050505050505050505050565b6000816101688151811061273957fe5b602002602001015190506000826104f08151811061275357fe5b602002602001015160020a90506000612770826001602002613c92565b9050600061277e8483612232565b600154604080516317b61b5760e21b81526004810184905290519293506001600160a01b0390911691635ed86d5c91602480820192602092909190829003018186803b1580156127cd57600080fd5b505afa1580156127e1573d6000803e3d6000fd5b505050506040513d60208110156127f757600080fd5b50518551869061013d90811061280957fe5b602090810291909101810191909152600254604080516317b61b5760e21b81526004810185905290516001600160a01b0390921692635ed86d5c92602480840193829003018186803b15801561285e57600080fd5b505afa158015612872573d6000803e3d6000fd5b505050506040513d602081101561288857600080fd5b50518551869061013e90811061289a57fe5b60200260200101818152505060006128cf866104f0815181106128b957fe5b602002602001015160020a600161080002613c92565b905060006128dd8683612232565b600354604080516317b61b5760e21b81526004810184905290519293506001600160a01b0390911691635ed86d5c91602480820192602092909190829003018186803b15801561292c57600080fd5b505afa158015612940573d6000803e3d6000fd5b505050506040513d602081101561295657600080fd5b50518751889061013f90811061296857fe5b60209081029190910181019190915260048054604080516317b61b5760e21b8152928301859052516001600160a01b0390911692635ed86d5c9260248082019391829003018186803b1580156129bd57600080fd5b505afa1580156129d1573d6000803e3d6000fd5b505050506040513d60208110156129e757600080fd5b5051875188906101409081106129f957fe5b6020026020010181815250508661016960030181518110612a1657fe5b60200260200101518761015481518110612a2c57fe5b6020026020010181815250508661016960040181518110612a4957fe5b60200260200101518761015781518110612a5f57fe5b6020026020010181815250508661016960050181518110612a7c57fe5b60200260200101518761015881518110612a9257fe5b602002602001018181525050612aa787613dc0565b8761015981518110612ab557fe5b6020026020010181815250506000612ae6886104f081518110612ad457fe5b602002602001015160020a6020613c92565b90506000612af48883612232565b600554604080516317b61b5760e21b81526004810184905290519293506001600160a01b0390911691635ed86d5c91602480820192602092909190829003018186803b158015612b4357600080fd5b505afa158015612b57573d6000803e3d6000fd5b505050506040513d6020811015612b6d57600080fd5b505189518a90610141908110612b7f57fe5b602090810291909101810191909152600654604080516317b61b5760e21b81526004810185905290516001600160a01b0390921692635ed86d5c92602480840193829003018186803b158015612bd457600080fd5b505afa158015612be8573d6000803e3d6000fd5b505050506040513d6020811015612bfe57600080fd5b505189518a90610142908110612c1057fe5b602090810291909101810191909152600754604080516317b61b5760e21b81526004810185905290516001600160a01b0390921692635ed86d5c92602480840193829003018186803b158015612c6557600080fd5b505afa158015612c79573d6000803e3d6000fd5b505050506040513d6020811015612c8f57600080fd5b505189518a90610143908110612ca157fe5b602090810291909101810191909152600854604080516317b61b5760e21b81526004810185905290516001600160a01b0390921692635ed86d5c92602480840193829003018186803b158015612cf657600080fd5b505afa158015612d0a573d6000803e3d6000fd5b505050506040513d6020811015612d2057600080fd5b505189518a90610144908110612d3257fe5b602090810291909101810191909152600954604080516317b61b5760e21b81526004810185905290516001600160a01b0390921692635ed86d5c92602480840193829003018186803b158015612d8757600080fd5b505afa158015612d9b573d6000803e3d6000fd5b505050506040513d6020811015612db157600080fd5b505189518a90610145908110612dc357fe5b602002602001018181525050505050505050505050565b60006001601160c01b01600160fb1b018284099392505050565b60006001601160c01b01600160fb1b018284089392505050565b6000806000612e1c84613ecc565b9092509050612e2b8282613ed8565b94509092509050612e3d848383613c23565b5050919050565b600081600981518110612e5357fe5b602002602001015190506000612e6a83606d6112c8565b90506060820281016000612e808561027f6112c8565b9050600085600281518110612e9157fe5b60200260200101519050600086600081518110612eaa57fe5b60200260200101519050600087600481518110612ec357fe5b60200260200101519050612fda565b600081905067aaaaaaaaaaaaaaaa8116675555555555555555821660021b179050680199999999999999988116676666666666666666821660041b179050680787878787878787808116677878787878787878821660081b179050687f807f807f807f80008116677f807f807f807f80821660101b179050697fff80007fff800000008116677fff80007fff8000821660201b1790506b7fffffff80000000000000008116677fffffff80000000821660401b1790508083607f031c905092915050565b600060405160208152602080820152602060408201528260608201528360808201528460a082015260208160c08360055afa612fd157600080fd5b51949350505050565b8486101561301e578551828101875261300a6001601160c01b01600160fb1b016130048684612ed2565b84612f96565b855250602084019350606086019550612fda565b5050505050505050565b600a90565b600990565b61303a613179565b613042613028565b0183111561308b576040805162461bcd60e51b81526020600482015260116024820152702a37b79036b0b73c9031b7b63ab6b7399760791b604482015290519081900360640190fd5b60008560098151811061309a57fe5b6020026020010151905060006130b187600a6112c8565b905060006130c088606d6112c8565b905060608302810160006130d58a600d6112c8565b84518051602082810151818d02808520959650948d8f0390920293919291865b888a1015613158576bffffffffffffffffffffffff1987832016602088141561311c575081515b8a51825260208201526040018187015b808310156131475782518f5260209e8f019e9092019161312c565b50858e019d5060608a0199506130f5565b50895261316789878d8d613f0b565b50505050505050505050505050505050565b600290565b600061318982611270565b905060008260098151811061319a57fe5b6020026020010151905060005b8181101561320b576131e38482600302606d01600101815181106131c757fe5b6020026020010151601f6707fffffffffffdf160c01b03612dda565b8482600302606d01600101815181106131f857fe5b60209081029190910101526001016131a7565b50600061321984606d6112c8565b6060838102822091925061322c866114f3565b805190915060001981019060019060009084908390811061324957fe5b6020026020010151905061325b614529565b8383101561343c5760006132708a6001612265565b60001c90508a84610127018151811061328557fe5b60200260200101518260006005811061329a57fe5b602002015285518690859081106132ad57fe5b6020026020010151826001600581106132c257fe5b602002015260408201879052606082018190528a518b9061013086019081106132e757fe5b6020026020010151826004600581106132fc57fe5b60209081029190910191909152600d546040516001600160a01b0390911691636a93856791859101808260a080838360005b8381101561334657818101518382015260200161332e565b50505050905001915050604051602081830303815290604052805190602001206040518263ffffffff1660e01b81526004018082815260200191505060206040518083038186803b15801561339a57600080fd5b505afa1580156133ae573d6000803e3d6000fd5b505050506040513d60208110156133c457600080fd5b5051613413576040805162461bcd60e51b8152602060048201526019602482015278125395905312511055115117d1949257d4d510551153515395603a1b604482015290519081900360640190fd5b809650838060010194505085848151811061342a57fe5b6020026020010151830192505061325b565b8983610127018151811061344c57fe5b60200260200101518160006005811061346157fe5b6020020152845185908490811061347457fe5b60200260200101518160016005811061348957fe5b6020020152604081018690526134a08a8984613f22565b606082015289518a9061013085019081106134b757fe5b6020026020010151816004600581106134cc57fe5b60209081029190910191909152600d546040516001600160a01b0390911691636a93856791849101808260a080838360005b838110156135165781810151838201526020016134fe565b50505050905001915050604051602081830303815290604052805190602001206040518263ffffffff1660e01b81526004018082815260200191505060206040518083038186803b15801561356a57600080fd5b505afa15801561357e573d6000803e3d6000fd5b505050506040513d602081101561359457600080fd5b50516135e3576040805162461bcd60e51b8152602060048201526019602482015278125395905312511055115117d1949257d4d510551153515395603a1b604482015290519081900360640190fd5b50505050505050505050565b600060018083600302613600611a6e565b01030192915050565b6000600160048302613619611a6e565b010392915050565b60008160088151811061363057fe5b6020026020010151905060008260098151811061364957fe5b60200260200101519050808211156136925760405162461bcd60e51b81526004018080602001828103825260258152602001806146056025913960400191505060405180910390fd5b600160401b81106136ea576040805162461bcd60e51b815260206004820152601d60248201527f4f7574206f662072616e6765206f75747075742073746f705f7074722e000000604482015290519081900360640190fd5b6000846104f0815181106136fa57fe5b602002602001015160020a905083600a8151811061371457fe5b60200260200101518561015c8151811061372a57fe5b60200260200101818152505061378f8561015c8151811061374757fe5b602002602001015185600b8151811061375c57fe5b60200260200101516020600385604051806040016040528060088152602001673832b232b939b2b760c11b815250614096565b7f049ee3eba8c1600700ee1b87eb599f16716b0b1022947733551fde4050ca68048561015a815181106137be57fe5b6020026020010181815250507f03ca0cfe4b3bc6ddf346d49d06ea0ed34e621062c0e056c1d0405d266e10268a8561015b815181106137f957fe5b60200260200101818152505083600c8151811061381257fe5b60200260200101518561015d8151811061382857fe5b6020026020010181815250506138908561015d8151811061384557fe5b602002602001015185600d8151811061385a57fe5b602002602001015160106001856040518060400160405280600b81526020016a72616e67655f636865636b60a81b815250614096565b600185610151815181106138a057fe5b60200260200101818152505083600e815181106138b957fe5b602002602001015185610162815181106138cf57fe5b60200260200101818152505061393285610162815181106138ec57fe5b602002602001015185600f8151811061390157fe5b602002602001015161080060028560405180604001604052806005815260200164656364736160d81b815250614096565b60018561015e8151811061394257fe5b6020026020010181815250507f06f21413efbe40de150e596d72f7a8c5609ad26c15c915c1f4cdfcb99cee9e89856101618151811061397d57fe5b6020026020010181815250507f049ee3eba8c1600700ee1b87eb599f16716b0b1022947733551fde4050ca68048561015f815181106139b857fe5b6020026020010181815250507f03ca0cfe4b3bc6ddf346d49d06ea0ed34e621062c0e056c1d0405d266e10268a85610160815181106139f357fe5b60200260200101818152505083601081518110613a0c57fe5b60200260200101518561016381518110613a2257fe5b602002602001018181525050613a868561016381518110613a3f57fe5b602002602001015185601181518110613a5457fe5b60200260200101516040600585604051806040016040528060078152602001666269747769736560c81b815250614096565b60018561015581518110613a9657fe5b60200260200101818152505060008561015681518110613ab257fe5b60200260200101818152505083601281518110613acb57fe5b60200260200101518561016481518110613ae157fe5b602002602001018181525050613b448561016481518110613afe57fe5b602002602001015185601381518110613b1357fe5b602002602001015161040060078560405180604001604052806005815260200164065635f6f760dc1b815250614096565b60018561016581518110613b5457fe5b60200260200101818152505083601481518110613b6d57fe5b60200260200101518561016681518110613b8357fe5b6020026020010181815250506116e28561016681518110613ba057fe5b602002602001015185601581518110613bb557fe5b60200260200101516020600685604051806040016040528060088152602001673837b9b2b4b237b760c11b815250614096565b600060405160208152602080820152602060408201528460608201528360808201528260a082015260208160c08360055afa612fd157600080fd5b908252602090910152565b60006002600183600302613600611a6e565b60006001821015613c825760405162461bcd60e51b81526004018080602001828103825260328152602001806148136032913960400191505060405180910390fd5b6000600183600302613600611a6e565b6000808211613ce8576040805162461bcd60e51b815260206004820181905260248201527f5468652064656e6f6d696e61746f72206d757374206e6f74206265207a65726f604482015290519081900360640190fd5b818381613cf157fe5b0615613d2e5760405162461bcd60e51b81526004018080602001828103825260328152602001806148676032913960400191505060405180910390fd5b818381613d3757fe5b049392505050565b6001602083028401845b81811015613d605783815184099250602001613d49565b50509392505050565b60006001601160c01b01600160fb1b01826001601160c01b01600160fb1b010384089392505050565b6000613dba82600167080000000000001160c01b036001601160c01b01600160fb1b01613be8565b92915050565b6000808261015781518110613dd157fe5b6020026020010151905060008361015881518110613deb57fe5b602090810291909101015190506010600e60018481019080805b6010811015613eaa576001601160c01b01600160fb1b0185830891506001601160c01b01600160fb1b0186860994506001601160c01b01600160fb1b018483096001601160c01b01600160fb1b01818a0985016001601160c01b01600160fb1b01856001601160c01b01600160fb1b018487096001601160c01b01600160fb1b01848909010894506001601160c01b01600160fb1b0181870995505050600101613e05565b506001601160c01b01600160fb1b018087840984089998505050505050505050565b80516020820151915091565b60408051602080820185905281830184905282518083038401815260609092019092528051910120919260019091019190565b6000613f19858585856142ba565b95945050505050565b6000808461013b81518110613f3357fe5b602002602001015190506000600186600181518110613f4e57fe5b602002602001015183020390506000846001901b905060008060008961013c81518110613f7757fe5b6020026020010151905060005b89811015614071576000898c83600302606d0181518110613fa157fe5b6020026020010151901c905083811415613fbb5750614069565b808c86600302606d0181518110613fce57fe5b60200260200101818152505080935060006140058d84600302606d0160020181518110613ff757fe5b602002602001015188612232565b9050808d87600302606d016002018151811061401d57fe5b6020026020010181815250506140338189612232565b905061404084828b614420565b8d87600302606d016001018151811061405557fe5b602090810291909101015250506001909301925b600101613f84565b50600061407f8b606d6112c8565b6060949094029093209a9950505050505050505050565b600160401b86108160405160200180806c027baba1037b3103930b733b29609d1b815250600d0182805190602001908083835b602083106140e85780518252601f1990920191602091820191016140c9565b6001836020036101000a038019825116818451168082178552505050505050905001806b103132b3b4b72fb0b232391760a11b815250600c01915050604051602081830303815290604052906141bc5760405162461bcd60e51b81526004018080602001828103825283818151815260200191508051906020019080838360005b83811015614181578181015183820152602001614169565b50505050905090810190601f1680156141ae5780820380516001836020036101000a031916815260200191505b509250505060405180910390fd5b5060006141c98386613c92565b8402870190508587111580156141df5750808611155b82604051602001808067024b73b30b634b2160c51b81525060080182805190602001908083835b602083106142255780518252601f199092019160209182019101614206565b6001836020036101000a03801982511681845116808217855250505050505090500180691039ba37b82fb83a391760b11b815250600a019150506040516020818303038152906040529061301e5760405162461bcd60e51b8152602060048201818152835160248401528351909283926044909101919085019080838360008315614181578181015183820152602001614169565b6000806080831115614313576040805162461bcd60e51b815260206004820152601760248201527f544f4f5f4d414e595f4d45524b4c455f51554552494553000000000000000000604482015290519081900360640190fd5b604080518051918190860288015b8089101561433c578851825260209889019890910190614321565b50868152602080820160408181528484038301909420600c54636a93856760e01b9092526024840181905293519395506001600160a01b031692636a938567926044808201939291829003018186803b15801561439857600080fd5b505afa1580156143ac573d6000803e3d6000fd5b505050506040513d60208110156143c257600080fd5b5051614415576040805162461bcd60e51b815260206004820152601c60248201527f494e56414c4944415445445f4d45524b4c455f53544154454d454e5400000000604482015290519081900360640190fd5b509295945050505050565b6000806001601160c01b01600160fb1b0160088406156144715760405162461bcd60e51b81526004018080602001828103825260388152602001806147b96038913960400191505060405180910390fd5b61100084106144b15760405162461bcd60e51b815260040180806020018281038252602c81526020018061467b602c913960400191505060405180910390fd5b6020840286015b868111156145145760ff190181868181818181818a0960e0880151010960c0860151010960a08401510109608082015101925081868388858a878c8a0960608801510109604086015101096020840151010981510192506144b8565b5080828161451e57fe5b069695505050505050565b6040518060a00160405280600590602082028036833750919291505056fe50726f6f6673206d6179206e6f7420626520707572656c79206261736564206f6e20506f572e636c61696d6564436f6d706f736974696f6e20646f6573206e6f74206d617463682074726163654d617820737570706f727465642066726920737465702073697a6520697320342e6c6f674672694c6173744c61796572446567426f756e64206d757374206265206174206d6f73742031302e4d656d6f72792070616765206661637420776173206e6f7420726567697374657265642e6f757470757420626567696e5f61646472206d757374206265203c3d2073746f705f707472546f6f206d616e79207075626c6963206d656d6f727920656e747269657320696e206f6e6520706167652e4e756d626572206f662071756572696573206d757374206265206174206c65617374206f6e654e6f206d6f7265207468616e203430393620636f656666696369656e74732061726520737570706f7274656446726920706172616d7320646f206e6f74206d61746368207472616365206c656e6774684e756d626572206f662076616c756573206f66207075626c6963206d656d6f727920697320746f6f206c617267652e50726f6f6620706172616d7320646f206e6f74207361746973667920736563757269747920726571756972656d656e74732e4f6e6c792065746130203d3d20302069732063757272656e746c7920737570706f727465644d696e20737570706f727465642066726920737465702073697a6520697320322e6c6f67426c6f777570466163746f72206d757374206265206174206c6561737420316d696e696d756d2070726f6f664f66576f726b42697473206e6f74207361746973666965644e756d626572206f6620706f6c796e6f6d69616c20636f656666696369656e7473206d75737420626520646976697369626c6520627920386c6f67426c6f777570466163746f72206d757374206265206174206d6f737420313641646472657373206f6620706167652030206973206e6f742070617274206f6620746865207075626c696320696e7075742e70726f6f664f66576f726b42697473206d757374206265206174206d6f7374203530546865206e756d657261746f72206973206e6f7420646976697369626c65206279207468652064656e6f6d696e61746f722ea26469706673582212204752bcc88a00e1511d39613cee678aeef689fba16ff805fa7ddbca38b0c4e7bf64736f6c634300060c0033",
			"opcodes": "PUSH1 0xC0 PUSH1 0x40 MSTORE CALLVALUE DUP1 ISZERO PUSH3 0x11 JUMPI PUSH1 0x0 DUP1 REVERT JUMPDEST POP PUSH1 0x40 MLOAD PUSH3 0x4CCF CODESIZE SUB DUP1 PUSH3 0x4CCF DUP4 CODECOPY DUP2 DUP2 ADD PUSH1 0x40 MSTORE PUSH1 0xE0 DUP2 LT ISZERO PUSH3 0x37 JUMPI PUSH1 0x0 DUP1 REVERT JUMPDEST DUP2 ADD SWAP1 DUP1 DUP1 MLOAD PUSH1 0x40 MLOAD SWAP4 SWAP3 SWAP2 SWAP1 DUP5 PUSH5 0x100000000 DUP3 GT ISZERO PUSH3 0x58 JUMPI PUSH1 0x0 DUP1 REVERT JUMPDEST SWAP1 DUP4 ADD SWAP1 PUSH1 0x20 DUP3 ADD DUP6 DUP2 GT ISZERO PUSH3 0x6E JUMPI PUSH1 0x0 DUP1 REVERT JUMPDEST DUP3 MLOAD DUP7 PUSH1 0x20 DUP3 MUL DUP4 ADD GT PUSH5 0x100000000 DUP3 GT OR ISZERO PUSH3 0x8C JUMPI PUSH1 0x0 DUP1 REVERT JUMPDEST DUP3 MSTORE POP DUP2 MLOAD PUSH1 0x20 SWAP2 DUP3 ADD SWAP3 DUP3 ADD SWAP2 MUL DUP1 DUP4 DUP4 PUSH1 0x0 JUMPDEST DUP4 DUP2 LT ISZERO PUSH3 0xBB JUMPI DUP2 DUP2 ADD MLOAD DUP4 DUP3 ADD MSTORE PUSH1 0x20 ADD PUSH3 0xA1 JUMP JUMPDEST POP POP POP POP SWAP2 SWAP1 SWAP2 ADD PUSH1 0x40 SWAP1 DUP2 MSTORE PUSH1 0x20 DUP4 ADD MLOAD SWAP1 DUP4 ADD MLOAD PUSH1 0x60 DUP5 ADD MLOAD PUSH1 0x80 DUP1 DUP7 ADD MLOAD PUSH1 0xA0 DUP1 DUP9 ADD MLOAD PUSH1 0xC0 SWAP1 SWAP9 ADD MLOAD SWAP3 DUP9 SWAP1 MSTORE DUP3 SWAP1 MSTORE PUSH1 0x0 DUP1 SLOAD PUSH1 0x1 PUSH1 0x1 PUSH1 0xA0 SHL SUB NOT AND PUSH1 0x1 PUSH1 0x1 PUSH1 0xA0 SHL SUB DUP8 AND OR DUP2 SSTORE DUP11 MLOAD SWAP6 SWAP10 POP SWAP4 SWAP8 POP SWAP2 SWAP6 SWAP2 SWAP5 POP SWAP1 SWAP3 SWAP1 SWAP2 DUP5 SWAP2 DUP7 SWAP2 DUP11 SWAP2 DUP11 SWAP2 DUP11 SWAP2 DUP9 SWAP2 DUP9 SWAP2 DUP7 SWAP2 SWAP1 PUSH3 0x133 JUMPI INVALID JUMPDEST PUSH1 0x20 SWAP1 DUP2 MUL SWAP2 SWAP1 SWAP2 ADD ADD MLOAD PUSH1 0xA DUP1 SLOAD PUSH1 0x1 PUSH1 0x1 PUSH1 0xA0 SHL SUB NOT AND PUSH1 0x1 PUSH1 0x1 PUSH1 0xA0 SHL SUB SWAP1 SWAP3 AND SWAP2 SWAP1 SWAP2 OR SWAP1 SSTORE PUSH3 0x168 DUP6 PUSH3 0x1B9 JUMP JUMPDEST POP POP PUSH1 0xB DUP1 SLOAD PUSH1 0x1 PUSH1 0x1 PUSH1 0xA0 SHL SUB NOT SWAP1 DUP2 AND PUSH1 0x1 PUSH1 0x1 PUSH1 0xA0 SHL SUB SWAP4 DUP5 AND OR SWAP1 SWAP2 SSTORE PUSH1 0xC DUP1 SLOAD DUP3 AND SWAP6 DUP4 AND SWAP6 SWAP1 SWAP6 OR SWAP1 SWAP5 SSTORE PUSH1 0xD DUP1 SLOAD SWAP1 SWAP5 AND SWAP5 AND SWAP4 SWAP1 SWAP4 OR SWAP1 SWAP2 SSTORE POP PUSH3 0x3D8 SWAP8 POP POP POP POP POP POP POP POP JUMP JUMPDEST DUP1 PUSH1 0x1 DUP2 MLOAD DUP2 LT PUSH3 0x1C7 JUMPI INVALID JUMPDEST PUSH1 0x20 MUL PUSH1 0x20 ADD ADD MLOAD PUSH1 0x1 PUSH1 0x0 PUSH2 0x100 EXP DUP2 SLOAD DUP2 PUSH1 0x1 PUSH1 0x1 PUSH1 0xA0 SHL SUB MUL NOT AND SWAP1 DUP4 PUSH1 0x1 PUSH1 0x1 PUSH1 0xA0 SHL SUB AND MUL OR SWAP1 SSTORE POP DUP1 PUSH1 0x2 DUP2 MLOAD DUP2 LT PUSH3 0x203 JUMPI INVALID JUMPDEST PUSH1 0x20 MUL PUSH1 0x20 ADD ADD MLOAD PUSH1 0x2 PUSH1 0x0 PUSH2 0x100 EXP DUP2 SLOAD DUP2 PUSH1 0x1 PUSH1 0x1 PUSH1 0xA0 SHL SUB MUL NOT AND SWAP1 DUP4 PUSH1 0x1 PUSH1 0x1 PUSH1 0xA0 SHL SUB AND MUL OR SWAP1 SSTORE POP DUP1 PUSH1 0x3 DUP2 MLOAD DUP2 LT PUSH3 0x23F JUMPI INVALID JUMPDEST PUSH1 0x20 MUL PUSH1 0x20 ADD ADD MLOAD PUSH1 0x3 PUSH1 0x0 PUSH2 0x100 EXP DUP2 SLOAD DUP2 PUSH1 0x1 PUSH1 0x1 PUSH1 0xA0 SHL SUB MUL NOT AND SWAP1 DUP4 PUSH1 0x1 PUSH1 0x1 PUSH1 0xA0 SHL SUB AND MUL OR SWAP1 SSTORE POP DUP1 PUSH1 0x4 DUP2 MLOAD DUP2 LT PUSH3 0x27B JUMPI INVALID JUMPDEST PUSH1 0x20 MUL PUSH1 0x20 ADD ADD MLOAD PUSH1 0x4 PUSH1 0x0 PUSH2 0x100 EXP DUP2 SLOAD DUP2 PUSH1 0x1 PUSH1 0x1 PUSH1 0xA0 SHL SUB MUL NOT AND SWAP1 DUP4 PUSH1 0x1 PUSH1 0x1 PUSH1 0xA0 SHL SUB AND MUL OR SWAP1 SSTORE POP DUP1 PUSH1 0x5 DUP2 MLOAD DUP2 LT PUSH3 0x2B7 JUMPI INVALID JUMPDEST PUSH1 0x20 MUL PUSH1 0x20 ADD ADD MLOAD PUSH1 0x5 PUSH1 0x0 PUSH2 0x100 EXP DUP2 SLOAD DUP2 PUSH1 0x1 PUSH1 0x1 PUSH1 0xA0 SHL SUB MUL NOT AND SWAP1 DUP4 PUSH1 0x1 PUSH1 0x1 PUSH1 0xA0 SHL SUB AND MUL OR SWAP1 SSTORE POP DUP1 PUSH1 0x6 DUP2 MLOAD DUP2 LT PUSH3 0x2F3 JUMPI INVALID JUMPDEST PUSH1 0x20 MUL PUSH1 0x20 ADD ADD MLOAD PUSH1 0x6 PUSH1 0x0 PUSH2 0x100 EXP DUP2 SLOAD DUP2 PUSH1 0x1 PUSH1 0x1 PUSH1 0xA0 SHL SUB MUL NOT AND SWAP1 DUP4 PUSH1 0x1 PUSH1 0x1 PUSH1 0xA0 SHL SUB AND MUL OR SWAP1 SSTORE POP DUP1 PUSH1 0x7 DUP2 MLOAD DUP2 LT PUSH3 0x32F JUMPI INVALID JUMPDEST PUSH1 0x20 MUL PUSH1 0x20 ADD ADD MLOAD PUSH1 0x7 PUSH1 0x0 PUSH2 0x100 EXP DUP2 SLOAD DUP2 PUSH1 0x1 PUSH1 0x1 PUSH1 0xA0 SHL SUB MUL NOT AND SWAP1 DUP4 PUSH1 0x1 PUSH1 0x1 PUSH1 0xA0 SHL SUB AND MUL OR SWAP1 SSTORE POP DUP1 PUSH1 0x8 DUP2 MLOAD DUP2 LT PUSH3 0x36B JUMPI INVALID JUMPDEST PUSH1 0x20 MUL PUSH1 0x20 ADD ADD MLOAD PUSH1 0x8 PUSH1 0x0 PUSH2 0x100 EXP DUP2 SLOAD DUP2 PUSH1 0x1 PUSH1 0x1 PUSH1 0xA0 SHL SUB MUL NOT AND SWAP1 DUP4 PUSH1 0x1 PUSH1 0x1 PUSH1 0xA0 SHL SUB AND MUL OR SWAP1 SSTORE POP DUP1 PUSH1 0x9 DUP2 MLOAD DUP2 LT PUSH3 0x3A7 JUMPI INVALID JUMPDEST PUSH1 0x20 MUL PUSH1 0x20 ADD ADD MLOAD PUSH1 0x9 PUSH1 0x0 PUSH2 0x100 EXP DUP2 SLOAD DUP2 PUSH1 0x1 PUSH1 0x1 PUSH1 0xA0 SHL SUB MUL NOT AND SWAP1 DUP4 PUSH1 0x1 PUSH1 0x1 PUSH1 0xA0 SHL SUB AND MUL OR SWAP1 SSTORE POP POP JUMP JUMPDEST PUSH1 0x80 MLOAD PUSH1 0xA0 MLOAD PUSH2 0x48CE PUSH3 0x401 PUSH1 0x0 CODECOPY DUP1 PUSH2 0xD78 MSTORE POP DUP1 PUSH2 0xDD7 MSTORE DUP1 PUSH2 0x110B MSTORE POP PUSH2 0x48CE PUSH1 0x0 RETURN INVALID PUSH1 0x80 PUSH1 0x40 MSTORE CALLVALUE DUP1 ISZERO PUSH2 0x10 JUMPI PUSH1 0x0 DUP1 REVERT JUMPDEST POP PUSH1 0x4 CALLDATASIZE LT PUSH2 0x93 JUMPI PUSH1 0x0 CALLDATALOAD PUSH1 0xE0 SHR DUP1 PUSH4 0x4C14A6F9 GT PUSH2 0x66 JUMPI DUP1 PUSH4 0x4C14A6F9 EQ PUSH2 0x28C JUMPI DUP1 PUSH4 0x5B4C41C2 EQ PUSH2 0x294 JUMPI DUP1 PUSH4 0x8080FDFB EQ PUSH2 0x29C JUMPI DUP1 PUSH4 0xB7A771F7 EQ PUSH2 0x2BD JUMPI DUP1 PUSH4 0xE5B62B29 EQ PUSH2 0x2C5 JUMPI PUSH2 0x93 JUMP JUMPDEST DUP1 PUSH4 0x12B3CBEE EQ PUSH2 0x98 JUMPI DUP1 PUSH4 0x1CB7DD79 EQ PUSH2 0xC3 JUMPI DUP1 PUSH4 0x29E10520 EQ PUSH2 0x1D1 JUMPI DUP1 PUSH4 0x45819B59 EQ PUSH2 0x1EB JUMPI JUMPDEST PUSH1 0x0 DUP1 REVERT JUMPDEST PUSH2 0xC1 PUSH1 0x4 DUP1 CALLDATASIZE SUB PUSH1 0x60 DUP2 LT ISZERO PUSH2 0xAE JUMPI PUSH1 0x0 DUP1 REVERT JUMPDEST POP DUP1 CALLDATALOAD SWAP1 PUSH1 0x20 DUP2 ADD CALLDATALOAD SWAP1 PUSH1 0x40 ADD CALLDATALOAD PUSH2 0x2CD JUMP JUMPDEST STOP JUMPDEST PUSH2 0xC1 PUSH1 0x4 DUP1 CALLDATASIZE SUB PUSH1 0x60 DUP2 LT ISZERO PUSH2 0xD9 JUMPI PUSH1 0x0 DUP1 REVERT JUMPDEST DUP2 ADD SWAP1 PUSH1 0x20 DUP2 ADD DUP2 CALLDATALOAD PUSH1 0x1 PUSH1 0x20 SHL DUP2 GT ISZERO PUSH2 0xF3 JUMPI PUSH1 0x0 DUP1 REVERT JUMPDEST DUP3 ADD DUP4 PUSH1 0x20 DUP3 ADD GT ISZERO PUSH2 0x105 JUMPI PUSH1 0x0 DUP1 REVERT JUMPDEST DUP1 CALLDATALOAD SWAP1 PUSH1 0x20 ADD SWAP2 DUP5 PUSH1 0x20 DUP4 MUL DUP5 ADD GT PUSH1 0x1 PUSH1 0x20 SHL DUP4 GT OR ISZERO PUSH2 0x126 JUMPI PUSH1 0x0 DUP1 REVERT JUMPDEST SWAP2 SWAP4 SWAP1 SWAP3 SWAP1 SWAP2 PUSH1 0x20 DUP2 ADD SWAP1 CALLDATALOAD PUSH1 0x1 PUSH1 0x20 SHL DUP2 GT ISZERO PUSH2 0x143 JUMPI PUSH1 0x0 DUP1 REVERT JUMPDEST DUP3 ADD DUP4 PUSH1 0x20 DUP3 ADD GT ISZERO PUSH2 0x155 JUMPI PUSH1 0x0 DUP1 REVERT JUMPDEST DUP1 CALLDATALOAD SWAP1 PUSH1 0x20 ADD SWAP2 DUP5 PUSH1 0x20 DUP4 MUL DUP5 ADD GT PUSH1 0x1 PUSH1 0x20 SHL DUP4 GT OR ISZERO PUSH2 0x176 JUMPI PUSH1 0x0 DUP1 REVERT JUMPDEST SWAP2 SWAP4 SWAP1 SWAP3 SWAP1 SWAP2 PUSH1 0x20 DUP2 ADD SWAP1 CALLDATALOAD PUSH1 0x1 PUSH1 0x20 SHL DUP2 GT ISZERO PUSH2 0x193 JUMPI PUSH1 0x0 DUP1 REVERT JUMPDEST DUP3 ADD DUP4 PUSH1 0x20 DUP3 ADD GT ISZERO PUSH2 0x1A5 JUMPI PUSH1 0x0 DUP1 REVERT JUMPDEST DUP1 CALLDATALOAD SWAP1 PUSH1 0x20 ADD SWAP2 DUP5 PUSH1 0x20 DUP4 MUL DUP5 ADD GT PUSH1 0x1 PUSH1 0x20 SHL DUP4 GT OR ISZERO PUSH2 0x1C6 JUMPI PUSH1 0x0 DUP1 REVERT JUMPDEST POP SWAP1 SWAP3 POP SWAP1 POP PUSH2 0x39F JUMP JUMPDEST PUSH2 0x1D9 PUSH2 0x471 JUMP JUMPDEST PUSH1 0x40 DUP1 MLOAD SWAP2 DUP3 MSTORE MLOAD SWAP1 DUP2 SWAP1 SUB PUSH1 0x20 ADD SWAP1 RETURN JUMPDEST PUSH2 0x1D9 PUSH1 0x4 DUP1 CALLDATASIZE SUB PUSH1 0x20 DUP2 LT ISZERO PUSH2 0x201 JUMPI PUSH1 0x0 DUP1 REVERT JUMPDEST DUP2 ADD SWAP1 PUSH1 0x20 DUP2 ADD DUP2 CALLDATALOAD PUSH1 0x1 PUSH1 0x20 SHL DUP2 GT ISZERO PUSH2 0x21B JUMPI PUSH1 0x0 DUP1 REVERT JUMPDEST DUP3 ADD DUP4 PUSH1 0x20 DUP3 ADD GT ISZERO PUSH2 0x22D JUMPI PUSH1 0x0 DUP1 REVERT JUMPDEST DUP1 CALLDATALOAD SWAP1 PUSH1 0x20 ADD SWAP2 DUP5 PUSH1 0x20 DUP4 MUL DUP5 ADD GT PUSH1 0x1 PUSH1 0x20 SHL DUP4 GT OR ISZERO PUSH2 0x24E JUMPI PUSH1 0x0 DUP1 REVERT JUMPDEST SWAP2 SWAP1 DUP1 DUP1 PUSH1 0x20 MUL PUSH1 0x20 ADD PUSH1 0x40 MLOAD SWAP1 DUP2 ADD PUSH1 0x40 MSTORE DUP1 SWAP4 SWAP3 SWAP2 SWAP1 DUP2 DUP2 MSTORE PUSH1 0x20 ADD DUP4 DUP4 PUSH1 0x20 MUL DUP1 DUP3 DUP5 CALLDATACOPY PUSH1 0x0 SWAP3 ADD SWAP2 SWAP1 SWAP2 MSTORE POP SWAP3 SWAP6 POP PUSH2 0x476 SWAP5 POP POP POP POP POP JUMP JUMPDEST PUSH2 0x1D9 PUSH2 0x4AF JUMP JUMPDEST PUSH2 0x1D9 PUSH2 0x4B4 JUMP JUMPDEST PUSH2 0x2A4 PUSH2 0x4B9 JUMP JUMPDEST PUSH1 0x40 DUP1 MLOAD SWAP3 DUP4 MSTORE PUSH1 0x20 DUP4 ADD SWAP2 SWAP1 SWAP2 MSTORE DUP1 MLOAD SWAP2 DUP3 SWAP1 SUB ADD SWAP1 RETURN JUMPDEST PUSH2 0x1D9 PUSH2 0x4C1 JUMP JUMPDEST PUSH2 0x1D9 PUSH2 0x4C6 JUMP JUMPDEST PUSH4 0x1000000 DUP3 LT PUSH2 0x325 JUMPI PUSH1 0x40 DUP1 MLOAD PUSH3 0x461BCD PUSH1 0xE5 SHL DUP2 MSTORE PUSH1 0x20 PUSH1 0x4 DUP3 ADD MSTORE PUSH1 0x1B PUSH1 0x24 DUP3 ADD MSTORE PUSH32 0x4F766572666C6F772070726F74656374696F6E206661696C65642E0000000000 PUSH1 0x44 DUP3 ADD MSTORE SWAP1 MLOAD SWAP1 DUP2 SWAP1 SUB PUSH1 0x64 ADD SWAP1 REVERT JUMPDEST PUSH1 0x1F PUSH8 0xF80000000000020F PUSH1 0xC0 SHL ADD PUSH1 0x20 DUP5 ADD PUSH1 0x40 DUP6 ADD PUSH1 0x20 DUP6 MUL DUP5 ADD JUMPDEST DUP1 DUP6 LT ISZERO PUSH2 0x396 JUMPI DUP4 JUMPDEST DUP5 DUP2 LT PUSH2 0x365 JUMPI POP PUSH1 0x40 DUP4 KECCAK256 DUP3 MLOAD PUSH1 0x1 ADD DUP4 MSTORE PUSH2 0x34D JUMP JUMPDEST PUSH1 0x1 PUSH1 0x11 PUSH1 0xC0 SHL ADD PUSH1 0x1 PUSH1 0xFB SHL ADD PUSH15 0x400000000000011000000000000121 PUSH1 0x80 SHL DUP3 MULMOD DUP7 MSTORE POP PUSH1 0x20 DUP6 ADD SWAP5 POP PUSH2 0x343 JUMP JUMPDEST POP POP POP POP POP POP POP JUMP JUMPDEST PUSH2 0x3CB PUSH1 0x40 MLOAD DUP1 PUSH1 0x40 ADD PUSH1 0x40 MSTORE DUP1 PUSH1 0xB DUP2 MSTORE PUSH1 0x20 ADD PUSH11 0x21B83AAB32B934B334B2B9 PUSH1 0xA9 SHL DUP2 MSTORE POP PUSH2 0x4CB JUMP JUMPDEST PUSH2 0x469 DUP7 DUP7 DUP1 DUP1 PUSH1 0x20 MUL PUSH1 0x20 ADD PUSH1 0x40 MLOAD SWAP1 DUP2 ADD PUSH1 0x40 MSTORE DUP1 SWAP4 SWAP3 SWAP2 SWAP1 DUP2 DUP2 MSTORE PUSH1 0x20 ADD DUP4 DUP4 PUSH1 0x20 MUL DUP1 DUP3 DUP5 CALLDATACOPY PUSH1 0x0 SWAP3 ADD SWAP2 SWAP1 SWAP2 MSTORE POP POP PUSH1 0x40 DUP1 MLOAD PUSH1 0x20 DUP1 DUP11 MUL DUP3 DUP2 ADD DUP3 ADD SWAP1 SWAP4 MSTORE DUP10 DUP3 MSTORE SWAP1 SWAP4 POP DUP10 SWAP3 POP DUP9 SWAP2 DUP3 SWAP2 DUP6 ADD SWAP1 DUP5 SWAP1 DUP1 DUP3 DUP5 CALLDATACOPY PUSH1 0x0 SWAP3 ADD SWAP2 SWAP1 SWAP2 MSTORE POP POP PUSH1 0x40 DUP1 MLOAD PUSH1 0x20 DUP1 DUP10 MUL DUP3 DUP2 ADD DUP3 ADD SWAP1 SWAP4 MSTORE DUP9 DUP3 MSTORE SWAP1 SWAP4 POP DUP9 SWAP3 POP DUP8 SWAP2 DUP3 SWAP2 DUP6 ADD SWAP1 DUP5 SWAP1 DUP1 DUP3 DUP5 CALLDATACOPY PUSH1 0x0 SWAP3 ADD SWAP2 SWAP1 SWAP2 MSTORE POP PUSH2 0x574 SWAP3 POP POP POP JUMP JUMPDEST POP POP POP POP POP POP JUMP JUMPDEST PUSH1 0x2 DUP2 JUMP JUMPDEST PUSH1 0x0 DUP1 DUP3 PUSH1 0x18 DUP2 MLOAD DUP2 LT PUSH2 0x486 JUMPI INVALID JUMPDEST PUSH1 0x20 MUL PUSH1 0x20 ADD ADD MLOAD SWAP1 POP PUSH1 0x0 PUSH2 0x49D PUSH1 0x0 DUP4 PUSH2 0xB96 JUMP JUMPDEST PUSH1 0x20 SWAP1 DUP2 MUL SWAP5 ADD SWAP4 SWAP1 SWAP4 KECCAK256 SWAP4 SWAP3 POP POP POP JUMP JUMPDEST PUSH1 0x3 DUP2 JUMP JUMPDEST PUSH1 0x1 DUP2 JUMP JUMPDEST PUSH1 0x18 SWAP1 PUSH1 0xBF SWAP1 JUMP JUMPDEST PUSH1 0x60 DUP2 JUMP JUMPDEST PUSH1 0x0 DUP2 JUMP JUMPDEST PUSH2 0x571 DUP2 PUSH1 0x40 MLOAD PUSH1 0x24 ADD DUP1 DUP1 PUSH1 0x20 ADD DUP3 DUP2 SUB DUP3 MSTORE DUP4 DUP2 DUP2 MLOAD DUP2 MSTORE PUSH1 0x20 ADD SWAP2 POP DUP1 MLOAD SWAP1 PUSH1 0x20 ADD SWAP1 DUP1 DUP4 DUP4 PUSH1 0x0 JUMPDEST DUP4 DUP2 LT ISZERO PUSH2 0x50F JUMPI DUP2 DUP2 ADD MLOAD DUP4 DUP3 ADD MSTORE PUSH1 0x20 ADD PUSH2 0x4F7 JUMP JUMPDEST POP POP POP POP SWAP1 POP SWAP1 DUP2 ADD SWAP1 PUSH1 0x1F AND DUP1 ISZERO PUSH2 0x53C JUMPI DUP1 DUP3 SUB DUP1 MLOAD PUSH1 0x1 DUP4 PUSH1 0x20 SUB PUSH2 0x100 EXP SUB NOT AND DUP2 MSTORE PUSH1 0x20 ADD SWAP2 POP JUMPDEST POP PUSH1 0x40 DUP1 MLOAD PUSH1 0x1F NOT DUP2 DUP5 SUB ADD DUP2 MSTORE SWAP2 SWAP1 MSTORE PUSH1 0x20 DUP2 ADD DUP1 MLOAD PUSH1 0x1 PUSH1 0x1 PUSH1 0xE0 SHL SUB AND PUSH4 0x104C13EB PUSH1 0xE2 SHL OR SWAP1 MSTORE SWAP3 POP PUSH2 0xBB1 SWAP2 POP POP JUMP JUMPDEST POP JUMP JUMPDEST PUSH2 0x59B PUSH1 0x40 MLOAD DUP1 PUSH1 0x40 ADD PUSH1 0x40 MSTORE DUP1 PUSH1 0x6 DUP2 MSTORE PUSH1 0x20 ADD PUSH6 0x746573742031 PUSH1 0xD0 SHL DUP2 MSTORE POP PUSH2 0x4CB JUMP JUMPDEST PUSH1 0x60 PUSH2 0x5A7 DUP3 DUP6 PUSH2 0xBD2 JUMP JUMPDEST SWAP1 POP PUSH2 0x5D0 PUSH1 0x40 MLOAD DUP1 PUSH1 0x40 ADD PUSH1 0x40 MSTORE DUP1 PUSH1 0x6 DUP2 MSTORE PUSH1 0x20 ADD PUSH6 0x3A32B9BA1019 PUSH1 0xD1 SHL DUP2 MSTORE POP PUSH2 0x4CB JUMP JUMPDEST PUSH1 0x0 PUSH2 0x5DB DUP3 PUSH2 0x1270 JUMP JUMPDEST SWAP1 POP PUSH2 0x604 PUSH1 0x40 MLOAD DUP1 PUSH1 0x40 ADD PUSH1 0x40 MSTORE DUP1 PUSH1 0x6 DUP2 MSTORE PUSH1 0x20 ADD PUSH6 0x746573742033 PUSH1 0xD0 SHL DUP2 MSTORE POP PUSH2 0x4CB JUMP JUMPDEST PUSH1 0x0 PUSH2 0x60F DUP5 PUSH2 0x476 JUMP JUMPDEST SWAP1 POP PUSH2 0x638 PUSH1 0x40 MLOAD DUP1 PUSH1 0x40 ADD PUSH1 0x40 MSTORE DUP1 PUSH1 0x6 DUP2 MSTORE PUSH1 0x20 ADD PUSH6 0x1D195CDD080D PUSH1 0xD2 SHL DUP2 MSTORE POP PUSH2 0x4CB JUMP JUMPDEST PUSH2 0x64B DUP3 PUSH2 0x645 DUP8 PUSH2 0x1277 JUMP JUMPDEST DUP4 PUSH2 0x127A JUMP JUMPDEST PUSH2 0x672 PUSH1 0x40 MLOAD DUP1 PUSH1 0x40 ADD PUSH1 0x40 MSTORE DUP1 PUSH1 0x6 DUP2 MSTORE PUSH1 0x20 ADD PUSH6 0x746573742035 PUSH1 0xD0 SHL DUP2 MSTORE POP PUSH2 0x4CB JUMP JUMPDEST PUSH2 0x67D DUP3 PUSH1 0x1 PUSH2 0x1297 JUMP JUMPDEST PUSH1 0x0 SHR DUP4 PUSH1 0x6 DUP2 MLOAD DUP2 LT PUSH2 0x68D JUMPI INVALID JUMPDEST PUSH1 0x20 MUL PUSH1 0x20 ADD ADD DUP2 DUP2 MSTORE POP POP PUSH2 0x6C0 PUSH1 0x40 MLOAD DUP1 PUSH1 0x40 ADD PUSH1 0x40 MSTORE DUP1 PUSH1 0x6 DUP2 MSTORE PUSH1 0x20 ADD PUSH6 0x3A32B9BA101B PUSH1 0xD1 SHL DUP2 MSTORE POP PUSH2 0x4CB JUMP JUMPDEST PUSH2 0x6C8 PUSH2 0x12AC JUMP JUMPDEST ISZERO PUSH2 0x763 JUMPI PUSH2 0x6EF DUP3 PUSH2 0x6D9 PUSH2 0x12BD JUMP JUMPDEST PUSH2 0x6EA DUP7 PUSH2 0x6E5 PUSH2 0x12C2 JUMP JUMPDEST PUSH2 0x12C8 JUMP JUMPDEST PUSH2 0x2CD JUMP JUMPDEST PUSH2 0x716 PUSH1 0x40 MLOAD DUP1 PUSH1 0x40 ADD PUSH1 0x40 MSTORE DUP1 PUSH1 0x6 DUP2 MSTORE PUSH1 0x20 ADD PUSH6 0x746573742037 PUSH1 0xD0 SHL DUP2 MSTORE POP PUSH2 0x4CB JUMP JUMPDEST PUSH2 0x721 DUP3 PUSH1 0x1 PUSH2 0x1297 JUMP JUMPDEST DUP4 MLOAD DUP5 SWAP1 PUSH1 0x7 SWAP1 DUP2 LT PUSH2 0x730 JUMPI INVALID JUMPDEST PUSH1 0x20 MUL PUSH1 0x20 ADD ADD DUP2 DUP2 MSTORE POP POP PUSH2 0x763 PUSH1 0x40 MLOAD DUP1 PUSH1 0x40 ADD PUSH1 0x40 MSTORE DUP1 PUSH1 0x6 DUP2 MSTORE PUSH1 0x20 ADD PUSH6 0xE8CAE6E8407 PUSH1 0xD3 SHL DUP2 MSTORE POP PUSH2 0x4CB JUMP JUMPDEST PUSH2 0x775 DUP3 PUSH1 0x1 PUSH2 0x6EA DUP7 PUSH2 0x16F PUSH2 0x12C8 JUMP JUMPDEST PUSH2 0x79C PUSH1 0x40 MLOAD DUP1 PUSH1 0x40 ADD PUSH1 0x40 MSTORE DUP1 PUSH1 0x6 DUP2 MSTORE PUSH1 0x20 ADD PUSH6 0x746573742039 PUSH1 0xD0 SHL DUP2 MSTORE POP PUSH2 0x4CB JUMP JUMPDEST PUSH2 0x7A7 DUP3 PUSH1 0x1 PUSH2 0x1297 JUMP JUMPDEST PUSH1 0x0 SHR DUP4 PUSH1 0x8 DUP2 MLOAD DUP2 LT PUSH2 0x7B7 JUMPI INVALID JUMPDEST PUSH1 0x20 MUL PUSH1 0x20 ADD ADD DUP2 DUP2 MSTORE POP POP PUSH2 0x7EB PUSH1 0x40 MLOAD DUP1 PUSH1 0x40 ADD PUSH1 0x40 MSTORE DUP1 PUSH1 0x7 DUP2 MSTORE PUSH1 0x20 ADD PUSH7 0x7465737420313 PUSH1 0xCC SHL DUP2 MSTORE POP PUSH2 0x4CB JUMP JUMPDEST PUSH2 0x7FD DUP3 PUSH1 0x1 PUSH2 0x6EA DUP7 PUSH2 0x168 PUSH2 0x12C8 JUMP JUMPDEST PUSH2 0x825 PUSH1 0x40 MLOAD DUP1 PUSH1 0x40 ADD PUSH1 0x40 MSTORE DUP1 PUSH1 0x7 DUP2 MSTORE PUSH1 0x20 ADD PUSH7 0x74657374203131 PUSH1 0xC8 SHL DUP2 MSTORE POP PUSH2 0x4CB JUMP JUMPDEST PUSH1 0x0 PUSH2 0x82F PUSH2 0x1330 JUMP JUMPDEST SWAP1 POP DUP1 JUMPDEST PUSH2 0x83B PUSH2 0x1336 JUMP JUMPDEST DUP3 ADD DUP2 LT ISZERO PUSH2 0x86E JUMPI PUSH2 0x84F DUP5 PUSH1 0x1 PUSH2 0x133C JUMP JUMPDEST DUP6 DUP3 DUP2 MLOAD DUP2 LT PUSH2 0x85B JUMPI INVALID JUMPDEST PUSH1 0x20 SWAP1 DUP2 MUL SWAP2 SWAP1 SWAP2 ADD ADD MSTORE PUSH1 0x1 ADD PUSH2 0x833 JUMP JUMPDEST POP PUSH2 0x897 PUSH1 0x40 MLOAD DUP1 PUSH1 0x40 ADD PUSH1 0x40 MSTORE DUP1 PUSH1 0x7 DUP2 MSTORE PUSH1 0x20 ADD PUSH7 0x3A32B9BA101899 PUSH1 0xC9 SHL DUP2 MSTORE POP PUSH2 0x4CB JUMP JUMPDEST PUSH2 0x8A0 DUP5 PUSH2 0x1351 JUMP JUMPDEST PUSH2 0x8C8 PUSH1 0x40 MLOAD DUP1 PUSH1 0x40 ADD PUSH1 0x40 MSTORE DUP1 PUSH1 0x7 DUP2 MSTORE PUSH1 0x20 ADD PUSH7 0x74657374203133 PUSH1 0xC8 SHL DUP2 MSTORE POP PUSH2 0x4CB JUMP JUMPDEST PUSH2 0x8DA DUP4 PUSH1 0x1 PUSH2 0x6EA DUP8 PUSH2 0x2AF PUSH2 0x12C8 JUMP JUMPDEST PUSH2 0x902 PUSH1 0x40 MLOAD DUP1 PUSH1 0x40 ADD PUSH1 0x40 MSTORE DUP1 PUSH1 0x7 DUP2 MSTORE PUSH1 0x20 ADD PUSH7 0x1D195CDD080C4D PUSH1 0xCA SHL DUP2 MSTORE POP PUSH2 0x4CB JUMP JUMPDEST PUSH2 0x90D DUP4 PUSH1 0x1 PUSH2 0x1297 JUMP JUMPDEST PUSH1 0x0 SHR DUP5 PUSH2 0x131 DUP2 MLOAD DUP2 LT PUSH2 0x91E JUMPI INVALID JUMPDEST PUSH1 0x20 MUL PUSH1 0x20 ADD ADD DUP2 DUP2 MSTORE POP POP PUSH2 0x952 PUSH1 0x40 MLOAD DUP1 PUSH1 0x40 ADD PUSH1 0x40 MSTORE DUP1 PUSH1 0x7 DUP2 MSTORE PUSH1 0x20 ADD PUSH7 0x74657374203135 PUSH1 0xC8 SHL DUP2 MSTORE POP PUSH2 0x4CB JUMP JUMPDEST PUSH1 0x0 PUSH2 0x95D DUP6 PUSH2 0x14F3 JUMP JUMPDEST MLOAD SWAP1 POP PUSH1 0x0 PUSH2 0x96E DUP7 PUSH2 0x127 PUSH2 0x12C8 JUMP JUMPDEST SWAP1 POP PUSH1 0x1 JUMPDEST PUSH1 0x1 DUP4 SUB DUP2 LT ISZERO PUSH2 0x9C0 JUMPI PUSH2 0x98F DUP7 PUSH1 0x1 DUP4 PUSH1 0x20 MUL DUP6 ADD PUSH2 0x2CD JUMP JUMPDEST PUSH2 0x99A DUP7 PUSH1 0x1 PUSH2 0x1297 JUMP JUMPDEST PUSH1 0x0 SHR DUP8 DUP3 PUSH2 0x131 ADD DUP2 MLOAD DUP2 LT PUSH2 0x9AD JUMPI INVALID JUMPDEST PUSH1 0x20 SWAP1 DUP2 MUL SWAP2 SWAP1 SWAP2 ADD ADD MSTORE PUSH1 0x1 ADD PUSH2 0x973 JUMP JUMPDEST POP PUSH2 0x9E9 PUSH1 0x40 MLOAD DUP1 PUSH1 0x40 ADD PUSH1 0x40 MSTORE DUP1 PUSH1 0x7 DUP2 MSTORE PUSH1 0x20 ADD PUSH7 0x3A32B9BA10189B PUSH1 0xC9 SHL DUP2 MSTORE POP PUSH2 0x4CB JUMP JUMPDEST PUSH2 0x9FD DUP6 PUSH1 0x1 PUSH2 0x6EA DUP10 PUSH2 0x126 DUP8 ADD PUSH2 0x12C8 JUMP JUMPDEST PUSH2 0xA25 PUSH1 0x40 MLOAD DUP1 PUSH1 0x40 ADD PUSH1 0x40 MSTORE DUP1 PUSH1 0x7 DUP2 MSTORE PUSH1 0x20 ADD PUSH7 0x74657374203137 PUSH1 0xC8 SHL DUP2 MSTORE POP PUSH2 0x4CB JUMP JUMPDEST PUSH2 0xA2E DUP7 PUSH2 0x150B JUMP JUMPDEST PUSH2 0xA56 PUSH1 0x40 MLOAD DUP1 PUSH1 0x40 ADD PUSH1 0x40 MSTORE DUP1 PUSH1 0x7 DUP2 MSTORE PUSH1 0x20 ADD PUSH7 0xE8CAE6E840627 PUSH1 0xCB SHL DUP2 MSTORE POP PUSH2 0x4CB JUMP JUMPDEST PUSH2 0xA74 DUP6 DUP8 PUSH1 0x3 DUP2 MLOAD DUP2 LT PUSH2 0xA67 JUMPI INVALID JUMPDEST PUSH1 0x20 MUL PUSH1 0x20 ADD ADD MLOAD PUSH2 0x161D JUMP JUMPDEST PUSH2 0xA9C PUSH1 0x40 MLOAD DUP1 PUSH1 0x40 ADD PUSH1 0x40 MSTORE DUP1 PUSH1 0x7 DUP2 MSTORE PUSH1 0x20 ADD PUSH7 0x74657374203139 PUSH1 0xC8 SHL DUP2 MSTORE POP PUSH2 0x4CB JUMP JUMPDEST PUSH2 0xADF DUP6 DUP8 PUSH1 0x9 DUP2 MLOAD DUP2 LT PUSH2 0xAAD JUMPI INVALID JUMPDEST PUSH1 0x20 MUL PUSH1 0x20 ADD ADD MLOAD PUSH1 0x1 DUP10 PUSH1 0x0 DUP2 MLOAD DUP2 LT PUSH2 0xAC4 JUMPI INVALID JUMPDEST PUSH1 0x20 MUL PUSH1 0x20 ADD ADD MLOAD SUB PUSH2 0xAD8 DUP11 PUSH1 0x6D PUSH2 0x12C8 JUMP JUMPDEST PUSH1 0x60 PUSH2 0x16EA JUMP JUMPDEST DUP7 PUSH1 0x9 DUP2 MLOAD DUP2 LT PUSH2 0xAEC JUMPI INVALID JUMPDEST PUSH1 0x20 MUL PUSH1 0x20 ADD ADD DUP2 DUP2 MSTORE POP POP PUSH2 0xB20 PUSH1 0x40 MLOAD DUP1 PUSH1 0x40 ADD PUSH1 0x40 MSTORE DUP1 PUSH1 0x7 DUP2 MSTORE PUSH1 0x20 ADD PUSH7 0x7465737420323 PUSH1 0xCC SHL DUP2 MSTORE POP PUSH2 0x4CB JUMP JUMPDEST PUSH2 0xB29 GAS PUSH2 0x17ED JUMP JUMPDEST PUSH2 0xB32 DUP7 PUSH2 0x182E JUMP JUMPDEST PUSH2 0xB5A PUSH1 0x40 MLOAD DUP1 PUSH1 0x40 ADD PUSH1 0x40 MSTORE DUP1 PUSH1 0x7 DUP2 MSTORE PUSH1 0x20 ADD PUSH7 0x74657374203231 PUSH1 0xC8 SHL DUP2 MSTORE POP PUSH2 0x4CB JUMP JUMPDEST PUSH2 0xB63 DUP7 PUSH2 0x1A65 JUMP JUMPDEST PUSH2 0xB8B PUSH1 0x40 MLOAD DUP1 PUSH1 0x40 ADD PUSH1 0x40 MSTORE DUP1 PUSH1 0x7 DUP2 MSTORE PUSH1 0x20 ADD PUSH7 0x3A32B9BA101919 PUSH1 0xC9 SHL DUP2 MSTORE POP PUSH2 0x4CB JUMP JUMPDEST POP POP POP POP POP POP POP POP POP JUMP JUMPDEST PUSH1 0x0 DUP3 PUSH1 0x1 DUP4 PUSH1 0x3 MUL PUSH2 0xBA7 PUSH2 0x1A6E JUMP JUMPDEST ADD SUB ADD SWAP4 SWAP3 POP POP POP JUMP JUMPDEST DUP1 MLOAD PUSH11 0x636F6E736F6C652E6C6F67 PUSH1 0x20 DUP4 ADD PUSH1 0x0 DUP1 DUP5 DUP4 DUP6 GAS STATICCALL POP POP POP POP POP JUMP JUMPDEST PUSH1 0x60 PUSH1 0x5 DUP3 MLOAD GT PUSH2 0xC21 JUMPI PUSH1 0x40 DUP1 MLOAD PUSH3 0x461BCD PUSH1 0xE5 SHL DUP2 MSTORE PUSH1 0x20 PUSH1 0x4 DUP3 ADD MSTORE PUSH1 0x14 PUSH1 0x24 DUP3 ADD MSTORE PUSH20 0x24B73B30B634B210383937B7B32830B930B6B997 PUSH1 0x61 SHL PUSH1 0x44 DUP3 ADD MSTORE SWAP1 MLOAD SWAP1 DUP2 SWAP1 SUB PUSH1 0x64 ADD SWAP1 REVERT JUMPDEST DUP2 PUSH1 0x4 DUP2 MLOAD DUP2 LT PUSH2 0xC2E JUMPI INVALID JUMPDEST PUSH1 0x20 MUL PUSH1 0x20 ADD ADD MLOAD PUSH1 0x5 ADD DUP3 MLOAD EQ PUSH2 0xC84 JUMPI PUSH1 0x40 DUP1 MLOAD PUSH3 0x461BCD PUSH1 0xE5 SHL DUP2 MSTORE PUSH1 0x20 PUSH1 0x4 DUP3 ADD MSTORE PUSH1 0x14 PUSH1 0x24 DUP3 ADD MSTORE PUSH20 0x24B73B30B634B210383937B7B32830B930B6B997 PUSH1 0x61 SHL PUSH1 0x44 DUP3 ADD MSTORE SWAP1 MLOAD SWAP1 DUP2 SWAP1 SUB PUSH1 0x64 ADD SWAP1 REVERT JUMPDEST PUSH1 0x0 DUP3 PUSH1 0x1 DUP2 MLOAD DUP2 LT PUSH2 0xC93 JUMPI INVALID JUMPDEST PUSH1 0x20 MUL PUSH1 0x20 ADD ADD MLOAD SWAP1 POP PUSH1 0x10 DUP2 GT ISZERO PUSH2 0xCDD JUMPI PUSH1 0x40 MLOAD PUSH3 0x461BCD PUSH1 0xE5 SHL DUP2 MSTORE PUSH1 0x4 ADD DUP1 DUP1 PUSH1 0x20 ADD DUP3 DUP2 SUB DUP3 MSTORE PUSH1 0x22 DUP2 MSTORE PUSH1 0x20 ADD DUP1 PUSH2 0x47F1 PUSH1 0x22 SWAP2 CODECOPY PUSH1 0x40 ADD SWAP2 POP POP PUSH1 0x40 MLOAD DUP1 SWAP2 SUB SWAP1 REVERT JUMPDEST PUSH1 0x1 DUP2 LT ISZERO PUSH2 0xD1D JUMPI PUSH1 0x40 MLOAD PUSH3 0x461BCD PUSH1 0xE5 SHL DUP2 MSTORE PUSH1 0x4 ADD DUP1 DUP1 PUSH1 0x20 ADD DUP3 DUP2 SUB DUP3 MSTORE PUSH1 0x22 DUP2 MSTORE PUSH1 0x20 ADD DUP1 PUSH2 0x4772 PUSH1 0x22 SWAP2 CODECOPY PUSH1 0x40 ADD SWAP2 POP POP PUSH1 0x40 MLOAD DUP1 SWAP2 SUB SWAP1 REVERT JUMPDEST PUSH1 0x0 DUP4 PUSH1 0x2 DUP2 MLOAD DUP2 LT PUSH2 0xD2C JUMPI INVALID JUMPDEST PUSH1 0x20 MUL PUSH1 0x20 ADD ADD MLOAD SWAP1 POP PUSH1 0x32 DUP2 GT ISZERO PUSH2 0xD76 JUMPI PUSH1 0x40 MLOAD PUSH3 0x461BCD PUSH1 0xE5 SHL DUP2 MSTORE PUSH1 0x4 ADD DUP1 DUP1 PUSH1 0x20 ADD DUP3 DUP2 SUB DUP3 MSTORE PUSH1 0x22 DUP2 MSTORE PUSH1 0x20 ADD DUP1 PUSH2 0x4845 PUSH1 0x22 SWAP2 CODECOPY PUSH1 0x40 ADD SWAP2 POP POP PUSH1 0x40 MLOAD DUP1 SWAP2 SUB SWAP1 REVERT JUMPDEST PUSH32 0x0 DUP2 LT ISZERO PUSH2 0xDD5 JUMPI PUSH1 0x40 MLOAD PUSH3 0x461BCD PUSH1 0xE5 SHL DUP2 MSTORE PUSH1 0x4 ADD DUP1 DUP1 PUSH1 0x20 ADD DUP3 DUP2 SUB DUP3 MSTORE PUSH1 0x25 DUP2 MSTORE PUSH1 0x20 ADD DUP1 PUSH2 0x4794 PUSH1 0x25 SWAP2 CODECOPY PUSH1 0x40 ADD SWAP2 POP POP PUSH1 0x40 MLOAD DUP1 SWAP2 SUB SWAP1 REVERT JUMPDEST PUSH32 0x0 DUP2 LT PUSH2 0xE33 JUMPI PUSH1 0x40 MLOAD PUSH3 0x461BCD PUSH1 0xE5 SHL DUP2 MSTORE PUSH1 0x4 ADD DUP1 DUP1 PUSH1 0x20 ADD DUP3 DUP2 SUB DUP3 MSTORE PUSH1 0x26 DUP2 MSTORE PUSH1 0x20 ADD DUP1 PUSH2 0x4548 PUSH1 0x26 SWAP2 CODECOPY PUSH1 0x40 ADD SWAP2 POP POP PUSH1 0x40 MLOAD DUP1 SWAP2 SUB SWAP1 REVERT JUMPDEST PUSH1 0x0 DUP5 PUSH1 0x3 DUP2 MLOAD DUP2 LT PUSH2 0xE42 JUMPI INVALID JUMPDEST PUSH1 0x20 MUL PUSH1 0x20 ADD ADD MLOAD SWAP1 POP PUSH1 0xA DUP2 GT ISZERO PUSH2 0xE8C JUMPI PUSH1 0x40 MLOAD PUSH3 0x461BCD PUSH1 0xE5 SHL DUP2 MSTORE PUSH1 0x4 ADD DUP1 DUP1 PUSH1 0x20 ADD DUP3 DUP2 SUB DUP3 MSTORE PUSH1 0x2B DUP2 MSTORE PUSH1 0x20 ADD DUP1 PUSH2 0x45B6 PUSH1 0x2B SWAP2 CODECOPY PUSH1 0x40 ADD SWAP2 POP POP PUSH1 0x40 MLOAD DUP1 SWAP2 SUB SWAP1 REVERT JUMPDEST PUSH1 0x0 DUP6 PUSH1 0x4 DUP2 MLOAD DUP2 LT PUSH2 0xE9B JUMPI INVALID JUMPDEST PUSH1 0x20 MUL PUSH1 0x20 ADD ADD MLOAD SWAP1 POP PUSH1 0xA DUP2 GT ISZERO PUSH2 0xEF1 JUMPI PUSH1 0x40 DUP1 MLOAD PUSH3 0x461BCD PUSH1 0xE5 SHL DUP2 MSTORE PUSH1 0x20 PUSH1 0x4 DUP3 ADD MSTORE PUSH1 0x13 PUSH1 0x24 DUP3 ADD MSTORE PUSH19 0x2A37B79036B0B73C903339349039BA32B83997 PUSH1 0x69 SHL PUSH1 0x44 DUP3 ADD MSTORE SWAP1 MLOAD SWAP1 DUP2 SWAP1 SUB PUSH1 0x64 ADD SWAP1 REVERT JUMPDEST PUSH1 0x1 DUP2 GT PUSH2 0xF3E JUMPI PUSH1 0x40 DUP1 MLOAD PUSH3 0x461BCD PUSH1 0xE5 SHL DUP2 MSTORE PUSH1 0x20 PUSH1 0x4 DUP3 ADD MSTORE PUSH1 0x15 PUSH1 0x24 DUP3 ADD MSTORE PUSH21 0x2737BA1032B737BAB3B4103339349039BA32B83997 PUSH1 0x59 SHL PUSH1 0x44 DUP3 ADD MSTORE SWAP1 MLOAD SWAP1 DUP2 SWAP1 SUB PUSH1 0x64 ADD SWAP1 REVERT JUMPDEST PUSH1 0x60 DUP2 PUSH8 0xFFFFFFFFFFFFFFFF DUP2 GT DUP1 ISZERO PUSH2 0xF57 JUMPI PUSH1 0x0 DUP1 REVERT JUMPDEST POP PUSH1 0x40 MLOAD SWAP1 DUP1 DUP3 MSTORE DUP1 PUSH1 0x20 MUL PUSH1 0x20 ADD DUP3 ADD PUSH1 0x40 MSTORE DUP1 ISZERO PUSH2 0xF81 JUMPI DUP2 PUSH1 0x20 ADD PUSH1 0x20 DUP3 MUL DUP1 CALLDATASIZE DUP4 CALLDATACOPY ADD SWAP1 POP JUMPDEST POP SWAP1 POP PUSH1 0x0 JUMPDEST DUP3 DUP2 LT ISZERO PUSH2 0xFC5 JUMPI DUP8 DUP2 PUSH1 0x5 ADD DUP2 MLOAD DUP2 LT PUSH2 0xF9E JUMPI INVALID JUMPDEST PUSH1 0x20 MUL PUSH1 0x20 ADD ADD MLOAD DUP3 DUP3 DUP2 MLOAD DUP2 LT PUSH2 0xFB2 JUMPI INVALID JUMPDEST PUSH1 0x20 SWAP1 DUP2 MUL SWAP2 SWAP1 SWAP2 ADD ADD MSTORE PUSH1 0x1 ADD PUSH2 0xF87 JUMP JUMPDEST POP PUSH1 0x0 PUSH2 0xFD1 DUP10 PUSH2 0x1A73 JUMP JUMPDEST SWAP1 SWAP8 POP SWAP1 POP PUSH2 0xFE1 DUP3 DUP3 DUP7 PUSH2 0x20EC JUMP JUMPDEST PUSH1 0x0 PUSH2 0xFEF DUP9 PUSH2 0x126 PUSH2 0x12C8 JUMP JUMPDEST SWAP1 POP DUP3 DUP2 MSTORE DUP5 PUSH1 0x2 EXP DUP9 PUSH2 0x13B DUP2 MLOAD DUP2 LT PUSH2 0x1006 JUMPI INVALID JUMPDEST PUSH1 0x20 MUL PUSH1 0x20 ADD ADD DUP2 DUP2 MSTORE POP POP DUP2 PUSH1 0x2 EXP DUP9 PUSH2 0x146 DUP2 MLOAD DUP2 LT PUSH2 0x1024 JUMPI INVALID JUMPDEST PUSH1 0x20 MUL PUSH1 0x20 ADD ADD DUP2 DUP2 MSTORE POP POP DUP7 PUSH1 0x2 EXP DUP9 PUSH1 0x1 DUP2 MLOAD DUP2 LT PUSH2 0x1041 JUMPI INVALID JUMPDEST PUSH1 0x20 MUL PUSH1 0x20 ADD ADD DUP2 DUP2 MSTORE POP POP DUP6 DUP9 PUSH1 0x3 DUP2 MLOAD DUP2 LT PUSH2 0x105B JUMPI INVALID JUMPDEST PUSH1 0x20 MUL PUSH1 0x20 ADD ADD DUP2 DUP2 MSTORE POP POP PUSH1 0x0 DUP10 PUSH1 0x0 DUP2 MLOAD DUP2 LT PUSH2 0x1076 JUMPI INVALID JUMPDEST PUSH1 0x20 MUL PUSH1 0x20 ADD ADD MLOAD SWAP1 POP PUSH1 0x0 DUP2 GT PUSH2 0x10BF JUMPI PUSH1 0x40 MLOAD PUSH3 0x461BCD PUSH1 0xE5 SHL DUP2 MSTORE PUSH1 0x4 ADD DUP1 DUP1 PUSH1 0x20 ADD DUP3 DUP2 SUB DUP3 MSTORE PUSH1 0x26 DUP2 MSTORE PUSH1 0x20 ADD DUP1 PUSH2 0x4655 PUSH1 0x26 SWAP2 CODECOPY PUSH1 0x40 ADD SWAP2 POP POP PUSH1 0x40 MLOAD DUP1 SWAP2 SUB SWAP1 REVERT JUMPDEST PUSH1 0x30 DUP2 GT ISZERO PUSH2 0x1109 JUMPI PUSH1 0x40 DUP1 MLOAD PUSH3 0x461BCD PUSH1 0xE5 SHL DUP2 MSTORE PUSH1 0x20 PUSH1 0x4 DUP3 ADD MSTORE PUSH1 0x11 PUSH1 0x24 DUP3 ADD MSTORE PUSH17 0x2A37B79036B0B73C9038BAB2B934B2B997 PUSH1 0x79 SHL PUSH1 0x44 DUP3 ADD MSTORE SWAP1 MLOAD SWAP1 DUP2 SWAP1 SUB PUSH1 0x64 ADD SWAP1 REVERT JUMPDEST PUSH32 0x0 DUP8 DUP10 DUP4 MUL ADD LT ISZERO PUSH2 0x116C JUMPI PUSH1 0x40 MLOAD PUSH3 0x461BCD PUSH1 0xE5 SHL DUP2 MSTORE PUSH1 0x4 ADD DUP1 DUP1 PUSH1 0x20 ADD DUP3 DUP2 SUB DUP3 MSTORE PUSH1 0x32 DUP2 MSTORE PUSH1 0x20 ADD DUP1 PUSH2 0x46FA PUSH1 0x32 SWAP2 CODECOPY PUSH1 0x40 ADD SWAP2 POP POP PUSH1 0x40 MLOAD DUP1 SWAP2 SUB SWAP1 REVERT JUMPDEST DUP1 DUP10 PUSH1 0x9 DUP2 MLOAD DUP2 LT PUSH2 0x117A JUMPI INVALID JUMPDEST PUSH1 0x20 MUL PUSH1 0x20 ADD ADD DUP2 DUP2 MSTORE POP POP DUP8 DUP4 ADD DUP10 PUSH1 0x2 DUP2 MLOAD DUP2 LT PUSH2 0x1196 JUMPI INVALID JUMPDEST PUSH1 0x20 MUL PUSH1 0x20 ADD ADD DUP2 DUP2 MSTORE POP POP DUP9 PUSH1 0x2 DUP2 MLOAD DUP2 LT PUSH2 0x11AF JUMPI INVALID JUMPDEST PUSH1 0x20 MUL PUSH1 0x20 ADD ADD MLOAD PUSH1 0x2 EXP DUP10 PUSH1 0x0 DUP2 MLOAD DUP2 LT PUSH2 0x11C7 JUMPI INVALID JUMPDEST PUSH1 0x20 MUL PUSH1 0x20 ADD ADD DUP2 DUP2 MSTORE POP POP PUSH1 0x0 PUSH2 0x120D PUSH1 0x3 DUP12 PUSH1 0x0 DUP2 MLOAD DUP2 LT PUSH2 0x11E7 JUMPI INVALID JUMPDEST PUSH1 0x20 MUL PUSH1 0x20 ADD ADD MLOAD PUSH1 0x1 PUSH1 0x1 PUSH1 0x11 PUSH1 0xC0 SHL ADD PUSH1 0x1 PUSH1 0xFB SHL ADD SUB DUP2 PUSH2 0x1207 JUMPI INVALID JUMPDEST DIV PUSH2 0x2232 JUMP JUMPDEST SWAP1 POP DUP1 DUP11 PUSH1 0x4 DUP2 MLOAD DUP2 LT PUSH2 0x121D JUMPI INVALID JUMPDEST PUSH1 0x20 MUL PUSH1 0x20 ADD ADD DUP2 DUP2 MSTORE POP POP PUSH2 0x1247 DUP2 DUP12 PUSH1 0x1 DUP2 MLOAD DUP2 LT PUSH2 0x123A JUMPI INVALID JUMPDEST PUSH1 0x20 MUL PUSH1 0x20 ADD ADD MLOAD PUSH2 0x2232 JUMP JUMPDEST DUP11 PUSH2 0x167 DUP2 MLOAD DUP2 LT PUSH2 0x1255 JUMPI INVALID JUMPDEST PUSH1 0x20 MUL PUSH1 0x20 ADD ADD DUP2 DUP2 MSTORE POP POP POP POP POP POP POP POP POP POP POP SWAP3 SWAP2 POP POP JUMP JUMPDEST PUSH2 0x160 ADD SWAP1 JUMP JUMPDEST SWAP1 JUMP JUMPDEST PUSH1 0x20 DUP3 ADD DUP4 MSTORE PUSH2 0x1292 PUSH2 0x128C DUP5 PUSH2 0x2253 JUMP JUMPDEST DUP3 PUSH2 0x2259 JUMP JUMPDEST POP POP POP JUMP JUMPDEST PUSH1 0x0 DUP1 PUSH2 0x12A4 DUP5 DUP5 PUSH2 0x2265 JUMP JUMPDEST SWAP5 SWAP4 POP POP POP POP JUMP JUMPDEST PUSH1 0x0 DUP1 PUSH2 0x12B7 PUSH2 0x229F JUMP JUMPDEST GT SWAP1 POP SWAP1 JUMP JUMPDEST PUSH1 0x6 SWAP1 JUMP JUMPDEST PUSH2 0x169 SWAP1 JUMP JUMPDEST PUSH1 0x0 DUP1 PUSH2 0x4F3 DUP4 LT PUSH2 0x1321 JUMPI PUSH1 0x40 DUP1 MLOAD PUSH3 0x461BCD PUSH1 0xE5 SHL DUP2 MSTORE PUSH1 0x20 PUSH1 0x4 DUP3 ADD MSTORE PUSH1 0x1A PUSH1 0x24 DUP3 ADD MSTORE PUSH32 0x4F766572666C6F772070726F74656374696F6E206661696C6564000000000000 PUSH1 0x44 DUP3 ADD MSTORE SWAP1 MLOAD SWAP1 DUP2 SWAP1 SUB PUSH1 0x64 ADD SWAP1 REVERT JUMPDEST POP POP PUSH1 0x20 SWAP1 DUP2 MUL SWAP2 SWAP1 SWAP2 ADD ADD SWAP1 JUMP JUMPDEST PUSH2 0x170 SWAP1 JUMP JUMPDEST PUSH2 0x10F SWAP1 JUMP JUMPDEST PUSH1 0x0 DUP1 PUSH2 0x12A4 PUSH2 0x134C DUP6 DUP6 PUSH2 0x2265 JUMP JUMPDEST PUSH2 0x22A4 JUMP JUMPDEST PUSH2 0x135A DUP2 PUSH2 0x22CF JUMP JUMPDEST DUP1 PUSH2 0x169 DUP2 MLOAD DUP2 LT PUSH2 0x1368 JUMPI INVALID JUMPDEST PUSH1 0x20 MUL PUSH1 0x20 ADD ADD MLOAD DUP2 PUSH2 0x14D DUP2 MLOAD DUP2 LT PUSH2 0x137E JUMPI INVALID JUMPDEST PUSH1 0x20 MUL PUSH1 0x20 ADD ADD DUP2 DUP2 MSTORE POP POP DUP1 PUSH2 0x169 PUSH1 0x1 ADD DUP2 MLOAD DUP2 LT PUSH2 0x139B JUMPI INVALID JUMPDEST PUSH1 0x20 MUL PUSH1 0x20 ADD ADD MLOAD DUP2 PUSH2 0x14E DUP2 MLOAD DUP2 LT PUSH2 0x13B1 JUMPI INVALID JUMPDEST PUSH1 0x20 MUL PUSH1 0x20 ADD ADD DUP2 DUP2 MSTORE POP POP DUP1 PUSH2 0x169 PUSH1 0x2 ADD DUP2 MLOAD DUP2 LT PUSH2 0x13CE JUMPI INVALID JUMPDEST PUSH1 0x20 MUL PUSH1 0x20 ADD ADD MLOAD DUP2 PUSH2 0x150 DUP2 MLOAD DUP2 LT PUSH2 0x13E4 JUMPI INVALID JUMPDEST PUSH1 0x20 MUL PUSH1 0x20 ADD ADD DUP2 DUP2 MSTORE POP POP PUSH1 0x0 PUSH2 0x13FB DUP3 PUSH2 0x252D JUMP JUMPDEST SWAP1 POP DUP1 DUP3 PUSH2 0x14F DUP2 MLOAD DUP2 LT PUSH2 0x140C JUMPI INVALID JUMPDEST PUSH1 0x20 MUL PUSH1 0x20 ADD ADD DUP2 DUP2 MSTORE POP POP POP PUSH2 0x1422 DUP2 PUSH2 0x2729 JUMP JUMPDEST PUSH1 0xA SLOAD PUSH1 0x40 MLOAD PUSH1 0x0 SWAP2 PUSH1 0x1 PUSH1 0x1 PUSH1 0xA0 SHL SUB AND SWAP1 PUSH2 0x27C0 SWAP1 PUSH2 0x2800 SWAP1 PUSH1 0x20 DUP2 DUP4 DUP9 DUP7 ADD DUP8 PUSH1 0x0 NOT STATICCALL PUSH2 0x1457 JUMPI RETURNDATASIZE PUSH1 0x0 DUP1 RETURNDATACOPY RETURNDATASIZE PUSH1 0x0 REVERT JUMPDEST DUP1 MLOAD SWAP5 POP POP PUSH1 0x0 PUSH2 0x14B3 DUP7 PUSH2 0x27D DUP2 MLOAD DUP2 LT PUSH2 0x146F JUMPI INVALID JUMPDEST PUSH1 0x20 MUL PUSH1 0x20 ADD ADD MLOAD PUSH2 0x14AE DUP9 PUSH2 0x168 DUP2 MLOAD DUP2 LT PUSH2 0x1488 JUMPI INVALID JUMPDEST PUSH1 0x20 MUL PUSH1 0x20 ADD ADD MLOAD DUP10 PUSH2 0x27D PUSH1 0x1 ADD DUP2 MLOAD DUP2 LT PUSH2 0x14A1 JUMPI INVALID JUMPDEST PUSH1 0x20 MUL PUSH1 0x20 ADD ADD MLOAD PUSH2 0x2DDA JUMP JUMPDEST PUSH2 0x2DF4 JUMP JUMPDEST SWAP1 POP DUP1 DUP6 EQ PUSH2 0x469 JUMPI PUSH1 0x40 MLOAD PUSH3 0x461BCD PUSH1 0xE5 SHL DUP2 MSTORE PUSH1 0x4 ADD DUP1 DUP1 PUSH1 0x20 ADD DUP3 DUP2 SUB DUP3 MSTORE PUSH1 0x27 DUP2 MSTORE PUSH1 0x20 ADD DUP1 PUSH2 0x456E PUSH1 0x27 SWAP2 CODECOPY PUSH1 0x40 ADD SWAP2 POP POP PUSH1 0x40 MLOAD DUP1 SWAP2 SUB SWAP1 REVERT JUMPDEST PUSH1 0x60 PUSH1 0x0 PUSH2 0x1503 DUP4 PUSH2 0x126 PUSH2 0x12C8 JUMP JUMPDEST MLOAD SWAP4 SWAP3 POP POP POP JUMP JUMPDEST PUSH1 0x0 PUSH1 0xA SWAP1 POP PUSH1 0x0 DUP3 PUSH2 0x13B DUP2 MLOAD DUP2 LT PUSH2 0x1521 JUMPI INVALID JUMPDEST PUSH1 0x20 MUL PUSH1 0x20 ADD ADD MLOAD SWAP1 POP PUSH1 0x0 DUP1 PUSH1 0x0 SWAP1 POP PUSH1 0x0 PUSH8 0x800000000000011 PUSH1 0xC0 SHL PUSH1 0x20 DUP7 MUL PUSH1 0x20 DUP9 ADD ADD DUP1 MLOAD SWAP5 POP PUSH1 0x20 DUP7 MUL DUP1 DUP7 ADD DUP7 JUMPDEST DUP2 DUP2 LT ISZERO PUSH2 0x156F JUMPI DUP1 MLOAD DUP6 LT SWAP7 SWAP1 SWAP7 OR SWAP6 PUSH1 0x20 ADD PUSH2 0x1556 JUMP JUMPDEST POP PUSH1 0x20 DUP4 DUP2 ADD DUP1 MLOAD PUSH1 0x1 ADD PUSH1 0x1F NOT DUP11 ADD SWAP1 DUP2 MSTORE SWAP4 SWAP1 SWAP2 ADD SWAP1 SWAP3 KECCAK256 SWAP2 DUP3 SWAP1 MSTORE PUSH1 0x0 PUSH1 0x40 DUP5 ADD DUP2 SWAP1 MSTORE SWAP3 MSTORE SWAP3 POP SWAP1 POP JUMPDEST DUP5 DUP2 LT ISZERO PUSH2 0x15AD JUMPI PUSH1 0x1 ADD PUSH2 0x159D JUMP JUMPDEST POP DUP2 ISZERO PUSH2 0x15FA JUMPI PUSH1 0x40 DUP1 MLOAD PUSH3 0x461BCD PUSH1 0xE5 SHL DUP2 MSTORE PUSH1 0x20 PUSH1 0x4 DUP3 ADD MSTORE PUSH1 0x16 PUSH1 0x24 DUP3 ADD MSTORE PUSH22 0x24B73B30B634B2103334B2B6321032B632B6B2B73A17 PUSH1 0x51 SHL PUSH1 0x44 DUP3 ADD MSTORE SWAP1 MLOAD SWAP1 DUP2 SWAP1 SUB PUSH1 0x64 ADD SWAP1 REVERT JUMPDEST DUP3 DUP7 PUSH2 0x13C DUP2 MLOAD DUP2 LT PUSH2 0x1609 JUMPI INVALID JUMPDEST PUSH1 0x20 MUL PUSH1 0x20 ADD ADD DUP2 DUP2 MSTORE POP POP POP POP POP POP POP POP JUMP JUMPDEST DUP1 PUSH2 0x1627 JUMPI PUSH2 0x16E6 JUMP JUMPDEST PUSH1 0x0 DUP1 PUSH8 0x123456789ABCDED PUSH1 0xC0 SHL PUSH1 0x0 MSTORE PUSH1 0x20 DUP5 ADD MLOAD DUP1 PUSH1 0x8 MSTORE DUP4 PUSH1 0x28 MSTORE8 PUSH1 0x29 PUSH1 0x0 KECCAK256 PUSH1 0x0 MSTORE PUSH1 0x0 MLOAD SWAP3 POP DUP5 MLOAD DUP1 MLOAD PUSH1 0x20 MSTORE PUSH1 0x28 PUSH1 0x0 KECCAK256 SWAP3 POP PUSH1 0x1 DUP3 ADD PUSH1 0x0 MSTORE PUSH1 0x28 PUSH1 0x0 KECCAK256 PUSH1 0x20 DUP8 ADD MSTORE PUSH1 0x0 PUSH1 0x40 DUP8 ADD MSTORE PUSH1 0x8 DUP2 ADD DUP7 MSTORE POP POP PUSH1 0x0 DUP4 PUSH2 0x100 SUB PUSH1 0x1 SWAP1 SHL SWAP1 POP DUP1 DUP3 LT PUSH2 0x16E2 JUMPI PUSH1 0x40 DUP1 MLOAD PUSH3 0x461BCD PUSH1 0xE5 SHL DUP2 MSTORE PUSH1 0x20 PUSH1 0x4 DUP3 ADD MSTORE PUSH1 0x1B PUSH1 0x24 DUP3 ADD MSTORE PUSH32 0x50726F6F66206F6620776F726B20636865636B206661696C65642E0000000000 PUSH1 0x44 DUP3 ADD MSTORE SWAP1 MLOAD SWAP1 DUP2 SWAP1 SUB PUSH1 0x64 ADD SWAP1 REVERT JUMPDEST POP POP POP JUMPDEST POP POP JUMP JUMPDEST PUSH1 0x0 PUSH1 0x1 PUSH1 0x40 SHL DUP5 LT PUSH2 0x173C JUMPI PUSH1 0x40 DUP1 MLOAD PUSH3 0x461BCD PUSH1 0xE5 SHL DUP2 MSTORE PUSH1 0x20 PUSH1 0x4 DUP3 ADD MSTORE PUSH1 0x15 PUSH1 0x24 DUP3 ADD MSTORE PUSH21 0x36B0B9B59036BAB9BA103132901E101915151B1A17 PUSH1 0x59 SHL PUSH1 0x44 DUP3 ADD MSTORE SWAP1 MLOAD SWAP1 DUP2 SWAP1 SUB PUSH1 0x64 ADD SWAP1 REVERT JUMPDEST PUSH1 0x0 DUP1 DUP5 DUP2 JUMPDEST DUP9 DUP2 LT ISZERO PUSH2 0x17D3 JUMPI DUP3 PUSH2 0x1768 JUMPI PUSH2 0x1760 PUSH2 0x175B DUP12 PUSH2 0x2253 JUMP JUMPDEST PUSH2 0x2E0E JUMP JUMPDEST SWAP4 POP PUSH2 0x100 SWAP3 POP JUMPDEST PUSH1 0x3F NOT SWAP1 SWAP3 ADD SWAP2 DUP4 DUP4 SHR DUP9 AND DUP3 PUSH1 0x0 NOT JUMPDEST DUP10 DUP3 GT ISZERO PUSH2 0x179F JUMPI POP DUP8 DUP2 SUB MLOAD DUP1 DUP4 LT PUSH2 0x1792 JUMPI PUSH2 0x179F JUMP JUMPDEST DUP1 DUP3 MSTORE DUP9 DUP3 SUB SWAP2 POP PUSH2 0x1779 JUMP JUMPDEST DUP1 DUP4 EQ PUSH2 0x17B2 JUMPI DUP3 DUP3 MSTORE SWAP4 DUP9 ADD SWAP4 PUSH2 0x17C8 JUMP JUMPDEST JUMPDEST DUP5 DUP3 LT ISZERO PUSH2 0x17C8 JUMPI DUP2 DUP10 ADD DUP1 MLOAD SWAP1 SWAP3 MSTORE PUSH2 0x17B3 JUMP JUMPDEST POP POP POP PUSH1 0x1 ADD PUSH2 0x1742 JUMP JUMPDEST POP DUP5 DUP7 DUP3 SUB DUP2 PUSH2 0x17DF JUMPI INVALID JUMPDEST DIV SWAP10 SWAP9 POP POP POP POP POP POP POP POP POP JUMP JUMPDEST PUSH1 0x40 DUP1 MLOAD PUSH1 0x24 DUP1 DUP3 ADD DUP5 SWAP1 MSTORE DUP3 MLOAD DUP1 DUP4 SUB SWAP1 SWAP2 ADD DUP2 MSTORE PUSH1 0x44 SWAP1 SWAP2 ADD SWAP1 SWAP2 MSTORE PUSH1 0x20 DUP2 ADD DUP1 MLOAD PUSH1 0x1 PUSH1 0x1 PUSH1 0xE0 SHL SUB AND PUSH4 0xF5B1BBA9 PUSH1 0xE0 SHL OR SWAP1 MSTORE PUSH2 0x571 SWAP1 PUSH2 0xBB1 JUMP JUMPDEST PUSH2 0x1859 PUSH1 0x40 MLOAD DUP1 PUSH1 0x40 ADD PUSH1 0x40 MSTORE DUP1 PUSH1 0xA DUP2 MSTORE PUSH1 0x20 ADD PUSH10 0x74657374696E67203331 PUSH1 0xB0 SHL DUP2 MSTORE POP PUSH2 0x4CB JUMP JUMPDEST PUSH2 0x1862 GAS PUSH2 0x17ED JUMP JUMPDEST PUSH2 0x186B DUP2 PUSH2 0x2E44 JUMP JUMPDEST PUSH2 0x1896 PUSH1 0x40 MLOAD DUP1 PUSH1 0x40 ADD PUSH1 0x40 MSTORE DUP1 PUSH1 0xA DUP2 MSTORE PUSH1 0x20 ADD PUSH10 0x3A32B9BA34B733901999 PUSH1 0xB1 SHL DUP2 MSTORE POP PUSH2 0x4CB JUMP JUMPDEST PUSH2 0x189F GAS PUSH2 0x17ED JUMP JUMPDEST PUSH2 0x18DC DUP2 PUSH2 0x18AB PUSH2 0x3028 JUMP JUMPDEST PUSH2 0x18B3 PUSH2 0x302D JUMP JUMPDEST PUSH2 0x18BF DUP6 PUSH2 0x2B0 PUSH2 0x12C8 JUMP JUMPDEST DUP6 PUSH1 0x6 DUP2 MLOAD DUP2 LT PUSH2 0x18CC JUMPI INVALID JUMPDEST PUSH1 0x20 MUL PUSH1 0x20 ADD ADD MLOAD PUSH1 0x0 SHL PUSH2 0x3032 JUMP JUMPDEST PUSH2 0x1907 PUSH1 0x40 MLOAD DUP1 PUSH1 0x40 ADD PUSH1 0x40 MSTORE DUP1 PUSH1 0xA DUP2 MSTORE PUSH1 0x20 ADD PUSH10 0x74657374696E67203333 PUSH1 0xB0 SHL DUP2 MSTORE POP PUSH2 0x4CB JUMP JUMPDEST PUSH2 0x1910 GAS PUSH2 0x17ED JUMP JUMPDEST PUSH2 0x1918 PUSH2 0x12AC JUMP JUMPDEST ISZERO PUSH2 0x1956 JUMPI PUSH2 0x1956 DUP2 PUSH2 0x1929 PUSH2 0x3028 JUMP JUMPDEST PUSH2 0x1931 PUSH2 0x229F JUMP JUMPDEST PUSH2 0x1946 DUP6 PUSH2 0x193D PUSH2 0x302D JUMP JUMPDEST PUSH2 0x2B0 ADD PUSH2 0x12C8 JUMP JUMPDEST DUP6 PUSH1 0x6 PUSH1 0x1 ADD DUP2 MLOAD DUP2 LT PUSH2 0x18CC JUMPI INVALID JUMPDEST PUSH2 0x1981 PUSH1 0x40 MLOAD DUP1 PUSH1 0x40 ADD PUSH1 0x40 MSTORE DUP1 PUSH1 0xA DUP2 MSTORE PUSH1 0x20 ADD PUSH10 0x1D195CDD1A5B99C80CCD PUSH1 0xB2 SHL DUP2 MSTORE POP PUSH2 0x4CB JUMP JUMPDEST PUSH2 0x198A GAS PUSH2 0x17ED JUMP JUMPDEST PUSH2 0x19B7 DUP2 PUSH2 0x1996 PUSH2 0x3179 JUMP JUMPDEST PUSH2 0x199E PUSH2 0x3179 JUMP JUMPDEST PUSH2 0x19AA DUP6 PUSH2 0x490 PUSH2 0x12C8 JUMP JUMPDEST DUP6 PUSH1 0x8 DUP2 MLOAD DUP2 LT PUSH2 0x18CC JUMPI INVALID JUMPDEST PUSH2 0x19E2 PUSH1 0x40 MLOAD DUP1 PUSH1 0x40 ADD PUSH1 0x40 MSTORE DUP1 PUSH1 0xA DUP2 MSTORE PUSH1 0x20 ADD PUSH10 0x74657374696E67203335 PUSH1 0xB0 SHL DUP2 MSTORE POP PUSH2 0x4CB JUMP JUMPDEST PUSH2 0x19EB GAS PUSH2 0x17ED JUMP JUMPDEST PUSH1 0x0 DUP1 SLOAD PUSH1 0x1 PUSH1 0x1 PUSH1 0xA0 SHL SUB AND SWAP1 PUSH2 0x1A04 DUP4 PUSH1 0x6D PUSH2 0x12C8 JUMP JUMPDEST DUP4 MLOAD SWAP1 SWAP2 POP PUSH2 0x1200 SWAP1 DUP2 SWAP1 DUP4 SWAP1 PUSH1 0x1 ADD PUSH1 0x20 MUL DUP7 DUP7 PUSH1 0x0 NOT STATICCALL PUSH2 0x1A2B JUMPI RETURNDATASIZE PUSH1 0x0 DUP1 RETURNDATACOPY RETURNDATASIZE PUSH1 0x0 REVERT JUMPDEST PUSH2 0x1A56 PUSH1 0x40 MLOAD DUP1 PUSH1 0x40 ADD PUSH1 0x40 MSTORE DUP1 PUSH1 0xA DUP2 MSTORE PUSH1 0x20 ADD PUSH10 0x3A32B9BA34B73390199B PUSH1 0xB1 SHL DUP2 MSTORE POP PUSH2 0x4CB JUMP JUMPDEST PUSH2 0x1A5F GAS PUSH2 0x17ED JUMP JUMPDEST POP POP POP POP JUMP JUMPDEST PUSH2 0x571 DUP2 PUSH2 0x317E JUMP JUMPDEST PUSH1 0x19 SWAP1 JUMP JUMPDEST PUSH1 0x60 PUSH1 0x0 PUSH1 0x19 DUP4 MLOAD LT ISZERO PUSH2 0x1ACE JUMPI PUSH1 0x40 DUP1 MLOAD PUSH3 0x461BCD PUSH1 0xE5 SHL DUP2 MSTORE PUSH1 0x20 PUSH1 0x4 DUP3 ADD MSTORE PUSH1 0x19 PUSH1 0x24 DUP3 ADD MSTORE PUSH32 0x7075626C6963496E70757420697320746F6F2073686F72742E00000000000000 PUSH1 0x44 DUP3 ADD MSTORE SWAP1 MLOAD SWAP1 DUP2 SWAP1 SUB PUSH1 0x64 ADD SWAP1 REVERT JUMPDEST PUSH1 0x40 DUP1 MLOAD PUSH2 0x4F3 DUP1 DUP3 MSTORE PUSH2 0x9E80 DUP3 ADD SWAP1 SWAP3 MSTORE SWAP1 PUSH1 0x20 DUP3 ADD PUSH2 0x9E60 DUP1 CALLDATASIZE DUP4 CALLDATACOPY ADD SWAP1 POP POP SWAP2 POP PUSH3 0x10000 DUP3 PUSH2 0x147 DUP2 MLOAD DUP2 LT PUSH2 0x1B04 JUMPI INVALID JUMPDEST PUSH1 0x20 MUL PUSH1 0x20 ADD ADD DUP2 DUP2 MSTORE POP POP PUSH2 0x8000 DUP3 PUSH2 0x148 DUP2 MLOAD DUP2 LT PUSH2 0x1B21 JUMPI INVALID JUMPDEST PUSH1 0x20 MUL PUSH1 0x20 ADD ADD DUP2 DUP2 MSTORE POP POP PUSH1 0x0 DUP4 PUSH1 0x0 DUP2 MLOAD DUP2 LT PUSH2 0x1B3C JUMPI INVALID JUMPDEST PUSH1 0x20 MUL PUSH1 0x20 ADD ADD MLOAD SWAP1 POP PUSH1 0x32 DUP2 LT PUSH2 0x1B9B JUMPI PUSH1 0x40 DUP1 MLOAD PUSH3 0x461BCD PUSH1 0xE5 SHL DUP2 MSTORE PUSH1 0x20 PUSH1 0x4 DUP3 ADD MSTORE PUSH1 0x1D PUSH1 0x24 DUP3 ADD MSTORE PUSH32 0x4E756D626572206F6620737465707320697320746F6F206C617267652E000000 PUSH1 0x44 DUP3 ADD MSTORE SWAP1 MLOAD SWAP1 DUP2 SWAP1 SUB PUSH1 0x64 ADD SWAP1 REVERT JUMPDEST DUP1 DUP4 PUSH2 0x4F0 DUP2 MLOAD DUP2 LT PUSH2 0x1BAA JUMPI INVALID JUMPDEST PUSH1 0x20 MUL PUSH1 0x20 ADD ADD DUP2 DUP2 MSTORE POP POP PUSH1 0x4 DUP2 ADD SWAP2 POP DUP4 PUSH1 0x1 DUP2 MLOAD DUP2 LT PUSH2 0x1BC9 JUMPI INVALID JUMPDEST PUSH1 0x20 MUL PUSH1 0x20 ADD ADD MLOAD DUP4 PUSH2 0x152 DUP2 MLOAD DUP2 LT PUSH2 0x1BDF JUMPI INVALID JUMPDEST PUSH1 0x20 MUL PUSH1 0x20 ADD ADD DUP2 DUP2 MSTORE POP POP DUP4 PUSH1 0x2 DUP2 MLOAD DUP2 LT PUSH2 0x1BF8 JUMPI INVALID JUMPDEST PUSH1 0x20 MUL PUSH1 0x20 ADD ADD MLOAD DUP4 PUSH2 0x153 DUP2 MLOAD DUP2 LT PUSH2 0x1C0E JUMPI INVALID JUMPDEST PUSH1 0x20 MUL PUSH1 0x20 ADD ADD DUP2 DUP2 MSTORE POP POP DUP3 PUSH2 0x153 DUP2 MLOAD DUP2 LT PUSH2 0x1C28 JUMPI INVALID JUMPDEST PUSH1 0x20 MUL PUSH1 0x20 ADD ADD MLOAD DUP4 PUSH2 0x152 DUP2 MLOAD DUP2 LT PUSH2 0x1C3E JUMPI INVALID JUMPDEST PUSH1 0x20 MUL PUSH1 0x20 ADD ADD MLOAD GT ISZERO PUSH2 0x1C99 JUMPI PUSH1 0x40 DUP1 MLOAD PUSH3 0x461BCD PUSH1 0xE5 SHL DUP2 MSTORE PUSH1 0x20 PUSH1 0x4 DUP3 ADD MSTORE PUSH1 0x18 PUSH1 0x24 DUP3 ADD MSTORE PUSH32 0x72635F6D696E206D757374206265203C3D2072635F6D61780000000000000000 PUSH1 0x44 DUP3 ADD MSTORE SWAP1 MLOAD SWAP1 DUP2 SWAP1 SUB PUSH1 0x64 ADD SWAP1 REVERT JUMPDEST DUP3 PUSH2 0x147 DUP2 MLOAD DUP2 LT PUSH2 0x1CA7 JUMPI INVALID JUMPDEST PUSH1 0x20 MUL PUSH1 0x20 ADD ADD MLOAD DUP4 PUSH2 0x153 DUP2 MLOAD DUP2 LT PUSH2 0x1CBD JUMPI INVALID JUMPDEST PUSH1 0x20 MUL PUSH1 0x20 ADD ADD MLOAD LT PUSH2 0x1D0D JUMPI PUSH1 0x40 DUP1 MLOAD PUSH3 0x461BCD PUSH1 0xE5 SHL DUP2 MSTORE PUSH1 0x20 PUSH1 0x4 DUP3 ADD MSTORE PUSH1 0x13 PUSH1 0x24 DUP3 ADD MSTORE PUSH19 0x72635F6D6178206F7574206F662072616E6765 PUSH1 0x68 SHL PUSH1 0x44 DUP3 ADD MSTORE SWAP1 MLOAD SWAP1 DUP2 SWAP1 SUB PUSH1 0x64 ADD SWAP1 REVERT JUMPDEST PUSH8 0x737461726B6E6574 DUP5 PUSH1 0x3 DUP2 MLOAD DUP2 LT PUSH2 0x1D23 JUMPI INVALID JUMPDEST PUSH1 0x20 MUL PUSH1 0x20 ADD ADD MLOAD EQ PUSH2 0x1D75 JUMPI PUSH1 0x40 DUP1 MLOAD PUSH3 0x461BCD PUSH1 0xE5 SHL DUP2 MSTORE PUSH1 0x20 PUSH1 0x4 DUP3 ADD MSTORE PUSH1 0x15 PUSH1 0x24 DUP3 ADD MSTORE PUSH21 0x2630BCB7BABA1031B7B2329036B4B9B6B0BA31B417 PUSH1 0x59 SHL PUSH1 0x44 DUP3 ADD MSTORE SWAP1 MLOAD SWAP1 DUP2 SWAP1 SUB PUSH1 0x64 ADD SWAP1 REVERT JUMPDEST DUP4 PUSH1 0x4 DUP2 MLOAD DUP2 LT PUSH2 0x1D82 JUMPI INVALID JUMPDEST PUSH1 0x20 MUL PUSH1 0x20 ADD ADD MLOAD DUP4 PUSH2 0x14A DUP2 MLOAD DUP2 LT PUSH2 0x1D98 JUMPI INVALID JUMPDEST PUSH1 0x20 MUL PUSH1 0x20 ADD ADD DUP2 DUP2 MSTORE POP POP DUP4 PUSH1 0x5 DUP2 MLOAD DUP2 LT PUSH2 0x1DB1 JUMPI INVALID JUMPDEST PUSH1 0x20 MUL PUSH1 0x20 ADD ADD MLOAD DUP4 PUSH2 0x14C DUP2 MLOAD DUP2 LT PUSH2 0x1DC7 JUMPI INVALID JUMPDEST PUSH1 0x20 MUL PUSH1 0x20 ADD ADD DUP2 DUP2 MSTORE POP POP PUSH1 0x1 DUP4 PUSH2 0x14A DUP2 MLOAD DUP2 LT PUSH2 0x1DE3 JUMPI INVALID JUMPDEST PUSH1 0x20 MUL PUSH1 0x20 ADD ADD MLOAD EQ PUSH2 0x1E32 JUMPI PUSH1 0x40 DUP1 MLOAD PUSH3 0x461BCD PUSH1 0xE5 SHL DUP2 MSTORE PUSH1 0x20 PUSH1 0x4 DUP3 ADD MSTORE PUSH1 0x12 PUSH1 0x24 DUP3 ADD MSTORE PUSH18 0x496E76616C696420696E697469616C207063 PUSH1 0x70 SHL PUSH1 0x44 DUP3 ADD MSTORE SWAP1 MLOAD SWAP1 DUP2 SWAP1 SUB PUSH1 0x64 ADD SWAP1 REVERT JUMPDEST PUSH1 0x1 PUSH1 0x4 ADD DUP4 PUSH2 0x14C DUP2 MLOAD DUP2 LT PUSH2 0x1E45 JUMPI INVALID JUMPDEST PUSH1 0x20 MUL PUSH1 0x20 ADD ADD MLOAD EQ PUSH2 0x1E92 JUMPI PUSH1 0x40 DUP1 MLOAD PUSH3 0x461BCD PUSH1 0xE5 SHL DUP2 MSTORE PUSH1 0x20 PUSH1 0x4 DUP3 ADD MSTORE PUSH1 0x10 PUSH1 0x24 DUP3 ADD MSTORE PUSH16 0x496E76616C69642066696E616C207063 PUSH1 0x80 SHL PUSH1 0x44 DUP3 ADD MSTORE SWAP1 MLOAD SWAP1 DUP2 SWAP1 SUB PUSH1 0x64 ADD SWAP1 REVERT JUMPDEST DUP4 PUSH1 0x6 DUP2 MLOAD DUP2 LT PUSH2 0x1E9F JUMPI INVALID JUMPDEST PUSH1 0x20 MUL PUSH1 0x20 ADD ADD MLOAD DUP4 PUSH2 0x149 DUP2 MLOAD DUP2 LT PUSH2 0x1EB5 JUMPI INVALID JUMPDEST PUSH1 0x20 MUL PUSH1 0x20 ADD ADD DUP2 DUP2 MSTORE POP POP DUP4 PUSH1 0x7 DUP2 MLOAD DUP2 LT PUSH2 0x1ECE JUMPI INVALID JUMPDEST PUSH1 0x20 MUL PUSH1 0x20 ADD ADD MLOAD DUP4 PUSH2 0x14B DUP2 MLOAD DUP2 LT PUSH2 0x1EE4 JUMPI INVALID JUMPDEST PUSH1 0x20 MUL PUSH1 0x20 ADD ADD DUP2 DUP2 MSTORE POP POP PUSH1 0x1 DUP5 PUSH1 0x18 DUP2 MLOAD DUP2 LT PUSH2 0x1EFF JUMPI INVALID JUMPDEST PUSH1 0x20 MUL PUSH1 0x20 ADD ADD MLOAD LT ISZERO DUP1 ISZERO PUSH2 0x1F2B JUMPI POP PUSH3 0x186A0 DUP5 PUSH1 0x18 DUP2 MLOAD DUP2 LT PUSH2 0x1F21 JUMPI INVALID JUMPDEST PUSH1 0x20 MUL PUSH1 0x20 ADD ADD MLOAD LT JUMPDEST PUSH2 0x1F7C JUMPI PUSH1 0x40 DUP1 MLOAD PUSH3 0x461BCD PUSH1 0xE5 SHL DUP2 MSTORE PUSH1 0x20 PUSH1 0x4 DUP3 ADD MSTORE PUSH1 0x1F PUSH1 0x24 DUP3 ADD MSTORE PUSH32 0x496E76616C6964206E756D626572206F66206D656D6F72792070616765732E00 PUSH1 0x44 DUP3 ADD MSTORE SWAP1 MLOAD SWAP1 DUP2 SWAP1 SUB PUSH1 0x64 ADD SWAP1 REVERT JUMPDEST DUP4 PUSH1 0x18 DUP2 MLOAD DUP2 LT PUSH2 0x1F89 JUMPI INVALID JUMPDEST PUSH1 0x20 MUL PUSH1 0x20 ADD ADD MLOAD DUP4 PUSH2 0x4F2 DUP2 MLOAD DUP2 LT PUSH2 0x1F9F JUMPI INVALID JUMPDEST PUSH1 0x20 MUL PUSH1 0x20 ADD ADD DUP2 DUP2 MSTORE POP POP PUSH1 0x0 DUP1 JUMPDEST DUP5 PUSH2 0x4F2 DUP2 MLOAD DUP2 LT PUSH2 0x1FBD JUMPI INVALID JUMPDEST PUSH1 0x20 MUL PUSH1 0x20 ADD ADD MLOAD DUP2 LT ISZERO PUSH2 0x203B JUMPI PUSH1 0x0 DUP7 PUSH2 0x1FD8 DUP4 PUSH2 0x35EF JUMP JUMPDEST DUP2 MLOAD DUP2 LT PUSH2 0x1FE2 JUMPI INVALID JUMPDEST PUSH1 0x20 MUL PUSH1 0x20 ADD ADD MLOAD SWAP1 POP PUSH4 0x40000000 DUP2 LT PUSH2 0x202E JUMPI PUSH1 0x40 MLOAD PUSH3 0x461BCD PUSH1 0xE5 SHL DUP2 MSTORE PUSH1 0x4 ADD DUP1 DUP1 PUSH1 0x20 ADD DUP3 DUP2 SUB DUP3 MSTORE PUSH1 0x2B DUP2 MSTORE PUSH1 0x20 ADD DUP1 PUSH2 0x462A PUSH1 0x2B SWAP2 CODECOPY PUSH1 0x40 ADD SWAP2 POP POP PUSH1 0x40 MLOAD DUP1 SWAP2 SUB SWAP1 REVERT JUMPDEST SWAP2 SWAP1 SWAP2 ADD SWAP1 PUSH1 0x1 ADD PUSH2 0x1FAF JUMP JUMPDEST POP DUP1 DUP5 PUSH2 0x4F1 DUP2 MLOAD DUP2 LT PUSH2 0x204B JUMPI INVALID JUMPDEST PUSH1 0x20 MUL PUSH1 0x20 ADD ADD DUP2 DUP2 MSTORE POP POP POP PUSH1 0x0 PUSH2 0x2078 DUP5 PUSH2 0x4F2 DUP2 MLOAD DUP2 LT PUSH2 0x206B JUMPI INVALID JUMPDEST PUSH1 0x20 MUL PUSH1 0x20 ADD ADD MLOAD PUSH2 0x3609 JUMP JUMPDEST SWAP1 POP DUP5 MLOAD DUP2 EQ PUSH2 0x20CF JUMPI PUSH1 0x40 DUP1 MLOAD PUSH3 0x461BCD PUSH1 0xE5 SHL DUP2 MSTORE PUSH1 0x20 PUSH1 0x4 DUP3 ADD MSTORE PUSH1 0x1D PUSH1 0x24 DUP3 ADD MSTORE PUSH32 0x5075626C696320696E707574206C656E677468206D69736D617463682E000000 PUSH1 0x44 DUP3 ADD MSTORE SWAP1 MLOAD SWAP1 DUP2 SWAP1 SUB PUSH1 0x64 ADD SWAP1 REVERT JUMPDEST PUSH1 0x20 DUP6 ADD PUSH1 0xC0 DUP6 ADD MSTORE PUSH1 0x5 PUSH2 0x20E4 DUP6 DUP8 PUSH2 0x3621 JUMP JUMPDEST POP POP POP SWAP2 POP SWAP2 JUMP JUMPDEST DUP3 PUSH1 0x0 DUP2 MLOAD DUP2 LT PUSH2 0x20F9 JUMPI INVALID JUMPDEST PUSH1 0x20 MUL PUSH1 0x20 ADD ADD MLOAD PUSH1 0x0 EQ PUSH2 0x213F JUMPI PUSH1 0x40 MLOAD PUSH3 0x461BCD PUSH1 0xE5 SHL DUP2 MSTORE PUSH1 0x4 ADD DUP1 DUP1 PUSH1 0x20 ADD DUP3 DUP2 SUB DUP3 MSTORE PUSH1 0x25 DUP2 MSTORE PUSH1 0x20 ADD DUP1 PUSH2 0x472C PUSH1 0x25 SWAP2 CODECOPY PUSH1 0x40 ADD SWAP2 POP POP PUSH1 0x40 MLOAD DUP1 SWAP2 SUB SWAP1 REVERT JUMPDEST DUP3 MLOAD DUP2 SWAP1 PUSH1 0x1 JUMPDEST DUP2 DUP2 LT ISZERO PUSH2 0x21F3 JUMPI PUSH1 0x0 DUP7 DUP3 DUP2 MLOAD DUP2 LT PUSH2 0x215C JUMPI INVALID JUMPDEST PUSH1 0x20 MUL PUSH1 0x20 ADD ADD MLOAD SWAP1 POP PUSH1 0x2 DUP2 LT ISZERO PUSH2 0x21A6 JUMPI PUSH1 0x40 MLOAD PUSH3 0x461BCD PUSH1 0xE5 SHL DUP2 MSTORE PUSH1 0x4 ADD DUP1 DUP1 PUSH1 0x20 ADD DUP3 DUP2 SUB DUP3 MSTORE PUSH1 0x21 DUP2 MSTORE PUSH1 0x20 ADD DUP1 PUSH2 0x4751 PUSH1 0x21 SWAP2 CODECOPY PUSH1 0x40 ADD SWAP2 POP POP PUSH1 0x40 MLOAD DUP1 SWAP2 SUB SWAP1 REVERT JUMPDEST PUSH1 0x4 DUP2 GT ISZERO PUSH2 0x21E6 JUMPI PUSH1 0x40 MLOAD PUSH3 0x461BCD PUSH1 0xE5 SHL DUP2 MSTORE PUSH1 0x4 ADD DUP1 DUP1 PUSH1 0x20 ADD DUP3 DUP2 SUB DUP3 MSTORE PUSH1 0x21 DUP2 MSTORE PUSH1 0x20 ADD DUP1 PUSH2 0x4595 PUSH1 0x21 SWAP2 CODECOPY PUSH1 0x40 ADD SWAP2 POP POP PUSH1 0x40 MLOAD DUP1 SWAP2 SUB SWAP1 REVERT JUMPDEST SWAP3 SWAP1 SWAP3 ADD SWAP2 PUSH1 0x1 ADD PUSH2 0x2146 JUMP JUMPDEST POP DUP4 DUP3 EQ PUSH2 0x16E2 JUMPI PUSH1 0x40 MLOAD PUSH3 0x461BCD PUSH1 0xE5 SHL DUP2 MSTORE PUSH1 0x4 ADD DUP1 DUP1 PUSH1 0x20 ADD DUP3 DUP2 SUB DUP3 MSTORE PUSH1 0x24 DUP2 MSTORE PUSH1 0x20 ADD DUP1 PUSH2 0x46A7 PUSH1 0x24 SWAP2 CODECOPY PUSH1 0x40 ADD SWAP2 POP POP PUSH1 0x40 MLOAD DUP1 SWAP2 SUB SWAP1 REVERT JUMPDEST PUSH1 0x0 PUSH2 0x224C DUP4 DUP4 PUSH1 0x1 PUSH1 0x11 PUSH1 0xC0 SHL ADD PUSH1 0x1 PUSH1 0xFB SHL ADD PUSH2 0x3BE8 JUMP JUMPDEST SWAP4 SWAP3 POP POP POP JUMP JUMPDEST PUSH1 0x20 ADD SWAP1 JUMP JUMPDEST PUSH2 0x16E6 DUP3 DUP3 PUSH1 0x0 PUSH2 0x3C23 JUMP JUMPDEST DUP2 MLOAD DUP1 MLOAD PUSH1 0x20 DUP3 ADD DUP5 MSTORE PUSH1 0x0 SWAP2 SWAP1 DUP4 ISZERO PUSH2 0x12A4 JUMPI PUSH1 0x20 DUP6 ADD PUSH1 0x20 DUP2 ADD PUSH1 0x1 DUP3 MLOAD ADD DUP3 MSTORE DUP3 DUP2 MSTORE PUSH1 0x40 DUP3 KECCAK256 DUP3 MSTORE PUSH1 0x0 DUP2 MSTORE POP POP SWAP5 SWAP4 POP POP POP POP JUMP JUMPDEST PUSH1 0x1 SWAP1 JUMP JUMPDEST PUSH1 0x0 PUSH1 0x1 PUSH1 0x11 PUSH1 0xC0 SHL ADD PUSH1 0x1 PUSH1 0xFB SHL ADD PUSH15 0x400000000000011000000000000121 PUSH1 0x80 SHL DUP4 MULMOD SWAP3 SWAP2 POP POP JUMP JUMPDEST PUSH1 0x0 DUP2 PUSH2 0x4F2 DUP2 MLOAD DUP2 LT PUSH2 0x22DF JUMPI INVALID JUMPDEST PUSH1 0x20 MUL PUSH1 0x20 ADD ADD MLOAD SWAP1 POP PUSH1 0x0 JUMPDEST DUP2 DUP2 LT ISZERO PUSH2 0x1292 JUMPI PUSH1 0x0 PUSH2 0x22FF DUP3 PUSH2 0x3C2E JUMP JUMPDEST PUSH1 0x20 MUL DUP5 PUSH1 0x5 DUP2 MLOAD DUP2 LT PUSH2 0x230F JUMPI INVALID JUMPDEST PUSH1 0x20 MUL PUSH1 0x20 ADD ADD MLOAD ADD SWAP1 POP PUSH1 0x0 DUP1 PUSH2 0x2327 DUP5 DUP7 PUSH2 0xB96 JUMP JUMPDEST PUSH1 0x20 MUL DUP7 PUSH1 0x5 DUP2 MLOAD DUP2 LT PUSH2 0x2337 JUMPI INVALID JUMPDEST PUSH1 0x20 MUL PUSH1 0x20 ADD ADD MLOAD ADD SWAP1 POP PUSH1 0x0 DUP1 PUSH2 0x234E DUP7 PUSH2 0x35EF JUMP JUMPDEST PUSH1 0x20 MUL DUP9 PUSH1 0x5 DUP2 MLOAD DUP2 LT PUSH2 0x235E JUMPI INVALID JUMPDEST PUSH1 0x20 MUL PUSH1 0x20 ADD ADD MLOAD ADD SWAP1 POP PUSH1 0x0 DUP2 MLOAD SWAP1 POP DUP4 MLOAD SWAP3 POP DUP6 MLOAD SWAP5 POP PUSH1 0x0 DUP1 DUP9 GT ISZERO PUSH2 0x23AD JUMPI PUSH1 0x0 PUSH2 0x238C DUP10 PUSH2 0x3C40 JUMP JUMPDEST PUSH1 0x20 MUL DUP12 PUSH1 0x5 DUP2 MLOAD DUP2 LT PUSH2 0x239C JUMPI INVALID JUMPDEST PUSH1 0x20 MUL PUSH1 0x20 ADD ADD MLOAD ADD SWAP1 POP DUP1 MLOAD SWAP2 POP POP JUMPDEST PUSH1 0x0 DUP9 ISZERO PUSH2 0x23BC JUMPI PUSH1 0x1 PUSH2 0x23BF JUMP JUMPDEST PUSH1 0x0 JUMPDEST PUSH1 0x1 PUSH1 0x11 PUSH1 0xC0 SHL ADD PUSH1 0x1 PUSH1 0xFB SHL ADD DUP5 DUP14 PUSH2 0x169 DUP2 MLOAD DUP2 LT PUSH2 0x23DC JUMPI INVALID JUMPDEST PUSH1 0x20 MUL PUSH1 0x20 ADD ADD MLOAD DUP15 PUSH2 0x169 PUSH1 0x1 ADD DUP2 MLOAD DUP2 LT PUSH2 0x23F5 JUMPI INVALID JUMPDEST PUSH1 0x20 MUL PUSH1 0x20 ADD ADD MLOAD DUP10 DUP13 DUP9 PUSH1 0x40 MLOAD PUSH1 0x20 ADD DUP1 DUP10 DUP2 MSTORE PUSH1 0x20 ADD DUP9 DUP2 MSTORE PUSH1 0x20 ADD DUP8 DUP2 MSTORE PUSH1 0x20 ADD DUP7 DUP2 MSTORE PUSH1 0x20 ADD DUP6 DUP2 MSTORE PUSH1 0x20 ADD DUP5 DUP2 MSTORE PUSH1 0x20 ADD DUP4 DUP2 MSTORE PUSH1 0x20 ADD DUP3 DUP2 MSTORE PUSH1 0x20 ADD SWAP9 POP POP POP POP POP POP POP POP POP PUSH1 0x40 MLOAD PUSH1 0x20 DUP2 DUP4 SUB SUB DUP2 MSTORE SWAP1 PUSH1 0x40 MSTORE DUP1 MLOAD SWAP1 PUSH1 0x20 ADD KECCAK256 SWAP1 POP PUSH1 0xB PUSH1 0x0 SWAP1 SLOAD SWAP1 PUSH2 0x100 EXP SWAP1 DIV PUSH1 0x1 PUSH1 0x1 PUSH1 0xA0 SHL SUB AND PUSH1 0x1 PUSH1 0x1 PUSH1 0xA0 SHL SUB AND PUSH4 0x6A938567 DUP3 PUSH1 0x40 MLOAD DUP3 PUSH4 0xFFFFFFFF AND PUSH1 0xE0 SHL DUP2 MSTORE PUSH1 0x4 ADD DUP1 DUP3 DUP2 MSTORE PUSH1 0x20 ADD SWAP2 POP POP PUSH1 0x20 PUSH1 0x40 MLOAD DUP1 DUP4 SUB DUP2 DUP7 DUP1 EXTCODESIZE ISZERO DUP1 ISZERO PUSH2 0x24B2 JUMPI PUSH1 0x0 DUP1 REVERT JUMPDEST POP GAS STATICCALL ISZERO DUP1 ISZERO PUSH2 0x24C6 JUMPI RETURNDATASIZE PUSH1 0x0 DUP1 RETURNDATACOPY RETURNDATASIZE PUSH1 0x0 REVERT JUMPDEST POP POP POP POP PUSH1 0x40 MLOAD RETURNDATASIZE PUSH1 0x20 DUP2 LT ISZERO PUSH2 0x24DC JUMPI PUSH1 0x0 DUP1 REVERT JUMPDEST POP MLOAD PUSH2 0x2519 JUMPI PUSH1 0x40 MLOAD PUSH3 0x461BCD PUSH1 0xE5 SHL DUP2 MSTORE PUSH1 0x4 ADD DUP1 DUP1 PUSH1 0x20 ADD DUP3 DUP2 SUB DUP3 MSTORE PUSH1 0x24 DUP2 MSTORE PUSH1 0x20 ADD DUP1 PUSH2 0x45E1 PUSH1 0x24 SWAP2 CODECOPY PUSH1 0x40 ADD SWAP2 POP POP PUSH1 0x40 MLOAD DUP1 SWAP2 SUB SWAP1 REVERT JUMPDEST POP POP PUSH1 0x1 SWAP1 SWAP7 ADD SWAP6 POP PUSH2 0x22EC SWAP5 POP POP POP POP POP JUMP JUMPDEST PUSH1 0x0 DUP1 DUP3 PUSH2 0x4F1 DUP2 MLOAD DUP2 LT PUSH2 0x253E JUMPI INVALID JUMPDEST PUSH1 0x20 MUL PUSH1 0x20 ADD ADD MLOAD SWAP1 POP PUSH1 0x0 DUP4 PUSH2 0x14D DUP2 MLOAD DUP2 LT PUSH2 0x2558 JUMPI INVALID JUMPDEST PUSH1 0x20 MUL PUSH1 0x20 ADD ADD MLOAD SWAP1 POP PUSH1 0x0 DUP5 PUSH2 0x14E DUP2 MLOAD DUP2 LT PUSH2 0x2572 JUMPI INVALID JUMPDEST PUSH1 0x20 MUL PUSH1 0x20 ADD ADD MLOAD SWAP1 POP PUSH1 0x0 PUSH2 0x259E DUP7 PUSH2 0x146 DUP2 MLOAD DUP2 LT PUSH2 0x258F JUMPI INVALID JUMPDEST PUSH1 0x20 MUL PUSH1 0x20 ADD ADD MLOAD PUSH1 0x8 PUSH2 0x3C92 JUMP JUMPDEST SWAP1 POP PUSH4 0x1000000 DUP5 LT PUSH2 0x25F8 JUMPI PUSH1 0x40 DUP1 MLOAD PUSH3 0x461BCD PUSH1 0xE5 SHL DUP2 MSTORE PUSH1 0x20 PUSH1 0x4 DUP3 ADD MSTORE PUSH1 0x1B PUSH1 0x24 DUP3 ADD MSTORE PUSH32 0x4F766572666C6F772070726F74656374696F6E206661696C65642E0000000000 PUSH1 0x44 DUP3 ADD MSTORE SWAP1 MLOAD SWAP1 DUP2 SWAP1 SUB PUSH1 0x64 ADD SWAP1 REVERT JUMPDEST DUP1 DUP5 GT ISZERO PUSH2 0x2637 JUMPI PUSH1 0x40 MLOAD PUSH3 0x461BCD PUSH1 0xE5 SHL DUP2 MSTORE PUSH1 0x4 ADD DUP1 DUP1 PUSH1 0x20 ADD DUP3 DUP2 SUB DUP3 MSTORE PUSH1 0x2F DUP2 MSTORE PUSH1 0x20 ADD DUP1 PUSH2 0x46CB PUSH1 0x2F SWAP2 CODECOPY PUSH1 0x40 ADD SWAP2 POP POP PUSH1 0x40 MLOAD DUP1 SWAP2 SUB SWAP1 REVERT JUMPDEST PUSH1 0x0 DUP7 PUSH2 0x4F2 DUP2 MLOAD DUP2 LT PUSH2 0x2647 JUMPI INVALID JUMPDEST PUSH1 0x20 MUL PUSH1 0x20 ADD ADD MLOAD SWAP1 POP PUSH1 0x0 PUSH2 0x265E PUSH1 0x0 DUP4 PUSH2 0xB96 JUMP JUMPDEST PUSH1 0x20 MUL DUP9 PUSH1 0x5 DUP2 MLOAD DUP2 LT PUSH2 0x266E JUMPI INVALID JUMPDEST PUSH1 0x20 MUL PUSH1 0x20 ADD ADD MLOAD ADD SWAP1 POP PUSH1 0x0 PUSH2 0x2693 DUP3 DUP5 PUSH1 0x1 PUSH1 0x11 PUSH1 0xC0 SHL ADD PUSH1 0x1 PUSH1 0xFB SHL ADD PUSH2 0x3D3F JUMP JUMPDEST SWAP1 POP PUSH1 0x0 DUP10 PUSH1 0x5 DUP2 MLOAD DUP2 LT PUSH2 0x26A4 JUMPI INVALID JUMPDEST PUSH1 0x20 SWAP1 DUP2 MUL SWAP2 SWAP1 SWAP2 ADD ADD MLOAD PUSH2 0x2C0 DUP2 ADD MLOAD PUSH2 0x2E0 DUP3 ADD MLOAD SWAP2 SWAP3 POP SWAP1 PUSH1 0x0 PUSH2 0x26CF DUP4 PUSH2 0x14AE DUP5 DUP13 PUSH2 0x2DDA JUMP JUMPDEST SWAP1 POP PUSH1 0x0 PUSH2 0x26E8 PUSH2 0x26E0 DUP13 DUP5 PUSH2 0x3D69 JUMP JUMPDEST DUP14 DUP12 SUB PUSH2 0x2232 JUMP JUMPDEST SWAP1 POP PUSH2 0x26F4 DUP7 DUP3 PUSH2 0x2DDA JUMP JUMPDEST SWAP6 POP PUSH1 0x0 PUSH2 0x2702 DUP13 DUP12 PUSH2 0x2232 JUMP JUMPDEST SWAP1 POP PUSH2 0x2716 DUP2 PUSH2 0x2711 DUP10 PUSH2 0x3D92 JUMP JUMPDEST PUSH2 0x2DDA JUMP JUMPDEST SWAP16 SWAP15 POP POP POP POP POP POP POP POP POP POP POP POP POP POP POP JUMP JUMPDEST PUSH1 0x0 DUP2 PUSH2 0x168 DUP2 MLOAD DUP2 LT PUSH2 0x2739 JUMPI INVALID JUMPDEST PUSH1 0x20 MUL PUSH1 0x20 ADD ADD MLOAD SWAP1 POP PUSH1 0x0 DUP3 PUSH2 0x4F0 DUP2 MLOAD DUP2 LT PUSH2 0x2753 JUMPI INVALID JUMPDEST PUSH1 0x20 MUL PUSH1 0x20 ADD ADD MLOAD PUSH1 0x2 EXP SWAP1 POP PUSH1 0x0 PUSH2 0x2770 DUP3 PUSH1 0x1 PUSH1 0x20 MUL PUSH2 0x3C92 JUMP JUMPDEST SWAP1 POP PUSH1 0x0 PUSH2 0x277E DUP5 DUP4 PUSH2 0x2232 JUMP JUMPDEST PUSH1 0x1 SLOAD PUSH1 0x40 DUP1 MLOAD PUSH4 0x17B61B57 PUSH1 0xE2 SHL DUP2 MSTORE PUSH1 0x4 DUP2 ADD DUP5 SWAP1 MSTORE SWAP1 MLOAD SWAP3 SWAP4 POP PUSH1 0x1 PUSH1 0x1 PUSH1 0xA0 SHL SUB SWAP1 SWAP2 AND SWAP2 PUSH4 0x5ED86D5C SWAP2 PUSH1 0x24 DUP1 DUP3 ADD SWAP3 PUSH1 0x20 SWAP3 SWAP1 SWAP2 SWAP1 DUP3 SWAP1 SUB ADD DUP2 DUP7 DUP1 EXTCODESIZE ISZERO DUP1 ISZERO PUSH2 0x27CD JUMPI PUSH1 0x0 DUP1 REVERT JUMPDEST POP GAS STATICCALL ISZERO DUP1 ISZERO PUSH2 0x27E1 JUMPI RETURNDATASIZE PUSH1 0x0 DUP1 RETURNDATACOPY RETURNDATASIZE PUSH1 0x0 REVERT JUMPDEST POP POP POP POP PUSH1 0x40 MLOAD RETURNDATASIZE PUSH1 0x20 DUP2 LT ISZERO PUSH2 0x27F7 JUMPI PUSH1 0x0 DUP1 REVERT JUMPDEST POP MLOAD DUP6 MLOAD DUP7 SWAP1 PUSH2 0x13D SWAP1 DUP2 LT PUSH2 0x2809 JUMPI INVALID JUMPDEST PUSH1 0x20 SWAP1 DUP2 MUL SWAP2 SWAP1 SWAP2 ADD DUP2 ADD SWAP2 SWAP1 SWAP2 MSTORE PUSH1 0x2 SLOAD PUSH1 0x40 DUP1 MLOAD PUSH4 0x17B61B57 PUSH1 0xE2 SHL DUP2 MSTORE PUSH1 0x4 DUP2 ADD DUP6 SWAP1 MSTORE SWAP1 MLOAD PUSH1 0x1 PUSH1 0x1 PUSH1 0xA0 SHL SUB SWAP1 SWAP3 AND SWAP3 PUSH4 0x5ED86D5C SWAP3 PUSH1 0x24 DUP1 DUP5 ADD SWAP4 DUP3 SWAP1 SUB ADD DUP2 DUP7 DUP1 EXTCODESIZE ISZERO DUP1 ISZERO PUSH2 0x285E JUMPI PUSH1 0x0 DUP1 REVERT JUMPDEST POP GAS STATICCALL ISZERO DUP1 ISZERO PUSH2 0x2872 JUMPI RETURNDATASIZE PUSH1 0x0 DUP1 RETURNDATACOPY RETURNDATASIZE PUSH1 0x0 REVERT JUMPDEST POP POP POP POP PUSH1 0x40 MLOAD RETURNDATASIZE PUSH1 0x20 DUP2 LT ISZERO PUSH2 0x2888 JUMPI PUSH1 0x0 DUP1 REVERT JUMPDEST POP MLOAD DUP6 MLOAD DUP7 SWAP1 PUSH2 0x13E SWAP1 DUP2 LT PUSH2 0x289A JUMPI INVALID JUMPDEST PUSH1 0x20 MUL PUSH1 0x20 ADD ADD DUP2 DUP2 MSTORE POP POP PUSH1 0x0 PUSH2 0x28CF DUP7 PUSH2 0x4F0 DUP2 MLOAD DUP2 LT PUSH2 0x28B9 JUMPI INVALID JUMPDEST PUSH1 0x20 MUL PUSH1 0x20 ADD ADD MLOAD PUSH1 0x2 EXP PUSH1 0x1 PUSH2 0x800 MUL PUSH2 0x3C92 JUMP JUMPDEST SWAP1 POP PUSH1 0x0 PUSH2 0x28DD DUP7 DUP4 PUSH2 0x2232 JUMP JUMPDEST PUSH1 0x3 SLOAD PUSH1 0x40 DUP1 MLOAD PUSH4 0x17B61B57 PUSH1 0xE2 SHL DUP2 MSTORE PUSH1 0x4 DUP2 ADD DUP5 SWAP1 MSTORE SWAP1 MLOAD SWAP3 SWAP4 POP PUSH1 0x1 PUSH1 0x1 PUSH1 0xA0 SHL SUB SWAP1 SWAP2 AND SWAP2 PUSH4 0x5ED86D5C SWAP2 PUSH1 0x24 DUP1 DUP3 ADD SWAP3 PUSH1 0x20 SWAP3 SWAP1 SWAP2 SWAP1 DUP3 SWAP1 SUB ADD DUP2 DUP7 DUP1 EXTCODESIZE ISZERO DUP1 ISZERO PUSH2 0x292C JUMPI PUSH1 0x0 DUP1 REVERT JUMPDEST POP GAS STATICCALL ISZERO DUP1 ISZERO PUSH2 0x2940 JUMPI RETURNDATASIZE PUSH1 0x0 DUP1 RETURNDATACOPY RETURNDATASIZE PUSH1 0x0 REVERT JUMPDEST POP POP POP POP PUSH1 0x40 MLOAD RETURNDATASIZE PUSH1 0x20 DUP2 LT ISZERO PUSH2 0x2956 JUMPI PUSH1 0x0 DUP1 REVERT JUMPDEST POP MLOAD DUP8 MLOAD DUP9 SWAP1 PUSH2 0x13F SWAP1 DUP2 LT PUSH2 0x2968 JUMPI INVALID JUMPDEST PUSH1 0x20 SWAP1 DUP2 MUL SWAP2 SWAP1 SWAP2 ADD DUP2 ADD SWAP2 SWAP1 SWAP2 MSTORE PUSH1 0x4 DUP1 SLOAD PUSH1 0x40 DUP1 MLOAD PUSH4 0x17B61B57 PUSH1 0xE2 SHL DUP2 MSTORE SWAP3 DUP4 ADD DUP6 SWAP1 MSTORE MLOAD PUSH1 0x1 PUSH1 0x1 PUSH1 0xA0 SHL SUB SWAP1 SWAP2 AND SWAP3 PUSH4 0x5ED86D5C SWAP3 PUSH1 0x24 DUP1 DUP3 ADD SWAP4 SWAP2 DUP3 SWAP1 SUB ADD DUP2 DUP7 DUP1 EXTCODESIZE ISZERO DUP1 ISZERO PUSH2 0x29BD JUMPI PUSH1 0x0 DUP1 REVERT JUMPDEST POP GAS STATICCALL ISZERO DUP1 ISZERO PUSH2 0x29D1 JUMPI RETURNDATASIZE PUSH1 0x0 DUP1 RETURNDATACOPY RETURNDATASIZE PUSH1 0x0 REVERT JUMPDEST POP POP POP POP PUSH1 0x40 MLOAD RETURNDATASIZE PUSH1 0x20 DUP2 LT ISZERO PUSH2 0x29E7 JUMPI PUSH1 0x0 DUP1 REVERT JUMPDEST POP MLOAD DUP8 MLOAD DUP9 SWAP1 PUSH2 0x140 SWAP1 DUP2 LT PUSH2 0x29F9 JUMPI INVALID JUMPDEST PUSH1 0x20 MUL PUSH1 0x20 ADD ADD DUP2 DUP2 MSTORE POP POP DUP7 PUSH2 0x169 PUSH1 0x3 ADD DUP2 MLOAD DUP2 LT PUSH2 0x2A16 JUMPI INVALID JUMPDEST PUSH1 0x20 MUL PUSH1 0x20 ADD ADD MLOAD DUP8 PUSH2 0x154 DUP2 MLOAD DUP2 LT PUSH2 0x2A2C JUMPI INVALID JUMPDEST PUSH1 0x20 MUL PUSH1 0x20 ADD ADD DUP2 DUP2 MSTORE POP POP DUP7 PUSH2 0x169 PUSH1 0x4 ADD DUP2 MLOAD DUP2 LT PUSH2 0x2A49 JUMPI INVALID JUMPDEST PUSH1 0x20 MUL PUSH1 0x20 ADD ADD MLOAD DUP8 PUSH2 0x157 DUP2 MLOAD DUP2 LT PUSH2 0x2A5F JUMPI INVALID JUMPDEST PUSH1 0x20 MUL PUSH1 0x20 ADD ADD DUP2 DUP2 MSTORE POP POP DUP7 PUSH2 0x169 PUSH1 0x5 ADD DUP2 MLOAD DUP2 LT PUSH2 0x2A7C JUMPI INVALID JUMPDEST PUSH1 0x20 MUL PUSH1 0x20 ADD ADD MLOAD DUP8 PUSH2 0x158 DUP2 MLOAD DUP2 LT PUSH2 0x2A92 JUMPI INVALID JUMPDEST PUSH1 0x20 MUL PUSH1 0x20 ADD ADD DUP2 DUP2 MSTORE POP POP PUSH2 0x2AA7 DUP8 PUSH2 0x3DC0 JUMP JUMPDEST DUP8 PUSH2 0x159 DUP2 MLOAD DUP2 LT PUSH2 0x2AB5 JUMPI INVALID JUMPDEST PUSH1 0x20 MUL PUSH1 0x20 ADD ADD DUP2 DUP2 MSTORE POP POP PUSH1 0x0 PUSH2 0x2AE6 DUP9 PUSH2 0x4F0 DUP2 MLOAD DUP2 LT PUSH2 0x2AD4 JUMPI INVALID JUMPDEST PUSH1 0x20 MUL PUSH1 0x20 ADD ADD MLOAD PUSH1 0x2 EXP PUSH1 0x20 PUSH2 0x3C92 JUMP JUMPDEST SWAP1 POP PUSH1 0x0 PUSH2 0x2AF4 DUP9 DUP4 PUSH2 0x2232 JUMP JUMPDEST PUSH1 0x5 SLOAD PUSH1 0x40 DUP1 MLOAD PUSH4 0x17B61B57 PUSH1 0xE2 SHL DUP2 MSTORE PUSH1 0x4 DUP2 ADD DUP5 SWAP1 MSTORE SWAP1 MLOAD SWAP3 SWAP4 POP PUSH1 0x1 PUSH1 0x1 PUSH1 0xA0 SHL SUB SWAP1 SWAP2 AND SWAP2 PUSH4 0x5ED86D5C SWAP2 PUSH1 0x24 DUP1 DUP3 ADD SWAP3 PUSH1 0x20 SWAP3 SWAP1 SWAP2 SWAP1 DUP3 SWAP1 SUB ADD DUP2 DUP7 DUP1 EXTCODESIZE ISZERO DUP1 ISZERO PUSH2 0x2B43 JUMPI PUSH1 0x0 DUP1 REVERT JUMPDEST POP GAS STATICCALL ISZERO DUP1 ISZERO PUSH2 0x2B57 JUMPI RETURNDATASIZE PUSH1 0x0 DUP1 RETURNDATACOPY RETURNDATASIZE PUSH1 0x0 REVERT JUMPDEST POP POP POP POP PUSH1 0x40 MLOAD RETURNDATASIZE PUSH1 0x20 DUP2 LT ISZERO PUSH2 0x2B6D JUMPI PUSH1 0x0 DUP1 REVERT JUMPDEST POP MLOAD DUP10 MLOAD DUP11 SWAP1 PUSH2 0x141 SWAP1 DUP2 LT PUSH2 0x2B7F JUMPI INVALID JUMPDEST PUSH1 0x20 SWAP1 DUP2 MUL SWAP2 SWAP1 SWAP2 ADD DUP2 ADD SWAP2 SWAP1 SWAP2 MSTORE PUSH1 0x6 SLOAD PUSH1 0x40 DUP1 MLOAD PUSH4 0x17B61B57 PUSH1 0xE2 SHL DUP2 MSTORE PUSH1 0x4 DUP2 ADD DUP6 SWAP1 MSTORE SWAP1 MLOAD PUSH1 0x1 PUSH1 0x1 PUSH1 0xA0 SHL SUB SWAP1 SWAP3 AND SWAP3 PUSH4 0x5ED86D5C SWAP3 PUSH1 0x24 DUP1 DUP5 ADD SWAP4 DUP3 SWAP1 SUB ADD DUP2 DUP7 DUP1 EXTCODESIZE ISZERO DUP1 ISZERO PUSH2 0x2BD4 JUMPI PUSH1 0x0 DUP1 REVERT JUMPDEST POP GAS STATICCALL ISZERO DUP1 ISZERO PUSH2 0x2BE8 JUMPI RETURNDATASIZE PUSH1 0x0 DUP1 RETURNDATACOPY RETURNDATASIZE PUSH1 0x0 REVERT JUMPDEST POP POP POP POP PUSH1 0x40 MLOAD RETURNDATASIZE PUSH1 0x20 DUP2 LT ISZERO PUSH2 0x2BFE JUMPI PUSH1 0x0 DUP1 REVERT JUMPDEST POP MLOAD DUP10 MLOAD DUP11 SWAP1 PUSH2 0x142 SWAP1 DUP2 LT PUSH2 0x2C10 JUMPI INVALID JUMPDEST PUSH1 0x20 SWAP1 DUP2 MUL SWAP2 SWAP1 SWAP2 ADD DUP2 ADD SWAP2 SWAP1 SWAP2 MSTORE PUSH1 0x7 SLOAD PUSH1 0x40 DUP1 MLOAD PUSH4 0x17B61B57 PUSH1 0xE2 SHL DUP2 MSTORE PUSH1 0x4 DUP2 ADD DUP6 SWAP1 MSTORE SWAP1 MLOAD PUSH1 0x1 PUSH1 0x1 PUSH1 0xA0 SHL SUB SWAP1 SWAP3 AND SWAP3 PUSH4 0x5ED86D5C SWAP3 PUSH1 0x24 DUP1 DUP5 ADD SWAP4 DUP3 SWAP1 SUB ADD DUP2 DUP7 DUP1 EXTCODESIZE ISZERO DUP1 ISZERO PUSH2 0x2C65 JUMPI PUSH1 0x0 DUP1 REVERT JUMPDEST POP GAS STATICCALL ISZERO DUP1 ISZERO PUSH2 0x2C79 JUMPI RETURNDATASIZE PUSH1 0x0 DUP1 RETURNDATACOPY RETURNDATASIZE PUSH1 0x0 REVERT JUMPDEST POP POP POP POP PUSH1 0x40 MLOAD RETURNDATASIZE PUSH1 0x20 DUP2 LT ISZERO PUSH2 0x2C8F JUMPI PUSH1 0x0 DUP1 REVERT JUMPDEST POP MLOAD DUP10 MLOAD DUP11 SWAP1 PUSH2 0x143 SWAP1 DUP2 LT PUSH2 0x2CA1 JUMPI INVALID JUMPDEST PUSH1 0x20 SWAP1 DUP2 MUL SWAP2 SWAP1 SWAP2 ADD DUP2 ADD SWAP2 SWAP1 SWAP2 MSTORE PUSH1 0x8 SLOAD PUSH1 0x40 DUP1 MLOAD PUSH4 0x17B61B57 PUSH1 0xE2 SHL DUP2 MSTORE PUSH1 0x4 DUP2 ADD DUP6 SWAP1 MSTORE SWAP1 MLOAD PUSH1 0x1 PUSH1 0x1 PUSH1 0xA0 SHL SUB SWAP1 SWAP3 AND SWAP3 PUSH4 0x5ED86D5C SWAP3 PUSH1 0x24 DUP1 DUP5 ADD SWAP4 DUP3 SWAP1 SUB ADD DUP2 DUP7 DUP1 EXTCODESIZE ISZERO DUP1 ISZERO PUSH2 0x2CF6 JUMPI PUSH1 0x0 DUP1 REVERT JUMPDEST POP GAS STATICCALL ISZERO DUP1 ISZERO PUSH2 0x2D0A JUMPI RETURNDATASIZE PUSH1 0x0 DUP1 RETURNDATACOPY RETURNDATASIZE PUSH1 0x0 REVERT JUMPDEST POP POP POP POP PUSH1 0x40 MLOAD RETURNDATASIZE PUSH1 0x20 DUP2 LT ISZERO PUSH2 0x2D20 JUMPI PUSH1 0x0 DUP1 REVERT JUMPDEST POP MLOAD DUP10 MLOAD DUP11 SWAP1 PUSH2 0x144 SWAP1 DUP2 LT PUSH2 0x2D32 JUMPI INVALID JUMPDEST PUSH1 0x20 SWAP1 DUP2 MUL SWAP2 SWAP1 SWAP2 ADD DUP2 ADD SWAP2 SWAP1 SWAP2 MSTORE PUSH1 0x9 SLOAD PUSH1 0x40 DUP1 MLOAD PUSH4 0x17B61B57 PUSH1 0xE2 SHL DUP2 MSTORE PUSH1 0x4 DUP2 ADD DUP6 SWAP1 MSTORE SWAP1 MLOAD PUSH1 0x1 PUSH1 0x1 PUSH1 0xA0 SHL SUB SWAP1 SWAP3 AND SWAP3 PUSH4 0x5ED86D5C SWAP3 PUSH1 0x24 DUP1 DUP5 ADD SWAP4 DUP3 SWAP1 SUB ADD DUP2 DUP7 DUP1 EXTCODESIZE ISZERO DUP1 ISZERO PUSH2 0x2D87 JUMPI PUSH1 0x0 DUP1 REVERT JUMPDEST POP GAS STATICCALL ISZERO DUP1 ISZERO PUSH2 0x2D9B JUMPI RETURNDATASIZE PUSH1 0x0 DUP1 RETURNDATACOPY RETURNDATASIZE PUSH1 0x0 REVERT JUMPDEST POP POP POP POP PUSH1 0x40 MLOAD RETURNDATASIZE PUSH1 0x20 DUP2 LT ISZERO PUSH2 0x2DB1 JUMPI PUSH1 0x0 DUP1 REVERT JUMPDEST POP MLOAD DUP10 MLOAD DUP11 SWAP1 PUSH2 0x145 SWAP1 DUP2 LT PUSH2 0x2DC3 JUMPI INVALID JUMPDEST PUSH1 0x20 MUL PUSH1 0x20 ADD ADD DUP2 DUP2 MSTORE POP POP POP POP POP POP POP POP POP POP POP JUMP JUMPDEST PUSH1 0x0 PUSH1 0x1 PUSH1 0x11 PUSH1 0xC0 SHL ADD PUSH1 0x1 PUSH1 0xFB SHL ADD DUP3 DUP5 MULMOD SWAP4 SWAP3 POP POP POP JUMP JUMPDEST PUSH1 0x0 PUSH1 0x1 PUSH1 0x11 PUSH1 0xC0 SHL ADD PUSH1 0x1 PUSH1 0xFB SHL ADD DUP3 DUP5 ADDMOD SWAP4 SWAP3 POP POP POP JUMP JUMPDEST PUSH1 0x0 DUP1 PUSH1 0x0 PUSH2 0x2E1C DUP5 PUSH2 0x3ECC JUMP JUMPDEST SWAP1 SWAP3 POP SWAP1 POP PUSH2 0x2E2B DUP3 DUP3 PUSH2 0x3ED8 JUMP JUMPDEST SWAP5 POP SWAP1 SWAP3 POP SWAP1 POP PUSH2 0x2E3D DUP5 DUP4 DUP4 PUSH2 0x3C23 JUMP JUMPDEST POP POP SWAP2 SWAP1 POP JUMP JUMPDEST PUSH1 0x0 DUP2 PUSH1 0x9 DUP2 MLOAD DUP2 LT PUSH2 0x2E53 JUMPI INVALID JUMPDEST PUSH1 0x20 MUL PUSH1 0x20 ADD ADD MLOAD SWAP1 POP PUSH1 0x0 PUSH2 0x2E6A DUP4 PUSH1 0x6D PUSH2 0x12C8 JUMP JUMPDEST SWAP1 POP PUSH1 0x60 DUP3 MUL DUP2 ADD PUSH1 0x0 PUSH2 0x2E80 DUP6 PUSH2 0x27F PUSH2 0x12C8 JUMP JUMPDEST SWAP1 POP PUSH1 0x0 DUP6 PUSH1 0x2 DUP2 MLOAD DUP2 LT PUSH2 0x2E91 JUMPI INVALID JUMPDEST PUSH1 0x20 MUL PUSH1 0x20 ADD ADD MLOAD SWAP1 POP PUSH1 0x0 DUP7 PUSH1 0x0 DUP2 MLOAD DUP2 LT PUSH2 0x2EAA JUMPI INVALID JUMPDEST PUSH1 0x20 MUL PUSH1 0x20 ADD ADD MLOAD SWAP1 POP PUSH1 0x0 DUP8 PUSH1 0x4 DUP2 MLOAD DUP2 LT PUSH2 0x2EC3 JUMPI INVALID JUMPDEST PUSH1 0x20 MUL PUSH1 0x20 ADD ADD MLOAD SWAP1 POP PUSH2 0x2FDA JUMP JUMPDEST PUSH1 0x0 DUP2 SWAP1 POP PUSH8 0xAAAAAAAAAAAAAAAA DUP2 AND PUSH8 0x5555555555555555 DUP3 AND PUSH1 0x2 SHL OR SWAP1 POP PUSH9 0x19999999999999998 DUP2 AND PUSH8 0x6666666666666666 DUP3 AND PUSH1 0x4 SHL OR SWAP1 POP PUSH9 0x78787878787878780 DUP2 AND PUSH8 0x7878787878787878 DUP3 AND PUSH1 0x8 SHL OR SWAP1 POP PUSH9 0x7F807F807F807F8000 DUP2 AND PUSH8 0x7F807F807F807F80 DUP3 AND PUSH1 0x10 SHL OR SWAP1 POP PUSH10 0x7FFF80007FFF80000000 DUP2 AND PUSH8 0x7FFF80007FFF8000 DUP3 AND PUSH1 0x20 SHL OR SWAP1 POP PUSH12 0x7FFFFFFF8000000000000000 DUP2 AND PUSH8 0x7FFFFFFF80000000 DUP3 AND PUSH1 0x40 SHL OR SWAP1 POP DUP1 DUP4 PUSH1 0x7F SUB SHR SWAP1 POP SWAP3 SWAP2 POP POP JUMP JUMPDEST PUSH1 0x0 PUSH1 0x40 MLOAD PUSH1 0x20 DUP2 MSTORE PUSH1 0x20 DUP1 DUP3 ADD MSTORE PUSH1 0x20 PUSH1 0x40 DUP3 ADD MSTORE DUP3 PUSH1 0x60 DUP3 ADD MSTORE DUP4 PUSH1 0x80 DUP3 ADD MSTORE DUP5 PUSH1 0xA0 DUP3 ADD MSTORE PUSH1 0x20 DUP2 PUSH1 0xC0 DUP4 PUSH1 0x5 GAS STATICCALL PUSH2 0x2FD1 JUMPI PUSH1 0x0 DUP1 REVERT JUMPDEST MLOAD SWAP5 SWAP4 POP POP POP POP JUMP JUMPDEST DUP5 DUP7 LT ISZERO PUSH2 0x301E JUMPI DUP6 MLOAD DUP3 DUP2 ADD DUP8 MSTORE PUSH2 0x300A PUSH1 0x1 PUSH1 0x11 PUSH1 0xC0 SHL ADD PUSH1 0x1 PUSH1 0xFB SHL ADD PUSH2 0x3004 DUP7 DUP5 PUSH2 0x2ED2 JUMP JUMPDEST DUP5 PUSH2 0x2F96 JUMP JUMPDEST DUP6 MSTORE POP PUSH1 0x20 DUP5 ADD SWAP4 POP PUSH1 0x60 DUP7 ADD SWAP6 POP PUSH2 0x2FDA JUMP JUMPDEST POP POP POP POP POP POP POP POP JUMP JUMPDEST PUSH1 0xA SWAP1 JUMP JUMPDEST PUSH1 0x9 SWAP1 JUMP JUMPDEST PUSH2 0x303A PUSH2 0x3179 JUMP JUMPDEST PUSH2 0x3042 PUSH2 0x3028 JUMP JUMPDEST ADD DUP4 GT ISZERO PUSH2 0x308B JUMPI PUSH1 0x40 DUP1 MLOAD PUSH3 0x461BCD PUSH1 0xE5 SHL DUP2 MSTORE PUSH1 0x20 PUSH1 0x4 DUP3 ADD MSTORE PUSH1 0x11 PUSH1 0x24 DUP3 ADD MSTORE PUSH17 0x2A37B79036B0B73C9031B7B63AB6B73997 PUSH1 0x79 SHL PUSH1 0x44 DUP3 ADD MSTORE SWAP1 MLOAD SWAP1 DUP2 SWAP1 SUB PUSH1 0x64 ADD SWAP1 REVERT JUMPDEST PUSH1 0x0 DUP6 PUSH1 0x9 DUP2 MLOAD DUP2 LT PUSH2 0x309A JUMPI INVALID JUMPDEST PUSH1 0x20 MUL PUSH1 0x20 ADD ADD MLOAD SWAP1 POP PUSH1 0x0 PUSH2 0x30B1 DUP8 PUSH1 0xA PUSH2 0x12C8 JUMP JUMPDEST SWAP1 POP PUSH1 0x0 PUSH2 0x30C0 DUP9 PUSH1 0x6D PUSH2 0x12C8 JUMP JUMPDEST SWAP1 POP PUSH1 0x60 DUP4 MUL DUP2 ADD PUSH1 0x0 PUSH2 0x30D5 DUP11 PUSH1 0xD PUSH2 0x12C8 JUMP JUMPDEST DUP5 MLOAD DUP1 MLOAD PUSH1 0x20 DUP3 DUP2 ADD MLOAD DUP2 DUP14 MUL DUP1 DUP6 KECCAK256 SWAP6 SWAP7 POP SWAP5 DUP14 DUP16 SUB SWAP1 SWAP3 MUL SWAP4 SWAP2 SWAP3 SWAP2 DUP7 JUMPDEST DUP9 DUP11 LT ISZERO PUSH2 0x3158 JUMPI PUSH12 0xFFFFFFFFFFFFFFFFFFFFFFFF NOT DUP8 DUP4 KECCAK256 AND PUSH1 0x20 DUP9 EQ ISZERO PUSH2 0x311C JUMPI POP DUP2 MLOAD JUMPDEST DUP11 MLOAD DUP3 MSTORE PUSH1 0x20 DUP3 ADD MSTORE PUSH1 0x40 ADD DUP2 DUP8 ADD JUMPDEST DUP1 DUP4 LT ISZERO PUSH2 0x3147 JUMPI DUP3 MLOAD DUP16 MSTORE PUSH1 0x20 SWAP15 DUP16 ADD SWAP15 SWAP1 SWAP3 ADD SWAP2 PUSH2 0x312C JUMP JUMPDEST POP DUP6 DUP15 ADD SWAP14 POP PUSH1 0x60 DUP11 ADD SWAP10 POP PUSH2 0x30F5 JUMP JUMPDEST POP DUP10 MSTORE PUSH2 0x3167 DUP10 DUP8 DUP14 DUP14 PUSH2 0x3F0B JUMP JUMPDEST POP POP POP POP POP POP POP POP POP POP POP POP POP POP POP POP JUMP JUMPDEST PUSH1 0x2 SWAP1 JUMP JUMPDEST PUSH1 0x0 PUSH2 0x3189 DUP3 PUSH2 0x1270 JUMP JUMPDEST SWAP1 POP PUSH1 0x0 DUP3 PUSH1 0x9 DUP2 MLOAD DUP2 LT PUSH2 0x319A JUMPI INVALID JUMPDEST PUSH1 0x20 MUL PUSH1 0x20 ADD ADD MLOAD SWAP1 POP PUSH1 0x0 JUMPDEST DUP2 DUP2 LT ISZERO PUSH2 0x320B JUMPI PUSH2 0x31E3 DUP5 DUP3 PUSH1 0x3 MUL PUSH1 0x6D ADD PUSH1 0x1 ADD DUP2 MLOAD DUP2 LT PUSH2 0x31C7 JUMPI INVALID JUMPDEST PUSH1 0x20 MUL PUSH1 0x20 ADD ADD MLOAD PUSH1 0x1F PUSH8 0x7FFFFFFFFFFFDF1 PUSH1 0xC0 SHL SUB PUSH2 0x2DDA JUMP JUMPDEST DUP5 DUP3 PUSH1 0x3 MUL PUSH1 0x6D ADD PUSH1 0x1 ADD DUP2 MLOAD DUP2 LT PUSH2 0x31F8 JUMPI INVALID JUMPDEST PUSH1 0x20 SWAP1 DUP2 MUL SWAP2 SWAP1 SWAP2 ADD ADD MSTORE PUSH1 0x1 ADD PUSH2 0x31A7 JUMP JUMPDEST POP PUSH1 0x0 PUSH2 0x3219 DUP5 PUSH1 0x6D PUSH2 0x12C8 JUMP JUMPDEST PUSH1 0x60 DUP4 DUP2 MUL DUP3 KECCAK256 SWAP2 SWAP3 POP PUSH2 0x322C DUP7 PUSH2 0x14F3 JUMP JUMPDEST DUP1 MLOAD SWAP1 SWAP2 POP PUSH1 0x0 NOT DUP2 ADD SWAP1 PUSH1 0x1 SWAP1 PUSH1 0x0 SWAP1 DUP5 SWAP1 DUP4 SWAP1 DUP2 LT PUSH2 0x3249 JUMPI INVALID JUMPDEST PUSH1 0x20 MUL PUSH1 0x20 ADD ADD MLOAD SWAP1 POP PUSH2 0x325B PUSH2 0x4529 JUMP JUMPDEST DUP4 DUP4 LT ISZERO PUSH2 0x343C JUMPI PUSH1 0x0 PUSH2 0x3270 DUP11 PUSH1 0x1 PUSH2 0x2265 JUMP JUMPDEST PUSH1 0x0 SHR SWAP1 POP DUP11 DUP5 PUSH2 0x127 ADD DUP2 MLOAD DUP2 LT PUSH2 0x3285 JUMPI INVALID JUMPDEST PUSH1 0x20 MUL PUSH1 0x20 ADD ADD MLOAD DUP3 PUSH1 0x0 PUSH1 0x5 DUP2 LT PUSH2 0x329A JUMPI INVALID JUMPDEST PUSH1 0x20 MUL ADD MSTORE DUP6 MLOAD DUP7 SWAP1 DUP6 SWAP1 DUP2 LT PUSH2 0x32AD JUMPI INVALID JUMPDEST PUSH1 0x20 MUL PUSH1 0x20 ADD ADD MLOAD DUP3 PUSH1 0x1 PUSH1 0x5 DUP2 LT PUSH2 0x32C2 JUMPI INVALID JUMPDEST PUSH1 0x20 MUL ADD MSTORE PUSH1 0x40 DUP3 ADD DUP8 SWAP1 MSTORE PUSH1 0x60 DUP3 ADD DUP2 SWAP1 MSTORE DUP11 MLOAD DUP12 SWAP1 PUSH2 0x130 DUP7 ADD SWAP1 DUP2 LT PUSH2 0x32E7 JUMPI INVALID JUMPDEST PUSH1 0x20 MUL PUSH1 0x20 ADD ADD MLOAD DUP3 PUSH1 0x4 PUSH1 0x5 DUP2 LT PUSH2 0x32FC JUMPI INVALID JUMPDEST PUSH1 0x20 SWAP1 DUP2 MUL SWAP2 SWAP1 SWAP2 ADD SWAP2 SWAP1 SWAP2 MSTORE PUSH1 0xD SLOAD PUSH1 0x40 MLOAD PUSH1 0x1 PUSH1 0x1 PUSH1 0xA0 SHL SUB SWAP1 SWAP2 AND SWAP2 PUSH4 0x6A938567 SWAP2 DUP6 SWAP2 ADD DUP1 DUP3 PUSH1 0xA0 DUP1 DUP4 DUP4 PUSH1 0x0 JUMPDEST DUP4 DUP2 LT ISZERO PUSH2 0x3346 JUMPI DUP2 DUP2 ADD MLOAD DUP4 DUP3 ADD MSTORE PUSH1 0x20 ADD PUSH2 0x332E JUMP JUMPDEST POP POP POP POP SWAP1 POP ADD SWAP2 POP POP PUSH1 0x40 MLOAD PUSH1 0x20 DUP2 DUP4 SUB SUB DUP2 MSTORE SWAP1 PUSH1 0x40 MSTORE DUP1 MLOAD SWAP1 PUSH1 0x20 ADD KECCAK256 PUSH1 0x40 MLOAD DUP3 PUSH4 0xFFFFFFFF AND PUSH1 0xE0 SHL DUP2 MSTORE PUSH1 0x4 ADD DUP1 DUP3 DUP2 MSTORE PUSH1 0x20 ADD SWAP2 POP POP PUSH1 0x20 PUSH1 0x40 MLOAD DUP1 DUP4 SUB DUP2 DUP7 DUP1 EXTCODESIZE ISZERO DUP1 ISZERO PUSH2 0x339A JUMPI PUSH1 0x0 DUP1 REVERT JUMPDEST POP GAS STATICCALL ISZERO DUP1 ISZERO PUSH2 0x33AE JUMPI RETURNDATASIZE PUSH1 0x0 DUP1 RETURNDATACOPY RETURNDATASIZE PUSH1 0x0 REVERT JUMPDEST POP POP POP POP PUSH1 0x40 MLOAD RETURNDATASIZE PUSH1 0x20 DUP2 LT ISZERO PUSH2 0x33C4 JUMPI PUSH1 0x0 DUP1 REVERT JUMPDEST POP MLOAD PUSH2 0x3413 JUMPI PUSH1 0x40 DUP1 MLOAD PUSH3 0x461BCD PUSH1 0xE5 SHL DUP2 MSTORE PUSH1 0x20 PUSH1 0x4 DUP3 ADD MSTORE PUSH1 0x19 PUSH1 0x24 DUP3 ADD MSTORE PUSH25 0x125395905312511055115117D1949257D4D510551153515395 PUSH1 0x3A SHL PUSH1 0x44 DUP3 ADD MSTORE SWAP1 MLOAD SWAP1 DUP2 SWAP1 SUB PUSH1 0x64 ADD SWAP1 REVERT JUMPDEST DUP1 SWAP7 POP DUP4 DUP1 PUSH1 0x1 ADD SWAP5 POP POP DUP6 DUP5 DUP2 MLOAD DUP2 LT PUSH2 0x342A JUMPI INVALID JUMPDEST PUSH1 0x20 MUL PUSH1 0x20 ADD ADD MLOAD DUP4 ADD SWAP3 POP POP PUSH2 0x325B JUMP JUMPDEST DUP10 DUP4 PUSH2 0x127 ADD DUP2 MLOAD DUP2 LT PUSH2 0x344C JUMPI INVALID JUMPDEST PUSH1 0x20 MUL PUSH1 0x20 ADD ADD MLOAD DUP2 PUSH1 0x0 PUSH1 0x5 DUP2 LT PUSH2 0x3461 JUMPI INVALID JUMPDEST PUSH1 0x20 MUL ADD MSTORE DUP5 MLOAD DUP6 SWAP1 DUP5 SWAP1 DUP2 LT PUSH2 0x3474 JUMPI INVALID JUMPDEST PUSH1 0x20 MUL PUSH1 0x20 ADD ADD MLOAD DUP2 PUSH1 0x1 PUSH1 0x5 DUP2 LT PUSH2 0x3489 JUMPI INVALID JUMPDEST PUSH1 0x20 MUL ADD MSTORE PUSH1 0x40 DUP2 ADD DUP7 SWAP1 MSTORE PUSH2 0x34A0 DUP11 DUP10 DUP5 PUSH2 0x3F22 JUMP JUMPDEST PUSH1 0x60 DUP3 ADD MSTORE DUP10 MLOAD DUP11 SWAP1 PUSH2 0x130 DUP6 ADD SWAP1 DUP2 LT PUSH2 0x34B7 JUMPI INVALID JUMPDEST PUSH1 0x20 MUL PUSH1 0x20 ADD ADD MLOAD DUP2 PUSH1 0x4 PUSH1 0x5 DUP2 LT PUSH2 0x34CC JUMPI INVALID JUMPDEST PUSH1 0x20 SWAP1 DUP2 MUL SWAP2 SWAP1 SWAP2 ADD SWAP2 SWAP1 SWAP2 MSTORE PUSH1 0xD SLOAD PUSH1 0x40 MLOAD PUSH1 0x1 PUSH1 0x1 PUSH1 0xA0 SHL SUB SWAP1 SWAP2 AND SWAP2 PUSH4 0x6A938567 SWAP2 DUP5 SWAP2 ADD DUP1 DUP3 PUSH1 0xA0 DUP1 DUP4 DUP4 PUSH1 0x0 JUMPDEST DUP4 DUP2 LT ISZERO PUSH2 0x3516 JUMPI DUP2 DUP2 ADD MLOAD DUP4 DUP3 ADD MSTORE PUSH1 0x20 ADD PUSH2 0x34FE JUMP JUMPDEST POP POP POP POP SWAP1 POP ADD SWAP2 POP POP PUSH1 0x40 MLOAD PUSH1 0x20 DUP2 DUP4 SUB SUB DUP2 MSTORE SWAP1 PUSH1 0x40 MSTORE DUP1 MLOAD SWAP1 PUSH1 0x20 ADD KECCAK256 PUSH1 0x40 MLOAD DUP3 PUSH4 0xFFFFFFFF AND PUSH1 0xE0 SHL DUP2 MSTORE PUSH1 0x4 ADD DUP1 DUP3 DUP2 MSTORE PUSH1 0x20 ADD SWAP2 POP POP PUSH1 0x20 PUSH1 0x40 MLOAD DUP1 DUP4 SUB DUP2 DUP7 DUP1 EXTCODESIZE ISZERO DUP1 ISZERO PUSH2 0x356A JUMPI PUSH1 0x0 DUP1 REVERT JUMPDEST POP GAS STATICCALL ISZERO DUP1 ISZERO PUSH2 0x357E JUMPI RETURNDATASIZE PUSH1 0x0 DUP1 RETURNDATACOPY RETURNDATASIZE PUSH1 0x0 REVERT JUMPDEST POP POP POP POP PUSH1 0x40 MLOAD RETURNDATASIZE PUSH1 0x20 DUP2 LT ISZERO PUSH2 0x3594 JUMPI PUSH1 0x0 DUP1 REVERT JUMPDEST POP MLOAD PUSH2 0x35E3 JUMPI PUSH1 0x40 DUP1 MLOAD PUSH3 0x461BCD PUSH1 0xE5 SHL DUP2 MSTORE PUSH1 0x20 PUSH1 0x4 DUP3 ADD MSTORE PUSH1 0x19 PUSH1 0x24 DUP3 ADD MSTORE PUSH25 0x125395905312511055115117D1949257D4D510551153515395 PUSH1 0x3A SHL PUSH1 0x44 DUP3 ADD MSTORE SWAP1 MLOAD SWAP1 DUP2 SWAP1 SUB PUSH1 0x64 ADD SWAP1 REVERT JUMPDEST POP POP POP POP POP POP POP POP POP POP JUMP JUMPDEST PUSH1 0x0 PUSH1 0x1 DUP1 DUP4 PUSH1 0x3 MUL PUSH2 0x3600 PUSH2 0x1A6E JUMP JUMPDEST ADD SUB ADD SWAP3 SWAP2 POP POP JUMP JUMPDEST PUSH1 0x0 PUSH1 0x1 PUSH1 0x4 DUP4 MUL PUSH2 0x3619 PUSH2 0x1A6E JUMP JUMPDEST ADD SUB SWAP3 SWAP2 POP POP JUMP JUMPDEST PUSH1 0x0 DUP2 PUSH1 0x8 DUP2 MLOAD DUP2 LT PUSH2 0x3630 JUMPI INVALID JUMPDEST PUSH1 0x20 MUL PUSH1 0x20 ADD ADD MLOAD SWAP1 POP PUSH1 0x0 DUP3 PUSH1 0x9 DUP2 MLOAD DUP2 LT PUSH2 0x3649 JUMPI INVALID JUMPDEST PUSH1 0x20 MUL PUSH1 0x20 ADD ADD MLOAD SWAP1 POP DUP1 DUP3 GT ISZERO PUSH2 0x3692 JUMPI PUSH1 0x40 MLOAD PUSH3 0x461BCD PUSH1 0xE5 SHL DUP2 MSTORE PUSH1 0x4 ADD DUP1 DUP1 PUSH1 0x20 ADD DUP3 DUP2 SUB DUP3 MSTORE PUSH1 0x25 DUP2 MSTORE PUSH1 0x20 ADD DUP1 PUSH2 0x4605 PUSH1 0x25 SWAP2 CODECOPY PUSH1 0x40 ADD SWAP2 POP POP PUSH1 0x40 MLOAD DUP1 SWAP2 SUB SWAP1 REVERT JUMPDEST PUSH1 0x1 PUSH1 0x40 SHL DUP2 LT PUSH2 0x36EA JUMPI PUSH1 0x40 DUP1 MLOAD PUSH3 0x461BCD PUSH1 0xE5 SHL DUP2 MSTORE PUSH1 0x20 PUSH1 0x4 DUP3 ADD MSTORE PUSH1 0x1D PUSH1 0x24 DUP3 ADD MSTORE PUSH32 0x4F7574206F662072616E6765206F75747075742073746F705F7074722E000000 PUSH1 0x44 DUP3 ADD MSTORE SWAP1 MLOAD SWAP1 DUP2 SWAP1 SUB PUSH1 0x64 ADD SWAP1 REVERT JUMPDEST PUSH1 0x0 DUP5 PUSH2 0x4F0 DUP2 MLOAD DUP2 LT PUSH2 0x36FA JUMPI INVALID JUMPDEST PUSH1 0x20 MUL PUSH1 0x20 ADD ADD MLOAD PUSH1 0x2 EXP SWAP1 POP DUP4 PUSH1 0xA DUP2 MLOAD DUP2 LT PUSH2 0x3714 JUMPI INVALID JUMPDEST PUSH1 0x20 MUL PUSH1 0x20 ADD ADD MLOAD DUP6 PUSH2 0x15C DUP2 MLOAD DUP2 LT PUSH2 0x372A JUMPI INVALID JUMPDEST PUSH1 0x20 MUL PUSH1 0x20 ADD ADD DUP2 DUP2 MSTORE POP POP PUSH2 0x378F DUP6 PUSH2 0x15C DUP2 MLOAD DUP2 LT PUSH2 0x3747 JUMPI INVALID JUMPDEST PUSH1 0x20 MUL PUSH1 0x20 ADD ADD MLOAD DUP6 PUSH1 0xB DUP2 MLOAD DUP2 LT PUSH2 0x375C JUMPI INVALID JUMPDEST PUSH1 0x20 MUL PUSH1 0x20 ADD ADD MLOAD PUSH1 0x20 PUSH1 0x3 DUP6 PUSH1 0x40 MLOAD DUP1 PUSH1 0x40 ADD PUSH1 0x40 MSTORE DUP1 PUSH1 0x8 DUP2 MSTORE PUSH1 0x20 ADD PUSH8 0x3832B232B939B2B7 PUSH1 0xC1 SHL DUP2 MSTORE POP PUSH2 0x4096 JUMP JUMPDEST PUSH32 0x49EE3EBA8C1600700EE1B87EB599F16716B0B1022947733551FDE4050CA6804 DUP6 PUSH2 0x15A DUP2 MLOAD DUP2 LT PUSH2 0x37BE JUMPI INVALID JUMPDEST PUSH1 0x20 MUL PUSH1 0x20 ADD ADD DUP2 DUP2 MSTORE POP POP PUSH32 0x3CA0CFE4B3BC6DDF346D49D06EA0ED34E621062C0E056C1D0405D266E10268A DUP6 PUSH2 0x15B DUP2 MLOAD DUP2 LT PUSH2 0x37F9 JUMPI INVALID JUMPDEST PUSH1 0x20 MUL PUSH1 0x20 ADD ADD DUP2 DUP2 MSTORE POP POP DUP4 PUSH1 0xC DUP2 MLOAD DUP2 LT PUSH2 0x3812 JUMPI INVALID JUMPDEST PUSH1 0x20 MUL PUSH1 0x20 ADD ADD MLOAD DUP6 PUSH2 0x15D DUP2 MLOAD DUP2 LT PUSH2 0x3828 JUMPI INVALID JUMPDEST PUSH1 0x20 MUL PUSH1 0x20 ADD ADD DUP2 DUP2 MSTORE POP POP PUSH2 0x3890 DUP6 PUSH2 0x15D DUP2 MLOAD DUP2 LT PUSH2 0x3845 JUMPI INVALID JUMPDEST PUSH1 0x20 MUL PUSH1 0x20 ADD ADD MLOAD DUP6 PUSH1 0xD DUP2 MLOAD DUP2 LT PUSH2 0x385A JUMPI INVALID JUMPDEST PUSH1 0x20 MUL PUSH1 0x20 ADD ADD MLOAD PUSH1 0x10 PUSH1 0x1 DUP6 PUSH1 0x40 MLOAD DUP1 PUSH1 0x40 ADD PUSH1 0x40 MSTORE DUP1 PUSH1 0xB DUP2 MSTORE PUSH1 0x20 ADD PUSH11 0x72616E67655F636865636B PUSH1 0xA8 SHL DUP2 MSTORE POP PUSH2 0x4096 JUMP JUMPDEST PUSH1 0x1 DUP6 PUSH2 0x151 DUP2 MLOAD DUP2 LT PUSH2 0x38A0 JUMPI INVALID JUMPDEST PUSH1 0x20 MUL PUSH1 0x20 ADD ADD DUP2 DUP2 MSTORE POP POP DUP4 PUSH1 0xE DUP2 MLOAD DUP2 LT PUSH2 0x38B9 JUMPI INVALID JUMPDEST PUSH1 0x20 MUL PUSH1 0x20 ADD ADD MLOAD DUP6 PUSH2 0x162 DUP2 MLOAD DUP2 LT PUSH2 0x38CF JUMPI INVALID JUMPDEST PUSH1 0x20 MUL PUSH1 0x20 ADD ADD DUP2 DUP2 MSTORE POP POP PUSH2 0x3932 DUP6 PUSH2 0x162 DUP2 MLOAD DUP2 LT PUSH2 0x38EC JUMPI INVALID JUMPDEST PUSH1 0x20 MUL PUSH1 0x20 ADD ADD MLOAD DUP6 PUSH1 0xF DUP2 MLOAD DUP2 LT PUSH2 0x3901 JUMPI INVALID JUMPDEST PUSH1 0x20 MUL PUSH1 0x20 ADD ADD MLOAD PUSH2 0x800 PUSH1 0x2 DUP6 PUSH1 0x40 MLOAD DUP1 PUSH1 0x40 ADD PUSH1 0x40 MSTORE DUP1 PUSH1 0x5 DUP2 MSTORE PUSH1 0x20 ADD PUSH5 0x6563647361 PUSH1 0xD8 SHL DUP2 MSTORE POP PUSH2 0x4096 JUMP JUMPDEST PUSH1 0x1 DUP6 PUSH2 0x15E DUP2 MLOAD DUP2 LT PUSH2 0x3942 JUMPI INVALID JUMPDEST PUSH1 0x20 MUL PUSH1 0x20 ADD ADD DUP2 DUP2 MSTORE POP POP PUSH32 0x6F21413EFBE40DE150E596D72F7A8C5609AD26C15C915C1F4CDFCB99CEE9E89 DUP6 PUSH2 0x161 DUP2 MLOAD DUP2 LT PUSH2 0x397D JUMPI INVALID JUMPDEST PUSH1 0x20 MUL PUSH1 0x20 ADD ADD DUP2 DUP2 MSTORE POP POP PUSH32 0x49EE3EBA8C1600700EE1B87EB599F16716B0B1022947733551FDE4050CA6804 DUP6 PUSH2 0x15F DUP2 MLOAD DUP2 LT PUSH2 0x39B8 JUMPI INVALID JUMPDEST PUSH1 0x20 MUL PUSH1 0x20 ADD ADD DUP2 DUP2 MSTORE POP POP PUSH32 0x3CA0CFE4B3BC6DDF346D49D06EA0ED34E621062C0E056C1D0405D266E10268A DUP6 PUSH2 0x160 DUP2 MLOAD DUP2 LT PUSH2 0x39F3 JUMPI INVALID JUMPDEST PUSH1 0x20 MUL PUSH1 0x20 ADD ADD DUP2 DUP2 MSTORE POP POP DUP4 PUSH1 0x10 DUP2 MLOAD DUP2 LT PUSH2 0x3A0C JUMPI INVALID JUMPDEST PUSH1 0x20 MUL PUSH1 0x20 ADD ADD MLOAD DUP6 PUSH2 0x163 DUP2 MLOAD DUP2 LT PUSH2 0x3A22 JUMPI INVALID JUMPDEST PUSH1 0x20 MUL PUSH1 0x20 ADD ADD DUP2 DUP2 MSTORE POP POP PUSH2 0x3A86 DUP6 PUSH2 0x163 DUP2 MLOAD DUP2 LT PUSH2 0x3A3F JUMPI INVALID JUMPDEST PUSH1 0x20 MUL PUSH1 0x20 ADD ADD MLOAD DUP6 PUSH1 0x11 DUP2 MLOAD DUP2 LT PUSH2 0x3A54 JUMPI INVALID JUMPDEST PUSH1 0x20 MUL PUSH1 0x20 ADD ADD MLOAD PUSH1 0x40 PUSH1 0x5 DUP6 PUSH1 0x40 MLOAD DUP1 PUSH1 0x40 ADD PUSH1 0x40 MSTORE DUP1 PUSH1 0x7 DUP2 MSTORE PUSH1 0x20 ADD PUSH7 0x62697477697365 PUSH1 0xC8 SHL DUP2 MSTORE POP PUSH2 0x4096 JUMP JUMPDEST PUSH1 0x1 DUP6 PUSH2 0x155 DUP2 MLOAD DUP2 LT PUSH2 0x3A96 JUMPI INVALID JUMPDEST PUSH1 0x20 MUL PUSH1 0x20 ADD ADD DUP2 DUP2 MSTORE POP POP PUSH1 0x0 DUP6 PUSH2 0x156 DUP2 MLOAD DUP2 LT PUSH2 0x3AB2 JUMPI INVALID JUMPDEST PUSH1 0x20 MUL PUSH1 0x20 ADD ADD DUP2 DUP2 MSTORE POP POP DUP4 PUSH1 0x12 DUP2 MLOAD DUP2 LT PUSH2 0x3ACB JUMPI INVALID JUMPDEST PUSH1 0x20 MUL PUSH1 0x20 ADD ADD MLOAD DUP6 PUSH2 0x164 DUP2 MLOAD DUP2 LT PUSH2 0x3AE1 JUMPI INVALID JUMPDEST PUSH1 0x20 MUL PUSH1 0x20 ADD ADD DUP2 DUP2 MSTORE POP POP PUSH2 0x3B44 DUP6 PUSH2 0x164 DUP2 MLOAD DUP2 LT PUSH2 0x3AFE JUMPI INVALID JUMPDEST PUSH1 0x20 MUL PUSH1 0x20 ADD ADD MLOAD DUP6 PUSH1 0x13 DUP2 MLOAD DUP2 LT PUSH2 0x3B13 JUMPI INVALID JUMPDEST PUSH1 0x20 MUL PUSH1 0x20 ADD ADD MLOAD PUSH2 0x400 PUSH1 0x7 DUP6 PUSH1 0x40 MLOAD DUP1 PUSH1 0x40 ADD PUSH1 0x40 MSTORE DUP1 PUSH1 0x5 DUP2 MSTORE PUSH1 0x20 ADD PUSH5 0x65635F6F7 PUSH1 0xDC SHL DUP2 MSTORE POP PUSH2 0x4096 JUMP JUMPDEST PUSH1 0x1 DUP6 PUSH2 0x165 DUP2 MLOAD DUP2 LT PUSH2 0x3B54 JUMPI INVALID JUMPDEST PUSH1 0x20 MUL PUSH1 0x20 ADD ADD DUP2 DUP2 MSTORE POP POP DUP4 PUSH1 0x14 DUP2 MLOAD DUP2 LT PUSH2 0x3B6D JUMPI INVALID JUMPDEST PUSH1 0x20 MUL PUSH1 0x20 ADD ADD MLOAD DUP6 PUSH2 0x166 DUP2 MLOAD DUP2 LT PUSH2 0x3B83 JUMPI INVALID JUMPDEST PUSH1 0x20 MUL PUSH1 0x20 ADD ADD DUP2 DUP2 MSTORE POP POP PUSH2 0x16E2 DUP6 PUSH2 0x166 DUP2 MLOAD DUP2 LT PUSH2 0x3BA0 JUMPI INVALID JUMPDEST PUSH1 0x20 MUL PUSH1 0x20 ADD ADD MLOAD DUP6 PUSH1 0x15 DUP2 MLOAD DUP2 LT PUSH2 0x3BB5 JUMPI INVALID JUMPDEST PUSH1 0x20 MUL PUSH1 0x20 ADD ADD MLOAD PUSH1 0x20 PUSH1 0x6 DUP6 PUSH1 0x40 MLOAD DUP1 PUSH1 0x40 ADD PUSH1 0x40 MSTORE DUP1 PUSH1 0x8 DUP2 MSTORE PUSH1 0x20 ADD PUSH8 0x3837B9B2B4B237B7 PUSH1 0xC1 SHL DUP2 MSTORE POP PUSH2 0x4096 JUMP JUMPDEST PUSH1 0x0 PUSH1 0x40 MLOAD PUSH1 0x20 DUP2 MSTORE PUSH1 0x20 DUP1 DUP3 ADD MSTORE PUSH1 0x20 PUSH1 0x40 DUP3 ADD MSTORE DUP5 PUSH1 0x60 DUP3 ADD MSTORE DUP4 PUSH1 0x80 DUP3 ADD MSTORE DUP3 PUSH1 0xA0 DUP3 ADD MSTORE PUSH1 0x20 DUP2 PUSH1 0xC0 DUP4 PUSH1 0x5 GAS STATICCALL PUSH2 0x2FD1 JUMPI PUSH1 0x0 DUP1 REVERT JUMPDEST SWAP1 DUP3 MSTORE PUSH1 0x20 SWAP1 SWAP2 ADD MSTORE JUMP JUMPDEST PUSH1 0x0 PUSH1 0x2 PUSH1 0x1 DUP4 PUSH1 0x3 MUL PUSH2 0x3600 PUSH2 0x1A6E JUMP JUMPDEST PUSH1 0x0 PUSH1 0x1 DUP3 LT ISZERO PUSH2 0x3C82 JUMPI PUSH1 0x40 MLOAD PUSH3 0x461BCD PUSH1 0xE5 SHL DUP2 MSTORE PUSH1 0x4 ADD DUP1 DUP1 PUSH1 0x20 ADD DUP3 DUP2 SUB DUP3 MSTORE PUSH1 0x32 DUP2 MSTORE PUSH1 0x20 ADD DUP1 PUSH2 0x4813 PUSH1 0x32 SWAP2 CODECOPY PUSH1 0x40 ADD SWAP2 POP POP PUSH1 0x40 MLOAD DUP1 SWAP2 SUB SWAP1 REVERT JUMPDEST PUSH1 0x0 PUSH1 0x1 DUP4 PUSH1 0x3 MUL PUSH2 0x3600 PUSH2 0x1A6E JUMP JUMPDEST PUSH1 0x0 DUP1 DUP3 GT PUSH2 0x3CE8 JUMPI PUSH1 0x40 DUP1 MLOAD PUSH3 0x461BCD PUSH1 0xE5 SHL DUP2 MSTORE PUSH1 0x20 PUSH1 0x4 DUP3 ADD DUP2 SWAP1 MSTORE PUSH1 0x24 DUP3 ADD MSTORE PUSH32 0x5468652064656E6F6D696E61746F72206D757374206E6F74206265207A65726F PUSH1 0x44 DUP3 ADD MSTORE SWAP1 MLOAD SWAP1 DUP2 SWAP1 SUB PUSH1 0x64 ADD SWAP1 REVERT JUMPDEST DUP2 DUP4 DUP2 PUSH2 0x3CF1 JUMPI INVALID JUMPDEST MOD ISZERO PUSH2 0x3D2E JUMPI PUSH1 0x40 MLOAD PUSH3 0x461BCD PUSH1 0xE5 SHL DUP2 MSTORE PUSH1 0x4 ADD DUP1 DUP1 PUSH1 0x20 ADD DUP3 DUP2 SUB DUP3 MSTORE PUSH1 0x32 DUP2 MSTORE PUSH1 0x20 ADD DUP1 PUSH2 0x4867 PUSH1 0x32 SWAP2 CODECOPY PUSH1 0x40 ADD SWAP2 POP POP PUSH1 0x40 MLOAD DUP1 SWAP2 SUB SWAP1 REVERT JUMPDEST DUP2 DUP4 DUP2 PUSH2 0x3D37 JUMPI INVALID JUMPDEST DIV SWAP4 SWAP3 POP POP POP JUMP JUMPDEST PUSH1 0x1 PUSH1 0x20 DUP4 MUL DUP5 ADD DUP5 JUMPDEST DUP2 DUP2 LT ISZERO PUSH2 0x3D60 JUMPI DUP4 DUP2 MLOAD DUP5 MULMOD SWAP3 POP PUSH1 0x20 ADD PUSH2 0x3D49 JUMP JUMPDEST POP POP SWAP4 SWAP3 POP POP POP JUMP JUMPDEST PUSH1 0x0 PUSH1 0x1 PUSH1 0x11 PUSH1 0xC0 SHL ADD PUSH1 0x1 PUSH1 0xFB SHL ADD DUP3 PUSH1 0x1 PUSH1 0x11 PUSH1 0xC0 SHL ADD PUSH1 0x1 PUSH1 0xFB SHL ADD SUB DUP5 ADDMOD SWAP4 SWAP3 POP POP POP JUMP JUMPDEST PUSH1 0x0 PUSH2 0x3DBA DUP3 PUSH1 0x1 PUSH8 0x800000000000011 PUSH1 0xC0 SHL SUB PUSH1 0x1 PUSH1 0x11 PUSH1 0xC0 SHL ADD PUSH1 0x1 PUSH1 0xFB SHL ADD PUSH2 0x3BE8 JUMP JUMPDEST SWAP3 SWAP2 POP POP JUMP JUMPDEST PUSH1 0x0 DUP1 DUP3 PUSH2 0x157 DUP2 MLOAD DUP2 LT PUSH2 0x3DD1 JUMPI INVALID JUMPDEST PUSH1 0x20 MUL PUSH1 0x20 ADD ADD MLOAD SWAP1 POP PUSH1 0x0 DUP4 PUSH2 0x158 DUP2 MLOAD DUP2 LT PUSH2 0x3DEB JUMPI INVALID JUMPDEST PUSH1 0x20 SWAP1 DUP2 MUL SWAP2 SWAP1 SWAP2 ADD ADD MLOAD SWAP1 POP PUSH1 0x10 PUSH1 0xE PUSH1 0x1 DUP5 DUP2 ADD SWAP1 DUP1 DUP1 JUMPDEST PUSH1 0x10 DUP2 LT ISZERO PUSH2 0x3EAA JUMPI PUSH1 0x1 PUSH1 0x11 PUSH1 0xC0 SHL ADD PUSH1 0x1 PUSH1 0xFB SHL ADD DUP6 DUP4 ADDMOD SWAP2 POP PUSH1 0x1 PUSH1 0x11 PUSH1 0xC0 SHL ADD PUSH1 0x1 PUSH1 0xFB SHL ADD DUP7 DUP7 MULMOD SWAP5 POP PUSH1 0x1 PUSH1 0x11 PUSH1 0xC0 SHL ADD PUSH1 0x1 PUSH1 0xFB SHL ADD DUP5 DUP4 MULMOD PUSH1 0x1 PUSH1 0x11 PUSH1 0xC0 SHL ADD PUSH1 0x1 PUSH1 0xFB SHL ADD DUP2 DUP11 MULMOD DUP6 ADD PUSH1 0x1 PUSH1 0x11 PUSH1 0xC0 SHL ADD PUSH1 0x1 PUSH1 0xFB SHL ADD DUP6 PUSH1 0x1 PUSH1 0x11 PUSH1 0xC0 SHL ADD PUSH1 0x1 PUSH1 0xFB SHL ADD DUP5 DUP8 MULMOD PUSH1 0x1 PUSH1 0x11 PUSH1 0xC0 SHL ADD PUSH1 0x1 PUSH1 0xFB SHL ADD DUP5 DUP10 MULMOD ADD ADDMOD SWAP5 POP PUSH1 0x1 PUSH1 0x11 PUSH1 0xC0 SHL ADD PUSH1 0x1 PUSH1 0xFB SHL ADD DUP2 DUP8 MULMOD SWAP6 POP POP POP PUSH1 0x1 ADD PUSH2 0x3E05 JUMP JUMPDEST POP PUSH1 0x1 PUSH1 0x11 PUSH1 0xC0 SHL ADD PUSH1 0x1 PUSH1 0xFB SHL ADD DUP1 DUP8 DUP5 MULMOD DUP5 ADDMOD SWAP10 SWAP9 POP POP POP POP POP POP POP POP POP JUMP JUMPDEST DUP1 MLOAD PUSH1 0x20 DUP3 ADD MLOAD SWAP2 POP SWAP2 JUMP JUMPDEST PUSH1 0x40 DUP1 MLOAD PUSH1 0x20 DUP1 DUP3 ADD DUP6 SWAP1 MSTORE DUP2 DUP4 ADD DUP5 SWAP1 MSTORE DUP3 MLOAD DUP1 DUP4 SUB DUP5 ADD DUP2 MSTORE PUSH1 0x60 SWAP1 SWAP3 ADD SWAP1 SWAP3 MSTORE DUP1 MLOAD SWAP2 ADD KECCAK256 SWAP2 SWAP3 PUSH1 0x1 SWAP1 SWAP2 ADD SWAP2 SWAP1 JUMP JUMPDEST PUSH1 0x0 PUSH2 0x3F19 DUP6 DUP6 DUP6 DUP6 PUSH2 0x42BA JUMP JUMPDEST SWAP6 SWAP5 POP POP POP POP POP JUMP JUMPDEST PUSH1 0x0 DUP1 DUP5 PUSH2 0x13B DUP2 MLOAD DUP2 LT PUSH2 0x3F33 JUMPI INVALID JUMPDEST PUSH1 0x20 MUL PUSH1 0x20 ADD ADD MLOAD SWAP1 POP PUSH1 0x0 PUSH1 0x1 DUP7 PUSH1 0x1 DUP2 MLOAD DUP2 LT PUSH2 0x3F4E JUMPI INVALID JUMPDEST PUSH1 0x20 MUL PUSH1 0x20 ADD ADD MLOAD DUP4 MUL SUB SWAP1 POP PUSH1 0x0 DUP5 PUSH1 0x1 SWAP1 SHL SWAP1 POP PUSH1 0x0 DUP1 PUSH1 0x0 DUP10 PUSH2 0x13C DUP2 MLOAD DUP2 LT PUSH2 0x3F77 JUMPI INVALID JUMPDEST PUSH1 0x20 MUL PUSH1 0x20 ADD ADD MLOAD SWAP1 POP PUSH1 0x0 JUMPDEST DUP10 DUP2 LT ISZERO PUSH2 0x4071 JUMPI PUSH1 0x0 DUP10 DUP13 DUP4 PUSH1 0x3 MUL PUSH1 0x6D ADD DUP2 MLOAD DUP2 LT PUSH2 0x3FA1 JUMPI INVALID JUMPDEST PUSH1 0x20 MUL PUSH1 0x20 ADD ADD MLOAD SWAP1 SHR SWAP1 POP DUP4 DUP2 EQ ISZERO PUSH2 0x3FBB JUMPI POP PUSH2 0x4069 JUMP JUMPDEST DUP1 DUP13 DUP7 PUSH1 0x3 MUL PUSH1 0x6D ADD DUP2 MLOAD DUP2 LT PUSH2 0x3FCE JUMPI INVALID JUMPDEST PUSH1 0x20 MUL PUSH1 0x20 ADD ADD DUP2 DUP2 MSTORE POP POP DUP1 SWAP4 POP PUSH1 0x0 PUSH2 0x4005 DUP14 DUP5 PUSH1 0x3 MUL PUSH1 0x6D ADD PUSH1 0x2 ADD DUP2 MLOAD DUP2 LT PUSH2 0x3FF7 JUMPI INVALID JUMPDEST PUSH1 0x20 MUL PUSH1 0x20 ADD ADD MLOAD DUP9 PUSH2 0x2232 JUMP JUMPDEST SWAP1 POP DUP1 DUP14 DUP8 PUSH1 0x3 MUL PUSH1 0x6D ADD PUSH1 0x2 ADD DUP2 MLOAD DUP2 LT PUSH2 0x401D JUMPI INVALID JUMPDEST PUSH1 0x20 MUL PUSH1 0x20 ADD ADD DUP2 DUP2 MSTORE POP POP PUSH2 0x4033 DUP2 DUP10 PUSH2 0x2232 JUMP JUMPDEST SWAP1 POP PUSH2 0x4040 DUP5 DUP3 DUP12 PUSH2 0x4420 JUMP JUMPDEST DUP14 DUP8 PUSH1 0x3 MUL PUSH1 0x6D ADD PUSH1 0x1 ADD DUP2 MLOAD DUP2 LT PUSH2 0x4055 JUMPI INVALID JUMPDEST PUSH1 0x20 SWAP1 DUP2 MUL SWAP2 SWAP1 SWAP2 ADD ADD MSTORE POP POP PUSH1 0x1 SWAP1 SWAP4 ADD SWAP3 JUMPDEST PUSH1 0x1 ADD PUSH2 0x3F84 JUMP JUMPDEST POP PUSH1 0x0 PUSH2 0x407F DUP12 PUSH1 0x6D PUSH2 0x12C8 JUMP JUMPDEST PUSH1 0x60 SWAP5 SWAP1 SWAP5 MUL SWAP1 SWAP4 KECCAK256 SWAP11 SWAP10 POP POP POP POP POP POP POP POP POP POP JUMP JUMPDEST PUSH1 0x1 PUSH1 0x40 SHL DUP7 LT DUP2 PUSH1 0x40 MLOAD PUSH1 0x20 ADD DUP1 DUP1 PUSH13 0x27BABA1037B3103930B733B29 PUSH1 0x9D SHL DUP2 MSTORE POP PUSH1 0xD ADD DUP3 DUP1 MLOAD SWAP1 PUSH1 0x20 ADD SWAP1 DUP1 DUP4 DUP4 JUMPDEST PUSH1 0x20 DUP4 LT PUSH2 0x40E8 JUMPI DUP1 MLOAD DUP3 MSTORE PUSH1 0x1F NOT SWAP1 SWAP3 ADD SWAP2 PUSH1 0x20 SWAP2 DUP3 ADD SWAP2 ADD PUSH2 0x40C9 JUMP JUMPDEST PUSH1 0x1 DUP4 PUSH1 0x20 SUB PUSH2 0x100 EXP SUB DUP1 NOT DUP3 MLOAD AND DUP2 DUP5 MLOAD AND DUP1 DUP3 OR DUP6 MSTORE POP POP POP POP POP POP SWAP1 POP ADD DUP1 PUSH12 0x103132B3B4B72FB0B2323917 PUSH1 0xA1 SHL DUP2 MSTORE POP PUSH1 0xC ADD SWAP2 POP POP PUSH1 0x40 MLOAD PUSH1 0x20 DUP2 DUP4 SUB SUB DUP2 MSTORE SWAP1 PUSH1 0x40 MSTORE SWAP1 PUSH2 0x41BC JUMPI PUSH1 0x40 MLOAD PUSH3 0x461BCD PUSH1 0xE5 SHL DUP2 MSTORE PUSH1 0x4 ADD DUP1 DUP1 PUSH1 0x20 ADD DUP3 DUP2 SUB DUP3 MSTORE DUP4 DUP2 DUP2 MLOAD DUP2 MSTORE PUSH1 0x20 ADD SWAP2 POP DUP1 MLOAD SWAP1 PUSH1 0x20 ADD SWAP1 DUP1 DUP4 DUP4 PUSH1 0x0 JUMPDEST DUP4 DUP2 LT ISZERO PUSH2 0x4181 JUMPI DUP2 DUP2 ADD MLOAD DUP4 DUP3 ADD MSTORE PUSH1 0x20 ADD PUSH2 0x4169 JUMP JUMPDEST POP POP POP POP SWAP1 POP SWAP1 DUP2 ADD SWAP1 PUSH1 0x1F AND DUP1 ISZERO PUSH2 0x41AE JUMPI DUP1 DUP3 SUB DUP1 MLOAD PUSH1 0x1 DUP4 PUSH1 0x20 SUB PUSH2 0x100 EXP SUB NOT AND DUP2 MSTORE PUSH1 0x20 ADD SWAP2 POP JUMPDEST POP SWAP3 POP POP POP PUSH1 0x40 MLOAD DUP1 SWAP2 SUB SWAP1 REVERT JUMPDEST POP PUSH1 0x0 PUSH2 0x41C9 DUP4 DUP7 PUSH2 0x3C92 JUMP JUMPDEST DUP5 MUL DUP8 ADD SWAP1 POP DUP6 DUP8 GT ISZERO DUP1 ISZERO PUSH2 0x41DF JUMPI POP DUP1 DUP7 GT ISZERO JUMPDEST DUP3 PUSH1 0x40 MLOAD PUSH1 0x20 ADD DUP1 DUP1 PUSH8 0x24B73B30B634B21 PUSH1 0xC5 SHL DUP2 MSTORE POP PUSH1 0x8 ADD DUP3 DUP1 MLOAD SWAP1 PUSH1 0x20 ADD SWAP1 DUP1 DUP4 DUP4 JUMPDEST PUSH1 0x20 DUP4 LT PUSH2 0x4225 JUMPI DUP1 MLOAD DUP3 MSTORE PUSH1 0x1F NOT SWAP1 SWAP3 ADD SWAP2 PUSH1 0x20 SWAP2 DUP3 ADD SWAP2 ADD PUSH2 0x4206 JUMP JUMPDEST PUSH1 0x1 DUP4 PUSH1 0x20 SUB PUSH2 0x100 EXP SUB DUP1 NOT DUP3 MLOAD AND DUP2 DUP5 MLOAD AND DUP1 DUP3 OR DUP6 MSTORE POP POP POP POP POP POP SWAP1 POP ADD DUP1 PUSH10 0x1039BA37B82FB83A3917 PUSH1 0xB1 SHL DUP2 MSTORE POP PUSH1 0xA ADD SWAP2 POP POP PUSH1 0x40 MLOAD PUSH1 0x20 DUP2 DUP4 SUB SUB DUP2 MSTORE SWAP1 PUSH1 0x40 MSTORE SWAP1 PUSH2 0x301E JUMPI PUSH1 0x40 MLOAD PUSH3 0x461BCD PUSH1 0xE5 SHL DUP2 MSTORE PUSH1 0x20 PUSH1 0x4 DUP3 ADD DUP2 DUP2 MSTORE DUP4 MLOAD PUSH1 0x24 DUP5 ADD MSTORE DUP4 MLOAD SWAP1 SWAP3 DUP4 SWAP3 PUSH1 0x44 SWAP1 SWAP2 ADD SWAP2 SWAP1 DUP6 ADD SWAP1 DUP1 DUP4 DUP4 PUSH1 0x0 DUP4 ISZERO PUSH2 0x4181 JUMPI DUP2 DUP2 ADD MLOAD DUP4 DUP3 ADD MSTORE PUSH1 0x20 ADD PUSH2 0x4169 JUMP JUMPDEST PUSH1 0x0 DUP1 PUSH1 0x80 DUP4 GT ISZERO PUSH2 0x4313 JUMPI PUSH1 0x40 DUP1 MLOAD PUSH3 0x461BCD PUSH1 0xE5 SHL DUP2 MSTORE PUSH1 0x20 PUSH1 0x4 DUP3 ADD MSTORE PUSH1 0x17 PUSH1 0x24 DUP3 ADD MSTORE PUSH32 0x544F4F5F4D414E595F4D45524B4C455F51554552494553000000000000000000 PUSH1 0x44 DUP3 ADD MSTORE SWAP1 MLOAD SWAP1 DUP2 SWAP1 SUB PUSH1 0x64 ADD SWAP1 REVERT JUMPDEST PUSH1 0x40 DUP1 MLOAD DUP1 MLOAD SWAP2 DUP2 SWAP1 DUP7 MUL DUP9 ADD JUMPDEST DUP1 DUP10 LT ISZERO PUSH2 0x433C JUMPI DUP9 MLOAD DUP3 MSTORE PUSH1 0x20 SWAP9 DUP10 ADD SWAP9 SWAP1 SWAP2 ADD SWAP1 PUSH2 0x4321 JUMP JUMPDEST POP DUP7 DUP2 MSTORE PUSH1 0x20 DUP1 DUP3 ADD PUSH1 0x40 DUP2 DUP2 MSTORE DUP5 DUP5 SUB DUP4 ADD SWAP1 SWAP5 KECCAK256 PUSH1 0xC SLOAD PUSH4 0x6A938567 PUSH1 0xE0 SHL SWAP1 SWAP3 MSTORE PUSH1 0x24 DUP5 ADD DUP2 SWAP1 MSTORE SWAP4 MLOAD SWAP4 SWAP6 POP PUSH1 0x1 PUSH1 0x1 PUSH1 0xA0 SHL SUB AND SWAP3 PUSH4 0x6A938567 SWAP3 PUSH1 0x44 DUP1 DUP3 ADD SWAP4 SWAP3 SWAP2 DUP3 SWAP1 SUB ADD DUP2 DUP7 DUP1 EXTCODESIZE ISZERO DUP1 ISZERO PUSH2 0x4398 JUMPI PUSH1 0x0 DUP1 REVERT JUMPDEST POP GAS STATICCALL ISZERO DUP1 ISZERO PUSH2 0x43AC JUMPI RETURNDATASIZE PUSH1 0x0 DUP1 RETURNDATACOPY RETURNDATASIZE PUSH1 0x0 REVERT JUMPDEST POP POP POP POP PUSH1 0x40 MLOAD RETURNDATASIZE PUSH1 0x20 DUP2 LT ISZERO PUSH2 0x43C2 JUMPI PUSH1 0x0 DUP1 REVERT JUMPDEST POP MLOAD PUSH2 0x4415 JUMPI PUSH1 0x40 DUP1 MLOAD PUSH3 0x461BCD PUSH1 0xE5 SHL DUP2 MSTORE PUSH1 0x20 PUSH1 0x4 DUP3 ADD MSTORE PUSH1 0x1C PUSH1 0x24 DUP3 ADD MSTORE PUSH32 0x494E56414C4944415445445F4D45524B4C455F53544154454D454E5400000000 PUSH1 0x44 DUP3 ADD MSTORE SWAP1 MLOAD SWAP1 DUP2 SWAP1 SUB PUSH1 0x64 ADD SWAP1 REVERT JUMPDEST POP SWAP3 SWAP6 SWAP5 POP POP POP POP POP JUMP JUMPDEST PUSH1 0x0 DUP1 PUSH1 0x1 PUSH1 0x11 PUSH1 0xC0 SHL ADD PUSH1 0x1 PUSH1 0xFB SHL ADD PUSH1 0x8 DUP5 MOD ISZERO PUSH2 0x4471 JUMPI PUSH1 0x40 MLOAD PUSH3 0x461BCD PUSH1 0xE5 SHL DUP2 MSTORE PUSH1 0x4 ADD DUP1 DUP1 PUSH1 0x20 ADD DUP3 DUP2 SUB DUP3 MSTORE PUSH1 0x38 DUP2 MSTORE PUSH1 0x20 ADD DUP1 PUSH2 0x47B9 PUSH1 0x38 SWAP2 CODECOPY PUSH1 0x40 ADD SWAP2 POP POP PUSH1 0x40 MLOAD DUP1 SWAP2 SUB SWAP1 REVERT JUMPDEST PUSH2 0x1000 DUP5 LT PUSH2 0x44B1 JUMPI PUSH1 0x40 MLOAD PUSH3 0x461BCD PUSH1 0xE5 SHL DUP2 MSTORE PUSH1 0x4 ADD DUP1 DUP1 PUSH1 0x20 ADD DUP3 DUP2 SUB DUP3 MSTORE PUSH1 0x2C DUP2 MSTORE PUSH1 0x20 ADD DUP1 PUSH2 0x467B PUSH1 0x2C SWAP2 CODECOPY PUSH1 0x40 ADD SWAP2 POP POP PUSH1 0x40 MLOAD DUP1 SWAP2 SUB SWAP1 REVERT JUMPDEST PUSH1 0x20 DUP5 MUL DUP7 ADD JUMPDEST DUP7 DUP2 GT ISZERO PUSH2 0x4514 JUMPI PUSH1 0xFF NOT ADD DUP2 DUP7 DUP2 DUP2 DUP2 DUP2 DUP2 DUP2 DUP11 MULMOD PUSH1 0xE0 DUP9 ADD MLOAD ADD MULMOD PUSH1 0xC0 DUP7 ADD MLOAD ADD MULMOD PUSH1 0xA0 DUP5 ADD MLOAD ADD MULMOD PUSH1 0x80 DUP3 ADD MLOAD ADD SWAP3 POP DUP2 DUP7 DUP4 DUP9 DUP6 DUP11 DUP8 DUP13 DUP11 MULMOD PUSH1 0x60 DUP9 ADD MLOAD ADD MULMOD PUSH1 0x40 DUP7 ADD MLOAD ADD MULMOD PUSH1 0x20 DUP5 ADD MLOAD ADD MULMOD DUP2 MLOAD ADD SWAP3 POP PUSH2 0x44B8 JUMP JUMPDEST POP DUP1 DUP3 DUP2 PUSH2 0x451E JUMPI INVALID JUMPDEST MOD SWAP7 SWAP6 POP POP POP POP POP POP JUMP JUMPDEST PUSH1 0x40 MLOAD DUP1 PUSH1 0xA0 ADD PUSH1 0x40 MSTORE DUP1 PUSH1 0x5 SWAP1 PUSH1 0x20 DUP3 MUL DUP1 CALLDATASIZE DUP4 CALLDATACOPY POP SWAP2 SWAP3 SWAP2 POP POP JUMP INVALID POP PUSH19 0x6F6F6673206D6179206E6F7420626520707572 PUSH6 0x6C7920626173 PUSH6 0x64206F6E2050 PUSH16 0x572E636C61696D6564436F6D706F7369 PUSH21 0x696F6E20646F6573206E6F74206D61746368207472 PUSH2 0x6365 0x4D PUSH2 0x7820 PUSH20 0x7570706F72746564206672692073746570207369 PUSH27 0x6520697320342E6C6F674672694C6173744C61796572446567426F PUSH22 0x6E64206D757374206265206174206D6F73742031302E 0x4D PUSH6 0x6D6F72792070 PUSH2 0x6765 KECCAK256 PUSH7 0x61637420776173 KECCAK256 PUSH15 0x6F7420726567697374657265642E6F PUSH22 0x7470757420626567696E5F61646472206D7573742062 PUSH6 0x203C3D207374 PUSH16 0x705F707472546F6F206D616E79207075 PUSH3 0x6C6963 KECCAK256 PUSH14 0x656D6F727920656E747269657320 PUSH10 0x6E206F6E652070616765 0x2E 0x4E PUSH22 0x6D626572206F662071756572696573206D7573742062 PUSH6 0x206174206C65 PUSH2 0x7374 KECCAK256 PUSH16 0x6E654E6F206D6F7265207468616E2034 ADDRESS CODECOPY CALLDATASIZE KECCAK256 PUSH4 0x6F656666 PUSH10 0x6369656E747320617265 KECCAK256 PUSH20 0x7570706F7274656446726920706172616D732064 PUSH16 0x206E6F74206D61746368207472616365 KECCAK256 PUSH13 0x656E6774684E756D626572206F PUSH7 0x2076616C756573 KECCAK256 PUSH16 0x66207075626C6963206D656D6F727920 PUSH10 0x7320746F6F206C617267 PUSH6 0x2E50726F6F66 KECCAK256 PUSH17 0x6172616D7320646F206E6F742073617469 PUSH20 0x667920736563757269747920726571756972656D PUSH6 0x6E74732E4F6E PUSH13 0x792065746130203D3D20302069 PUSH20 0x2063757272656E746C7920737570706F72746564 0x4D PUSH10 0x6E20737570706F727465 PUSH5 0x2066726920 PUSH20 0x7465702073697A6520697320322E6C6F67426C6F PUSH24 0x7570466163746F72206D757374206265206174206C656173 PUSH21 0x20316D696E696D756D2070726F6F664F66576F726B TIMESTAMP PUSH10 0x7473206E6F7420736174 PUSH10 0x73666965644E756D6265 PUSH19 0x206F6620706F6C796E6F6D69616C20636F6566 PUSH7 0x696369656E7473 KECCAK256 PUSH14 0x7573742062652064697669736962 PUSH13 0x6520627920386C6F67426C6F77 PUSH22 0x70466163746F72206D757374206265206174206D6F73 PUSH21 0x20313641646472657373206F662070616765203020 PUSH10 0x73206E6F742070617274 KECCAK256 PUSH16 0x6620746865207075626C696320696E70 PUSH22 0x742E70726F6F664F66576F726B42697473206D757374 KECCAK256 PUSH3 0x652061 PUSH21 0x206D6F7374203530546865206E756D657261746F72 KECCAK256 PUSH10 0x73206E6F742064697669 PUSH20 0x69626C65206279207468652064656E6F6D696E61 PUSH21 0x6F722EA26469706673582212204752BCC88A00E151 SAR CODECOPY PUSH2 0x3CEE PUSH8 0x8AEEF689FBA16FF8 SDIV STATICCALL PUSH30 0xDBCA38B0C4E7BF64736F6C634300060C0033000000000000000000000000 "
		},
		"gasEstimates": {
			"creation": {
				"codeDepositCost": "3727600",
				"executionCost": "infinite",
				"totalCost": "infinite"
			},
			"external": {
				"PAGE_INFO_ADDRESS_OFFSET()": "286",
				"PAGE_INFO_HASH_OFFSET()": "243",
				"PAGE_INFO_SIZE()": "198",
				"PAGE_INFO_SIZE_IN_BYTES()": "264",
				"PAGE_INFO_SIZE_OFFSET()": "220",
				"getLayoutInfo()": "272",
				"getPublicInputHash2(uint256[])": "infinite",
				"sendFieldElements(uint256,uint256,uint256)": "infinite",
				"verifyProofExternal(uint256[],uint256[],uint256[])": "infinite"
			},
			"internal": {
				"friVerifyLayers(uint256[] memory)": "infinite",
				"verifyMerkle(uint256,uint256,bytes32,uint256)": "infinite"
			}
		},
		"methodIdentifiers": {
			"PAGE_INFO_ADDRESS_OFFSET()": "e5b62b29",
			"PAGE_INFO_HASH_OFFSET()": "29e10520",
			"PAGE_INFO_SIZE()": "4c14a6f9",
			"PAGE_INFO_SIZE_IN_BYTES()": "b7a771f7",
			"PAGE_INFO_SIZE_OFFSET()": "5b4c41c2",
			"getLayoutInfo()": "8080fdfb",
			"getPublicInputHash2(uint256[])": "45819b59",
			"sendFieldElements(uint256,uint256,uint256)": "12b3cbee",
			"verifyProofExternal(uint256[],uint256[],uint256[])": "1cb7dd79"
		}
	},
	"abi": [
		{
			"inputs": [
				{
					"internalType": "address[]",
					"name": "auxPolynomials",
					"type": "address[]"
				},
				{
					"internalType": "address",
					"name": "oodsContract",
					"type": "address"
				},
				{
					"internalType": "address",
					"name": "memoryPageFactRegistry_",
					"type": "address"
				},
				{
					"internalType": "address",
					"name": "merkleStatementContractAddress",
					"type": "address"
				},
				{
					"internalType": "address",
					"name": "friStatementContractAddress",
					"type": "address"
				},
				{
					"internalType": "uint256",
					"name": "numSecurityBits_",
					"type": "uint256"
				},
				{
					"internalType": "uint256",
					"name": "minProofOfWorkBits_",
					"type": "uint256"
				}
			],
			"stateMutability": "nonpayable",
			"type": "constructor"
		},
		{
			"anonymous": false,
			"inputs": [
				{
					"indexed": false,
					"internalType": "bool",
					"name": "val",
					"type": "bool"
				}
			],
			"name": "LogBool",
			"type": "event"
		},
		{
			"anonymous": false,
			"inputs": [
				{
					"indexed": false,
					"internalType": "uint256",
					"name": "val",
					"type": "uint256"
				}
			],
			"name": "LogDebug",
			"type": "event"
		},
		{
			"anonymous": false,
			"inputs": [
				{
					"indexed": false,
					"internalType": "string",
					"name": "name",
					"type": "string"
				},
				{
					"indexed": false,
					"internalType": "uint256",
					"name": "val",
					"type": "uint256"
				}
			],
			"name": "LogGas",
			"type": "event"
		},
		{
			"anonymous": false,
			"inputs": [
				{
					"indexed": false,
					"internalType": "bytes32",
					"name": "val",
					"type": "bytes32"
				}
			],
			"name": "LogValue",
			"type": "event"
		},
		{
			"anonymous": false,
			"inputs": [
				{
					"indexed": false,
					"internalType": "uint256",
					"name": "val",
					"type": "uint256"
				}
			],
			"name": "ReadFieldElementEvent",
			"type": "event"
		},
		{
			"anonymous": false,
			"inputs": [
				{
					"indexed": false,
					"internalType": "bytes32",
					"name": "val",
					"type": "bytes32"
				}
			],
			"name": "ReadHashEvent",
			"type": "event"
		},
		{
			"anonymous": false,
			"inputs": [
				{
					"indexed": false,
					"internalType": "uint256",
					"name": "val",
					"type": "uint256"
				}
			],
			"name": "SendRandomnessEvent",
			"type": "event"
		},
		{
			"inputs": [],
			"name": "PAGE_INFO_ADDRESS_OFFSET",
			"outputs": [
				{
					"internalType": "uint256",
					"name": "",
					"type": "uint256"
				}
			],
			"stateMutability": "view",
			"type": "function"
		},
		{
			"inputs": [],
			"name": "PAGE_INFO_HASH_OFFSET",
			"outputs": [
				{
					"internalType": "uint256",
					"name": "",
					"type": "uint256"
				}
			],
			"stateMutability": "view",
			"type": "function"
		},
		{
			"inputs": [],
			"name": "PAGE_INFO_SIZE",
			"outputs": [
				{
					"internalType": "uint256",
					"name": "",
					"type": "uint256"
				}
			],
			"stateMutability": "view",
			"type": "function"
		},
		{
			"inputs": [],
			"name": "PAGE_INFO_SIZE_IN_BYTES",
			"outputs": [
				{
					"internalType": "uint256",
					"name": "",
					"type": "uint256"
				}
			],
			"stateMutability": "view",
			"type": "function"
		},
		{
			"inputs": [],
			"name": "PAGE_INFO_SIZE_OFFSET",
			"outputs": [
				{
					"internalType": "uint256",
					"name": "",
					"type": "uint256"
				}
			],
			"stateMutability": "view",
			"type": "function"
		},
		{
			"inputs": [],
			"name": "getLayoutInfo",
			"outputs": [
				{
					"internalType": "uint256",
					"name": "publicMemoryOffset",
					"type": "uint256"
				},
				{
					"internalType": "uint256",
					"name": "selectedBuiltins",
					"type": "uint256"
				}
			],
			"stateMutability": "pure",
			"type": "function"
		},
		{
			"inputs": [
				{
					"internalType": "uint256[]",
					"name": "publicInput",
					"type": "uint256[]"
				}
			],
			"name": "getPublicInputHash2",
			"outputs": [
				{
					"internalType": "bytes32",
					"name": "publicInputHash",
					"type": "bytes32"
				}
			],
			"stateMutability": "view",
			"type": "function"
		},
		{
			"inputs": [
				{
					"internalType": "uint256",
					"name": "channelPtr",
					"type": "uint256"
				},
				{
					"internalType": "uint256",
					"name": "nElements",
					"type": "uint256"
				},
				{
					"internalType": "uint256",
					"name": "targetPtr",
					"type": "uint256"
				}
			],
			"name": "sendFieldElements",
			"outputs": [],
			"stateMutability": "pure",
			"type": "function"
		},
		{
			"inputs": [
				{
					"internalType": "uint256[]",
					"name": "proofParams",
					"type": "uint256[]"
				},
				{
					"internalType": "uint256[]",
					"name": "proof",
					"type": "uint256[]"
				},
				{
					"internalType": "uint256[]",
					"name": "publicInput",
					"type": "uint256[]"
				}
			],
			"name": "verifyProofExternal",
			"outputs": [],
			"stateMutability": "nonpayable",
			"type": "function"
		}
	]
}