{
	"data": {
		"bytecode": {
			"linkReferences": {},
			"object": "60806040526001805460ff19169055348015610019575f80fd5b5061171a806100275f395ff3fe608060405234801561000f575f80fd5b506004361061003f575f3560e01c80636a93856714610043578063d6354e151461006a578063e85a6a2814610075575b5f80fd5b6100566100513660046113bb565b61008a565b604051901515815260200160405180910390f35b60015460ff16610056565b610088610083366004611481565b6100a2565b005b5f8181526020819052604081205460ff165b92915050565b6100c9604051806040016040528060068152602001652432b932901960d11b815250610345565b600482111561011f5760405162461bcd60e51b815260206004820152601760248201527f46524920737465702073697a6520746f6f206c6172676500000000000000000060448201526064015b60405180910390fd5b6001601160c01b01600160fb1b0183106101705760405162461bcd60e51b81526020600482015260126024820152711253959053125117d155905317d413d2539560721b6044820152606401610116565b6101798461038b565b6101a06040518060400160405280600681526020016548657265203360d01b815250610345565b5f60026101ae6004826115ee565b6101b99060206115f9565b6101c39190611624565b6101cf600460026115ee565b6101da9060206115f9565b6101e6600460026115ee565b6101f19060206115f9565b6101fb9190611637565b6102059190611637565b90505f600386516102169190611624565b90505f805f805f60208b019350604051925060208c0183526020830194508560400285019150868201905060a08101604052898152886020820152876080820152856060028420604082015261026b826106f1565b61028683858789868f8f600261028191906115ee565b610849565b845160208601516040870151606088015193995091929091906102ab878a8e8d610986565b506060808b02892090860181905285516020808801516040808a015160808b015160a08c208351808501909452600684526512195c99480d60d21b95840195909552939592939092916102fd90610345565b61030686610ac2565b61032d6040518060400160405280600681526020016548657265203560d01b815250610345565b50505050505050505050505050505050505050505050565b61038881604051602401610359919061164a565b60408051601f198184030181529190526020810180516001600160e01b031663104c13eb60e21b179052610af4565b50565b600381516103999190611696565b60011461040e5760405162461bcd60e51b815260206004820152603e60248201527f465249205175657565206d75737420626520636f6d706f736564206f6620747260448201527f69706c65747320706c7573206f6e652064656c696d697465722063656c6c00006064820152608401610116565b6004815110156104565760405162461bcd60e51b81526020600482015260136024820152724e6f20717565727920746f2070726f6365737360681b6044820152606401610116565b5f816001835161046691906116a9565b81518110610476576104766116bc565b6020026020010181815250505f600382516104919190611624565b90505f805b8281101561063f5781846104ab8360036115f9565b815181106104bb576104bb6116bc565b6020026020010151116105065760405162461bcd60e51b8152602060048201526013602482015272494e56414c49445f51554552595f56414c554560681b6044820152606401610116565b6001601160c01b01600160fb1b01846105208360036115f9565b61052b906001611637565b8151811061053b5761053b6116bc565b6020026020010151106105845760405162461bcd60e51b8152602060048201526011602482015270494e56414c49445f4652495f56414c554560781b6044820152606401610116565b6001601160c01b01600160fb1b018461059e8360036115f9565b6105a9906002611637565b815181106105b9576105b96116bc565b60200260200101511061060e5760405162461bcd60e51b815260206004820152601960248201527f494e56414c49445f4652495f494e56455253455f504f494e54000000000000006044820152606401610116565b8361061a8260036115f9565b8151811061062a5761062a6116bc565b60209081029190910101519150600101610496565b50825f81518110610652576106526116bc565b602002602001015183600384600361066a91906115f9565b61067491906116a9565b81518110610684576106846116bc565b6020026020010151845f8151811061069e5761069e6116bc565b602002602001015118106106ec5760405162461bcd60e51b8152602060048201526015602482015274494e56414c49445f515545524945535f52414e474560581b6044820152606401610116565b505050565b5f6106fe600460026115ee565b6107099060206115f9565b6107139083611637565b90505f610722600460026115ee565b61072d9060206115f9565b610739600460026115ee565b6107449060206115f9565b61074e9190611637565b6107589084611637565b90507f05ec467b88826aba4537602d514425f3b0bdf467bbf302458337c45f6021e5395f61079d82600161078e600460026115ee565b61079891906116a9565b610b14565b600180855280865267080000000000001160c01b6020870152909150805f60026107c86004826115ee565b6107d29190611624565b905060015b8181101561083e576107e98487610b34565b93506107f58386610b34565b92505f61080d82610808600160046116a9565b610b4d565b60208082028a0186905260409091028a018681526001601160c01b01600160fb1b01879003910152506001016107d7565b505050505050505050565b5f806108558186611637565b9050875f6108648860606115f9565b61086e9083611637565b9050895b5f806108a18e610884600460026115ee565b61088f9060206115f9565b610899908d611637565b88888c610bb6565b91965090925090506108b38882611624565b808d526020808a0288206bffffffffffffffffffffffff1916908e018190529091506108e060408e611637565b9c505f806109326108f3600460026115ee565b6108fe9060206115f9565b61090a600460026115ee565b6109159060206115f9565b61091f9190611637565b610929908f611637565b8a878f8f610c4a565b915091508386528160208701528060408701526060866109529190611637565b9550505050505081831061087257606061096c8c836116a9565b6109769190611624565b9c9b505050505050505050505050565b5f60808211156109d85760405162461bcd60e51b815260206004820152601760248201527f544f4f5f4d414e595f4d45524b4c455f515545524945530000000000000000006044820152606401610116565b60208401604083025f808782015189515b6001821115610a67576001821860406020820987860151816020185286604087086002909404858d01528b8401519395506020830192828503610a3f5750601f1990920191858801876040880896508c87015194505b5190525060405f8190206bffffffffffffffffffffffff1916848801528590840892506109e9565b92909401519189525092505050828114610aba5760405162461bcd60e51b815260206004820152601460248201527324a72b20a624a22fa6a2a925a622afa82927a7a360611b6044820152606401610116565b949350505050565b5f818152602081905260409020805460ff191660019081179091555460ff16610388576001805460ff19168117905550565b80516a636f6e736f6c652e6c6f67602083015f808483855afa5050505050565b5f610b2d83836001601160c01b01600160fb1b01610cf7565b9392505050565b5f6001601160c01b01600160fb1b018284099392505050565b5f816101001480610b675750610b648260026115ee565b83105b610b7357610b736116d0565b825f805b84811015610bad57610b8a600284611696565b610b958360026115f9565b179150610ba3600284611624565b9250600101610b77565b50949350505050565b5f805f84516001850319811692508483016001601160c01b01600160fb1b016020858403028a015160408901510992508951845b82811015610c36576020820191848203610c1557506060890180519099909450601f19909201916020015b516001601160c01b01600160fb1b0190068a52602090990198600101610bea565b509099525093979096509294509192505050565b5f8082600803610c6957610c6087878787610d39565b91509150610ced565b82600403610c7d57610c6087878787610f16565b82601003610c9157610c608787878761100b565b60405162461bcd60e51b815260206004820152602b60248201527f4f6e6c7920737465702073697a6573206f6620322c2033206f7220342061726560448201526a1039bab83837b93a32b21760a91b6064820152608401610116565b9550959350505050565b5f60405160208152602080820152602060408201528460608201528360808201528260a082015260208160c08360055afa610d30575f80fd5b51949350505050565b5f8084516001601160c01b01600160fb1b018585096001601160c01b01600160fb1b01818209602089015160208901516001601160c01b01600160fb1b01816001601160c01b01600160fb1b01038601850960408b015160608c01519690920101946001601160c01b01600160fb1b0180848709826001601160c01b01600160fb1b01038401099101016001601160c01b01600160fb1b01601067080000000000001160c41b01829003860184098186010194505060808901516001601160c01b01600160fb1b0160408c0151850960a08b01516001601160c01b01600160fb1b01816001601160c01b01600160fb1b01038401830960c08d015160e08e01519490920101926001601160c01b01600160fb1b0180868509826001601160c01b01600160fb1b01038401099101016001601160c01b01600160fb1b01601067080000000000001160c41b018290038401818480090981840101925050506001601160c01b01600160fb1b018082601067080000000000001160c41b010387016001601160c01b01600160fb1b018687090982870108965050505050506001601160c01b01600160fb1b018485096001601160c01b01600160fb1b0181820990506001601160c01b01600160fb1b0181820991505094509492505050565b5f806001601160c01b01600160fb1b01848409855160208701516001601160c01b01600160fb1b01816001601160c01b01600160fb1b01038301840981830101915050604087015160608801516001601160c01b01600160fb1b01806001601160c01b01600160fb1b018660208e015109836001601160c01b01600160fb1b0103850109828401089150506001601160c01b01600160fb1b018788096001601160c01b01600160fb1b018182099450506001601160c01b01600160fb1b0180826001601160c01b01600160fb1b010384016001601160c01b01600160fb1b018687090982840108945050505094509492505050565b5f805f85516001601160c01b01600160fb1b01868609602089015160208901516001601160c01b01600160fb1b01816001601160c01b01600160fb1b01038501840960408b015160608c01519590920101936001601160c01b01600160fb1b0180848609826001601160c01b01600160fb1b01038401099101016001601160c01b01600160fb1b018380096001601160c01b01600160fb1b0181820995506001601160c01b01600160fb1b0182601067080000000000001160c41b010386018209828601019450505060808901516001601160c01b01600160fb1b0160408c0151840960a08b01516001601160c01b01600160fb1b01816001601160c01b01600160fb1b01038401830960c08d015160e08e01519490920101926001601160c01b01600160fb1b0180868509826001601160c01b01600160fb1b01038401099101016001601160c01b01600160fb1b01601067080000000000001160c41b018290038401818480090981840101925050506001601160c01b01600160fb1b0181601067080000000000001160c41b010385018609818501019350506101008901516001601160c01b01600160fb1b0160808c015184096101208b01516001601160c01b01600160fb1b01816001601160c01b01600160fb1b0103840183096101408d01516101608e01519490920101926001601160c01b01600160fb1b0180868509826001601160c01b01600160fb1b01038401099101016001601160c01b01600160fb1b01601067080000000000001160c41b018290038401818480090981840101925050506101808a01516001601160c01b01600160fb1b0160c08d015185096101a08c01516001601160c01b01600160fb1b01816001601160c01b01600160fb1b0103840183096101c08e01516101e08f01519490920101926001601160c01b01600160fb1b0180878509826001601160c01b01600160fb1b01038401099101016001601160c01b01600160fb1b01601067080000000000001160c41b018290038401818480090981840101925050506001601160c01b01600160fb1b0181601067080000000000001160c41b010383016001601160c01b01600160fb1b01858909099101016001601160c01b01600160fb1b0180601067080000000000001160c41b018390038601818880090982860108965050505050506001601160c01b01600160fb1b018485096001601160c01b01600160fb1b0181820990506001601160c01b01600160fb1b0181820990506001601160c01b01600160fb1b0181820991505094509492505050565b5f602082840312156113cb575f80fd5b5035919050565b634e487b7160e01b5f52604160045260245ffd5b5f82601f8301126113f5575f80fd5b8135602067ffffffffffffffff80831115611412576114126113d2565b8260051b604051601f19603f83011681018181108482111715611437576114376113d2565b6040529384526020818701810194908101925087851115611456575f80fd5b6020870191505b848210156114765781358352918301919083019061145d565b979650505050505050565b5f805f805f60a08688031215611495575f80fd5b853567ffffffffffffffff808211156114ac575f80fd5b6114b889838a016113e6565b965060208801359150808211156114cd575f80fd5b506114da888289016113e6565b959895975050505060408401359360608101359360809091013592509050565b634e487b7160e01b5f52601160045260245ffd5b600181815b8085111561154857815f190482111561152e5761152e6114fa565b8085161561153b57918102915b93841c9390800290611513565b509250929050565b5f8261155e5750600161009c565b8161156a57505f61009c565b8160018114611580576002811461158a576115a6565b600191505061009c565b60ff84111561159b5761159b6114fa565b50506001821b61009c565b5060208310610133831016604e8410600b84101617156115c9575081810a61009c565b6115d3838361150e565b805f19048211156115e6576115e66114fa565b029392505050565b5f610b2d8383611550565b808202811582820484141761009c5761009c6114fa565b634e487b7160e01b5f52601260045260245ffd5b5f8261163257611632611610565b500490565b8082018082111561009c5761009c6114fa565b5f602080835283518060208501525f5b818110156116765785810183015185820160400152820161165a565b505f604082860101526040601f19601f8301168501019250505092915050565b5f826116a4576116a4611610565b500690565b8181038181111561009c5761009c6114fa565b634e487b7160e01b5f52603260045260245ffd5b634e487b7160e01b5f52600160045260245ffdfea2646970667358221220809e3c10777239a05bc66b203343404f641ade83b22cc985a0dd44d8f74da6f064736f6c63430008160033",
			"opcodes": "PUSH1 0x80 PUSH1 0x40 MSTORE PUSH1 0x1 DUP1 SLOAD PUSH1 0xFF NOT AND SWAP1 SSTORE CALLVALUE DUP1 ISZERO PUSH2 0x19 JUMPI PUSH0 DUP1 REVERT JUMPDEST POP PUSH2 0x171A DUP1 PUSH2 0x27 PUSH0 CODECOPY PUSH0 RETURN INVALID PUSH1 0x80 PUSH1 0x40 MSTORE CALLVALUE DUP1 ISZERO PUSH2 0xF JUMPI PUSH0 DUP1 REVERT JUMPDEST POP PUSH1 0x4 CALLDATASIZE LT PUSH2 0x3F JUMPI PUSH0 CALLDATALOAD PUSH1 0xE0 SHR DUP1 PUSH4 0x6A938567 EQ PUSH2 0x43 JUMPI DUP1 PUSH4 0xD6354E15 EQ PUSH2 0x6A JUMPI DUP1 PUSH4 0xE85A6A28 EQ PUSH2 0x75 JUMPI JUMPDEST PUSH0 DUP1 REVERT JUMPDEST PUSH2 0x56 PUSH2 0x51 CALLDATASIZE PUSH1 0x4 PUSH2 0x13BB JUMP JUMPDEST PUSH2 0x8A JUMP JUMPDEST PUSH1 0x40 MLOAD SWAP1 ISZERO ISZERO DUP2 MSTORE PUSH1 0x20 ADD PUSH1 0x40 MLOAD DUP1 SWAP2 SUB SWAP1 RETURN JUMPDEST PUSH1 0x1 SLOAD PUSH1 0xFF AND PUSH2 0x56 JUMP JUMPDEST PUSH2 0x88 PUSH2 0x83 CALLDATASIZE PUSH1 0x4 PUSH2 0x1481 JUMP JUMPDEST PUSH2 0xA2 JUMP JUMPDEST STOP JUMPDEST PUSH0 DUP2 DUP2 MSTORE PUSH1 0x20 DUP2 SWAP1 MSTORE PUSH1 0x40 DUP2 KECCAK256 SLOAD PUSH1 0xFF AND JUMPDEST SWAP3 SWAP2 POP POP JUMP JUMPDEST PUSH2 0xC9 PUSH1 0x40 MLOAD DUP1 PUSH1 0x40 ADD PUSH1 0x40 MSTORE DUP1 PUSH1 0x6 DUP2 MSTORE PUSH1 0x20 ADD PUSH6 0x2432B9329019 PUSH1 0xD1 SHL DUP2 MSTORE POP PUSH2 0x345 JUMP JUMPDEST PUSH1 0x4 DUP3 GT ISZERO PUSH2 0x11F JUMPI PUSH1 0x40 MLOAD PUSH3 0x461BCD PUSH1 0xE5 SHL DUP2 MSTORE PUSH1 0x20 PUSH1 0x4 DUP3 ADD MSTORE PUSH1 0x17 PUSH1 0x24 DUP3 ADD MSTORE PUSH32 0x46524920737465702073697A6520746F6F206C61726765000000000000000000 PUSH1 0x44 DUP3 ADD MSTORE PUSH1 0x64 ADD JUMPDEST PUSH1 0x40 MLOAD DUP1 SWAP2 SUB SWAP1 REVERT JUMPDEST PUSH1 0x1 PUSH1 0x11 PUSH1 0xC0 SHL ADD PUSH1 0x1 PUSH1 0xFB SHL ADD DUP4 LT PUSH2 0x170 JUMPI PUSH1 0x40 MLOAD PUSH3 0x461BCD PUSH1 0xE5 SHL DUP2 MSTORE PUSH1 0x20 PUSH1 0x4 DUP3 ADD MSTORE PUSH1 0x12 PUSH1 0x24 DUP3 ADD MSTORE PUSH18 0x1253959053125117D155905317D413D25395 PUSH1 0x72 SHL PUSH1 0x44 DUP3 ADD MSTORE PUSH1 0x64 ADD PUSH2 0x116 JUMP JUMPDEST PUSH2 0x179 DUP5 PUSH2 0x38B JUMP JUMPDEST PUSH2 0x1A0 PUSH1 0x40 MLOAD DUP1 PUSH1 0x40 ADD PUSH1 0x40 MSTORE DUP1 PUSH1 0x6 DUP2 MSTORE PUSH1 0x20 ADD PUSH6 0x486572652033 PUSH1 0xD0 SHL DUP2 MSTORE POP PUSH2 0x345 JUMP JUMPDEST PUSH0 PUSH1 0x2 PUSH2 0x1AE PUSH1 0x4 DUP3 PUSH2 0x15EE JUMP JUMPDEST PUSH2 0x1B9 SWAP1 PUSH1 0x20 PUSH2 0x15F9 JUMP JUMPDEST PUSH2 0x1C3 SWAP2 SWAP1 PUSH2 0x1624 JUMP JUMPDEST PUSH2 0x1CF PUSH1 0x4 PUSH1 0x2 PUSH2 0x15EE JUMP JUMPDEST PUSH2 0x1DA SWAP1 PUSH1 0x20 PUSH2 0x15F9 JUMP JUMPDEST PUSH2 0x1E6 PUSH1 0x4 PUSH1 0x2 PUSH2 0x15EE JUMP JUMPDEST PUSH2 0x1F1 SWAP1 PUSH1 0x20 PUSH2 0x15F9 JUMP JUMPDEST PUSH2 0x1FB SWAP2 SWAP1 PUSH2 0x1637 JUMP JUMPDEST PUSH2 0x205 SWAP2 SWAP1 PUSH2 0x1637 JUMP JUMPDEST SWAP1 POP PUSH0 PUSH1 0x3 DUP7 MLOAD PUSH2 0x216 SWAP2 SWAP1 PUSH2 0x1624 JUMP JUMPDEST SWAP1 POP PUSH0 DUP1 PUSH0 DUP1 PUSH0 PUSH1 0x20 DUP12 ADD SWAP4 POP PUSH1 0x40 MLOAD SWAP3 POP PUSH1 0x20 DUP13 ADD DUP4 MSTORE PUSH1 0x20 DUP4 ADD SWAP5 POP DUP6 PUSH1 0x40 MUL DUP6 ADD SWAP2 POP DUP7 DUP3 ADD SWAP1 POP PUSH1 0xA0 DUP2 ADD PUSH1 0x40 MSTORE DUP10 DUP2 MSTORE DUP9 PUSH1 0x20 DUP3 ADD MSTORE DUP8 PUSH1 0x80 DUP3 ADD MSTORE DUP6 PUSH1 0x60 MUL DUP5 KECCAK256 PUSH1 0x40 DUP3 ADD MSTORE PUSH2 0x26B DUP3 PUSH2 0x6F1 JUMP JUMPDEST PUSH2 0x286 DUP4 DUP6 DUP8 DUP10 DUP7 DUP16 DUP16 PUSH1 0x2 PUSH2 0x281 SWAP2 SWAP1 PUSH2 0x15EE JUMP JUMPDEST PUSH2 0x849 JUMP JUMPDEST DUP5 MLOAD PUSH1 0x20 DUP7 ADD MLOAD PUSH1 0x40 DUP8 ADD MLOAD PUSH1 0x60 DUP9 ADD MLOAD SWAP4 SWAP10 POP SWAP2 SWAP3 SWAP1 SWAP2 SWAP1 PUSH2 0x2AB DUP8 DUP11 DUP15 DUP14 PUSH2 0x986 JUMP JUMPDEST POP PUSH1 0x60 DUP1 DUP12 MUL DUP10 KECCAK256 SWAP1 DUP7 ADD DUP2 SWAP1 MSTORE DUP6 MLOAD PUSH1 0x20 DUP1 DUP9 ADD MLOAD PUSH1 0x40 DUP1 DUP11 ADD MLOAD PUSH1 0x80 DUP12 ADD MLOAD PUSH1 0xA0 DUP13 KECCAK256 DUP4 MLOAD DUP1 DUP6 ADD SWAP1 SWAP5 MSTORE PUSH1 0x6 DUP5 MSTORE PUSH6 0x12195C99480D PUSH1 0xD2 SHL SWAP6 DUP5 ADD SWAP6 SWAP1 SWAP6 MSTORE SWAP4 SWAP6 SWAP3 SWAP4 SWAP1 SWAP3 SWAP2 PUSH2 0x2FD SWAP1 PUSH2 0x345 JUMP JUMPDEST PUSH2 0x306 DUP7 PUSH2 0xAC2 JUMP JUMPDEST PUSH2 0x32D PUSH1 0x40 MLOAD DUP1 PUSH1 0x40 ADD PUSH1 0x40 MSTORE DUP1 PUSH1 0x6 DUP2 MSTORE PUSH1 0x20 ADD PUSH6 0x486572652035 PUSH1 0xD0 SHL DUP2 MSTORE POP PUSH2 0x345 JUMP JUMPDEST POP POP POP POP POP POP POP POP POP POP POP POP POP POP POP POP POP POP POP POP POP POP JUMP JUMPDEST PUSH2 0x388 DUP2 PUSH1 0x40 MLOAD PUSH1 0x24 ADD PUSH2 0x359 SWAP2 SWAP1 PUSH2 0x164A JUMP JUMPDEST PUSH1 0x40 DUP1 MLOAD PUSH1 0x1F NOT DUP2 DUP5 SUB ADD DUP2 MSTORE SWAP2 SWAP1 MSTORE PUSH1 0x20 DUP2 ADD DUP1 MLOAD PUSH1 0x1 PUSH1 0x1 PUSH1 0xE0 SHL SUB AND PUSH4 0x104C13EB PUSH1 0xE2 SHL OR SWAP1 MSTORE PUSH2 0xAF4 JUMP JUMPDEST POP JUMP JUMPDEST PUSH1 0x3 DUP2 MLOAD PUSH2 0x399 SWAP2 SWAP1 PUSH2 0x1696 JUMP JUMPDEST PUSH1 0x1 EQ PUSH2 0x40E JUMPI PUSH1 0x40 MLOAD PUSH3 0x461BCD PUSH1 0xE5 SHL DUP2 MSTORE PUSH1 0x20 PUSH1 0x4 DUP3 ADD MSTORE PUSH1 0x3E PUSH1 0x24 DUP3 ADD MSTORE PUSH32 0x465249205175657565206D75737420626520636F6D706F736564206F66207472 PUSH1 0x44 DUP3 ADD MSTORE PUSH32 0x69706C65747320706C7573206F6E652064656C696D697465722063656C6C0000 PUSH1 0x64 DUP3 ADD MSTORE PUSH1 0x84 ADD PUSH2 0x116 JUMP JUMPDEST PUSH1 0x4 DUP2 MLOAD LT ISZERO PUSH2 0x456 JUMPI PUSH1 0x40 MLOAD PUSH3 0x461BCD PUSH1 0xE5 SHL DUP2 MSTORE PUSH1 0x20 PUSH1 0x4 DUP3 ADD MSTORE PUSH1 0x13 PUSH1 0x24 DUP3 ADD MSTORE PUSH19 0x4E6F20717565727920746F2070726F63657373 PUSH1 0x68 SHL PUSH1 0x44 DUP3 ADD MSTORE PUSH1 0x64 ADD PUSH2 0x116 JUMP JUMPDEST PUSH0 DUP2 PUSH1 0x1 DUP4 MLOAD PUSH2 0x466 SWAP2 SWAP1 PUSH2 0x16A9 JUMP JUMPDEST DUP2 MLOAD DUP2 LT PUSH2 0x476 JUMPI PUSH2 0x476 PUSH2 0x16BC JUMP JUMPDEST PUSH1 0x20 MUL PUSH1 0x20 ADD ADD DUP2 DUP2 MSTORE POP POP PUSH0 PUSH1 0x3 DUP3 MLOAD PUSH2 0x491 SWAP2 SWAP1 PUSH2 0x1624 JUMP JUMPDEST SWAP1 POP PUSH0 DUP1 JUMPDEST DUP3 DUP2 LT ISZERO PUSH2 0x63F JUMPI DUP2 DUP5 PUSH2 0x4AB DUP4 PUSH1 0x3 PUSH2 0x15F9 JUMP JUMPDEST DUP2 MLOAD DUP2 LT PUSH2 0x4BB JUMPI PUSH2 0x4BB PUSH2 0x16BC JUMP JUMPDEST PUSH1 0x20 MUL PUSH1 0x20 ADD ADD MLOAD GT PUSH2 0x506 JUMPI PUSH1 0x40 MLOAD PUSH3 0x461BCD PUSH1 0xE5 SHL DUP2 MSTORE PUSH1 0x20 PUSH1 0x4 DUP3 ADD MSTORE PUSH1 0x13 PUSH1 0x24 DUP3 ADD MSTORE PUSH19 0x494E56414C49445F51554552595F56414C5545 PUSH1 0x68 SHL PUSH1 0x44 DUP3 ADD MSTORE PUSH1 0x64 ADD PUSH2 0x116 JUMP JUMPDEST PUSH1 0x1 PUSH1 0x11 PUSH1 0xC0 SHL ADD PUSH1 0x1 PUSH1 0xFB SHL ADD DUP5 PUSH2 0x520 DUP4 PUSH1 0x3 PUSH2 0x15F9 JUMP JUMPDEST PUSH2 0x52B SWAP1 PUSH1 0x1 PUSH2 0x1637 JUMP JUMPDEST DUP2 MLOAD DUP2 LT PUSH2 0x53B JUMPI PUSH2 0x53B PUSH2 0x16BC JUMP JUMPDEST PUSH1 0x20 MUL PUSH1 0x20 ADD ADD MLOAD LT PUSH2 0x584 JUMPI PUSH1 0x40 MLOAD PUSH3 0x461BCD PUSH1 0xE5 SHL DUP2 MSTORE PUSH1 0x20 PUSH1 0x4 DUP3 ADD MSTORE PUSH1 0x11 PUSH1 0x24 DUP3 ADD MSTORE PUSH17 0x494E56414C49445F4652495F56414C5545 PUSH1 0x78 SHL PUSH1 0x44 DUP3 ADD MSTORE PUSH1 0x64 ADD PUSH2 0x116 JUMP JUMPDEST PUSH1 0x1 PUSH1 0x11 PUSH1 0xC0 SHL ADD PUSH1 0x1 PUSH1 0xFB SHL ADD DUP5 PUSH2 0x59E DUP4 PUSH1 0x3 PUSH2 0x15F9 JUMP JUMPDEST PUSH2 0x5A9 SWAP1 PUSH1 0x2 PUSH2 0x1637 JUMP JUMPDEST DUP2 MLOAD DUP2 LT PUSH2 0x5B9 JUMPI PUSH2 0x5B9 PUSH2 0x16BC JUMP JUMPDEST PUSH1 0x20 MUL PUSH1 0x20 ADD ADD MLOAD LT PUSH2 0x60E JUMPI PUSH1 0x40 MLOAD PUSH3 0x461BCD PUSH1 0xE5 SHL DUP2 MSTORE PUSH1 0x20 PUSH1 0x4 DUP3 ADD MSTORE PUSH1 0x19 PUSH1 0x24 DUP3 ADD MSTORE PUSH32 0x494E56414C49445F4652495F494E56455253455F504F494E5400000000000000 PUSH1 0x44 DUP3 ADD MSTORE PUSH1 0x64 ADD PUSH2 0x116 JUMP JUMPDEST DUP4 PUSH2 0x61A DUP3 PUSH1 0x3 PUSH2 0x15F9 JUMP JUMPDEST DUP2 MLOAD DUP2 LT PUSH2 0x62A JUMPI PUSH2 0x62A PUSH2 0x16BC JUMP JUMPDEST PUSH1 0x20 SWAP1 DUP2 MUL SWAP2 SWAP1 SWAP2 ADD ADD MLOAD SWAP2 POP PUSH1 0x1 ADD PUSH2 0x496 JUMP JUMPDEST POP DUP3 PUSH0 DUP2 MLOAD DUP2 LT PUSH2 0x652 JUMPI PUSH2 0x652 PUSH2 0x16BC JUMP JUMPDEST PUSH1 0x20 MUL PUSH1 0x20 ADD ADD MLOAD DUP4 PUSH1 0x3 DUP5 PUSH1 0x3 PUSH2 0x66A SWAP2 SWAP1 PUSH2 0x15F9 JUMP JUMPDEST PUSH2 0x674 SWAP2 SWAP1 PUSH2 0x16A9 JUMP JUMPDEST DUP2 MLOAD DUP2 LT PUSH2 0x684 JUMPI PUSH2 0x684 PUSH2 0x16BC JUMP JUMPDEST PUSH1 0x20 MUL PUSH1 0x20 ADD ADD MLOAD DUP5 PUSH0 DUP2 MLOAD DUP2 LT PUSH2 0x69E JUMPI PUSH2 0x69E PUSH2 0x16BC JUMP JUMPDEST PUSH1 0x20 MUL PUSH1 0x20 ADD ADD MLOAD XOR LT PUSH2 0x6EC JUMPI PUSH1 0x40 MLOAD PUSH3 0x461BCD PUSH1 0xE5 SHL DUP2 MSTORE PUSH1 0x20 PUSH1 0x4 DUP3 ADD MSTORE PUSH1 0x15 PUSH1 0x24 DUP3 ADD MSTORE PUSH21 0x494E56414C49445F515545524945535F52414E4745 PUSH1 0x58 SHL PUSH1 0x44 DUP3 ADD MSTORE PUSH1 0x64 ADD PUSH2 0x116 JUMP JUMPDEST POP POP POP JUMP JUMPDEST PUSH0 PUSH2 0x6FE PUSH1 0x4 PUSH1 0x2 PUSH2 0x15EE JUMP JUMPDEST PUSH2 0x709 SWAP1 PUSH1 0x20 PUSH2 0x15F9 JUMP JUMPDEST PUSH2 0x713 SWAP1 DUP4 PUSH2 0x1637 JUMP JUMPDEST SWAP1 POP PUSH0 PUSH2 0x722 PUSH1 0x4 PUSH1 0x2 PUSH2 0x15EE JUMP JUMPDEST PUSH2 0x72D SWAP1 PUSH1 0x20 PUSH2 0x15F9 JUMP JUMPDEST PUSH2 0x739 PUSH1 0x4 PUSH1 0x2 PUSH2 0x15EE JUMP JUMPDEST PUSH2 0x744 SWAP1 PUSH1 0x20 PUSH2 0x15F9 JUMP JUMPDEST PUSH2 0x74E SWAP2 SWAP1 PUSH2 0x1637 JUMP JUMPDEST PUSH2 0x758 SWAP1 DUP5 PUSH2 0x1637 JUMP JUMPDEST SWAP1 POP PUSH32 0x5EC467B88826ABA4537602D514425F3B0BDF467BBF302458337C45F6021E539 PUSH0 PUSH2 0x79D DUP3 PUSH1 0x1 PUSH2 0x78E PUSH1 0x4 PUSH1 0x2 PUSH2 0x15EE JUMP JUMPDEST PUSH2 0x798 SWAP2 SWAP1 PUSH2 0x16A9 JUMP JUMPDEST PUSH2 0xB14 JUMP JUMPDEST PUSH1 0x1 DUP1 DUP6 MSTORE DUP1 DUP7 MSTORE PUSH8 0x800000000000011 PUSH1 0xC0 SHL PUSH1 0x20 DUP8 ADD MSTORE SWAP1 SWAP2 POP DUP1 PUSH0 PUSH1 0x2 PUSH2 0x7C8 PUSH1 0x4 DUP3 PUSH2 0x15EE JUMP JUMPDEST PUSH2 0x7D2 SWAP2 SWAP1 PUSH2 0x1624 JUMP JUMPDEST SWAP1 POP PUSH1 0x1 JUMPDEST DUP2 DUP2 LT ISZERO PUSH2 0x83E JUMPI PUSH2 0x7E9 DUP5 DUP8 PUSH2 0xB34 JUMP JUMPDEST SWAP4 POP PUSH2 0x7F5 DUP4 DUP7 PUSH2 0xB34 JUMP JUMPDEST SWAP3 POP PUSH0 PUSH2 0x80D DUP3 PUSH2 0x808 PUSH1 0x1 PUSH1 0x4 PUSH2 0x16A9 JUMP JUMPDEST PUSH2 0xB4D JUMP JUMPDEST PUSH1 0x20 DUP1 DUP3 MUL DUP11 ADD DUP7 SWAP1 MSTORE PUSH1 0x40 SWAP1 SWAP2 MUL DUP11 ADD DUP7 DUP2 MSTORE PUSH1 0x1 PUSH1 0x11 PUSH1 0xC0 SHL ADD PUSH1 0x1 PUSH1 0xFB SHL ADD DUP8 SWAP1 SUB SWAP2 ADD MSTORE POP PUSH1 0x1 ADD PUSH2 0x7D7 JUMP JUMPDEST POP POP POP POP POP POP POP POP POP JUMP JUMPDEST PUSH0 DUP1 PUSH2 0x855 DUP2 DUP7 PUSH2 0x1637 JUMP JUMPDEST SWAP1 POP DUP8 PUSH0 PUSH2 0x864 DUP9 PUSH1 0x60 PUSH2 0x15F9 JUMP JUMPDEST PUSH2 0x86E SWAP1 DUP4 PUSH2 0x1637 JUMP JUMPDEST SWAP1 POP DUP10 JUMPDEST PUSH0 DUP1 PUSH2 0x8A1 DUP15 PUSH2 0x884 PUSH1 0x4 PUSH1 0x2 PUSH2 0x15EE JUMP JUMPDEST PUSH2 0x88F SWAP1 PUSH1 0x20 PUSH2 0x15F9 JUMP JUMPDEST PUSH2 0x899 SWAP1 DUP14 PUSH2 0x1637 JUMP JUMPDEST DUP9 DUP9 DUP13 PUSH2 0xBB6 JUMP JUMPDEST SWAP2 SWAP7 POP SWAP1 SWAP3 POP SWAP1 POP PUSH2 0x8B3 DUP9 DUP3 PUSH2 0x1624 JUMP JUMPDEST DUP1 DUP14 MSTORE PUSH1 0x20 DUP1 DUP11 MUL DUP9 KECCAK256 PUSH12 0xFFFFFFFFFFFFFFFFFFFFFFFF NOT AND SWAP1 DUP15 ADD DUP2 SWAP1 MSTORE SWAP1 SWAP2 POP PUSH2 0x8E0 PUSH1 0x40 DUP15 PUSH2 0x1637 JUMP JUMPDEST SWAP13 POP PUSH0 DUP1 PUSH2 0x932 PUSH2 0x8F3 PUSH1 0x4 PUSH1 0x2 PUSH2 0x15EE JUMP JUMPDEST PUSH2 0x8FE SWAP1 PUSH1 0x20 PUSH2 0x15F9 JUMP JUMPDEST PUSH2 0x90A PUSH1 0x4 PUSH1 0x2 PUSH2 0x15EE JUMP JUMPDEST PUSH2 0x915 SWAP1 PUSH1 0x20 PUSH2 0x15F9 JUMP JUMPDEST PUSH2 0x91F SWAP2 SWAP1 PUSH2 0x1637 JUMP JUMPDEST PUSH2 0x929 SWAP1 DUP16 PUSH2 0x1637 JUMP JUMPDEST DUP11 DUP8 DUP16 DUP16 PUSH2 0xC4A JUMP JUMPDEST SWAP2 POP SWAP2 POP DUP4 DUP7 MSTORE DUP2 PUSH1 0x20 DUP8 ADD MSTORE DUP1 PUSH1 0x40 DUP8 ADD MSTORE PUSH1 0x60 DUP7 PUSH2 0x952 SWAP2 SWAP1 PUSH2 0x1637 JUMP JUMPDEST SWAP6 POP POP POP POP POP POP DUP2 DUP4 LT PUSH2 0x872 JUMPI PUSH1 0x60 PUSH2 0x96C DUP13 DUP4 PUSH2 0x16A9 JUMP JUMPDEST PUSH2 0x976 SWAP2 SWAP1 PUSH2 0x1624 JUMP JUMPDEST SWAP13 SWAP12 POP POP POP POP POP POP POP POP POP POP POP POP JUMP JUMPDEST PUSH0 PUSH1 0x80 DUP3 GT ISZERO PUSH2 0x9D8 JUMPI PUSH1 0x40 MLOAD PUSH3 0x461BCD PUSH1 0xE5 SHL DUP2 MSTORE PUSH1 0x20 PUSH1 0x4 DUP3 ADD MSTORE PUSH1 0x17 PUSH1 0x24 DUP3 ADD MSTORE PUSH32 0x544F4F5F4D414E595F4D45524B4C455F51554552494553000000000000000000 PUSH1 0x44 DUP3 ADD MSTORE PUSH1 0x64 ADD PUSH2 0x116 JUMP JUMPDEST PUSH1 0x20 DUP5 ADD PUSH1 0x40 DUP4 MUL PUSH0 DUP1 DUP8 DUP3 ADD MLOAD DUP10 MLOAD JUMPDEST PUSH1 0x1 DUP3 GT ISZERO PUSH2 0xA67 JUMPI PUSH1 0x1 DUP3 XOR PUSH1 0x40 PUSH1 0x20 DUP3 MULMOD DUP8 DUP7 ADD MLOAD DUP2 PUSH1 0x20 XOR MSTORE DUP7 PUSH1 0x40 DUP8 ADDMOD PUSH1 0x2 SWAP1 SWAP5 DIV DUP6 DUP14 ADD MSTORE DUP12 DUP5 ADD MLOAD SWAP4 SWAP6 POP PUSH1 0x20 DUP4 ADD SWAP3 DUP3 DUP6 SUB PUSH2 0xA3F JUMPI POP PUSH1 0x1F NOT SWAP1 SWAP3 ADD SWAP2 DUP6 DUP9 ADD DUP8 PUSH1 0x40 DUP9 ADDMOD SWAP7 POP DUP13 DUP8 ADD MLOAD SWAP5 POP JUMPDEST MLOAD SWAP1 MSTORE POP PUSH1 0x40 PUSH0 DUP2 SWAP1 KECCAK256 PUSH12 0xFFFFFFFFFFFFFFFFFFFFFFFF NOT AND DUP5 DUP9 ADD MSTORE DUP6 SWAP1 DUP5 ADDMOD SWAP3 POP PUSH2 0x9E9 JUMP JUMPDEST SWAP3 SWAP1 SWAP5 ADD MLOAD SWAP2 DUP10 MSTORE POP SWAP3 POP POP POP DUP3 DUP2 EQ PUSH2 0xABA JUMPI PUSH1 0x40 MLOAD PUSH3 0x461BCD PUSH1 0xE5 SHL DUP2 MSTORE PUSH1 0x20 PUSH1 0x4 DUP3 ADD MSTORE PUSH1 0x14 PUSH1 0x24 DUP3 ADD MSTORE PUSH20 0x24A72B20A624A22FA6A2A925A622AFA82927A7A3 PUSH1 0x61 SHL PUSH1 0x44 DUP3 ADD MSTORE PUSH1 0x64 ADD PUSH2 0x116 JUMP JUMPDEST SWAP5 SWAP4 POP POP POP POP JUMP JUMPDEST PUSH0 DUP2 DUP2 MSTORE PUSH1 0x20 DUP2 SWAP1 MSTORE PUSH1 0x40 SWAP1 KECCAK256 DUP1 SLOAD PUSH1 0xFF NOT AND PUSH1 0x1 SWAP1 DUP2 OR SWAP1 SWAP2 SSTORE SLOAD PUSH1 0xFF AND PUSH2 0x388 JUMPI PUSH1 0x1 DUP1 SLOAD PUSH1 0xFF NOT AND DUP2 OR SWAP1 SSTORE POP JUMP JUMPDEST DUP1 MLOAD PUSH11 0x636F6E736F6C652E6C6F67 PUSH1 0x20 DUP4 ADD PUSH0 DUP1 DUP5 DUP4 DUP6 GAS STATICCALL POP POP POP POP POP JUMP JUMPDEST PUSH0 PUSH2 0xB2D DUP4 DUP4 PUSH1 0x1 PUSH1 0x11 PUSH1 0xC0 SHL ADD PUSH1 0x1 PUSH1 0xFB SHL ADD PUSH2 0xCF7 JUMP JUMPDEST SWAP4 SWAP3 POP POP POP JUMP JUMPDEST PUSH0 PUSH1 0x1 PUSH1 0x11 PUSH1 0xC0 SHL ADD PUSH1 0x1 PUSH1 0xFB SHL ADD DUP3 DUP5 MULMOD SWAP4 SWAP3 POP POP POP JUMP JUMPDEST PUSH0 DUP2 PUSH2 0x100 EQ DUP1 PUSH2 0xB67 JUMPI POP PUSH2 0xB64 DUP3 PUSH1 0x2 PUSH2 0x15EE JUMP JUMPDEST DUP4 LT JUMPDEST PUSH2 0xB73 JUMPI PUSH2 0xB73 PUSH2 0x16D0 JUMP JUMPDEST DUP3 PUSH0 DUP1 JUMPDEST DUP5 DUP2 LT ISZERO PUSH2 0xBAD JUMPI PUSH2 0xB8A PUSH1 0x2 DUP5 PUSH2 0x1696 JUMP JUMPDEST PUSH2 0xB95 DUP4 PUSH1 0x2 PUSH2 0x15F9 JUMP JUMPDEST OR SWAP2 POP PUSH2 0xBA3 PUSH1 0x2 DUP5 PUSH2 0x1624 JUMP JUMPDEST SWAP3 POP PUSH1 0x1 ADD PUSH2 0xB77 JUMP JUMPDEST POP SWAP5 SWAP4 POP POP POP POP JUMP JUMPDEST PUSH0 DUP1 PUSH0 DUP5 MLOAD PUSH1 0x1 DUP6 SUB NOT DUP2 AND SWAP3 POP DUP5 DUP4 ADD PUSH1 0x1 PUSH1 0x11 PUSH1 0xC0 SHL ADD PUSH1 0x1 PUSH1 0xFB SHL ADD PUSH1 0x20 DUP6 DUP5 SUB MUL DUP11 ADD MLOAD PUSH1 0x40 DUP10 ADD MLOAD MULMOD SWAP3 POP DUP10 MLOAD DUP5 JUMPDEST DUP3 DUP2 LT ISZERO PUSH2 0xC36 JUMPI PUSH1 0x20 DUP3 ADD SWAP2 DUP5 DUP3 SUB PUSH2 0xC15 JUMPI POP PUSH1 0x60 DUP10 ADD DUP1 MLOAD SWAP1 SWAP10 SWAP1 SWAP5 POP PUSH1 0x1F NOT SWAP1 SWAP3 ADD SWAP2 PUSH1 0x20 ADD JUMPDEST MLOAD PUSH1 0x1 PUSH1 0x11 PUSH1 0xC0 SHL ADD PUSH1 0x1 PUSH1 0xFB SHL ADD SWAP1 MOD DUP11 MSTORE PUSH1 0x20 SWAP1 SWAP10 ADD SWAP9 PUSH1 0x1 ADD PUSH2 0xBEA JUMP JUMPDEST POP SWAP1 SWAP10 MSTORE POP SWAP4 SWAP8 SWAP1 SWAP7 POP SWAP3 SWAP5 POP SWAP2 SWAP3 POP POP POP JUMP JUMPDEST PUSH0 DUP1 DUP3 PUSH1 0x8 SUB PUSH2 0xC69 JUMPI PUSH2 0xC60 DUP8 DUP8 DUP8 DUP8 PUSH2 0xD39 JUMP JUMPDEST SWAP2 POP SWAP2 POP PUSH2 0xCED JUMP JUMPDEST DUP3 PUSH1 0x4 SUB PUSH2 0xC7D JUMPI PUSH2 0xC60 DUP8 DUP8 DUP8 DUP8 PUSH2 0xF16 JUMP JUMPDEST DUP3 PUSH1 0x10 SUB PUSH2 0xC91 JUMPI PUSH2 0xC60 DUP8 DUP8 DUP8 DUP8 PUSH2 0x100B JUMP JUMPDEST PUSH1 0x40 MLOAD PUSH3 0x461BCD PUSH1 0xE5 SHL DUP2 MSTORE PUSH1 0x20 PUSH1 0x4 DUP3 ADD MSTORE PUSH1 0x2B PUSH1 0x24 DUP3 ADD MSTORE PUSH32 0x4F6E6C7920737465702073697A6573206F6620322C2033206F72203420617265 PUSH1 0x44 DUP3 ADD MSTORE PUSH11 0x1039BAB83837B93A32B217 PUSH1 0xA9 SHL PUSH1 0x64 DUP3 ADD MSTORE PUSH1 0x84 ADD PUSH2 0x116 JUMP JUMPDEST SWAP6 POP SWAP6 SWAP4 POP POP POP POP JUMP JUMPDEST PUSH0 PUSH1 0x40 MLOAD PUSH1 0x20 DUP2 MSTORE PUSH1 0x20 DUP1 DUP3 ADD MSTORE PUSH1 0x20 PUSH1 0x40 DUP3 ADD MSTORE DUP5 PUSH1 0x60 DUP3 ADD MSTORE DUP4 PUSH1 0x80 DUP3 ADD MSTORE DUP3 PUSH1 0xA0 DUP3 ADD MSTORE PUSH1 0x20 DUP2 PUSH1 0xC0 DUP4 PUSH1 0x5 GAS STATICCALL PUSH2 0xD30 JUMPI PUSH0 DUP1 REVERT JUMPDEST MLOAD SWAP5 SWAP4 POP POP POP POP JUMP JUMPDEST PUSH0 DUP1 DUP5 MLOAD PUSH1 0x1 PUSH1 0x11 PUSH1 0xC0 SHL ADD PUSH1 0x1 PUSH1 0xFB SHL ADD DUP6 DUP6 MULMOD PUSH1 0x1 PUSH1 0x11 PUSH1 0xC0 SHL ADD PUSH1 0x1 PUSH1 0xFB SHL ADD DUP2 DUP3 MULMOD PUSH1 0x20 DUP10 ADD MLOAD PUSH1 0x20 DUP10 ADD MLOAD PUSH1 0x1 PUSH1 0x11 PUSH1 0xC0 SHL ADD PUSH1 0x1 PUSH1 0xFB SHL ADD DUP2 PUSH1 0x1 PUSH1 0x11 PUSH1 0xC0 SHL ADD PUSH1 0x1 PUSH1 0xFB SHL ADD SUB DUP7 ADD DUP6 MULMOD PUSH1 0x40 DUP12 ADD MLOAD PUSH1 0x60 DUP13 ADD MLOAD SWAP7 SWAP1 SWAP3 ADD ADD SWAP5 PUSH1 0x1 PUSH1 0x11 PUSH1 0xC0 SHL ADD PUSH1 0x1 PUSH1 0xFB SHL ADD DUP1 DUP5 DUP8 MULMOD DUP3 PUSH1 0x1 PUSH1 0x11 PUSH1 0xC0 SHL ADD PUSH1 0x1 PUSH1 0xFB SHL ADD SUB DUP5 ADD MULMOD SWAP2 ADD ADD PUSH1 0x1 PUSH1 0x11 PUSH1 0xC0 SHL ADD PUSH1 0x1 PUSH1 0xFB SHL ADD PUSH1 0x10 PUSH8 0x800000000000011 PUSH1 0xC4 SHL ADD DUP3 SWAP1 SUB DUP7 ADD DUP5 MULMOD DUP2 DUP7 ADD ADD SWAP5 POP POP PUSH1 0x80 DUP10 ADD MLOAD PUSH1 0x1 PUSH1 0x11 PUSH1 0xC0 SHL ADD PUSH1 0x1 PUSH1 0xFB SHL ADD PUSH1 0x40 DUP13 ADD MLOAD DUP6 MULMOD PUSH1 0xA0 DUP12 ADD MLOAD PUSH1 0x1 PUSH1 0x11 PUSH1 0xC0 SHL ADD PUSH1 0x1 PUSH1 0xFB SHL ADD DUP2 PUSH1 0x1 PUSH1 0x11 PUSH1 0xC0 SHL ADD PUSH1 0x1 PUSH1 0xFB SHL ADD SUB DUP5 ADD DUP4 MULMOD PUSH1 0xC0 DUP14 ADD MLOAD PUSH1 0xE0 DUP15 ADD MLOAD SWAP5 SWAP1 SWAP3 ADD ADD SWAP3 PUSH1 0x1 PUSH1 0x11 PUSH1 0xC0 SHL ADD PUSH1 0x1 PUSH1 0xFB SHL ADD DUP1 DUP7 DUP6 MULMOD DUP3 PUSH1 0x1 PUSH1 0x11 PUSH1 0xC0 SHL ADD PUSH1 0x1 PUSH1 0xFB SHL ADD SUB DUP5 ADD MULMOD SWAP2 ADD ADD PUSH1 0x1 PUSH1 0x11 PUSH1 0xC0 SHL ADD PUSH1 0x1 PUSH1 0xFB SHL ADD PUSH1 0x10 PUSH8 0x800000000000011 PUSH1 0xC4 SHL ADD DUP3 SWAP1 SUB DUP5 ADD DUP2 DUP5 DUP1 MULMOD MULMOD DUP2 DUP5 ADD ADD SWAP3 POP POP POP PUSH1 0x1 PUSH1 0x11 PUSH1 0xC0 SHL ADD PUSH1 0x1 PUSH1 0xFB SHL ADD DUP1 DUP3 PUSH1 0x10 PUSH8 0x800000000000011 PUSH1 0xC4 SHL ADD SUB DUP8 ADD PUSH1 0x1 PUSH1 0x11 PUSH1 0xC0 SHL ADD PUSH1 0x1 PUSH1 0xFB SHL ADD DUP7 DUP8 MULMOD MULMOD DUP3 DUP8 ADD ADDMOD SWAP7 POP POP POP POP POP POP PUSH1 0x1 PUSH1 0x11 PUSH1 0xC0 SHL ADD PUSH1 0x1 PUSH1 0xFB SHL ADD DUP5 DUP6 MULMOD PUSH1 0x1 PUSH1 0x11 PUSH1 0xC0 SHL ADD PUSH1 0x1 PUSH1 0xFB SHL ADD DUP2 DUP3 MULMOD SWAP1 POP PUSH1 0x1 PUSH1 0x11 PUSH1 0xC0 SHL ADD PUSH1 0x1 PUSH1 0xFB SHL ADD DUP2 DUP3 MULMOD SWAP2 POP POP SWAP5 POP SWAP5 SWAP3 POP POP POP JUMP JUMPDEST PUSH0 DUP1 PUSH1 0x1 PUSH1 0x11 PUSH1 0xC0 SHL ADD PUSH1 0x1 PUSH1 0xFB SHL ADD DUP5 DUP5 MULMOD DUP6 MLOAD PUSH1 0x20 DUP8 ADD MLOAD PUSH1 0x1 PUSH1 0x11 PUSH1 0xC0 SHL ADD PUSH1 0x1 PUSH1 0xFB SHL ADD DUP2 PUSH1 0x1 PUSH1 0x11 PUSH1 0xC0 SHL ADD PUSH1 0x1 PUSH1 0xFB SHL ADD SUB DUP4 ADD DUP5 MULMOD DUP2 DUP4 ADD ADD SWAP2 POP POP PUSH1 0x40 DUP8 ADD MLOAD PUSH1 0x60 DUP9 ADD MLOAD PUSH1 0x1 PUSH1 0x11 PUSH1 0xC0 SHL ADD PUSH1 0x1 PUSH1 0xFB SHL ADD DUP1 PUSH1 0x1 PUSH1 0x11 PUSH1 0xC0 SHL ADD PUSH1 0x1 PUSH1 0xFB SHL ADD DUP7 PUSH1 0x20 DUP15 ADD MLOAD MULMOD DUP4 PUSH1 0x1 PUSH1 0x11 PUSH1 0xC0 SHL ADD PUSH1 0x1 PUSH1 0xFB SHL ADD SUB DUP6 ADD MULMOD DUP3 DUP5 ADD ADDMOD SWAP2 POP POP PUSH1 0x1 PUSH1 0x11 PUSH1 0xC0 SHL ADD PUSH1 0x1 PUSH1 0xFB SHL ADD DUP8 DUP9 MULMOD PUSH1 0x1 PUSH1 0x11 PUSH1 0xC0 SHL ADD PUSH1 0x1 PUSH1 0xFB SHL ADD DUP2 DUP3 MULMOD SWAP5 POP POP PUSH1 0x1 PUSH1 0x11 PUSH1 0xC0 SHL ADD PUSH1 0x1 PUSH1 0xFB SHL ADD DUP1 DUP3 PUSH1 0x1 PUSH1 0x11 PUSH1 0xC0 SHL ADD PUSH1 0x1 PUSH1 0xFB SHL ADD SUB DUP5 ADD PUSH1 0x1 PUSH1 0x11 PUSH1 0xC0 SHL ADD PUSH1 0x1 PUSH1 0xFB SHL ADD DUP7 DUP8 MULMOD MULMOD DUP3 DUP5 ADD ADDMOD SWAP5 POP POP POP POP SWAP5 POP SWAP5 SWAP3 POP POP POP JUMP JUMPDEST PUSH0 DUP1 PUSH0 DUP6 MLOAD PUSH1 0x1 PUSH1 0x11 PUSH1 0xC0 SHL ADD PUSH1 0x1 PUSH1 0xFB SHL ADD DUP7 DUP7 MULMOD PUSH1 0x20 DUP10 ADD MLOAD PUSH1 0x20 DUP10 ADD MLOAD PUSH1 0x1 PUSH1 0x11 PUSH1 0xC0 SHL ADD PUSH1 0x1 PUSH1 0xFB SHL ADD DUP2 PUSH1 0x1 PUSH1 0x11 PUSH1 0xC0 SHL ADD PUSH1 0x1 PUSH1 0xFB SHL ADD SUB DUP6 ADD DUP5 MULMOD PUSH1 0x40 DUP12 ADD MLOAD PUSH1 0x60 DUP13 ADD MLOAD SWAP6 SWAP1 SWAP3 ADD ADD SWAP4 PUSH1 0x1 PUSH1 0x11 PUSH1 0xC0 SHL ADD PUSH1 0x1 PUSH1 0xFB SHL ADD DUP1 DUP5 DUP7 MULMOD DUP3 PUSH1 0x1 PUSH1 0x11 PUSH1 0xC0 SHL ADD PUSH1 0x1 PUSH1 0xFB SHL ADD SUB DUP5 ADD MULMOD SWAP2 ADD ADD PUSH1 0x1 PUSH1 0x11 PUSH1 0xC0 SHL ADD PUSH1 0x1 PUSH1 0xFB SHL ADD DUP4 DUP1 MULMOD PUSH1 0x1 PUSH1 0x11 PUSH1 0xC0 SHL ADD PUSH1 0x1 PUSH1 0xFB SHL ADD DUP2 DUP3 MULMOD SWAP6 POP PUSH1 0x1 PUSH1 0x11 PUSH1 0xC0 SHL ADD PUSH1 0x1 PUSH1 0xFB SHL ADD DUP3 PUSH1 0x10 PUSH8 0x800000000000011 PUSH1 0xC4 SHL ADD SUB DUP7 ADD DUP3 MULMOD DUP3 DUP7 ADD ADD SWAP5 POP POP POP PUSH1 0x80 DUP10 ADD MLOAD PUSH1 0x1 PUSH1 0x11 PUSH1 0xC0 SHL ADD PUSH1 0x1 PUSH1 0xFB SHL ADD PUSH1 0x40 DUP13 ADD MLOAD DUP5 MULMOD PUSH1 0xA0 DUP12 ADD MLOAD PUSH1 0x1 PUSH1 0x11 PUSH1 0xC0 SHL ADD PUSH1 0x1 PUSH1 0xFB SHL ADD DUP2 PUSH1 0x1 PUSH1 0x11 PUSH1 0xC0 SHL ADD PUSH1 0x1 PUSH1 0xFB SHL ADD SUB DUP5 ADD DUP4 MULMOD PUSH1 0xC0 DUP14 ADD MLOAD PUSH1 0xE0 DUP15 ADD MLOAD SWAP5 SWAP1 SWAP3 ADD ADD SWAP3 PUSH1 0x1 PUSH1 0x11 PUSH1 0xC0 SHL ADD PUSH1 0x1 PUSH1 0xFB SHL ADD DUP1 DUP7 DUP6 MULMOD DUP3 PUSH1 0x1 PUSH1 0x11 PUSH1 0xC0 SHL ADD PUSH1 0x1 PUSH1 0xFB SHL ADD SUB DUP5 ADD MULMOD SWAP2 ADD ADD PUSH1 0x1 PUSH1 0x11 PUSH1 0xC0 SHL ADD PUSH1 0x1 PUSH1 0xFB SHL ADD PUSH1 0x10 PUSH8 0x800000000000011 PUSH1 0xC4 SHL ADD DUP3 SWAP1 SUB DUP5 ADD DUP2 DUP5 DUP1 MULMOD MULMOD DUP2 DUP5 ADD ADD SWAP3 POP POP POP PUSH1 0x1 PUSH1 0x11 PUSH1 0xC0 SHL ADD PUSH1 0x1 PUSH1 0xFB SHL ADD DUP2 PUSH1 0x10 PUSH8 0x800000000000011 PUSH1 0xC4 SHL ADD SUB DUP6 ADD DUP7 MULMOD DUP2 DUP6 ADD ADD SWAP4 POP POP PUSH2 0x100 DUP10 ADD MLOAD PUSH1 0x1 PUSH1 0x11 PUSH1 0xC0 SHL ADD PUSH1 0x1 PUSH1 0xFB SHL ADD PUSH1 0x80 DUP13 ADD MLOAD DUP5 MULMOD PUSH2 0x120 DUP12 ADD MLOAD PUSH1 0x1 PUSH1 0x11 PUSH1 0xC0 SHL ADD PUSH1 0x1 PUSH1 0xFB SHL ADD DUP2 PUSH1 0x1 PUSH1 0x11 PUSH1 0xC0 SHL ADD PUSH1 0x1 PUSH1 0xFB SHL ADD SUB DUP5 ADD DUP4 MULMOD PUSH2 0x140 DUP14 ADD MLOAD PUSH2 0x160 DUP15 ADD MLOAD SWAP5 SWAP1 SWAP3 ADD ADD SWAP3 PUSH1 0x1 PUSH1 0x11 PUSH1 0xC0 SHL ADD PUSH1 0x1 PUSH1 0xFB SHL ADD DUP1 DUP7 DUP6 MULMOD DUP3 PUSH1 0x1 PUSH1 0x11 PUSH1 0xC0 SHL ADD PUSH1 0x1 PUSH1 0xFB SHL ADD SUB DUP5 ADD MULMOD SWAP2 ADD ADD PUSH1 0x1 PUSH1 0x11 PUSH1 0xC0 SHL ADD PUSH1 0x1 PUSH1 0xFB SHL ADD PUSH1 0x10 PUSH8 0x800000000000011 PUSH1 0xC4 SHL ADD DUP3 SWAP1 SUB DUP5 ADD DUP2 DUP5 DUP1 MULMOD MULMOD DUP2 DUP5 ADD ADD SWAP3 POP POP POP PUSH2 0x180 DUP11 ADD MLOAD PUSH1 0x1 PUSH1 0x11 PUSH1 0xC0 SHL ADD PUSH1 0x1 PUSH1 0xFB SHL ADD PUSH1 0xC0 DUP14 ADD MLOAD DUP6 MULMOD PUSH2 0x1A0 DUP13 ADD MLOAD PUSH1 0x1 PUSH1 0x11 PUSH1 0xC0 SHL ADD PUSH1 0x1 PUSH1 0xFB SHL ADD DUP2 PUSH1 0x1 PUSH1 0x11 PUSH1 0xC0 SHL ADD PUSH1 0x1 PUSH1 0xFB SHL ADD SUB DUP5 ADD DUP4 MULMOD PUSH2 0x1C0 DUP15 ADD MLOAD PUSH2 0x1E0 DUP16 ADD MLOAD SWAP5 SWAP1 SWAP3 ADD ADD SWAP3 PUSH1 0x1 PUSH1 0x11 PUSH1 0xC0 SHL ADD PUSH1 0x1 PUSH1 0xFB SHL ADD DUP1 DUP8 DUP6 MULMOD DUP3 PUSH1 0x1 PUSH1 0x11 PUSH1 0xC0 SHL ADD PUSH1 0x1 PUSH1 0xFB SHL ADD SUB DUP5 ADD MULMOD SWAP2 ADD ADD PUSH1 0x1 PUSH1 0x11 PUSH1 0xC0 SHL ADD PUSH1 0x1 PUSH1 0xFB SHL ADD PUSH1 0x10 PUSH8 0x800000000000011 PUSH1 0xC4 SHL ADD DUP3 SWAP1 SUB DUP5 ADD DUP2 DUP5 DUP1 MULMOD MULMOD DUP2 DUP5 ADD ADD SWAP3 POP POP POP PUSH1 0x1 PUSH1 0x11 PUSH1 0xC0 SHL ADD PUSH1 0x1 PUSH1 0xFB SHL ADD DUP2 PUSH1 0x10 PUSH8 0x800000000000011 PUSH1 0xC4 SHL ADD SUB DUP4 ADD PUSH1 0x1 PUSH1 0x11 PUSH1 0xC0 SHL ADD PUSH1 0x1 PUSH1 0xFB SHL ADD DUP6 DUP10 MULMOD MULMOD SWAP2 ADD ADD PUSH1 0x1 PUSH1 0x11 PUSH1 0xC0 SHL ADD PUSH1 0x1 PUSH1 0xFB SHL ADD DUP1 PUSH1 0x10 PUSH8 0x800000000000011 PUSH1 0xC4 SHL ADD DUP4 SWAP1 SUB DUP7 ADD DUP2 DUP9 DUP1 MULMOD MULMOD DUP3 DUP7 ADD ADDMOD SWAP7 POP POP POP POP POP POP PUSH1 0x1 PUSH1 0x11 PUSH1 0xC0 SHL ADD PUSH1 0x1 PUSH1 0xFB SHL ADD DUP5 DUP6 MULMOD PUSH1 0x1 PUSH1 0x11 PUSH1 0xC0 SHL ADD PUSH1 0x1 PUSH1 0xFB SHL ADD DUP2 DUP3 MULMOD SWAP1 POP PUSH1 0x1 PUSH1 0x11 PUSH1 0xC0 SHL ADD PUSH1 0x1 PUSH1 0xFB SHL ADD DUP2 DUP3 MULMOD SWAP1 POP PUSH1 0x1 PUSH1 0x11 PUSH1 0xC0 SHL ADD PUSH1 0x1 PUSH1 0xFB SHL ADD DUP2 DUP3 MULMOD SWAP2 POP POP SWAP5 POP SWAP5 SWAP3 POP POP POP JUMP JUMPDEST PUSH0 PUSH1 0x20 DUP3 DUP5 SUB SLT ISZERO PUSH2 0x13CB JUMPI PUSH0 DUP1 REVERT JUMPDEST POP CALLDATALOAD SWAP2 SWAP1 POP JUMP JUMPDEST PUSH4 0x4E487B71 PUSH1 0xE0 SHL PUSH0 MSTORE PUSH1 0x41 PUSH1 0x4 MSTORE PUSH1 0x24 PUSH0 REVERT JUMPDEST PUSH0 DUP3 PUSH1 0x1F DUP4 ADD SLT PUSH2 0x13F5 JUMPI PUSH0 DUP1 REVERT JUMPDEST DUP2 CALLDATALOAD PUSH1 0x20 PUSH8 0xFFFFFFFFFFFFFFFF DUP1 DUP4 GT ISZERO PUSH2 0x1412 JUMPI PUSH2 0x1412 PUSH2 0x13D2 JUMP JUMPDEST DUP3 PUSH1 0x5 SHL PUSH1 0x40 MLOAD PUSH1 0x1F NOT PUSH1 0x3F DUP4 ADD AND DUP2 ADD DUP2 DUP2 LT DUP5 DUP3 GT OR ISZERO PUSH2 0x1437 JUMPI PUSH2 0x1437 PUSH2 0x13D2 JUMP JUMPDEST PUSH1 0x40 MSTORE SWAP4 DUP5 MSTORE PUSH1 0x20 DUP2 DUP8 ADD DUP2 ADD SWAP5 SWAP1 DUP2 ADD SWAP3 POP DUP8 DUP6 GT ISZERO PUSH2 0x1456 JUMPI PUSH0 DUP1 REVERT JUMPDEST PUSH1 0x20 DUP8 ADD SWAP2 POP JUMPDEST DUP5 DUP3 LT ISZERO PUSH2 0x1476 JUMPI DUP2 CALLDATALOAD DUP4 MSTORE SWAP2 DUP4 ADD SWAP2 SWAP1 DUP4 ADD SWAP1 PUSH2 0x145D JUMP JUMPDEST SWAP8 SWAP7 POP POP POP POP POP POP POP JUMP JUMPDEST PUSH0 DUP1 PUSH0 DUP1 PUSH0 PUSH1 0xA0 DUP7 DUP9 SUB SLT ISZERO PUSH2 0x1495 JUMPI PUSH0 DUP1 REVERT JUMPDEST DUP6 CALLDATALOAD PUSH8 0xFFFFFFFFFFFFFFFF DUP1 DUP3 GT ISZERO PUSH2 0x14AC JUMPI PUSH0 DUP1 REVERT JUMPDEST PUSH2 0x14B8 DUP10 DUP4 DUP11 ADD PUSH2 0x13E6 JUMP JUMPDEST SWAP7 POP PUSH1 0x20 DUP9 ADD CALLDATALOAD SWAP2 POP DUP1 DUP3 GT ISZERO PUSH2 0x14CD JUMPI PUSH0 DUP1 REVERT JUMPDEST POP PUSH2 0x14DA DUP9 DUP3 DUP10 ADD PUSH2 0x13E6 JUMP JUMPDEST SWAP6 SWAP9 SWAP6 SWAP8 POP POP POP POP PUSH1 0x40 DUP5 ADD CALLDATALOAD SWAP4 PUSH1 0x60 DUP2 ADD CALLDATALOAD SWAP4 PUSH1 0x80 SWAP1 SWAP2 ADD CALLDATALOAD SWAP3 POP SWAP1 POP JUMP JUMPDEST PUSH4 0x4E487B71 PUSH1 0xE0 SHL PUSH0 MSTORE PUSH1 0x11 PUSH1 0x4 MSTORE PUSH1 0x24 PUSH0 REVERT JUMPDEST PUSH1 0x1 DUP2 DUP2 JUMPDEST DUP1 DUP6 GT ISZERO PUSH2 0x1548 JUMPI DUP2 PUSH0 NOT DIV DUP3 GT ISZERO PUSH2 0x152E JUMPI PUSH2 0x152E PUSH2 0x14FA JUMP JUMPDEST DUP1 DUP6 AND ISZERO PUSH2 0x153B JUMPI SWAP2 DUP2 MUL SWAP2 JUMPDEST SWAP4 DUP5 SHR SWAP4 SWAP1 DUP1 MUL SWAP1 PUSH2 0x1513 JUMP JUMPDEST POP SWAP3 POP SWAP3 SWAP1 POP JUMP JUMPDEST PUSH0 DUP3 PUSH2 0x155E JUMPI POP PUSH1 0x1 PUSH2 0x9C JUMP JUMPDEST DUP2 PUSH2 0x156A JUMPI POP PUSH0 PUSH2 0x9C JUMP JUMPDEST DUP2 PUSH1 0x1 DUP2 EQ PUSH2 0x1580 JUMPI PUSH1 0x2 DUP2 EQ PUSH2 0x158A JUMPI PUSH2 0x15A6 JUMP JUMPDEST PUSH1 0x1 SWAP2 POP POP PUSH2 0x9C JUMP JUMPDEST PUSH1 0xFF DUP5 GT ISZERO PUSH2 0x159B JUMPI PUSH2 0x159B PUSH2 0x14FA JUMP JUMPDEST POP POP PUSH1 0x1 DUP3 SHL PUSH2 0x9C JUMP JUMPDEST POP PUSH1 0x20 DUP4 LT PUSH2 0x133 DUP4 LT AND PUSH1 0x4E DUP5 LT PUSH1 0xB DUP5 LT AND OR ISZERO PUSH2 0x15C9 JUMPI POP DUP2 DUP2 EXP PUSH2 0x9C JUMP JUMPDEST PUSH2 0x15D3 DUP4 DUP4 PUSH2 0x150E JUMP JUMPDEST DUP1 PUSH0 NOT DIV DUP3 GT ISZERO PUSH2 0x15E6 JUMPI PUSH2 0x15E6 PUSH2 0x14FA JUMP JUMPDEST MUL SWAP4 SWAP3 POP POP POP JUMP JUMPDEST PUSH0 PUSH2 0xB2D DUP4 DUP4 PUSH2 0x1550 JUMP JUMPDEST DUP1 DUP3 MUL DUP2 ISZERO DUP3 DUP3 DIV DUP5 EQ OR PUSH2 0x9C JUMPI PUSH2 0x9C PUSH2 0x14FA JUMP JUMPDEST PUSH4 0x4E487B71 PUSH1 0xE0 SHL PUSH0 MSTORE PUSH1 0x12 PUSH1 0x4 MSTORE PUSH1 0x24 PUSH0 REVERT JUMPDEST PUSH0 DUP3 PUSH2 0x1632 JUMPI PUSH2 0x1632 PUSH2 0x1610 JUMP JUMPDEST POP DIV SWAP1 JUMP JUMPDEST DUP1 DUP3 ADD DUP1 DUP3 GT ISZERO PUSH2 0x9C JUMPI PUSH2 0x9C PUSH2 0x14FA JUMP JUMPDEST PUSH0 PUSH1 0x20 DUP1 DUP4 MSTORE DUP4 MLOAD DUP1 PUSH1 0x20 DUP6 ADD MSTORE PUSH0 JUMPDEST DUP2 DUP2 LT ISZERO PUSH2 0x1676 JUMPI DUP6 DUP2 ADD DUP4 ADD MLOAD DUP6 DUP3 ADD PUSH1 0x40 ADD MSTORE DUP3 ADD PUSH2 0x165A JUMP JUMPDEST POP PUSH0 PUSH1 0x40 DUP3 DUP7 ADD ADD MSTORE PUSH1 0x40 PUSH1 0x1F NOT PUSH1 0x1F DUP4 ADD AND DUP6 ADD ADD SWAP3 POP POP POP SWAP3 SWAP2 POP POP JUMP JUMPDEST PUSH0 DUP3 PUSH2 0x16A4 JUMPI PUSH2 0x16A4 PUSH2 0x1610 JUMP JUMPDEST POP MOD SWAP1 JUMP JUMPDEST DUP2 DUP2 SUB DUP2 DUP2 GT ISZERO PUSH2 0x9C JUMPI PUSH2 0x9C PUSH2 0x14FA JUMP JUMPDEST PUSH4 0x4E487B71 PUSH1 0xE0 SHL PUSH0 MSTORE PUSH1 0x32 PUSH1 0x4 MSTORE PUSH1 0x24 PUSH0 REVERT JUMPDEST PUSH4 0x4E487B71 PUSH1 0xE0 SHL PUSH0 MSTORE PUSH1 0x1 PUSH1 0x4 MSTORE PUSH1 0x24 PUSH0 REVERT INVALID LOG2 PUSH5 0x6970667358 0x22 SLT KECCAK256 DUP1 SWAP15 EXTCODECOPY LT PUSH24 0x7239A05BC66B203343404F641ADE83B22CC985A0DD44D8F7 0x4D 0xA6 CREATE PUSH5 0x736F6C6343 STOP ADDMOD AND STOP CALLER "
		},
		"gasEstimates": {
			"creation": {
				"codeDepositCost": "1182800",
				"executionCost": "25443",
				"totalCost": "1208243"
			},
			"external": {
				"hasRegisteredFact()": "2291",
				"isValid(bytes32)": "2436",
				"verifyFRI(uint256[],uint256[],uint256,uint256,uint256)": "infinite"
			},
			"internal": {
				"validateFriQueue(uint256[] memory)": "infinite"
			}
		},
		"methodIdentifiers": {
			"hasRegisteredFact()": "d6354e15",
			"isValid(bytes32)": "6a938567",
			"verifyFRI(uint256[],uint256[],uint256,uint256,uint256)": "e85a6a28"
		}
	},
	"abi": [
		{
			"anonymous": false,
			"inputs": [
				{
					"indexed": false,
					"internalType": "string",
					"name": "name",
					"type": "string"
				},
				{
					"indexed": false,
					"internalType": "uint256",
					"name": "val",
					"type": "uint256"
				}
			],
			"name": "LogGas",
			"type": "event"
		},
		{
			"inputs": [],
			"name": "hasRegisteredFact",
			"outputs": [
				{
					"internalType": "bool",
					"name": "",
					"type": "bool"
				}
			],
			"stateMutability": "view",
			"type": "function"
		},
		{
			"inputs": [
				{
					"internalType": "bytes32",
					"name": "fact",
					"type": "bytes32"
				}
			],
			"name": "isValid",
			"outputs": [
				{
					"internalType": "bool",
					"name": "",
					"type": "bool"
				}
			],
			"stateMutability": "view",
			"type": "function"
		},
		{
			"inputs": [
				{
					"internalType": "uint256[]",
					"name": "proof",
					"type": "uint256[]"
				},
				{
					"internalType": "uint256[]",
					"name": "friQueue",
					"type": "uint256[]"
				},
				{
					"internalType": "uint256",
					"name": "evaluationPoint",
					"type": "uint256"
				},
				{
					"internalType": "uint256",
					"name": "friStepSize",
					"type": "uint256"
				},
				{
					"internalType": "uint256",
					"name": "expectedRoot",
					"type": "uint256"
				}
			],
			"name": "verifyFRI",
			"outputs": [],
			"stateMutability": "nonpayable",
			"type": "function"
		}
	]
}