{
	"data": {
		"bytecode": {
			"linkReferences": {},
			"object": "60806040526001805460ff19169055348015610019575f80fd5b50610598806100275f395ff3fe608060405234801561000f575f80fd5b506004361061003f575f3560e01c80633fe317a6146100435780636a93856714610058578063d6354e151461007f575b5f80fd5b61005661005136600461049a565b61008a565b005b61006b610066366004610509565b61026a565b604051901515815260200160405180910390f35b60015460ff1661006b565b60c882106100d05760405162461bcd60e51b815260206004820152600e60248201526d48656967687420746f6f2062696760901b60448201526064015b60405180910390fd5b6100dc60806002610520565b835111156101265760405162461bcd60e51b8152602060048201526017602482015276544f4f5f4d414e595f4d45524b4c455f5155455249455360481b60448201526064016100c7565b600283516101349190610543565b156101795760405162461bcd60e51b81526020600482015260156024820152744f44445f4d45524b4c455f51554555455f53495a4560581b60448201526064016100c7565b6040805160208681018252855186820193600290910491838101915f919084028901016001881b5b818710156101d2578651808552602080890151908601526040978801979094019390811092909217916001016101a1565b60208481016040528a0196506002891b1091909117905080156102305760405162461bcd60e51b8152602060048201526016602482015275494e56414c49445f4d45524b4c455f494e444943455360501b60448201526064016100c7565b5f61023d85878987610282565b90505f818452602086019350602060408602018420905061025d816103b8565b5050505050505050505050565b5f8181526020819052604081205460ff165b92915050565b5f60808211156102ce5760405162461bcd60e51b8152602060048201526017602482015276544f4f5f4d414e595f4d45524b4c455f5155455249455360481b60448201526064016100c7565b60208401604083025f808782015189515b600182111561035d576001821860406020820987860151816020185286604087086002909404858d01528b84015193955060208301928285036103355750601f1990920191858801876040880896508c87015194505b5190525060405f8190206bffffffffffffffffffffffff1916848801528590840892506102df565b929094015191895250925050508281146103b05760405162461bcd60e51b815260206004820152601460248201527324a72b20a624a22fa6a2a925a622afa82927a7a360611b60448201526064016100c7565b949350505050565b5f818152602081905260409020805460ff191660019081179091555460ff166103e8576001805460ff1916811790555b50565b634e487b7160e01b5f52604160045260245ffd5b5f82601f83011261040e575f80fd5b8135602067ffffffffffffffff8083111561042b5761042b6103eb565b8260051b604051601f19603f83011681018181108482111715610450576104506103eb565b604052938452602081870181019490810192508785111561046f575f80fd5b6020870191505b8482101561048f57813583529183019190830190610476565b979650505050505050565b5f805f80608085870312156104ad575f80fd5b843567ffffffffffffffff808211156104c4575f80fd5b6104d0888389016103ff565b955060208701359150808211156104e5575f80fd5b506104f2878288016103ff565b949794965050505060408301359260600135919050565b5f60208284031215610519575f80fd5b5035919050565b808202811582820484141761027c57634e487b7160e01b5f52601160045260245ffd5b5f8261055d57634e487b7160e01b5f52601260045260245ffd5b50069056fea264697066735822122086b7d21023747acc14e5ec3e7fe8c0978cb46e2dbbe62593a7ffe7a99358d6c164736f6c63430008160033",
			"opcodes": "PUSH1 0x80 PUSH1 0x40 MSTORE PUSH1 0x1 DUP1 SLOAD PUSH1 0xFF NOT AND SWAP1 SSTORE CALLVALUE DUP1 ISZERO PUSH2 0x19 JUMPI PUSH0 DUP1 REVERT JUMPDEST POP PUSH2 0x598 DUP1 PUSH2 0x27 PUSH0 CODECOPY PUSH0 RETURN INVALID PUSH1 0x80 PUSH1 0x40 MSTORE CALLVALUE DUP1 ISZERO PUSH2 0xF JUMPI PUSH0 DUP1 REVERT JUMPDEST POP PUSH1 0x4 CALLDATASIZE LT PUSH2 0x3F JUMPI PUSH0 CALLDATALOAD PUSH1 0xE0 SHR DUP1 PUSH4 0x3FE317A6 EQ PUSH2 0x43 JUMPI DUP1 PUSH4 0x6A938567 EQ PUSH2 0x58 JUMPI DUP1 PUSH4 0xD6354E15 EQ PUSH2 0x7F JUMPI JUMPDEST PUSH0 DUP1 REVERT JUMPDEST PUSH2 0x56 PUSH2 0x51 CALLDATASIZE PUSH1 0x4 PUSH2 0x49A JUMP JUMPDEST PUSH2 0x8A JUMP JUMPDEST STOP JUMPDEST PUSH2 0x6B PUSH2 0x66 CALLDATASIZE PUSH1 0x4 PUSH2 0x509 JUMP JUMPDEST PUSH2 0x26A JUMP JUMPDEST PUSH1 0x40 MLOAD SWAP1 ISZERO ISZERO DUP2 MSTORE PUSH1 0x20 ADD PUSH1 0x40 MLOAD DUP1 SWAP2 SUB SWAP1 RETURN JUMPDEST PUSH1 0x1 SLOAD PUSH1 0xFF AND PUSH2 0x6B JUMP JUMPDEST PUSH1 0xC8 DUP3 LT PUSH2 0xD0 JUMPI PUSH1 0x40 MLOAD PUSH3 0x461BCD PUSH1 0xE5 SHL DUP2 MSTORE PUSH1 0x20 PUSH1 0x4 DUP3 ADD MSTORE PUSH1 0xE PUSH1 0x24 DUP3 ADD MSTORE PUSH14 0x48656967687420746F6F20626967 PUSH1 0x90 SHL PUSH1 0x44 DUP3 ADD MSTORE PUSH1 0x64 ADD JUMPDEST PUSH1 0x40 MLOAD DUP1 SWAP2 SUB SWAP1 REVERT JUMPDEST PUSH2 0xDC PUSH1 0x80 PUSH1 0x2 PUSH2 0x520 JUMP JUMPDEST DUP4 MLOAD GT ISZERO PUSH2 0x126 JUMPI PUSH1 0x40 MLOAD PUSH3 0x461BCD PUSH1 0xE5 SHL DUP2 MSTORE PUSH1 0x20 PUSH1 0x4 DUP3 ADD MSTORE PUSH1 0x17 PUSH1 0x24 DUP3 ADD MSTORE PUSH23 0x544F4F5F4D414E595F4D45524B4C455F51554552494553 PUSH1 0x48 SHL PUSH1 0x44 DUP3 ADD MSTORE PUSH1 0x64 ADD PUSH2 0xC7 JUMP JUMPDEST PUSH1 0x2 DUP4 MLOAD PUSH2 0x134 SWAP2 SWAP1 PUSH2 0x543 JUMP JUMPDEST ISZERO PUSH2 0x179 JUMPI PUSH1 0x40 MLOAD PUSH3 0x461BCD PUSH1 0xE5 SHL DUP2 MSTORE PUSH1 0x20 PUSH1 0x4 DUP3 ADD MSTORE PUSH1 0x15 PUSH1 0x24 DUP3 ADD MSTORE PUSH21 0x4F44445F4D45524B4C455F51554555455F53495A45 PUSH1 0x58 SHL PUSH1 0x44 DUP3 ADD MSTORE PUSH1 0x64 ADD PUSH2 0xC7 JUMP JUMPDEST PUSH1 0x40 DUP1 MLOAD PUSH1 0x20 DUP7 DUP2 ADD DUP3 MSTORE DUP6 MLOAD DUP7 DUP3 ADD SWAP4 PUSH1 0x2 SWAP1 SWAP2 DIV SWAP2 DUP4 DUP2 ADD SWAP2 PUSH0 SWAP2 SWAP1 DUP5 MUL DUP10 ADD ADD PUSH1 0x1 DUP9 SHL JUMPDEST DUP2 DUP8 LT ISZERO PUSH2 0x1D2 JUMPI DUP7 MLOAD DUP1 DUP6 MSTORE PUSH1 0x20 DUP1 DUP10 ADD MLOAD SWAP1 DUP7 ADD MSTORE PUSH1 0x40 SWAP8 DUP9 ADD SWAP8 SWAP1 SWAP5 ADD SWAP4 SWAP1 DUP2 LT SWAP3 SWAP1 SWAP3 OR SWAP2 PUSH1 0x1 ADD PUSH2 0x1A1 JUMP JUMPDEST PUSH1 0x20 DUP5 DUP2 ADD PUSH1 0x40 MSTORE DUP11 ADD SWAP7 POP PUSH1 0x2 DUP10 SHL LT SWAP2 SWAP1 SWAP2 OR SWAP1 POP DUP1 ISZERO PUSH2 0x230 JUMPI PUSH1 0x40 MLOAD PUSH3 0x461BCD PUSH1 0xE5 SHL DUP2 MSTORE PUSH1 0x20 PUSH1 0x4 DUP3 ADD MSTORE PUSH1 0x16 PUSH1 0x24 DUP3 ADD MSTORE PUSH22 0x494E56414C49445F4D45524B4C455F494E4449434553 PUSH1 0x50 SHL PUSH1 0x44 DUP3 ADD MSTORE PUSH1 0x64 ADD PUSH2 0xC7 JUMP JUMPDEST PUSH0 PUSH2 0x23D DUP6 DUP8 DUP10 DUP8 PUSH2 0x282 JUMP JUMPDEST SWAP1 POP PUSH0 DUP2 DUP5 MSTORE PUSH1 0x20 DUP7 ADD SWAP4 POP PUSH1 0x20 PUSH1 0x40 DUP7 MUL ADD DUP5 KECCAK256 SWAP1 POP PUSH2 0x25D DUP2 PUSH2 0x3B8 JUMP JUMPDEST POP POP POP POP POP POP POP POP POP POP POP JUMP JUMPDEST PUSH0 DUP2 DUP2 MSTORE PUSH1 0x20 DUP2 SWAP1 MSTORE PUSH1 0x40 DUP2 KECCAK256 SLOAD PUSH1 0xFF AND JUMPDEST SWAP3 SWAP2 POP POP JUMP JUMPDEST PUSH0 PUSH1 0x80 DUP3 GT ISZERO PUSH2 0x2CE JUMPI PUSH1 0x40 MLOAD PUSH3 0x461BCD PUSH1 0xE5 SHL DUP2 MSTORE PUSH1 0x20 PUSH1 0x4 DUP3 ADD MSTORE PUSH1 0x17 PUSH1 0x24 DUP3 ADD MSTORE PUSH23 0x544F4F5F4D414E595F4D45524B4C455F51554552494553 PUSH1 0x48 SHL PUSH1 0x44 DUP3 ADD MSTORE PUSH1 0x64 ADD PUSH2 0xC7 JUMP JUMPDEST PUSH1 0x20 DUP5 ADD PUSH1 0x40 DUP4 MUL PUSH0 DUP1 DUP8 DUP3 ADD MLOAD DUP10 MLOAD JUMPDEST PUSH1 0x1 DUP3 GT ISZERO PUSH2 0x35D JUMPI PUSH1 0x1 DUP3 XOR PUSH1 0x40 PUSH1 0x20 DUP3 MULMOD DUP8 DUP7 ADD MLOAD DUP2 PUSH1 0x20 XOR MSTORE DUP7 PUSH1 0x40 DUP8 ADDMOD PUSH1 0x2 SWAP1 SWAP5 DIV DUP6 DUP14 ADD MSTORE DUP12 DUP5 ADD MLOAD SWAP4 SWAP6 POP PUSH1 0x20 DUP4 ADD SWAP3 DUP3 DUP6 SUB PUSH2 0x335 JUMPI POP PUSH1 0x1F NOT SWAP1 SWAP3 ADD SWAP2 DUP6 DUP9 ADD DUP8 PUSH1 0x40 DUP9 ADDMOD SWAP7 POP DUP13 DUP8 ADD MLOAD SWAP5 POP JUMPDEST MLOAD SWAP1 MSTORE POP PUSH1 0x40 PUSH0 DUP2 SWAP1 KECCAK256 PUSH12 0xFFFFFFFFFFFFFFFFFFFFFFFF NOT AND DUP5 DUP9 ADD MSTORE DUP6 SWAP1 DUP5 ADDMOD SWAP3 POP PUSH2 0x2DF JUMP JUMPDEST SWAP3 SWAP1 SWAP5 ADD MLOAD SWAP2 DUP10 MSTORE POP SWAP3 POP POP POP DUP3 DUP2 EQ PUSH2 0x3B0 JUMPI PUSH1 0x40 MLOAD PUSH3 0x461BCD PUSH1 0xE5 SHL DUP2 MSTORE PUSH1 0x20 PUSH1 0x4 DUP3 ADD MSTORE PUSH1 0x14 PUSH1 0x24 DUP3 ADD MSTORE PUSH20 0x24A72B20A624A22FA6A2A925A622AFA82927A7A3 PUSH1 0x61 SHL PUSH1 0x44 DUP3 ADD MSTORE PUSH1 0x64 ADD PUSH2 0xC7 JUMP JUMPDEST SWAP5 SWAP4 POP POP POP POP JUMP JUMPDEST PUSH0 DUP2 DUP2 MSTORE PUSH1 0x20 DUP2 SWAP1 MSTORE PUSH1 0x40 SWAP1 KECCAK256 DUP1 SLOAD PUSH1 0xFF NOT AND PUSH1 0x1 SWAP1 DUP2 OR SWAP1 SWAP2 SSTORE SLOAD PUSH1 0xFF AND PUSH2 0x3E8 JUMPI PUSH1 0x1 DUP1 SLOAD PUSH1 0xFF NOT AND DUP2 OR SWAP1 SSTORE JUMPDEST POP JUMP JUMPDEST PUSH4 0x4E487B71 PUSH1 0xE0 SHL PUSH0 MSTORE PUSH1 0x41 PUSH1 0x4 MSTORE PUSH1 0x24 PUSH0 REVERT JUMPDEST PUSH0 DUP3 PUSH1 0x1F DUP4 ADD SLT PUSH2 0x40E JUMPI PUSH0 DUP1 REVERT JUMPDEST DUP2 CALLDATALOAD PUSH1 0x20 PUSH8 0xFFFFFFFFFFFFFFFF DUP1 DUP4 GT ISZERO PUSH2 0x42B JUMPI PUSH2 0x42B PUSH2 0x3EB JUMP JUMPDEST DUP3 PUSH1 0x5 SHL PUSH1 0x40 MLOAD PUSH1 0x1F NOT PUSH1 0x3F DUP4 ADD AND DUP2 ADD DUP2 DUP2 LT DUP5 DUP3 GT OR ISZERO PUSH2 0x450 JUMPI PUSH2 0x450 PUSH2 0x3EB JUMP JUMPDEST PUSH1 0x40 MSTORE SWAP4 DUP5 MSTORE PUSH1 0x20 DUP2 DUP8 ADD DUP2 ADD SWAP5 SWAP1 DUP2 ADD SWAP3 POP DUP8 DUP6 GT ISZERO PUSH2 0x46F JUMPI PUSH0 DUP1 REVERT JUMPDEST PUSH1 0x20 DUP8 ADD SWAP2 POP JUMPDEST DUP5 DUP3 LT ISZERO PUSH2 0x48F JUMPI DUP2 CALLDATALOAD DUP4 MSTORE SWAP2 DUP4 ADD SWAP2 SWAP1 DUP4 ADD SWAP1 PUSH2 0x476 JUMP JUMPDEST SWAP8 SWAP7 POP POP POP POP POP POP POP JUMP JUMPDEST PUSH0 DUP1 PUSH0 DUP1 PUSH1 0x80 DUP6 DUP8 SUB SLT ISZERO PUSH2 0x4AD JUMPI PUSH0 DUP1 REVERT JUMPDEST DUP5 CALLDATALOAD PUSH8 0xFFFFFFFFFFFFFFFF DUP1 DUP3 GT ISZERO PUSH2 0x4C4 JUMPI PUSH0 DUP1 REVERT JUMPDEST PUSH2 0x4D0 DUP9 DUP4 DUP10 ADD PUSH2 0x3FF JUMP JUMPDEST SWAP6 POP PUSH1 0x20 DUP8 ADD CALLDATALOAD SWAP2 POP DUP1 DUP3 GT ISZERO PUSH2 0x4E5 JUMPI PUSH0 DUP1 REVERT JUMPDEST POP PUSH2 0x4F2 DUP8 DUP3 DUP9 ADD PUSH2 0x3FF JUMP JUMPDEST SWAP5 SWAP8 SWAP5 SWAP7 POP POP POP POP PUSH1 0x40 DUP4 ADD CALLDATALOAD SWAP3 PUSH1 0x60 ADD CALLDATALOAD SWAP2 SWAP1 POP JUMP JUMPDEST PUSH0 PUSH1 0x20 DUP3 DUP5 SUB SLT ISZERO PUSH2 0x519 JUMPI PUSH0 DUP1 REVERT JUMPDEST POP CALLDATALOAD SWAP2 SWAP1 POP JUMP JUMPDEST DUP1 DUP3 MUL DUP2 ISZERO DUP3 DUP3 DIV DUP5 EQ OR PUSH2 0x27C JUMPI PUSH4 0x4E487B71 PUSH1 0xE0 SHL PUSH0 MSTORE PUSH1 0x11 PUSH1 0x4 MSTORE PUSH1 0x24 PUSH0 REVERT JUMPDEST PUSH0 DUP3 PUSH2 0x55D JUMPI PUSH4 0x4E487B71 PUSH1 0xE0 SHL PUSH0 MSTORE PUSH1 0x12 PUSH1 0x4 MSTORE PUSH1 0x24 PUSH0 REVERT JUMPDEST POP MOD SWAP1 JUMP INVALID LOG2 PUSH5 0x6970667358 0x22 SLT KECCAK256 DUP7 0xB7 0xD2 LT 0x23 PUSH21 0x7ACC14E5EC3E7FE8C0978CB46E2DBBE62593A7FFE7 0xA9 SWAP4 PC 0xD6 0xC1 PUSH5 0x736F6C6343 STOP ADDMOD AND STOP CALLER "
		},
		"gasEstimates": {
			"creation": {
				"codeDepositCost": "286400",
				"executionCost": "24540",
				"totalCost": "310940"
			},
			"external": {
				"hasRegisteredFact()": "2313",
				"isValid(bytes32)": "2458",
				"verifyMerkle(uint256[],uint256[],uint256,uint256)": "infinite"
			}
		},
		"methodIdentifiers": {
			"hasRegisteredFact()": "d6354e15",
			"isValid(bytes32)": "6a938567",
			"verifyMerkle(uint256[],uint256[],uint256,uint256)": "3fe317a6"
		}
	},
	"abi": [
		{
			"inputs": [],
			"name": "hasRegisteredFact",
			"outputs": [
				{
					"internalType": "bool",
					"name": "",
					"type": "bool"
				}
			],
			"stateMutability": "view",
			"type": "function"
		},
		{
			"inputs": [
				{
					"internalType": "bytes32",
					"name": "fact",
					"type": "bytes32"
				}
			],
			"name": "isValid",
			"outputs": [
				{
					"internalType": "bool",
					"name": "",
					"type": "bool"
				}
			],
			"stateMutability": "view",
			"type": "function"
		},
		{
			"inputs": [
				{
					"internalType": "uint256[]",
					"name": "merkleView",
					"type": "uint256[]"
				},
				{
					"internalType": "uint256[]",
					"name": "initialMerkleQueue",
					"type": "uint256[]"
				},
				{
					"internalType": "uint256",
					"name": "height",
					"type": "uint256"
				},
				{
					"internalType": "uint256",
					"name": "expectedRoot",
					"type": "uint256"
				}
			],
			"name": "verifyMerkle",
			"outputs": [],
			"stateMutability": "nonpayable",
			"type": "function"
		}
	]
}