{
	"data": {
		"bytecode": {
			"linkReferences": {},
			"object": "60806040526001805460ff19169055348015610019575f80fd5b50610142806100275f395ff3fe608060405234801561000f575f80fd5b506004361061007a575f3560e01c80636a938567116100585780636a938567146100a9578063b7a771f7146100db578063d6354e15146100e3578063e5b62b29146100ee575f80fd5b806329e105201461007e5780634c14a6f9146100995780635b4c41c2146100a1575b5f80fd5b610086600281565b6040519081526020015b60405180910390f35b610086600381565b610086600181565b6100cb6100b73660046100f5565b5f9081526020819052604090205460ff1690565b6040519015158152602001610090565b610086606081565b60015460ff166100cb565b6100865f81565b5f60208284031215610105575f80fd5b503591905056fea2646970667358221220ef534902d8843ffd5ca571d6788da6bbdbb614e8022989d960775bbee52f348d64736f6c63430008160033",
			"opcodes": "PUSH1 0x80 PUSH1 0x40 MSTORE PUSH1 0x1 DUP1 SLOAD PUSH1 0xFF NOT AND SWAP1 SSTORE CALLVALUE DUP1 ISZERO PUSH2 0x19 JUMPI PUSH0 DUP1 REVERT JUMPDEST POP PUSH2 0x142 DUP1 PUSH2 0x27 PUSH0 CODECOPY PUSH0 RETURN INVALID PUSH1 0x80 PUSH1 0x40 MSTORE CALLVALUE DUP1 ISZERO PUSH2 0xF JUMPI PUSH0 DUP1 REVERT JUMPDEST POP PUSH1 0x4 CALLDATASIZE LT PUSH2 0x7A JUMPI PUSH0 CALLDATALOAD PUSH1 0xE0 SHR DUP1 PUSH4 0x6A938567 GT PUSH2 0x58 JUMPI DUP1 PUSH4 0x6A938567 EQ PUSH2 0xA9 JUMPI DUP1 PUSH4 0xB7A771F7 EQ PUSH2 0xDB JUMPI DUP1 PUSH4 0xD6354E15 EQ PUSH2 0xE3 JUMPI DUP1 PUSH4 0xE5B62B29 EQ PUSH2 0xEE JUMPI PUSH0 DUP1 REVERT JUMPDEST DUP1 PUSH4 0x29E10520 EQ PUSH2 0x7E JUMPI DUP1 PUSH4 0x4C14A6F9 EQ PUSH2 0x99 JUMPI DUP1 PUSH4 0x5B4C41C2 EQ PUSH2 0xA1 JUMPI JUMPDEST PUSH0 DUP1 REVERT JUMPDEST PUSH2 0x86 PUSH1 0x2 DUP2 JUMP JUMPDEST PUSH1 0x40 MLOAD SWAP1 DUP2 MSTORE PUSH1 0x20 ADD JUMPDEST PUSH1 0x40 MLOAD DUP1 SWAP2 SUB SWAP1 RETURN JUMPDEST PUSH2 0x86 PUSH1 0x3 DUP2 JUMP JUMPDEST PUSH2 0x86 PUSH1 0x1 DUP2 JUMP JUMPDEST PUSH2 0xCB PUSH2 0xB7 CALLDATASIZE PUSH1 0x4 PUSH2 0xF5 JUMP JUMPDEST PUSH0 SWAP1 DUP2 MSTORE PUSH1 0x20 DUP2 SWAP1 MSTORE PUSH1 0x40 SWAP1 KECCAK256 SLOAD PUSH1 0xFF AND SWAP1 JUMP JUMPDEST PUSH1 0x40 MLOAD SWAP1 ISZERO ISZERO DUP2 MSTORE PUSH1 0x20 ADD PUSH2 0x90 JUMP JUMPDEST PUSH2 0x86 PUSH1 0x60 DUP2 JUMP JUMPDEST PUSH1 0x1 SLOAD PUSH1 0xFF AND PUSH2 0xCB JUMP JUMPDEST PUSH2 0x86 PUSH0 DUP2 JUMP JUMPDEST PUSH0 PUSH1 0x20 DUP3 DUP5 SUB SLT ISZERO PUSH2 0x105 JUMPI PUSH0 DUP1 REVERT JUMPDEST POP CALLDATALOAD SWAP2 SWAP1 POP JUMP INVALID LOG2 PUSH5 0x6970667358 0x22 SLT KECCAK256 0xEF MSTORE8 0x49 MUL 0xD8 DUP5 EXTCODEHASH REVERT 0x5C 0xA5 PUSH18 0xD6788DA6BBDBB614E8022989D960775BBEE5 0x2F CALLVALUE DUP14 PUSH5 0x736F6C6343 STOP ADDMOD AND STOP CALLER "
		},
		"gasEstimates": {
			"creation": {
				"codeDepositCost": "64400",
				"executionCost": "24333",
				"totalCost": "88733"
			},
			"external": {
				"PAGE_INFO_ADDRESS_OFFSET()": "248",
				"PAGE_INFO_HASH_OFFSET()": "184",
				"PAGE_INFO_SIZE()": "206",
				"PAGE_INFO_SIZE_IN_BYTES()": "205",
				"PAGE_INFO_SIZE_OFFSET()": "228",
				"hasRegisteredFact()": "2347",
				"isValid(bytes32)": "2450"
			},
			"internal": {
				"constructNode(uint256[] memory,uint256,uint256)": "infinite",
				"pushPageToStack(uint256[3] memory,uint256,uint256,uint256[] memory,uint256)": "infinite",
				"registerGpsFacts(uint256[] memory,uint256)": "infinite"
			}
		},
		"methodIdentifiers": {
			"PAGE_INFO_ADDRESS_OFFSET()": "e5b62b29",
			"PAGE_INFO_HASH_OFFSET()": "29e10520",
			"PAGE_INFO_SIZE()": "4c14a6f9",
			"PAGE_INFO_SIZE_IN_BYTES()": "b7a771f7",
			"PAGE_INFO_SIZE_OFFSET()": "5b4c41c2",
			"hasRegisteredFact()": "d6354e15",
			"isValid(bytes32)": "6a938567"
		}
	},
	"abi": [
		{
			"anonymous": false,
			"inputs": [
				{
					"indexed": false,
					"internalType": "bytes32",
					"name": "programOutputFact",
					"type": "bytes32"
				},
				{
					"indexed": false,
					"internalType": "bytes32[]",
					"name": "pagesHashes",
					"type": "bytes32[]"
				}
			],
			"name": "LogMemoryPagesHashes",
			"type": "event"
		},
		{
			"inputs": [],
			"name": "PAGE_INFO_ADDRESS_OFFSET",
			"outputs": [
				{
					"internalType": "uint256",
					"name": "",
					"type": "uint256"
				}
			],
			"stateMutability": "view",
			"type": "function"
		},
		{
			"inputs": [],
			"name": "PAGE_INFO_HASH_OFFSET",
			"outputs": [
				{
					"internalType": "uint256",
					"name": "",
					"type": "uint256"
				}
			],
			"stateMutability": "view",
			"type": "function"
		},
		{
			"inputs": [],
			"name": "PAGE_INFO_SIZE",
			"outputs": [
				{
					"internalType": "uint256",
					"name": "",
					"type": "uint256"
				}
			],
			"stateMutability": "view",
			"type": "function"
		},
		{
			"inputs": [],
			"name": "PAGE_INFO_SIZE_IN_BYTES",
			"outputs": [
				{
					"internalType": "uint256",
					"name": "",
					"type": "uint256"
				}
			],
			"stateMutability": "view",
			"type": "function"
		},
		{
			"inputs": [],
			"name": "PAGE_INFO_SIZE_OFFSET",
			"outputs": [
				{
					"internalType": "uint256",
					"name": "",
					"type": "uint256"
				}
			],
			"stateMutability": "view",
			"type": "function"
		},
		{
			"inputs": [],
			"name": "hasRegisteredFact",
			"outputs": [
				{
					"internalType": "bool",
					"name": "",
					"type": "bool"
				}
			],
			"stateMutability": "view",
			"type": "function"
		},
		{
			"inputs": [
				{
					"internalType": "bytes32",
					"name": "fact",
					"type": "bytes32"
				}
			],
			"name": "isValid",
			"outputs": [
				{
					"internalType": "bool",
					"name": "",
					"type": "bool"
				}
			],
			"stateMutability": "view",
			"type": "function"
		}
	]
}