{
	"data": {
		"bytecode": {
			"linkReferences": {},
			"object": "60c06040526001805460ff191690553480156200001b57600080fd5b5060405162001a2438038062001a24833981810160405260c08110156200004157600080fd5b8151602083015160408085015160608601805192519496939591949391820192846401000000008211156200007557600080fd5b9083019060208201858111156200008b57600080fd5b8251866020820283011164010000000082111715620000a957600080fd5b82525081516020918201928201910280838360005b83811015620000d8578181015183820152602001620000be565b505050509190910160409081526020830151920151600180546001600160a01b03808c1661010002610100600160a81b031990921691909117909155600280548a83166001600160a01b03199182161790915560038054928a169290911691909117905585519294509250506001600160401b03811180156200015a57600080fd5b5060405190808252806020026020018201604052801562000185578160200160208202803683370190505b5080516200019c9160049160209091019062000214565b5060005b8351811015620001ff57838181518110620001b757fe5b602002602001015160048281548110620001cd57fe5b600091825260209091200180546001600160a01b0319166001600160a01b0392909216919091179055600101620001a0565b5060809190915260a052506200029f92505050565b8280548282559060005260206000209081019282156200026c579160200282015b828111156200026c57825182546001600160a01b0319166001600160a01b0390911617825560209092019160019091019062000235565b506200027a9291506200027e565b5090565b5b808211156200027a5780546001600160a01b03191681556001016200027f565b60805160a051611761620002c36000398061031f52508061034052506117616000f3fe608060405234801561001057600080fd5b506004361061009e5760003560e01c80638bc5d8a3116100665780638bc5d8a31461011f578063b7a771f714610283578063d6354e151461028b578063e5b62b2914610293578063eeb728661461029b5761009e565b806329e10520146100a35780632f4da80e146100bd5780634c14a6f9146100de5780635b4c41c2146100e65780636a938567146100ee575b600080fd5b6100ab610318565b60408051918252519081900360200190f35b6100c561031d565b6040805192835260208301919091528051918290030190f35b6100ab610363565b6100ab610368565b61010b6004803603602081101561010457600080fd5b503561036d565b604080519115158252519081900360200190f35b610281600480360360a081101561013557600080fd5b810190602081018135600160201b81111561014f57600080fd5b82018360208201111561016157600080fd5b803590602001918460208302840111600160201b8311171561018257600080fd5b919390929091602081019035600160201b81111561019f57600080fd5b8201836020820111156101b157600080fd5b803590602001918460208302840111600160201b831117156101d257600080fd5b919390929091602081019035600160201b8111156101ef57600080fd5b82018360208201111561020157600080fd5b803590602001918460208302840111600160201b8311171561022257600080fd5b91939092823592604081019060200135600160201b81111561024357600080fd5b82018360208201111561025557600080fd5b803590602001918460208302840111600160201b8311171561027657600080fd5b50909250905061037e565b005b6100ab610a96565b61010b610a9b565b6100ab610aa4565b6102a3610aa9565b6040805160208082528351818301528351919283929083019185019080838360005b838110156102dd5781810151838201526020016102c5565b50505050905090810190601f16801561030a5780820380516001836020036101000a031916815260200191505b509250505060405180910390f35b600281565b7f00000000000000000000000000000000000000000000000000000000000000007f00000000000000000000000000000000000000000000000000000000000000009091565b600381565b600181565b600061037882610ac9565b92915050565b6103a3604051806040016040528060048152602001634869203160e01b815250610ade565b60045483106103f9576040805162461bcd60e51b815260206004820181905260248201527f636169726f56657269666965724964206973206f7574206f662072616e67652e604482015290519081900360640190fd5b60006004848154811061040857fe5b9060005260206000200160009054906101000a90046001600160a01b0316905061044d604051806040016040528060048152602001632434901960e11b815250610ade565b366000610460600119880182898b6115f9565b915091506060600080856001600160a01b0316638080fdfb6040518163ffffffff1660e01b8152600401604080518083038186803b1580156104a157600080fd5b505afa1580156104b5573d6000803e3d6000fd5b505050506040513d60408110156104cb57600080fd5b5080516020918201516040805180820190915260048152634869203360e01b9381019390935290935091506104ff90610ade565b818a11610553576040805162461bcd60e51b815260206004820152601d60248201527f496e76616c696420636169726f417578496e707574206c656e6774682e000000604482015290519081900360640190fd5b61055f848381886115f9565b808060200260200160405190810160405280939291908181526020018383602002808284376000920182905250845194975093879350849250151590506105a257fe5b602002602001015190506105d160405180604001604052806004815260200163121a480d60e21b815250610ade565b6127108110610619576040805162461bcd60e51b815260206004820152600f60248201526e24b73b30b634b210372830b3b2b99760891b604482015290519081900360640190fd5b61063e604051806040016040528060048152602001634869203560e01b815250610ade565b835160048202146106805760405162461bcd60e51b81526004018080602001828103825260218152602001806116736021913960400191505060405180910390fd5b6106a5604051806040016040528060048152602001632434901b60e11b815250610ade565b60008060006106b78f8f878f8f610b87565b9250925092506106e2604051806040016040528060048152602001634869203760e01b815250610ade565b82876001815181106106f057fe5b60200260200101511461074a576040805162461bcd60e51b815260206004820152601f60248201527f496e76616c69642073697a6520666f72206d656d6f7279207061676520302e00604482015290519081900360640190fd5b61076f60405180604001604052806004815260200163090d240760e31b815250610ade565b818760028151811061077d57fe5b6020026020010151146107d7576040805162461bcd60e51b815260206004820152601f60248201527f496e76616c6964206861736820666f72206d656d6f7279207061676520302e00604482015290519081900360640190fd5b6107fc604051806040016040528060048152602001634869203960e01b815250610ade565b8087600386028151811061080c57fe5b6020026020010151146108505760405162461bcd60e51b815260040180806020018281038252602d8152602001806116b8602d913960400191505060405180910390fd5b61087660405180604001604052806005815260200164048692031360dc1b815250610ade565b5050505050506108988d8d600081811061088c57fe5b90506020020135611303565b6108a88d8d600181811061088c57fe5b6108b88d8d600281811061088c57fe5b6108c88d8d600381811061088c57fe5b6108d88b8b600081811061088c57fe5b6108e88b8b600181811061088c57fe5b6108f88b8b600281811061088c57fe5b6109088b8b600381811061088c57fe5b6109188383600081811061088c57fe5b6109288383600181811061088c57fe5b61093184611344565b836001600160a01b0316631cb7dd798e8e8e8e88886040518763ffffffff1660e01b81526004018080602001806020018060200184810384528a8a82818152602001925060200280828437600083820152601f01601f19169091018581038452888152602090810191508990890280828437600083820152601f01601f19169091018581038352868152602090810191508790870280828437600081840152601f19601f8201169050808301925050509950505050505050505050600060405180830381600087803b158015610a0657600080fd5b505af1158015610a1a573d6000803e3d6000fd5b50505050610a4460405180604001604052806005815260200164486920313160d81b815250610ade565b610a61818a8a6008818110610a5557fe5b90506020020135611390565b610a8760405180604001604052806005815260200164243490189960d91b815250610ade565b50505050505050505050505050565b606081565b60015460ff1690565b600081565b606060405180606001604052806025815260200161164e60259139905090565b60009081526020819052604090205460ff1690565b610b84816040516024018080602001828103825283818151815260200191508051906020019080838360005b83811015610b22578181015183820152602001610b0a565b50505050905090810190601f168015610b4f5780820380516001836020036101000a031916815260200191505b5060408051601f198184030181529190526020810180516001600160e01b031663104c13eb60e21b179052925061155a915050565b50565b60408051610dc28082526201b86082019092526106e19160009182918291606091602082016201b840803683370190505090506000610bc461157b565b60018054906101000a90046001600160a01b03166001600160a01b0316634b6cee596040518163ffffffff1660e01b8152600401617d006040518083038186803b158015610c1157600080fd5b505afa158015610c25573d6000803e3d6000fd5b505050506040513d601f19601f82011682018060405250617d00811015610c4b57600080fd5b509050610c5661159b565b600260009054906101000a90046001600160a01b03166001600160a01b0316634b6cee596040518163ffffffff1660e01b8152600401615c806040518083038186803b158015610ca557600080fd5b505afa158015610cb9573d6000803e3d6000fd5b505050506040513d601f19601f82011682018060405250615c80811015610cdf57600080fd5b509050610cea6115bb565b60005b6103e8811015610d235783816103e88110610d0457fe5b602002015182826106cc8110610d1657fe5b6020020152600101610ced565b5060005b6102e4811015610d615782816102e48110610d3e57fe5b602002015182826103e8016106cc8110610d5457fe5b6020020152600101610d27565b5060005b6106cc811015610dc65760018101868681518110610d7f57fe5b60200260200101818152505081816106cc8110610d9857fe5b6020020151868660010181518110610dac57fe5b602090810291909101015260029490940193600101610d65565b5050505060008b8b6006818110610dd957fe5b9050602002013590506002811015610e38576040805162461bcd60e51b815260206004820181905260248201527f496e76616c696420657865637574696f6e20626567696e20616464726573732e604482015290519081900360640190fd5b60028103838360000181518110610e4b57fe5b60200260200101818152505080838360010181518110610e6757fe5b60200260200101818152505060018103838360020181518110610e8657fe5b6020026020010181815250506000838360030181518110610ea357fe5b602002602001018181525050600482019150600060088d8d6007818110610ec657fe5b9050602002013503905060006008905060005b6008811015610fe057808401868681518110610ef157fe5b60209081029190910101528551601086019084830190889083908110610f1357fe5b602090810291909101015260018e1615610f91578f8f84818110610f3357fe5b90506020020135878760010181518110610f4957fe5b6020026020010181815250508f8f84600101818110610f6457fe5b90506020020135878260010181518110610f7a57fe5b602002602001018181525050600283019250610fcc565b6000878760010181518110610fa257fe5b6020026020010181815250506000878260010181518110610fbf57fe5b6020026020010181815250505b5060019c8d1c9c6002959095019401610ed9565b508b1561101e5760405162461bcd60e51b81526004018080602001828103825260248152602001806116946024913960400191505060405180910390fd5b50505060100160008b8b600881811061103357fe5b9050602002013590508083836000018151811061104c57fe5b6020026020010181815250508888600081811061106557fe5b9050602002013583836001018151811061107b57fe5b6020026020010181815250508060010183836002018151811061109a57fe5b602002602001018181525050888860018181106110b357fe5b905060200201358383600301815181106110c957fe5b602002602001018181525050806002018383600401815181106110e857fe5b6020026020010181815250508888600281811061110157fe5b9050602002013583836005018151811061111757fe5b602090810291909101015260069190910190600301808c8c600981811061113a57fe5b905060200201351461117d5760405162461bcd60e51b81526004018080602001828103825260238152602001806116e56023913960400191505060405180910390fd5b50808251146111bd5760405162461bcd60e51b81526004018080602001828103825260298152602001806116256029913960400191505060405180910390fd5b60008b8b60011981018181106111cf57fe5b90506020020135905060008c8c60018f8f9050038181106111ec57fe5b9050602002013590506000600360009054906101000a90046001600160a01b03166001600160a01b031663405a6362868585600167080000000000001160c01b016040518563ffffffff1660e01b81526004018080602001858152602001848152602001838152602001828103825286818151815260200191508051906020019060200280838360005b8381101561128e578181015183820152602001611276565b5050505090500195505050505050606060405180830381600087803b1580156112b657600080fd5b505af11580156112ca573d6000803e3d6000fd5b505050506040513d60608110156112e057600080fd5b506020810151604090910151999f909e50989c50979a5050505050505050505050565b6040805160248082018490528251808303909101815260449091019091526020810180516001600160e01b031663f5b1bba960e01b179052610b849061155a565b604080516001600160a01b0383166024808301919091528251808303909101815260449091019091526020810180516001600160e01b031663161765e160e11b179052610b849061155a565b6113b8604051806040016040528060078152602001666865726520333160c81b815250610ade565b6000826000815181106113c757fe5b60200260200101519050600080600060608460030167ffffffffffffffff811180156113f257600080fd5b5060405190808252806020026020018201604052801561141c578160200160208202803683370190505b50905060408160018151811061142e57fe5b60209081029190910101526001600587018160606002890267ffffffffffffffff8111801561145c57600080fd5b50604051908082528060200260200182016040528015611486578160200160208202803683370190505b5090506114916115db565b6114b9604051806040016040528060078152602001663432b93290199960c91b815250610ade565b506040805180820190915260078152666865726520333360c81b602082015260808c01906114e690610ade565b828a146115245760405162461bcd60e51b81526004018080602001828103825260248152602001806117086024913960400191505060405180910390fd5b61154c604051806040016040528060078152602001661a195c99480ccd60ca1b815250610ade565b505050505050505050505050565b80516a636f6e736f6c652e6c6f67602083016000808483855afa5050505050565b60405180617d0001604052806103e8906020820280368337509192915050565b60405180615c8001604052806102e4906020820280368337509192915050565b6040518061d98001604052806106cc906020820280368337509192915050565b60405180606001604052806003906020820280368337509192915050565b60008085851115611608578182fd5b83861115611614578182fd5b505060208302019391909203915056fe4e6f7420616c6c20436169726f207075626c696320696e707574732077657265207772697474656e2e537461726b576172655f47707353746174656d656e7456657269666965725f323032325f37496e76616c6964207075626c69634d656d6f72795061676573206c656e6774682e53454c45435445445f4255494c54494e535f564543544f525f49535f544f4f5f4c4f4e47496e76616c69642063756d756c61746976652070726f6475637420666f72206d656d6f7279207061676520302e496e636f6e73697374656e742070726f6772616d206f7574707574206c656e6774682e4e6f7420616c6c206d656d6f727920706167657320776572652070726f6365737365642ea2646970667358221220863d9dc149fe2a46743a8a2246ef53eae873e4b12f79526f144dda5bf85bac4964736f6c634300060c0033",
			"opcodes": "PUSH1 0xC0 PUSH1 0x40 MSTORE PUSH1 0x1 DUP1 SLOAD PUSH1 0xFF NOT AND SWAP1 SSTORE CALLVALUE DUP1 ISZERO PUSH3 0x1B JUMPI PUSH1 0x0 DUP1 REVERT JUMPDEST POP PUSH1 0x40 MLOAD PUSH3 0x1A24 CODESIZE SUB DUP1 PUSH3 0x1A24 DUP4 CODECOPY DUP2 DUP2 ADD PUSH1 0x40 MSTORE PUSH1 0xC0 DUP2 LT ISZERO PUSH3 0x41 JUMPI PUSH1 0x0 DUP1 REVERT JUMPDEST DUP2 MLOAD PUSH1 0x20 DUP4 ADD MLOAD PUSH1 0x40 DUP1 DUP6 ADD MLOAD PUSH1 0x60 DUP7 ADD DUP1 MLOAD SWAP3 MLOAD SWAP5 SWAP7 SWAP4 SWAP6 SWAP2 SWAP5 SWAP4 SWAP2 DUP3 ADD SWAP3 DUP5 PUSH5 0x100000000 DUP3 GT ISZERO PUSH3 0x75 JUMPI PUSH1 0x0 DUP1 REVERT JUMPDEST SWAP1 DUP4 ADD SWAP1 PUSH1 0x20 DUP3 ADD DUP6 DUP2 GT ISZERO PUSH3 0x8B JUMPI PUSH1 0x0 DUP1 REVERT JUMPDEST DUP3 MLOAD DUP7 PUSH1 0x20 DUP3 MUL DUP4 ADD GT PUSH5 0x100000000 DUP3 GT OR ISZERO PUSH3 0xA9 JUMPI PUSH1 0x0 DUP1 REVERT JUMPDEST DUP3 MSTORE POP DUP2 MLOAD PUSH1 0x20 SWAP2 DUP3 ADD SWAP3 DUP3 ADD SWAP2 MUL DUP1 DUP4 DUP4 PUSH1 0x0 JUMPDEST DUP4 DUP2 LT ISZERO PUSH3 0xD8 JUMPI DUP2 DUP2 ADD MLOAD DUP4 DUP3 ADD MSTORE PUSH1 0x20 ADD PUSH3 0xBE JUMP JUMPDEST POP POP POP POP SWAP2 SWAP1 SWAP2 ADD PUSH1 0x40 SWAP1 DUP2 MSTORE PUSH1 0x20 DUP4 ADD MLOAD SWAP3 ADD MLOAD PUSH1 0x1 DUP1 SLOAD PUSH1 0x1 PUSH1 0x1 PUSH1 0xA0 SHL SUB DUP1 DUP13 AND PUSH2 0x100 MUL PUSH2 0x100 PUSH1 0x1 PUSH1 0xA8 SHL SUB NOT SWAP1 SWAP3 AND SWAP2 SWAP1 SWAP2 OR SWAP1 SWAP2 SSTORE PUSH1 0x2 DUP1 SLOAD DUP11 DUP4 AND PUSH1 0x1 PUSH1 0x1 PUSH1 0xA0 SHL SUB NOT SWAP2 DUP3 AND OR SWAP1 SWAP2 SSTORE PUSH1 0x3 DUP1 SLOAD SWAP3 DUP11 AND SWAP3 SWAP1 SWAP2 AND SWAP2 SWAP1 SWAP2 OR SWAP1 SSTORE DUP6 MLOAD SWAP3 SWAP5 POP SWAP3 POP POP PUSH1 0x1 PUSH1 0x1 PUSH1 0x40 SHL SUB DUP2 GT DUP1 ISZERO PUSH3 0x15A JUMPI PUSH1 0x0 DUP1 REVERT JUMPDEST POP PUSH1 0x40 MLOAD SWAP1 DUP1 DUP3 MSTORE DUP1 PUSH1 0x20 MUL PUSH1 0x20 ADD DUP3 ADD PUSH1 0x40 MSTORE DUP1 ISZERO PUSH3 0x185 JUMPI DUP2 PUSH1 0x20 ADD PUSH1 0x20 DUP3 MUL DUP1 CALLDATASIZE DUP4 CALLDATACOPY ADD SWAP1 POP JUMPDEST POP DUP1 MLOAD PUSH3 0x19C SWAP2 PUSH1 0x4 SWAP2 PUSH1 0x20 SWAP1 SWAP2 ADD SWAP1 PUSH3 0x214 JUMP JUMPDEST POP PUSH1 0x0 JUMPDEST DUP4 MLOAD DUP2 LT ISZERO PUSH3 0x1FF JUMPI DUP4 DUP2 DUP2 MLOAD DUP2 LT PUSH3 0x1B7 JUMPI INVALID JUMPDEST PUSH1 0x20 MUL PUSH1 0x20 ADD ADD MLOAD PUSH1 0x4 DUP3 DUP2 SLOAD DUP2 LT PUSH3 0x1CD JUMPI INVALID JUMPDEST PUSH1 0x0 SWAP2 DUP3 MSTORE PUSH1 0x20 SWAP1 SWAP2 KECCAK256 ADD DUP1 SLOAD PUSH1 0x1 PUSH1 0x1 PUSH1 0xA0 SHL SUB NOT AND PUSH1 0x1 PUSH1 0x1 PUSH1 0xA0 SHL SUB SWAP3 SWAP1 SWAP3 AND SWAP2 SWAP1 SWAP2 OR SWAP1 SSTORE PUSH1 0x1 ADD PUSH3 0x1A0 JUMP JUMPDEST POP PUSH1 0x80 SWAP2 SWAP1 SWAP2 MSTORE PUSH1 0xA0 MSTORE POP PUSH3 0x29F SWAP3 POP POP POP JUMP JUMPDEST DUP3 DUP1 SLOAD DUP3 DUP3 SSTORE SWAP1 PUSH1 0x0 MSTORE PUSH1 0x20 PUSH1 0x0 KECCAK256 SWAP1 DUP2 ADD SWAP3 DUP3 ISZERO PUSH3 0x26C JUMPI SWAP2 PUSH1 0x20 MUL DUP3 ADD JUMPDEST DUP3 DUP2 GT ISZERO PUSH3 0x26C JUMPI DUP3 MLOAD DUP3 SLOAD PUSH1 0x1 PUSH1 0x1 PUSH1 0xA0 SHL SUB NOT AND PUSH1 0x1 PUSH1 0x1 PUSH1 0xA0 SHL SUB SWAP1 SWAP2 AND OR DUP3 SSTORE PUSH1 0x20 SWAP1 SWAP3 ADD SWAP2 PUSH1 0x1 SWAP1 SWAP2 ADD SWAP1 PUSH3 0x235 JUMP JUMPDEST POP PUSH3 0x27A SWAP3 SWAP2 POP PUSH3 0x27E JUMP JUMPDEST POP SWAP1 JUMP JUMPDEST JUMPDEST DUP1 DUP3 GT ISZERO PUSH3 0x27A JUMPI DUP1 SLOAD PUSH1 0x1 PUSH1 0x1 PUSH1 0xA0 SHL SUB NOT AND DUP2 SSTORE PUSH1 0x1 ADD PUSH3 0x27F JUMP JUMPDEST PUSH1 0x80 MLOAD PUSH1 0xA0 MLOAD PUSH2 0x1761 PUSH3 0x2C3 PUSH1 0x0 CODECOPY DUP1 PUSH2 0x31F MSTORE POP DUP1 PUSH2 0x340 MSTORE POP PUSH2 0x1761 PUSH1 0x0 RETURN INVALID PUSH1 0x80 PUSH1 0x40 MSTORE CALLVALUE DUP1 ISZERO PUSH2 0x10 JUMPI PUSH1 0x0 DUP1 REVERT JUMPDEST POP PUSH1 0x4 CALLDATASIZE LT PUSH2 0x9E JUMPI PUSH1 0x0 CALLDATALOAD PUSH1 0xE0 SHR DUP1 PUSH4 0x8BC5D8A3 GT PUSH2 0x66 JUMPI DUP1 PUSH4 0x8BC5D8A3 EQ PUSH2 0x11F JUMPI DUP1 PUSH4 0xB7A771F7 EQ PUSH2 0x283 JUMPI DUP1 PUSH4 0xD6354E15 EQ PUSH2 0x28B JUMPI DUP1 PUSH4 0xE5B62B29 EQ PUSH2 0x293 JUMPI DUP1 PUSH4 0xEEB72866 EQ PUSH2 0x29B JUMPI PUSH2 0x9E JUMP JUMPDEST DUP1 PUSH4 0x29E10520 EQ PUSH2 0xA3 JUMPI DUP1 PUSH4 0x2F4DA80E EQ PUSH2 0xBD JUMPI DUP1 PUSH4 0x4C14A6F9 EQ PUSH2 0xDE JUMPI DUP1 PUSH4 0x5B4C41C2 EQ PUSH2 0xE6 JUMPI DUP1 PUSH4 0x6A938567 EQ PUSH2 0xEE JUMPI JUMPDEST PUSH1 0x0 DUP1 REVERT JUMPDEST PUSH2 0xAB PUSH2 0x318 JUMP JUMPDEST PUSH1 0x40 DUP1 MLOAD SWAP2 DUP3 MSTORE MLOAD SWAP1 DUP2 SWAP1 SUB PUSH1 0x20 ADD SWAP1 RETURN JUMPDEST PUSH2 0xC5 PUSH2 0x31D JUMP JUMPDEST PUSH1 0x40 DUP1 MLOAD SWAP3 DUP4 MSTORE PUSH1 0x20 DUP4 ADD SWAP2 SWAP1 SWAP2 MSTORE DUP1 MLOAD SWAP2 DUP3 SWAP1 SUB ADD SWAP1 RETURN JUMPDEST PUSH2 0xAB PUSH2 0x363 JUMP JUMPDEST PUSH2 0xAB PUSH2 0x368 JUMP JUMPDEST PUSH2 0x10B PUSH1 0x4 DUP1 CALLDATASIZE SUB PUSH1 0x20 DUP2 LT ISZERO PUSH2 0x104 JUMPI PUSH1 0x0 DUP1 REVERT JUMPDEST POP CALLDATALOAD PUSH2 0x36D JUMP JUMPDEST PUSH1 0x40 DUP1 MLOAD SWAP2 ISZERO ISZERO DUP3 MSTORE MLOAD SWAP1 DUP2 SWAP1 SUB PUSH1 0x20 ADD SWAP1 RETURN JUMPDEST PUSH2 0x281 PUSH1 0x4 DUP1 CALLDATASIZE SUB PUSH1 0xA0 DUP2 LT ISZERO PUSH2 0x135 JUMPI PUSH1 0x0 DUP1 REVERT JUMPDEST DUP2 ADD SWAP1 PUSH1 0x20 DUP2 ADD DUP2 CALLDATALOAD PUSH1 0x1 PUSH1 0x20 SHL DUP2 GT ISZERO PUSH2 0x14F JUMPI PUSH1 0x0 DUP1 REVERT JUMPDEST DUP3 ADD DUP4 PUSH1 0x20 DUP3 ADD GT ISZERO PUSH2 0x161 JUMPI PUSH1 0x0 DUP1 REVERT JUMPDEST DUP1 CALLDATALOAD SWAP1 PUSH1 0x20 ADD SWAP2 DUP5 PUSH1 0x20 DUP4 MUL DUP5 ADD GT PUSH1 0x1 PUSH1 0x20 SHL DUP4 GT OR ISZERO PUSH2 0x182 JUMPI PUSH1 0x0 DUP1 REVERT JUMPDEST SWAP2 SWAP4 SWAP1 SWAP3 SWAP1 SWAP2 PUSH1 0x20 DUP2 ADD SWAP1 CALLDATALOAD PUSH1 0x1 PUSH1 0x20 SHL DUP2 GT ISZERO PUSH2 0x19F JUMPI PUSH1 0x0 DUP1 REVERT JUMPDEST DUP3 ADD DUP4 PUSH1 0x20 DUP3 ADD GT ISZERO PUSH2 0x1B1 JUMPI PUSH1 0x0 DUP1 REVERT JUMPDEST DUP1 CALLDATALOAD SWAP1 PUSH1 0x20 ADD SWAP2 DUP5 PUSH1 0x20 DUP4 MUL DUP5 ADD GT PUSH1 0x1 PUSH1 0x20 SHL DUP4 GT OR ISZERO PUSH2 0x1D2 JUMPI PUSH1 0x0 DUP1 REVERT JUMPDEST SWAP2 SWAP4 SWAP1 SWAP3 SWAP1 SWAP2 PUSH1 0x20 DUP2 ADD SWAP1 CALLDATALOAD PUSH1 0x1 PUSH1 0x20 SHL DUP2 GT ISZERO PUSH2 0x1EF JUMPI PUSH1 0x0 DUP1 REVERT JUMPDEST DUP3 ADD DUP4 PUSH1 0x20 DUP3 ADD GT ISZERO PUSH2 0x201 JUMPI PUSH1 0x0 DUP1 REVERT JUMPDEST DUP1 CALLDATALOAD SWAP1 PUSH1 0x20 ADD SWAP2 DUP5 PUSH1 0x20 DUP4 MUL DUP5 ADD GT PUSH1 0x1 PUSH1 0x20 SHL DUP4 GT OR ISZERO PUSH2 0x222 JUMPI PUSH1 0x0 DUP1 REVERT JUMPDEST SWAP2 SWAP4 SWAP1 SWAP3 DUP3 CALLDATALOAD SWAP3 PUSH1 0x40 DUP2 ADD SWAP1 PUSH1 0x20 ADD CALLDATALOAD PUSH1 0x1 PUSH1 0x20 SHL DUP2 GT ISZERO PUSH2 0x243 JUMPI PUSH1 0x0 DUP1 REVERT JUMPDEST DUP3 ADD DUP4 PUSH1 0x20 DUP3 ADD GT ISZERO PUSH2 0x255 JUMPI PUSH1 0x0 DUP1 REVERT JUMPDEST DUP1 CALLDATALOAD SWAP1 PUSH1 0x20 ADD SWAP2 DUP5 PUSH1 0x20 DUP4 MUL DUP5 ADD GT PUSH1 0x1 PUSH1 0x20 SHL DUP4 GT OR ISZERO PUSH2 0x276 JUMPI PUSH1 0x0 DUP1 REVERT JUMPDEST POP SWAP1 SWAP3 POP SWAP1 POP PUSH2 0x37E JUMP JUMPDEST STOP JUMPDEST PUSH2 0xAB PUSH2 0xA96 JUMP JUMPDEST PUSH2 0x10B PUSH2 0xA9B JUMP JUMPDEST PUSH2 0xAB PUSH2 0xAA4 JUMP JUMPDEST PUSH2 0x2A3 PUSH2 0xAA9 JUMP JUMPDEST PUSH1 0x40 DUP1 MLOAD PUSH1 0x20 DUP1 DUP3 MSTORE DUP4 MLOAD DUP2 DUP4 ADD MSTORE DUP4 MLOAD SWAP2 SWAP3 DUP4 SWAP3 SWAP1 DUP4 ADD SWAP2 DUP6 ADD SWAP1 DUP1 DUP4 DUP4 PUSH1 0x0 JUMPDEST DUP4 DUP2 LT ISZERO PUSH2 0x2DD JUMPI DUP2 DUP2 ADD MLOAD DUP4 DUP3 ADD MSTORE PUSH1 0x20 ADD PUSH2 0x2C5 JUMP JUMPDEST POP POP POP POP SWAP1 POP SWAP1 DUP2 ADD SWAP1 PUSH1 0x1F AND DUP1 ISZERO PUSH2 0x30A JUMPI DUP1 DUP3 SUB DUP1 MLOAD PUSH1 0x1 DUP4 PUSH1 0x20 SUB PUSH2 0x100 EXP SUB NOT AND DUP2 MSTORE PUSH1 0x20 ADD SWAP2 POP JUMPDEST POP SWAP3 POP POP POP PUSH1 0x40 MLOAD DUP1 SWAP2 SUB SWAP1 RETURN JUMPDEST PUSH1 0x2 DUP2 JUMP JUMPDEST PUSH32 0x0 PUSH32 0x0 SWAP1 SWAP2 JUMP JUMPDEST PUSH1 0x3 DUP2 JUMP JUMPDEST PUSH1 0x1 DUP2 JUMP JUMPDEST PUSH1 0x0 PUSH2 0x378 DUP3 PUSH2 0xAC9 JUMP JUMPDEST SWAP3 SWAP2 POP POP JUMP JUMPDEST PUSH2 0x3A3 PUSH1 0x40 MLOAD DUP1 PUSH1 0x40 ADD PUSH1 0x40 MSTORE DUP1 PUSH1 0x4 DUP2 MSTORE PUSH1 0x20 ADD PUSH4 0x48692031 PUSH1 0xE0 SHL DUP2 MSTORE POP PUSH2 0xADE JUMP JUMPDEST PUSH1 0x4 SLOAD DUP4 LT PUSH2 0x3F9 JUMPI PUSH1 0x40 DUP1 MLOAD PUSH3 0x461BCD PUSH1 0xE5 SHL DUP2 MSTORE PUSH1 0x20 PUSH1 0x4 DUP3 ADD DUP2 SWAP1 MSTORE PUSH1 0x24 DUP3 ADD MSTORE PUSH32 0x636169726F56657269666965724964206973206F7574206F662072616E67652E PUSH1 0x44 DUP3 ADD MSTORE SWAP1 MLOAD SWAP1 DUP2 SWAP1 SUB PUSH1 0x64 ADD SWAP1 REVERT JUMPDEST PUSH1 0x0 PUSH1 0x4 DUP5 DUP2 SLOAD DUP2 LT PUSH2 0x408 JUMPI INVALID JUMPDEST SWAP1 PUSH1 0x0 MSTORE PUSH1 0x20 PUSH1 0x0 KECCAK256 ADD PUSH1 0x0 SWAP1 SLOAD SWAP1 PUSH2 0x100 EXP SWAP1 DIV PUSH1 0x1 PUSH1 0x1 PUSH1 0xA0 SHL SUB AND SWAP1 POP PUSH2 0x44D PUSH1 0x40 MLOAD DUP1 PUSH1 0x40 ADD PUSH1 0x40 MSTORE DUP1 PUSH1 0x4 DUP2 MSTORE PUSH1 0x20 ADD PUSH4 0x24349019 PUSH1 0xE1 SHL DUP2 MSTORE POP PUSH2 0xADE JUMP JUMPDEST CALLDATASIZE PUSH1 0x0 PUSH2 0x460 PUSH1 0x1 NOT DUP9 ADD DUP3 DUP10 DUP12 PUSH2 0x15F9 JUMP JUMPDEST SWAP2 POP SWAP2 POP PUSH1 0x60 PUSH1 0x0 DUP1 DUP6 PUSH1 0x1 PUSH1 0x1 PUSH1 0xA0 SHL SUB AND PUSH4 0x8080FDFB PUSH1 0x40 MLOAD DUP2 PUSH4 0xFFFFFFFF AND PUSH1 0xE0 SHL DUP2 MSTORE PUSH1 0x4 ADD PUSH1 0x40 DUP1 MLOAD DUP1 DUP4 SUB DUP2 DUP7 DUP1 EXTCODESIZE ISZERO DUP1 ISZERO PUSH2 0x4A1 JUMPI PUSH1 0x0 DUP1 REVERT JUMPDEST POP GAS STATICCALL ISZERO DUP1 ISZERO PUSH2 0x4B5 JUMPI RETURNDATASIZE PUSH1 0x0 DUP1 RETURNDATACOPY RETURNDATASIZE PUSH1 0x0 REVERT JUMPDEST POP POP POP POP PUSH1 0x40 MLOAD RETURNDATASIZE PUSH1 0x40 DUP2 LT ISZERO PUSH2 0x4CB JUMPI PUSH1 0x0 DUP1 REVERT JUMPDEST POP DUP1 MLOAD PUSH1 0x20 SWAP2 DUP3 ADD MLOAD PUSH1 0x40 DUP1 MLOAD DUP1 DUP3 ADD SWAP1 SWAP2 MSTORE PUSH1 0x4 DUP2 MSTORE PUSH4 0x48692033 PUSH1 0xE0 SHL SWAP4 DUP2 ADD SWAP4 SWAP1 SWAP4 MSTORE SWAP1 SWAP4 POP SWAP2 POP PUSH2 0x4FF SWAP1 PUSH2 0xADE JUMP JUMPDEST DUP2 DUP11 GT PUSH2 0x553 JUMPI PUSH1 0x40 DUP1 MLOAD PUSH3 0x461BCD PUSH1 0xE5 SHL DUP2 MSTORE PUSH1 0x20 PUSH1 0x4 DUP3 ADD MSTORE PUSH1 0x1D PUSH1 0x24 DUP3 ADD MSTORE PUSH32 0x496E76616C696420636169726F417578496E707574206C656E6774682E000000 PUSH1 0x44 DUP3 ADD MSTORE SWAP1 MLOAD SWAP1 DUP2 SWAP1 SUB PUSH1 0x64 ADD SWAP1 REVERT JUMPDEST PUSH2 0x55F DUP5 DUP4 DUP2 DUP9 PUSH2 0x15F9 JUMP JUMPDEST DUP1 DUP1 PUSH1 0x20 MUL PUSH1 0x20 ADD PUSH1 0x40 MLOAD SWAP1 DUP2 ADD PUSH1 0x40 MSTORE DUP1 SWAP4 SWAP3 SWAP2 SWAP1 DUP2 DUP2 MSTORE PUSH1 0x20 ADD DUP4 DUP4 PUSH1 0x20 MUL DUP1 DUP3 DUP5 CALLDATACOPY PUSH1 0x0 SWAP3 ADD DUP3 SWAP1 MSTORE POP DUP5 MLOAD SWAP5 SWAP8 POP SWAP4 DUP8 SWAP4 POP DUP5 SWAP3 POP ISZERO ISZERO SWAP1 POP PUSH2 0x5A2 JUMPI INVALID JUMPDEST PUSH1 0x20 MUL PUSH1 0x20 ADD ADD MLOAD SWAP1 POP PUSH2 0x5D1 PUSH1 0x40 MLOAD DUP1 PUSH1 0x40 ADD PUSH1 0x40 MSTORE DUP1 PUSH1 0x4 DUP2 MSTORE PUSH1 0x20 ADD PUSH4 0x121A480D PUSH1 0xE2 SHL DUP2 MSTORE POP PUSH2 0xADE JUMP JUMPDEST PUSH2 0x2710 DUP2 LT PUSH2 0x619 JUMPI PUSH1 0x40 DUP1 MLOAD PUSH3 0x461BCD PUSH1 0xE5 SHL DUP2 MSTORE PUSH1 0x20 PUSH1 0x4 DUP3 ADD MSTORE PUSH1 0xF PUSH1 0x24 DUP3 ADD MSTORE PUSH15 0x24B73B30B634B210372830B3B2B997 PUSH1 0x89 SHL PUSH1 0x44 DUP3 ADD MSTORE SWAP1 MLOAD SWAP1 DUP2 SWAP1 SUB PUSH1 0x64 ADD SWAP1 REVERT JUMPDEST PUSH2 0x63E PUSH1 0x40 MLOAD DUP1 PUSH1 0x40 ADD PUSH1 0x40 MSTORE DUP1 PUSH1 0x4 DUP2 MSTORE PUSH1 0x20 ADD PUSH4 0x48692035 PUSH1 0xE0 SHL DUP2 MSTORE POP PUSH2 0xADE JUMP JUMPDEST DUP4 MLOAD PUSH1 0x4 DUP3 MUL EQ PUSH2 0x680 JUMPI PUSH1 0x40 MLOAD PUSH3 0x461BCD PUSH1 0xE5 SHL DUP2 MSTORE PUSH1 0x4 ADD DUP1 DUP1 PUSH1 0x20 ADD DUP3 DUP2 SUB DUP3 MSTORE PUSH1 0x21 DUP2 MSTORE PUSH1 0x20 ADD DUP1 PUSH2 0x1673 PUSH1 0x21 SWAP2 CODECOPY PUSH1 0x40 ADD SWAP2 POP POP PUSH1 0x40 MLOAD DUP1 SWAP2 SUB SWAP1 REVERT JUMPDEST PUSH2 0x6A5 PUSH1 0x40 MLOAD DUP1 PUSH1 0x40 ADD PUSH1 0x40 MSTORE DUP1 PUSH1 0x4 DUP2 MSTORE PUSH1 0x20 ADD PUSH4 0x2434901B PUSH1 0xE1 SHL DUP2 MSTORE POP PUSH2 0xADE JUMP JUMPDEST PUSH1 0x0 DUP1 PUSH1 0x0 PUSH2 0x6B7 DUP16 DUP16 DUP8 DUP16 DUP16 PUSH2 0xB87 JUMP JUMPDEST SWAP3 POP SWAP3 POP SWAP3 POP PUSH2 0x6E2 PUSH1 0x40 MLOAD DUP1 PUSH1 0x40 ADD PUSH1 0x40 MSTORE DUP1 PUSH1 0x4 DUP2 MSTORE PUSH1 0x20 ADD PUSH4 0x48692037 PUSH1 0xE0 SHL DUP2 MSTORE POP PUSH2 0xADE JUMP JUMPDEST DUP3 DUP8 PUSH1 0x1 DUP2 MLOAD DUP2 LT PUSH2 0x6F0 JUMPI INVALID JUMPDEST PUSH1 0x20 MUL PUSH1 0x20 ADD ADD MLOAD EQ PUSH2 0x74A JUMPI PUSH1 0x40 DUP1 MLOAD PUSH3 0x461BCD PUSH1 0xE5 SHL DUP2 MSTORE PUSH1 0x20 PUSH1 0x4 DUP3 ADD MSTORE PUSH1 0x1F PUSH1 0x24 DUP3 ADD MSTORE PUSH32 0x496E76616C69642073697A6520666F72206D656D6F7279207061676520302E00 PUSH1 0x44 DUP3 ADD MSTORE SWAP1 MLOAD SWAP1 DUP2 SWAP1 SUB PUSH1 0x64 ADD SWAP1 REVERT JUMPDEST PUSH2 0x76F PUSH1 0x40 MLOAD DUP1 PUSH1 0x40 ADD PUSH1 0x40 MSTORE DUP1 PUSH1 0x4 DUP2 MSTORE PUSH1 0x20 ADD PUSH4 0x90D2407 PUSH1 0xE3 SHL DUP2 MSTORE POP PUSH2 0xADE JUMP JUMPDEST DUP2 DUP8 PUSH1 0x2 DUP2 MLOAD DUP2 LT PUSH2 0x77D JUMPI INVALID JUMPDEST PUSH1 0x20 MUL PUSH1 0x20 ADD ADD MLOAD EQ PUSH2 0x7D7 JUMPI PUSH1 0x40 DUP1 MLOAD PUSH3 0x461BCD PUSH1 0xE5 SHL DUP2 MSTORE PUSH1 0x20 PUSH1 0x4 DUP3 ADD MSTORE PUSH1 0x1F PUSH1 0x24 DUP3 ADD MSTORE PUSH32 0x496E76616C6964206861736820666F72206D656D6F7279207061676520302E00 PUSH1 0x44 DUP3 ADD MSTORE SWAP1 MLOAD SWAP1 DUP2 SWAP1 SUB PUSH1 0x64 ADD SWAP1 REVERT JUMPDEST PUSH2 0x7FC PUSH1 0x40 MLOAD DUP1 PUSH1 0x40 ADD PUSH1 0x40 MSTORE DUP1 PUSH1 0x4 DUP2 MSTORE PUSH1 0x20 ADD PUSH4 0x48692039 PUSH1 0xE0 SHL DUP2 MSTORE POP PUSH2 0xADE JUMP JUMPDEST DUP1 DUP8 PUSH1 0x3 DUP7 MUL DUP2 MLOAD DUP2 LT PUSH2 0x80C JUMPI INVALID JUMPDEST PUSH1 0x20 MUL PUSH1 0x20 ADD ADD MLOAD EQ PUSH2 0x850 JUMPI PUSH1 0x40 MLOAD PUSH3 0x461BCD PUSH1 0xE5 SHL DUP2 MSTORE PUSH1 0x4 ADD DUP1 DUP1 PUSH1 0x20 ADD DUP3 DUP2 SUB DUP3 MSTORE PUSH1 0x2D DUP2 MSTORE PUSH1 0x20 ADD DUP1 PUSH2 0x16B8 PUSH1 0x2D SWAP2 CODECOPY PUSH1 0x40 ADD SWAP2 POP POP PUSH1 0x40 MLOAD DUP1 SWAP2 SUB SWAP1 REVERT JUMPDEST PUSH2 0x876 PUSH1 0x40 MLOAD DUP1 PUSH1 0x40 ADD PUSH1 0x40 MSTORE DUP1 PUSH1 0x5 DUP2 MSTORE PUSH1 0x20 ADD PUSH5 0x486920313 PUSH1 0xDC SHL DUP2 MSTORE POP PUSH2 0xADE JUMP JUMPDEST POP POP POP POP POP POP PUSH2 0x898 DUP14 DUP14 PUSH1 0x0 DUP2 DUP2 LT PUSH2 0x88C JUMPI INVALID JUMPDEST SWAP1 POP PUSH1 0x20 MUL ADD CALLDATALOAD PUSH2 0x1303 JUMP JUMPDEST PUSH2 0x8A8 DUP14 DUP14 PUSH1 0x1 DUP2 DUP2 LT PUSH2 0x88C JUMPI INVALID JUMPDEST PUSH2 0x8B8 DUP14 DUP14 PUSH1 0x2 DUP2 DUP2 LT PUSH2 0x88C JUMPI INVALID JUMPDEST PUSH2 0x8C8 DUP14 DUP14 PUSH1 0x3 DUP2 DUP2 LT PUSH2 0x88C JUMPI INVALID JUMPDEST PUSH2 0x8D8 DUP12 DUP12 PUSH1 0x0 DUP2 DUP2 LT PUSH2 0x88C JUMPI INVALID JUMPDEST PUSH2 0x8E8 DUP12 DUP12 PUSH1 0x1 DUP2 DUP2 LT PUSH2 0x88C JUMPI INVALID JUMPDEST PUSH2 0x8F8 DUP12 DUP12 PUSH1 0x2 DUP2 DUP2 LT PUSH2 0x88C JUMPI INVALID JUMPDEST PUSH2 0x908 DUP12 DUP12 PUSH1 0x3 DUP2 DUP2 LT PUSH2 0x88C JUMPI INVALID JUMPDEST PUSH2 0x918 DUP4 DUP4 PUSH1 0x0 DUP2 DUP2 LT PUSH2 0x88C JUMPI INVALID JUMPDEST PUSH2 0x928 DUP4 DUP4 PUSH1 0x1 DUP2 DUP2 LT PUSH2 0x88C JUMPI INVALID JUMPDEST PUSH2 0x931 DUP5 PUSH2 0x1344 JUMP JUMPDEST DUP4 PUSH1 0x1 PUSH1 0x1 PUSH1 0xA0 SHL SUB AND PUSH4 0x1CB7DD79 DUP15 DUP15 DUP15 DUP15 DUP9 DUP9 PUSH1 0x40 MLOAD DUP8 PUSH4 0xFFFFFFFF AND PUSH1 0xE0 SHL DUP2 MSTORE PUSH1 0x4 ADD DUP1 DUP1 PUSH1 0x20 ADD DUP1 PUSH1 0x20 ADD DUP1 PUSH1 0x20 ADD DUP5 DUP2 SUB DUP5 MSTORE DUP11 DUP11 DUP3 DUP2 DUP2 MSTORE PUSH1 0x20 ADD SWAP3 POP PUSH1 0x20 MUL DUP1 DUP3 DUP5 CALLDATACOPY PUSH1 0x0 DUP4 DUP3 ADD MSTORE PUSH1 0x1F ADD PUSH1 0x1F NOT AND SWAP1 SWAP2 ADD DUP6 DUP2 SUB DUP5 MSTORE DUP9 DUP2 MSTORE PUSH1 0x20 SWAP1 DUP2 ADD SWAP2 POP DUP10 SWAP1 DUP10 MUL DUP1 DUP3 DUP5 CALLDATACOPY PUSH1 0x0 DUP4 DUP3 ADD MSTORE PUSH1 0x1F ADD PUSH1 0x1F NOT AND SWAP1 SWAP2 ADD DUP6 DUP2 SUB DUP4 MSTORE DUP7 DUP2 MSTORE PUSH1 0x20 SWAP1 DUP2 ADD SWAP2 POP DUP8 SWAP1 DUP8 MUL DUP1 DUP3 DUP5 CALLDATACOPY PUSH1 0x0 DUP2 DUP5 ADD MSTORE PUSH1 0x1F NOT PUSH1 0x1F DUP3 ADD AND SWAP1 POP DUP1 DUP4 ADD SWAP3 POP POP POP SWAP10 POP POP POP POP POP POP POP POP POP POP PUSH1 0x0 PUSH1 0x40 MLOAD DUP1 DUP4 SUB DUP2 PUSH1 0x0 DUP8 DUP1 EXTCODESIZE ISZERO DUP1 ISZERO PUSH2 0xA06 JUMPI PUSH1 0x0 DUP1 REVERT JUMPDEST POP GAS CALL ISZERO DUP1 ISZERO PUSH2 0xA1A JUMPI RETURNDATASIZE PUSH1 0x0 DUP1 RETURNDATACOPY RETURNDATASIZE PUSH1 0x0 REVERT JUMPDEST POP POP POP POP PUSH2 0xA44 PUSH1 0x40 MLOAD DUP1 PUSH1 0x40 ADD PUSH1 0x40 MSTORE DUP1 PUSH1 0x5 DUP2 MSTORE PUSH1 0x20 ADD PUSH5 0x4869203131 PUSH1 0xD8 SHL DUP2 MSTORE POP PUSH2 0xADE JUMP JUMPDEST PUSH2 0xA61 DUP2 DUP11 DUP11 PUSH1 0x8 DUP2 DUP2 LT PUSH2 0xA55 JUMPI INVALID JUMPDEST SWAP1 POP PUSH1 0x20 MUL ADD CALLDATALOAD PUSH2 0x1390 JUMP JUMPDEST PUSH2 0xA87 PUSH1 0x40 MLOAD DUP1 PUSH1 0x40 ADD PUSH1 0x40 MSTORE DUP1 PUSH1 0x5 DUP2 MSTORE PUSH1 0x20 ADD PUSH5 0x2434901899 PUSH1 0xD9 SHL DUP2 MSTORE POP PUSH2 0xADE JUMP JUMPDEST POP POP POP POP POP POP POP POP POP POP POP POP POP JUMP JUMPDEST PUSH1 0x60 DUP2 JUMP JUMPDEST PUSH1 0x1 SLOAD PUSH1 0xFF AND SWAP1 JUMP JUMPDEST PUSH1 0x0 DUP2 JUMP JUMPDEST PUSH1 0x60 PUSH1 0x40 MLOAD DUP1 PUSH1 0x60 ADD PUSH1 0x40 MSTORE DUP1 PUSH1 0x25 DUP2 MSTORE PUSH1 0x20 ADD PUSH2 0x164E PUSH1 0x25 SWAP2 CODECOPY SWAP1 POP SWAP1 JUMP JUMPDEST PUSH1 0x0 SWAP1 DUP2 MSTORE PUSH1 0x20 DUP2 SWAP1 MSTORE PUSH1 0x40 SWAP1 KECCAK256 SLOAD PUSH1 0xFF AND SWAP1 JUMP JUMPDEST PUSH2 0xB84 DUP2 PUSH1 0x40 MLOAD PUSH1 0x24 ADD DUP1 DUP1 PUSH1 0x20 ADD DUP3 DUP2 SUB DUP3 MSTORE DUP4 DUP2 DUP2 MLOAD DUP2 MSTORE PUSH1 0x20 ADD SWAP2 POP DUP1 MLOAD SWAP1 PUSH1 0x20 ADD SWAP1 DUP1 DUP4 DUP4 PUSH1 0x0 JUMPDEST DUP4 DUP2 LT ISZERO PUSH2 0xB22 JUMPI DUP2 DUP2 ADD MLOAD DUP4 DUP3 ADD MSTORE PUSH1 0x20 ADD PUSH2 0xB0A JUMP JUMPDEST POP POP POP POP SWAP1 POP SWAP1 DUP2 ADD SWAP1 PUSH1 0x1F AND DUP1 ISZERO PUSH2 0xB4F JUMPI DUP1 DUP3 SUB DUP1 MLOAD PUSH1 0x1 DUP4 PUSH1 0x20 SUB PUSH2 0x100 EXP SUB NOT AND DUP2 MSTORE PUSH1 0x20 ADD SWAP2 POP JUMPDEST POP PUSH1 0x40 DUP1 MLOAD PUSH1 0x1F NOT DUP2 DUP5 SUB ADD DUP2 MSTORE SWAP2 SWAP1 MSTORE PUSH1 0x20 DUP2 ADD DUP1 MLOAD PUSH1 0x1 PUSH1 0x1 PUSH1 0xE0 SHL SUB AND PUSH4 0x104C13EB PUSH1 0xE2 SHL OR SWAP1 MSTORE SWAP3 POP PUSH2 0x155A SWAP2 POP POP JUMP JUMPDEST POP JUMP JUMPDEST PUSH1 0x40 DUP1 MLOAD PUSH2 0xDC2 DUP1 DUP3 MSTORE PUSH3 0x1B860 DUP3 ADD SWAP1 SWAP3 MSTORE PUSH2 0x6E1 SWAP2 PUSH1 0x0 SWAP2 DUP3 SWAP2 DUP3 SWAP2 PUSH1 0x60 SWAP2 PUSH1 0x20 DUP3 ADD PUSH3 0x1B840 DUP1 CALLDATASIZE DUP4 CALLDATACOPY ADD SWAP1 POP POP SWAP1 POP PUSH1 0x0 PUSH2 0xBC4 PUSH2 0x157B JUMP JUMPDEST PUSH1 0x1 DUP1 SLOAD SWAP1 PUSH2 0x100 EXP SWAP1 DIV PUSH1 0x1 PUSH1 0x1 PUSH1 0xA0 SHL SUB AND PUSH1 0x1 PUSH1 0x1 PUSH1 0xA0 SHL SUB AND PUSH4 0x4B6CEE59 PUSH1 0x40 MLOAD DUP2 PUSH4 0xFFFFFFFF AND PUSH1 0xE0 SHL DUP2 MSTORE PUSH1 0x4 ADD PUSH2 0x7D00 PUSH1 0x40 MLOAD DUP1 DUP4 SUB DUP2 DUP7 DUP1 EXTCODESIZE ISZERO DUP1 ISZERO PUSH2 0xC11 JUMPI PUSH1 0x0 DUP1 REVERT JUMPDEST POP GAS STATICCALL ISZERO DUP1 ISZERO PUSH2 0xC25 JUMPI RETURNDATASIZE PUSH1 0x0 DUP1 RETURNDATACOPY RETURNDATASIZE PUSH1 0x0 REVERT JUMPDEST POP POP POP POP PUSH1 0x40 MLOAD RETURNDATASIZE PUSH1 0x1F NOT PUSH1 0x1F DUP3 ADD AND DUP3 ADD DUP1 PUSH1 0x40 MSTORE POP PUSH2 0x7D00 DUP2 LT ISZERO PUSH2 0xC4B JUMPI PUSH1 0x0 DUP1 REVERT JUMPDEST POP SWAP1 POP PUSH2 0xC56 PUSH2 0x159B JUMP JUMPDEST PUSH1 0x2 PUSH1 0x0 SWAP1 SLOAD SWAP1 PUSH2 0x100 EXP SWAP1 DIV PUSH1 0x1 PUSH1 0x1 PUSH1 0xA0 SHL SUB AND PUSH1 0x1 PUSH1 0x1 PUSH1 0xA0 SHL SUB AND PUSH4 0x4B6CEE59 PUSH1 0x40 MLOAD DUP2 PUSH4 0xFFFFFFFF AND PUSH1 0xE0 SHL DUP2 MSTORE PUSH1 0x4 ADD PUSH2 0x5C80 PUSH1 0x40 MLOAD DUP1 DUP4 SUB DUP2 DUP7 DUP1 EXTCODESIZE ISZERO DUP1 ISZERO PUSH2 0xCA5 JUMPI PUSH1 0x0 DUP1 REVERT JUMPDEST POP GAS STATICCALL ISZERO DUP1 ISZERO PUSH2 0xCB9 JUMPI RETURNDATASIZE PUSH1 0x0 DUP1 RETURNDATACOPY RETURNDATASIZE PUSH1 0x0 REVERT JUMPDEST POP POP POP POP PUSH1 0x40 MLOAD RETURNDATASIZE PUSH1 0x1F NOT PUSH1 0x1F DUP3 ADD AND DUP3 ADD DUP1 PUSH1 0x40 MSTORE POP PUSH2 0x5C80 DUP2 LT ISZERO PUSH2 0xCDF JUMPI PUSH1 0x0 DUP1 REVERT JUMPDEST POP SWAP1 POP PUSH2 0xCEA PUSH2 0x15BB JUMP JUMPDEST PUSH1 0x0 JUMPDEST PUSH2 0x3E8 DUP2 LT ISZERO PUSH2 0xD23 JUMPI DUP4 DUP2 PUSH2 0x3E8 DUP2 LT PUSH2 0xD04 JUMPI INVALID JUMPDEST PUSH1 0x20 MUL ADD MLOAD DUP3 DUP3 PUSH2 0x6CC DUP2 LT PUSH2 0xD16 JUMPI INVALID JUMPDEST PUSH1 0x20 MUL ADD MSTORE PUSH1 0x1 ADD PUSH2 0xCED JUMP JUMPDEST POP PUSH1 0x0 JUMPDEST PUSH2 0x2E4 DUP2 LT ISZERO PUSH2 0xD61 JUMPI DUP3 DUP2 PUSH2 0x2E4 DUP2 LT PUSH2 0xD3E JUMPI INVALID JUMPDEST PUSH1 0x20 MUL ADD MLOAD DUP3 DUP3 PUSH2 0x3E8 ADD PUSH2 0x6CC DUP2 LT PUSH2 0xD54 JUMPI INVALID JUMPDEST PUSH1 0x20 MUL ADD MSTORE PUSH1 0x1 ADD PUSH2 0xD27 JUMP JUMPDEST POP PUSH1 0x0 JUMPDEST PUSH2 0x6CC DUP2 LT ISZERO PUSH2 0xDC6 JUMPI PUSH1 0x1 DUP2 ADD DUP7 DUP7 DUP2 MLOAD DUP2 LT PUSH2 0xD7F JUMPI INVALID JUMPDEST PUSH1 0x20 MUL PUSH1 0x20 ADD ADD DUP2 DUP2 MSTORE POP POP DUP2 DUP2 PUSH2 0x6CC DUP2 LT PUSH2 0xD98 JUMPI INVALID JUMPDEST PUSH1 0x20 MUL ADD MLOAD DUP7 DUP7 PUSH1 0x1 ADD DUP2 MLOAD DUP2 LT PUSH2 0xDAC JUMPI INVALID JUMPDEST PUSH1 0x20 SWAP1 DUP2 MUL SWAP2 SWAP1 SWAP2 ADD ADD MSTORE PUSH1 0x2 SWAP5 SWAP1 SWAP5 ADD SWAP4 PUSH1 0x1 ADD PUSH2 0xD65 JUMP JUMPDEST POP POP POP POP PUSH1 0x0 DUP12 DUP12 PUSH1 0x6 DUP2 DUP2 LT PUSH2 0xDD9 JUMPI INVALID JUMPDEST SWAP1 POP PUSH1 0x20 MUL ADD CALLDATALOAD SWAP1 POP PUSH1 0x2 DUP2 LT ISZERO PUSH2 0xE38 JUMPI PUSH1 0x40 DUP1 MLOAD PUSH3 0x461BCD PUSH1 0xE5 SHL DUP2 MSTORE PUSH1 0x20 PUSH1 0x4 DUP3 ADD DUP2 SWAP1 MSTORE PUSH1 0x24 DUP3 ADD MSTORE PUSH32 0x496E76616C696420657865637574696F6E20626567696E20616464726573732E PUSH1 0x44 DUP3 ADD MSTORE SWAP1 MLOAD SWAP1 DUP2 SWAP1 SUB PUSH1 0x64 ADD SWAP1 REVERT JUMPDEST PUSH1 0x2 DUP2 SUB DUP4 DUP4 PUSH1 0x0 ADD DUP2 MLOAD DUP2 LT PUSH2 0xE4B JUMPI INVALID JUMPDEST PUSH1 0x20 MUL PUSH1 0x20 ADD ADD DUP2 DUP2 MSTORE POP POP DUP1 DUP4 DUP4 PUSH1 0x1 ADD DUP2 MLOAD DUP2 LT PUSH2 0xE67 JUMPI INVALID JUMPDEST PUSH1 0x20 MUL PUSH1 0x20 ADD ADD DUP2 DUP2 MSTORE POP POP PUSH1 0x1 DUP2 SUB DUP4 DUP4 PUSH1 0x2 ADD DUP2 MLOAD DUP2 LT PUSH2 0xE86 JUMPI INVALID JUMPDEST PUSH1 0x20 MUL PUSH1 0x20 ADD ADD DUP2 DUP2 MSTORE POP POP PUSH1 0x0 DUP4 DUP4 PUSH1 0x3 ADD DUP2 MLOAD DUP2 LT PUSH2 0xEA3 JUMPI INVALID JUMPDEST PUSH1 0x20 MUL PUSH1 0x20 ADD ADD DUP2 DUP2 MSTORE POP POP PUSH1 0x4 DUP3 ADD SWAP2 POP PUSH1 0x0 PUSH1 0x8 DUP14 DUP14 PUSH1 0x7 DUP2 DUP2 LT PUSH2 0xEC6 JUMPI INVALID JUMPDEST SWAP1 POP PUSH1 0x20 MUL ADD CALLDATALOAD SUB SWAP1 POP PUSH1 0x0 PUSH1 0x8 SWAP1 POP PUSH1 0x0 JUMPDEST PUSH1 0x8 DUP2 LT ISZERO PUSH2 0xFE0 JUMPI DUP1 DUP5 ADD DUP7 DUP7 DUP2 MLOAD DUP2 LT PUSH2 0xEF1 JUMPI INVALID JUMPDEST PUSH1 0x20 SWAP1 DUP2 MUL SWAP2 SWAP1 SWAP2 ADD ADD MSTORE DUP6 MLOAD PUSH1 0x10 DUP7 ADD SWAP1 DUP5 DUP4 ADD SWAP1 DUP9 SWAP1 DUP4 SWAP1 DUP2 LT PUSH2 0xF13 JUMPI INVALID JUMPDEST PUSH1 0x20 SWAP1 DUP2 MUL SWAP2 SWAP1 SWAP2 ADD ADD MSTORE PUSH1 0x1 DUP15 AND ISZERO PUSH2 0xF91 JUMPI DUP16 DUP16 DUP5 DUP2 DUP2 LT PUSH2 0xF33 JUMPI INVALID JUMPDEST SWAP1 POP PUSH1 0x20 MUL ADD CALLDATALOAD DUP8 DUP8 PUSH1 0x1 ADD DUP2 MLOAD DUP2 LT PUSH2 0xF49 JUMPI INVALID JUMPDEST PUSH1 0x20 MUL PUSH1 0x20 ADD ADD DUP2 DUP2 MSTORE POP POP DUP16 DUP16 DUP5 PUSH1 0x1 ADD DUP2 DUP2 LT PUSH2 0xF64 JUMPI INVALID JUMPDEST SWAP1 POP PUSH1 0x20 MUL ADD CALLDATALOAD DUP8 DUP3 PUSH1 0x1 ADD DUP2 MLOAD DUP2 LT PUSH2 0xF7A JUMPI INVALID JUMPDEST PUSH1 0x20 MUL PUSH1 0x20 ADD ADD DUP2 DUP2 MSTORE POP POP PUSH1 0x2 DUP4 ADD SWAP3 POP PUSH2 0xFCC JUMP JUMPDEST PUSH1 0x0 DUP8 DUP8 PUSH1 0x1 ADD DUP2 MLOAD DUP2 LT PUSH2 0xFA2 JUMPI INVALID JUMPDEST PUSH1 0x20 MUL PUSH1 0x20 ADD ADD DUP2 DUP2 MSTORE POP POP PUSH1 0x0 DUP8 DUP3 PUSH1 0x1 ADD DUP2 MLOAD DUP2 LT PUSH2 0xFBF JUMPI INVALID JUMPDEST PUSH1 0x20 MUL PUSH1 0x20 ADD ADD DUP2 DUP2 MSTORE POP POP JUMPDEST POP PUSH1 0x1 SWAP13 DUP14 SHR SWAP13 PUSH1 0x2 SWAP6 SWAP1 SWAP6 ADD SWAP5 ADD PUSH2 0xED9 JUMP JUMPDEST POP DUP12 ISZERO PUSH2 0x101E JUMPI PUSH1 0x40 MLOAD PUSH3 0x461BCD PUSH1 0xE5 SHL DUP2 MSTORE PUSH1 0x4 ADD DUP1 DUP1 PUSH1 0x20 ADD DUP3 DUP2 SUB DUP3 MSTORE PUSH1 0x24 DUP2 MSTORE PUSH1 0x20 ADD DUP1 PUSH2 0x1694 PUSH1 0x24 SWAP2 CODECOPY PUSH1 0x40 ADD SWAP2 POP POP PUSH1 0x40 MLOAD DUP1 SWAP2 SUB SWAP1 REVERT JUMPDEST POP POP POP PUSH1 0x10 ADD PUSH1 0x0 DUP12 DUP12 PUSH1 0x8 DUP2 DUP2 LT PUSH2 0x1033 JUMPI INVALID JUMPDEST SWAP1 POP PUSH1 0x20 MUL ADD CALLDATALOAD SWAP1 POP DUP1 DUP4 DUP4 PUSH1 0x0 ADD DUP2 MLOAD DUP2 LT PUSH2 0x104C JUMPI INVALID JUMPDEST PUSH1 0x20 MUL PUSH1 0x20 ADD ADD DUP2 DUP2 MSTORE POP POP DUP9 DUP9 PUSH1 0x0 DUP2 DUP2 LT PUSH2 0x1065 JUMPI INVALID JUMPDEST SWAP1 POP PUSH1 0x20 MUL ADD CALLDATALOAD DUP4 DUP4 PUSH1 0x1 ADD DUP2 MLOAD DUP2 LT PUSH2 0x107B JUMPI INVALID JUMPDEST PUSH1 0x20 MUL PUSH1 0x20 ADD ADD DUP2 DUP2 MSTORE POP POP DUP1 PUSH1 0x1 ADD DUP4 DUP4 PUSH1 0x2 ADD DUP2 MLOAD DUP2 LT PUSH2 0x109A JUMPI INVALID JUMPDEST PUSH1 0x20 MUL PUSH1 0x20 ADD ADD DUP2 DUP2 MSTORE POP POP DUP9 DUP9 PUSH1 0x1 DUP2 DUP2 LT PUSH2 0x10B3 JUMPI INVALID JUMPDEST SWAP1 POP PUSH1 0x20 MUL ADD CALLDATALOAD DUP4 DUP4 PUSH1 0x3 ADD DUP2 MLOAD DUP2 LT PUSH2 0x10C9 JUMPI INVALID JUMPDEST PUSH1 0x20 MUL PUSH1 0x20 ADD ADD DUP2 DUP2 MSTORE POP POP DUP1 PUSH1 0x2 ADD DUP4 DUP4 PUSH1 0x4 ADD DUP2 MLOAD DUP2 LT PUSH2 0x10E8 JUMPI INVALID JUMPDEST PUSH1 0x20 MUL PUSH1 0x20 ADD ADD DUP2 DUP2 MSTORE POP POP DUP9 DUP9 PUSH1 0x2 DUP2 DUP2 LT PUSH2 0x1101 JUMPI INVALID JUMPDEST SWAP1 POP PUSH1 0x20 MUL ADD CALLDATALOAD DUP4 DUP4 PUSH1 0x5 ADD DUP2 MLOAD DUP2 LT PUSH2 0x1117 JUMPI INVALID JUMPDEST PUSH1 0x20 SWAP1 DUP2 MUL SWAP2 SWAP1 SWAP2 ADD ADD MSTORE PUSH1 0x6 SWAP2 SWAP1 SWAP2 ADD SWAP1 PUSH1 0x3 ADD DUP1 DUP13 DUP13 PUSH1 0x9 DUP2 DUP2 LT PUSH2 0x113A JUMPI INVALID JUMPDEST SWAP1 POP PUSH1 0x20 MUL ADD CALLDATALOAD EQ PUSH2 0x117D JUMPI PUSH1 0x40 MLOAD PUSH3 0x461BCD PUSH1 0xE5 SHL DUP2 MSTORE PUSH1 0x4 ADD DUP1 DUP1 PUSH1 0x20 ADD DUP3 DUP2 SUB DUP3 MSTORE PUSH1 0x23 DUP2 MSTORE PUSH1 0x20 ADD DUP1 PUSH2 0x16E5 PUSH1 0x23 SWAP2 CODECOPY PUSH1 0x40 ADD SWAP2 POP POP PUSH1 0x40 MLOAD DUP1 SWAP2 SUB SWAP1 REVERT JUMPDEST POP DUP1 DUP3 MLOAD EQ PUSH2 0x11BD JUMPI PUSH1 0x40 MLOAD PUSH3 0x461BCD PUSH1 0xE5 SHL DUP2 MSTORE PUSH1 0x4 ADD DUP1 DUP1 PUSH1 0x20 ADD DUP3 DUP2 SUB DUP3 MSTORE PUSH1 0x29 DUP2 MSTORE PUSH1 0x20 ADD DUP1 PUSH2 0x1625 PUSH1 0x29 SWAP2 CODECOPY PUSH1 0x40 ADD SWAP2 POP POP PUSH1 0x40 MLOAD DUP1 SWAP2 SUB SWAP1 REVERT JUMPDEST PUSH1 0x0 DUP12 DUP12 PUSH1 0x1 NOT DUP2 ADD DUP2 DUP2 LT PUSH2 0x11CF JUMPI INVALID JUMPDEST SWAP1 POP PUSH1 0x20 MUL ADD CALLDATALOAD SWAP1 POP PUSH1 0x0 DUP13 DUP13 PUSH1 0x1 DUP16 DUP16 SWAP1 POP SUB DUP2 DUP2 LT PUSH2 0x11EC JUMPI INVALID JUMPDEST SWAP1 POP PUSH1 0x20 MUL ADD CALLDATALOAD SWAP1 POP PUSH1 0x0 PUSH1 0x3 PUSH1 0x0 SWAP1 SLOAD SWAP1 PUSH2 0x100 EXP SWAP1 DIV PUSH1 0x1 PUSH1 0x1 PUSH1 0xA0 SHL SUB AND PUSH1 0x1 PUSH1 0x1 PUSH1 0xA0 SHL SUB AND PUSH4 0x405A6362 DUP7 DUP6 DUP6 PUSH1 0x1 PUSH8 0x800000000000011 PUSH1 0xC0 SHL ADD PUSH1 0x40 MLOAD DUP6 PUSH4 0xFFFFFFFF AND PUSH1 0xE0 SHL DUP2 MSTORE PUSH1 0x4 ADD DUP1 DUP1 PUSH1 0x20 ADD DUP6 DUP2 MSTORE PUSH1 0x20 ADD DUP5 DUP2 MSTORE PUSH1 0x20 ADD DUP4 DUP2 MSTORE PUSH1 0x20 ADD DUP3 DUP2 SUB DUP3 MSTORE DUP7 DUP2 DUP2 MLOAD DUP2 MSTORE PUSH1 0x20 ADD SWAP2 POP DUP1 MLOAD SWAP1 PUSH1 0x20 ADD SWAP1 PUSH1 0x20 MUL DUP1 DUP4 DUP4 PUSH1 0x0 JUMPDEST DUP4 DUP2 LT ISZERO PUSH2 0x128E JUMPI DUP2 DUP2 ADD MLOAD DUP4 DUP3 ADD MSTORE PUSH1 0x20 ADD PUSH2 0x1276 JUMP JUMPDEST POP POP POP POP SWAP1 POP ADD SWAP6 POP POP POP POP POP POP PUSH1 0x60 PUSH1 0x40 MLOAD DUP1 DUP4 SUB DUP2 PUSH1 0x0 DUP8 DUP1 EXTCODESIZE ISZERO DUP1 ISZERO PUSH2 0x12B6 JUMPI PUSH1 0x0 DUP1 REVERT JUMPDEST POP GAS CALL ISZERO DUP1 ISZERO PUSH2 0x12CA JUMPI RETURNDATASIZE PUSH1 0x0 DUP1 RETURNDATACOPY RETURNDATASIZE PUSH1 0x0 REVERT JUMPDEST POP POP POP POP PUSH1 0x40 MLOAD RETURNDATASIZE PUSH1 0x60 DUP2 LT ISZERO PUSH2 0x12E0 JUMPI PUSH1 0x0 DUP1 REVERT JUMPDEST POP PUSH1 0x20 DUP2 ADD MLOAD PUSH1 0x40 SWAP1 SWAP2 ADD MLOAD SWAP10 SWAP16 SWAP1 SWAP15 POP SWAP9 SWAP13 POP SWAP8 SWAP11 POP POP POP POP POP POP POP POP POP POP POP JUMP JUMPDEST PUSH1 0x40 DUP1 MLOAD PUSH1 0x24 DUP1 DUP3 ADD DUP5 SWAP1 MSTORE DUP3 MLOAD DUP1 DUP4 SUB SWAP1 SWAP2 ADD DUP2 MSTORE PUSH1 0x44 SWAP1 SWAP2 ADD SWAP1 SWAP2 MSTORE PUSH1 0x20 DUP2 ADD DUP1 MLOAD PUSH1 0x1 PUSH1 0x1 PUSH1 0xE0 SHL SUB AND PUSH4 0xF5B1BBA9 PUSH1 0xE0 SHL OR SWAP1 MSTORE PUSH2 0xB84 SWAP1 PUSH2 0x155A JUMP JUMPDEST PUSH1 0x40 DUP1 MLOAD PUSH1 0x1 PUSH1 0x1 PUSH1 0xA0 SHL SUB DUP4 AND PUSH1 0x24 DUP1 DUP4 ADD SWAP2 SWAP1 SWAP2 MSTORE DUP3 MLOAD DUP1 DUP4 SUB SWAP1 SWAP2 ADD DUP2 MSTORE PUSH1 0x44 SWAP1 SWAP2 ADD SWAP1 SWAP2 MSTORE PUSH1 0x20 DUP2 ADD DUP1 MLOAD PUSH1 0x1 PUSH1 0x1 PUSH1 0xE0 SHL SUB AND PUSH4 0x161765E1 PUSH1 0xE1 SHL OR SWAP1 MSTORE PUSH2 0xB84 SWAP1 PUSH2 0x155A JUMP JUMPDEST PUSH2 0x13B8 PUSH1 0x40 MLOAD DUP1 PUSH1 0x40 ADD PUSH1 0x40 MSTORE DUP1 PUSH1 0x7 DUP2 MSTORE PUSH1 0x20 ADD PUSH7 0x68657265203331 PUSH1 0xC8 SHL DUP2 MSTORE POP PUSH2 0xADE JUMP JUMPDEST PUSH1 0x0 DUP3 PUSH1 0x0 DUP2 MLOAD DUP2 LT PUSH2 0x13C7 JUMPI INVALID JUMPDEST PUSH1 0x20 MUL PUSH1 0x20 ADD ADD MLOAD SWAP1 POP PUSH1 0x0 DUP1 PUSH1 0x0 PUSH1 0x60 DUP5 PUSH1 0x3 ADD PUSH8 0xFFFFFFFFFFFFFFFF DUP2 GT DUP1 ISZERO PUSH2 0x13F2 JUMPI PUSH1 0x0 DUP1 REVERT JUMPDEST POP PUSH1 0x40 MLOAD SWAP1 DUP1 DUP3 MSTORE DUP1 PUSH1 0x20 MUL PUSH1 0x20 ADD DUP3 ADD PUSH1 0x40 MSTORE DUP1 ISZERO PUSH2 0x141C JUMPI DUP2 PUSH1 0x20 ADD PUSH1 0x20 DUP3 MUL DUP1 CALLDATASIZE DUP4 CALLDATACOPY ADD SWAP1 POP JUMPDEST POP SWAP1 POP PUSH1 0x40 DUP2 PUSH1 0x1 DUP2 MLOAD DUP2 LT PUSH2 0x142E JUMPI INVALID JUMPDEST PUSH1 0x20 SWAP1 DUP2 MUL SWAP2 SWAP1 SWAP2 ADD ADD MSTORE PUSH1 0x1 PUSH1 0x5 DUP8 ADD DUP2 PUSH1 0x60 PUSH1 0x2 DUP10 MUL PUSH8 0xFFFFFFFFFFFFFFFF DUP2 GT DUP1 ISZERO PUSH2 0x145C JUMPI PUSH1 0x0 DUP1 REVERT JUMPDEST POP PUSH1 0x40 MLOAD SWAP1 DUP1 DUP3 MSTORE DUP1 PUSH1 0x20 MUL PUSH1 0x20 ADD DUP3 ADD PUSH1 0x40 MSTORE DUP1 ISZERO PUSH2 0x1486 JUMPI DUP2 PUSH1 0x20 ADD PUSH1 0x20 DUP3 MUL DUP1 CALLDATASIZE DUP4 CALLDATACOPY ADD SWAP1 POP JUMPDEST POP SWAP1 POP PUSH2 0x1491 PUSH2 0x15DB JUMP JUMPDEST PUSH2 0x14B9 PUSH1 0x40 MLOAD DUP1 PUSH1 0x40 ADD PUSH1 0x40 MSTORE DUP1 PUSH1 0x7 DUP2 MSTORE PUSH1 0x20 ADD PUSH7 0x3432B932901999 PUSH1 0xC9 SHL DUP2 MSTORE POP PUSH2 0xADE JUMP JUMPDEST POP PUSH1 0x40 DUP1 MLOAD DUP1 DUP3 ADD SWAP1 SWAP2 MSTORE PUSH1 0x7 DUP2 MSTORE PUSH7 0x68657265203333 PUSH1 0xC8 SHL PUSH1 0x20 DUP3 ADD MSTORE PUSH1 0x80 DUP13 ADD SWAP1 PUSH2 0x14E6 SWAP1 PUSH2 0xADE JUMP JUMPDEST DUP3 DUP11 EQ PUSH2 0x1524 JUMPI PUSH1 0x40 MLOAD PUSH3 0x461BCD PUSH1 0xE5 SHL DUP2 MSTORE PUSH1 0x4 ADD DUP1 DUP1 PUSH1 0x20 ADD DUP3 DUP2 SUB DUP3 MSTORE PUSH1 0x24 DUP2 MSTORE PUSH1 0x20 ADD DUP1 PUSH2 0x1708 PUSH1 0x24 SWAP2 CODECOPY PUSH1 0x40 ADD SWAP2 POP POP PUSH1 0x40 MLOAD DUP1 SWAP2 SUB SWAP1 REVERT JUMPDEST PUSH2 0x154C PUSH1 0x40 MLOAD DUP1 PUSH1 0x40 ADD PUSH1 0x40 MSTORE DUP1 PUSH1 0x7 DUP2 MSTORE PUSH1 0x20 ADD PUSH7 0x1A195C99480CCD PUSH1 0xCA SHL DUP2 MSTORE POP PUSH2 0xADE JUMP JUMPDEST POP POP POP POP POP POP POP POP POP POP POP POP JUMP JUMPDEST DUP1 MLOAD PUSH11 0x636F6E736F6C652E6C6F67 PUSH1 0x20 DUP4 ADD PUSH1 0x0 DUP1 DUP5 DUP4 DUP6 GAS STATICCALL POP POP POP POP POP JUMP JUMPDEST PUSH1 0x40 MLOAD DUP1 PUSH2 0x7D00 ADD PUSH1 0x40 MSTORE DUP1 PUSH2 0x3E8 SWAP1 PUSH1 0x20 DUP3 MUL DUP1 CALLDATASIZE DUP4 CALLDATACOPY POP SWAP2 SWAP3 SWAP2 POP POP JUMP JUMPDEST PUSH1 0x40 MLOAD DUP1 PUSH2 0x5C80 ADD PUSH1 0x40 MSTORE DUP1 PUSH2 0x2E4 SWAP1 PUSH1 0x20 DUP3 MUL DUP1 CALLDATASIZE DUP4 CALLDATACOPY POP SWAP2 SWAP3 SWAP2 POP POP JUMP JUMPDEST PUSH1 0x40 MLOAD DUP1 PUSH2 0xD980 ADD PUSH1 0x40 MSTORE DUP1 PUSH2 0x6CC SWAP1 PUSH1 0x20 DUP3 MUL DUP1 CALLDATASIZE DUP4 CALLDATACOPY POP SWAP2 SWAP3 SWAP2 POP POP JUMP JUMPDEST PUSH1 0x40 MLOAD DUP1 PUSH1 0x60 ADD PUSH1 0x40 MSTORE DUP1 PUSH1 0x3 SWAP1 PUSH1 0x20 DUP3 MUL DUP1 CALLDATASIZE DUP4 CALLDATACOPY POP SWAP2 SWAP3 SWAP2 POP POP JUMP JUMPDEST PUSH1 0x0 DUP1 DUP6 DUP6 GT ISZERO PUSH2 0x1608 JUMPI DUP2 DUP3 REVERT JUMPDEST DUP4 DUP7 GT ISZERO PUSH2 0x1614 JUMPI DUP2 DUP3 REVERT JUMPDEST POP POP PUSH1 0x20 DUP4 MUL ADD SWAP4 SWAP2 SWAP1 SWAP3 SUB SWAP2 POP JUMP INVALID 0x4E PUSH16 0x7420616C6C20436169726F207075626C PUSH10 0x6320696E707574732077 PUSH6 0x726520777269 PUSH21 0x74656E2E537461726B576172655F47707353746174 PUSH6 0x6D656E745665 PUSH19 0x69666965725F323032325F37496E76616C6964 KECCAK256 PUSH17 0x75626C69634D656D6F7279506167657320 PUSH13 0x656E6774682E53454C45435445 DIFFICULTY 0x5F TIMESTAMP SSTORE 0x49 0x4C SLOAD 0x49 0x4E MSTORE8 0x5F JUMP GASLIMIT NUMBER SLOAD 0x4F MSTORE 0x5F 0x49 MSTORE8 0x5F SLOAD 0x4F 0x4F 0x5F 0x4C 0x4F 0x4E SELFBALANCE 0x49 PUSH15 0x76616C69642063756D756C61746976 PUSH6 0x2070726F6475 PUSH4 0x7420666F PUSH19 0x206D656D6F7279207061676520302E496E636F PUSH15 0x73697374656E742070726F6772616D KECCAK256 PUSH16 0x7574707574206C656E6774682E4E6F74 KECCAK256 PUSH2 0x6C6C KECCAK256 PUSH14 0x656D6F7279207061676573207765 PUSH19 0x652070726F6365737365642EA2646970667358 0x22 SLT KECCAK256 DUP7 RETURNDATASIZE SWAP14 0xC1 0x49 INVALID 0x2A CHAINID PUSH21 0x3A8A2246EF53EAE873E4B12F79526F144DDA5BF85B 0xAC 0x49 PUSH5 0x736F6C6343 STOP MOD 0xC STOP CALLER "
		},
		"gasEstimates": {
			"creation": {
				"codeDepositCost": "1197000",
				"executionCost": "infinite",
				"totalCost": "infinite"
			},
			"external": {
				"PAGE_INFO_ADDRESS_OFFSET()": "264",
				"PAGE_INFO_HASH_OFFSET()": "199",
				"PAGE_INFO_SIZE()": "243",
				"PAGE_INFO_SIZE_IN_BYTES()": "220",
				"PAGE_INFO_SIZE_OFFSET()": "265",
				"getBootloaderConfig()": "infinite",
				"hasRegisteredFact()": "1054",
				"identify()": "infinite",
				"isValid(bytes32)": "1250",
				"verifyProofAndRegister(uint256[],uint256[],uint256[],uint256,uint256[])": "infinite"
			},
			"internal": {
				"registerPublicMemoryMainPage(uint256[] calldata,uint256,uint256[] calldata)": "infinite"
			}
		},
		"methodIdentifiers": {
			"PAGE_INFO_ADDRESS_OFFSET()": "e5b62b29",
			"PAGE_INFO_HASH_OFFSET()": "29e10520",
			"PAGE_INFO_SIZE()": "4c14a6f9",
			"PAGE_INFO_SIZE_IN_BYTES()": "b7a771f7",
			"PAGE_INFO_SIZE_OFFSET()": "5b4c41c2",
			"getBootloaderConfig()": "2f4da80e",
			"hasRegisteredFact()": "d6354e15",
			"identify()": "eeb72866",
			"isValid(bytes32)": "6a938567",
			"verifyProofAndRegister(uint256[],uint256[],uint256[],uint256,uint256[])": "8bc5d8a3"
		}
	},
	"abi": [
		{
			"inputs": [
				{
					"internalType": "address",
					"name": "bootloaderProgramPart1Contract",
					"type": "address"
				},
				{
					"internalType": "address",
					"name": "bootloaderProgramPart2Contract",
					"type": "address"
				},
				{
					"internalType": "address",
					"name": "memoryPageFactRegistry_",
					"type": "address"
				},
				{
					"internalType": "address[]",
					"name": "cairoVerifierContracts",
					"type": "address[]"
				},
				{
					"internalType": "uint256",
					"name": "hashedSupportedCairoVerifiers",
					"type": "uint256"
				},
				{
					"internalType": "uint256",
					"name": "simpleBootloaderProgramHash",
					"type": "uint256"
				}
			],
			"stateMutability": "nonpayable",
			"type": "constructor"
		},
		{
			"anonymous": false,
			"inputs": [
				{
					"indexed": false,
					"internalType": "bytes32",
					"name": "programOutputFact",
					"type": "bytes32"
				},
				{
					"indexed": false,
					"internalType": "bytes32[]",
					"name": "pagesHashes",
					"type": "bytes32[]"
				}
			],
			"name": "LogMemoryPagesHashes",
			"type": "event"
		},
		{
			"inputs": [],
			"name": "PAGE_INFO_ADDRESS_OFFSET",
			"outputs": [
				{
					"internalType": "uint256",
					"name": "",
					"type": "uint256"
				}
			],
			"stateMutability": "view",
			"type": "function"
		},
		{
			"inputs": [],
			"name": "PAGE_INFO_HASH_OFFSET",
			"outputs": [
				{
					"internalType": "uint256",
					"name": "",
					"type": "uint256"
				}
			],
			"stateMutability": "view",
			"type": "function"
		},
		{
			"inputs": [],
			"name": "PAGE_INFO_SIZE",
			"outputs": [
				{
					"internalType": "uint256",
					"name": "",
					"type": "uint256"
				}
			],
			"stateMutability": "view",
			"type": "function"
		},
		{
			"inputs": [],
			"name": "PAGE_INFO_SIZE_IN_BYTES",
			"outputs": [
				{
					"internalType": "uint256",
					"name": "",
					"type": "uint256"
				}
			],
			"stateMutability": "view",
			"type": "function"
		},
		{
			"inputs": [],
			"name": "PAGE_INFO_SIZE_OFFSET",
			"outputs": [
				{
					"internalType": "uint256",
					"name": "",
					"type": "uint256"
				}
			],
			"stateMutability": "view",
			"type": "function"
		},
		{
			"inputs": [],
			"name": "getBootloaderConfig",
			"outputs": [
				{
					"internalType": "uint256",
					"name": "",
					"type": "uint256"
				},
				{
					"internalType": "uint256",
					"name": "",
					"type": "uint256"
				}
			],
			"stateMutability": "view",
			"type": "function"
		},
		{
			"inputs": [],
			"name": "hasRegisteredFact",
			"outputs": [
				{
					"internalType": "bool",
					"name": "",
					"type": "bool"
				}
			],
			"stateMutability": "view",
			"type": "function"
		},
		{
			"inputs": [],
			"name": "identify",
			"outputs": [
				{
					"internalType": "string",
					"name": "",
					"type": "string"
				}
			],
			"stateMutability": "pure",
			"type": "function"
		},
		{
			"inputs": [
				{
					"internalType": "bytes32",
					"name": "fact",
					"type": "bytes32"
				}
			],
			"name": "isValid",
			"outputs": [
				{
					"internalType": "bool",
					"name": "",
					"type": "bool"
				}
			],
			"stateMutability": "view",
			"type": "function"
		},
		{
			"inputs": [
				{
					"internalType": "uint256[]",
					"name": "proofParams",
					"type": "uint256[]"
				},
				{
					"internalType": "uint256[]",
					"name": "proof",
					"type": "uint256[]"
				},
				{
					"internalType": "uint256[]",
					"name": "cairoAuxInput",
					"type": "uint256[]"
				},
				{
					"internalType": "uint256",
					"name": "cairoVerifierId",
					"type": "uint256"
				},
				{
					"internalType": "uint256[]",
					"name": "publicMemoryData",
					"type": "uint256[]"
				}
			],
			"name": "verifyProofAndRegister",
			"outputs": [],
			"stateMutability": "nonpayable",
			"type": "function"
		}
	]
}