{
	"data": {
		"bytecode": {
			"linkReferences": {},
			"object": "60c06040523060805234801562000014575f80fd5b5060405162002c8038038062002c8083398101604081905262000037916200016f565b6001600160a01b03811660a0526200004e620000bb565b50600180546001600160a01b03199081167388db8a45622716071d822c6a3cec5fe06eff1c091790915560028054821673757c47a259fc8d3d4fdb53db53972c1b207976c117905560038054909116737fe523743a8f002e9d64a1ccafcdfcfa16feb6b31790556200019e565b7ff0c57e16840df040f15088dc2f81fe391c3923bec73e23a9662efc9c229c6a00805468010000000000000000900460ff16156200010c5760405163f92ee8a960e01b815260040160405180910390fd5b80546001600160401b03908116146200016c5780546001600160401b0319166001600160401b0390811782556040519081527fc7f505b2f371ae2175ee4913f4499e1f2633a7b5936321eed1cdaeb6115181d29060200160405180910390a15b50565b5f6020828403121562000180575f80fd5b81516001600160a01b038116811462000197575f80fd5b9392505050565b60805160a051612a81620001ff5f395f81816103a5015281816109ca01528181610a4e015281816110c101528181611261015281816113a701528181611a420152611d5901525f8181611b8a01528181611bb30152611cf70152612a815ff3fe60806040526004361061013e575f3560e01c806352d1902d116100b3578063bc197c811161006d578063bc197c81146103e8578063c399ec8814610416578063c465ec421461042a578063c4d66de814610492578063d087d288146104b1578063f23a6e61146104c5575f80fd5b806352d1902d146102e45780638da5cb5b146102f85780639ec26ef21461032e578063ad3cb1cc1461035a578063b0d691fe14610397578063b61d27f6146103c9575f80fd5b80633a871cdd116101045780633a871cdd1461024057806347e1da2a1461025f5780634a58db191461027e5780634d44560d146102865780634f1ef286146102a55780634f889199146102b8575f80fd5b806223de291461014957806301ffc9a71461016f57806302d06d05146101a3578063150b7a02146101d05780632ed3f24e14610214575f80fd5b3661014557005b5f80fd5b348015610154575f80fd5b5061016d6101633660046120b7565b5050505050505050565b005b34801561017a575f80fd5b5061018e610189366004612160565b6104f1565b60405190151581526020015b60405180910390f35b3480156101ae575f80fd5b506101c26101bd366004612223565b610542565b60405190815260200161019a565b3480156101db575f80fd5b506101fb6101ea36600461225c565b630a85bd0160e11b95945050505050565b6040516001600160e01b0319909116815260200161019a565b34801561021f575f80fd5b5061023361022e366004612223565b610590565b60405161019a9190612303565b34801561024b575f80fd5b506101c261025a366004612366565b610825565b34801561026a575f80fd5b5061016d6102793660046123f4565b61084a565b61016d6109c8565b348015610291575f80fd5b5061016d6102a0366004612486565b610a44565b61016d6102b33660046124b0565b610ac8565b3480156102c3575f80fd5b506102d76102d2366004612223565b610ae7565b60405161019a91906124fc565b3480156102ef575f80fd5b506101c2610cac565b348015610303575f80fd5b505f54610316906001600160a01b031681565b6040516001600160a01b03909116815260200161019a565b348015610339575f80fd5b5061034d610348366004612223565b610cc7565b60405161019a9190612555565b348015610365575f80fd5b5061038a604051806040016040528060058152602001640352e302e360dc1b81525081565b60405161019a919061262d565b3480156103a2575f80fd5b507f0000000000000000000000000000000000000000000000000000000000000000610316565b3480156103d4575f80fd5b5061016d6103e336600461263f565b611054565b3480156103f3575f80fd5b506101fb610402366004612696565b63bc197c8160e01b98975050505050505050565b348015610421575f80fd5b506101c26110a2565b348015610435575f80fd5b5061046861044436600461272b565b604080518082019091525f6020820190815282825260108201929092525190519091565b604080516fffffffffffffffffffffffffffffffff1993841681529290911660208301520161019a565b34801561049d575f80fd5b5061016d6104ac366004612742565b611130565b3480156104bc575f80fd5b506101c261123b565b3480156104d0575f80fd5b506101fb6104df36600461275d565b63f23a6e6160e01b9695505050505050565b5f6001600160e01b03198216630a85bd0160e11b148061052157506001600160e01b03198216630271189760e51b145b8061053c57506001600160e01b031982166301ffc9a760e01b145b92915050565b5f80805b835181101561058957838181518110610561576105616127c1565b016020015160f81c610575836101006127e9565b61057f9190612800565b9150600101610546565b5092915050565b6105bf6040518060a0016040528060608152602001606081526020015f81526020015f81526020015f81525090565b5f6105cf6101bd845f6020611290565b90505f6105e16101bd85602080611290565b90505f8263ffffffff166001600160401b0381111561060257610602612187565b60405190808252806020026020018201604052801561062b578160200160208202803683370190505b5090505f8263ffffffff166001600160401b0381111561064d5761064d612187565b604051908082528060200260200182016040528015610676578160200160208202803683370190505b5090505f5b8463ffffffff168110156106d2576106ad6101bd8861069b8460206127e9565b6106a6906040612800565b6020611290565b8382815181106106bf576106bf6127c1565b602090810291909101015260010161067b565b505f5b8363ffffffff168110156107405761071b6101bd886106f5886020612813565b63ffffffff166107068560206127e9565b610711906040612800565b6106a69190612800565b82828151811061072d5761072d6127c1565b60209081029190910101526001016106d5565b505f6107816101bd88610754876020612813565b61075f896020612813565b610769919061283b565b61077490604061283b565b63ffffffff166020611290565b90505f6107c16101bd89610796886020612813565b6107a18a6020612813565b6107ab919061283b565b6107b690604061283b565b61077490602061283b565b90505f6107f66101bd8a6107d6896020612813565b6107e18b6020612813565b6107eb919061283b565b61076990604061283b565b6040805160a0810182529687526020870195909552938501929092526060840152506080820152949350505050565b5f61082e61139c565b6108388484611416565b9050610843826119ee565b9392505050565b610852611a37565b8481148015610868575082158061086857508281145b6108af5760405162461bcd60e51b815260206004820152601360248201527277726f6e67206172726179206c656e6774687360681b60448201526064015b60405180910390fd5b5f839003610957575f5b85811015610951576109498787838181106108d6576108d66127c1565b90506020020160208101906108eb9190612742565b5f8585858181106108fe576108fe6127c1565b90506020028101906109109190612858565b8080601f0160208091040260200160405190810160405280939291908181526020018383808284375f92019190915250611ac392505050565b6001016108b9565b506109c0565b5f5b858110156109be576109b6878783818110610976576109766127c1565b905060200201602081019061098b9190612742565b86868481811061099d5761099d6127c1565b905060200201358585858181106108fe576108fe6127c1565b600101610959565b505b505050505050565b7f000000000000000000000000000000000000000000000000000000000000000060405163b760faf960e01b81523060048201526001600160a01b03919091169063b760faf99034906024015f604051808303818588803b158015610a2b575f80fd5b505af1158015610a3d573d5f803e3d5ffd5b5050505050565b610a4c611b2f565b7f000000000000000000000000000000000000000000000000000000000000000060405163040b850f60e31b81526001600160a01b03848116600483015260248201849052919091169063205c2878906044015f604051808303815f87803b158015610ab6575f80fd5b505af11580156109c0573d5f803e3d5ffd5b610ad0611b7f565b610ad982611c23565b610ae38282611c2b565b5050565b610b10604051806080016040528060608152602001606081526020015f81526020015f81525090565b5f610b206101bd845f6020611290565b90505f610b326101bd85602080611290565b90505f8263ffffffff166001600160401b03811115610b5357610b53612187565b604051908082528060200260200182016040528015610b7c578160200160208202803683370190505b5090505f8263ffffffff166001600160401b03811115610b9e57610b9e612187565b604051908082528060200260200182016040528015610bc7578160200160208202803683370190505b5090505f5b8463ffffffff16811015610c1157610bec6101bd8861069b8460206127e9565b838281518110610bfe57610bfe6127c1565b6020908102919091010152600101610bcc565b505f5b8363ffffffff16811015610c5957610c346101bd886106f5886020612813565b828281518110610c4657610c466127c1565b6020908102919091010152600101610c14565b505f610c6d6101bd88610754876020612813565b90505f610c826101bd89610796886020612813565b60408051608081018252958652602086019490945292840191909152506060820152949350505050565b5f610cb5611cec565b505f80516020612a2c83398151915290565b610cf86040518060a00160405280606081526020016060815260200160608152602001606081526020015f81525090565b5f610d086101bd845f6020611290565b90505f610d1a6101bd85602080611290565b90505f610d2d6101bd8660406020611290565b90505f610d406101bd8760606020611290565b90505f808563ffffffff166001600160401b03811115610d6257610d62612187565b604051908082528060200260200182016040528015610d8b578160200160208202803683370190505b5090505f8563ffffffff166001600160401b03811115610dad57610dad612187565b604051908082528060200260200182016040528015610dd6578160200160208202803683370190505b5090505f8563ffffffff166001600160401b03811115610df857610df8612187565b604051908082528060200260200182016040528015610e21578160200160208202803683370190505b5090505f8563ffffffff166001600160401b03811115610e4357610e43612187565b604051908082528060200260200182016040528015610e6c578160200160208202803683370190505b5090505f5b8963ffffffff16811015610ec157610e9c6101bd8d610e918460206127e9565b6106a6906080612800565b858281518110610eae57610eae6127c1565b6020908102919091010152600101610e71565b50610ecd896020612813565b610ed890608061283b565b94505f5b8863ffffffff16811015610f2857610f036101bd8d63ffffffff89166107118560206127e9565b848281518110610f1557610f156127c1565b6020908102919091010152600101610edc565b50610f34886020612813565b610f3e908661283b565b94505f5b8763ffffffff16811015610f8e57610f696101bd8d63ffffffff89166107118560206127e9565b838281518110610f7b57610f7b6127c1565b6020908102919091010152600101610f42565b50610f9a876020612813565b610fa4908661283b565b94505f5b8663ffffffff16811015610ff457610fcf6101bd8d63ffffffff89166107118560206127e9565b828281518110610fe157610fe16127c1565b6020908102919091010152600101610fa8565b50611000866020612813565b61100a908661283b565b94505f6110226101bd8d8863ffffffff166020611290565b6040805160a0810182529687526020870195909552938501929092526060840152506080820152979650505050505050565b61105c611a37565b61109c848484848080601f0160208091040260200160405190810160405280939291908181526020018383808284375f92019190915250611ac392505050565b50505050565b6040516370a0823160e01b81523060048201525f906001600160a01b037f000000000000000000000000000000000000000000000000000000000000000016906370a08231906024015b602060405180830381865afa158015611107573d5f803e3d5ffd5b505050506040513d601f19601f8201168201806040525081019061112b919061289a565b905090565b7ff0c57e16840df040f15088dc2f81fe391c3923bec73e23a9662efc9c229c6a008054600160401b810460ff1615906001600160401b03165f811580156111745750825b90505f826001600160401b0316600114801561118f5750303b155b90508115801561119d575080155b156111bb5760405163f92ee8a960e01b815260040160405180910390fd5b845467ffffffffffffffff1916600117855583156111e557845460ff60401b1916600160401b1785555b6111ee86611d35565b83156109c057845460ff60401b19168555604051600181527fc7f505b2f371ae2175ee4913f4499e1f2633a7b5936321eed1cdaeb6115181d29060200160405180910390a1505050505050565b604051631aab3f0d60e11b81523060048201525f60248201819052906001600160a01b037f000000000000000000000000000000000000000000000000000000000000000016906335567e1a906044016110ec565b825160609061129f8385612800565b11156112ed5760405162461bcd60e51b815260206004820152601860248201527f496e76616c696420736c69636520706172616d6574657273000000000000000060448201526064016108a6565b5f826001600160401b0381111561130657611306612187565b6040519080825280601f01601f191660200182016040528015611330576020820181803683370190505b5090505f5b8381101561139357856113488287612800565b81518110611358576113586127c1565b602001015160f81c60f81b828281518110611375576113756127c1565b60200101906001600160f81b03191690815f1a905350600101611335565b50949350505050565b336001600160a01b037f000000000000000000000000000000000000000000000000000000000000000016146114145760405162461bcd60e51b815260206004820152601c60248201527f6163636f756e743a206e6f742066726f6d20456e747279506f696e740000000060448201526064016108a6565b565b5f806114256020850185612742565b60208501356114376040870187612858565b611445610120890189612858565b60405160200161145a969594939291906128b1565b6040516020818303038152906040528051906020012090505f600a856020013561148491906128f8565b90506114ad604051806040016040528060058152602001641d1e1b925960da1b81525082611da3565b8015806114ba5750806001145b806114c55750806002145b15611596575f6115156114dc610140880188612858565b8080601f0160208091040260200160405190810160405280939291908181526020018383808284375f92019190915250610ae792505050565b8051602082015160408084015160608501519151631ff18bd360e11b815294955073e23195d7359297be8d89f37a06240d63e527b62394633fe317a694611563949093909291600401612917565b5f604051808303815f87803b15801561157a575f80fd5b505af115801561158c573d5f803e3d5ffd5b50505050506119b2565b80600314806115a55750806004145b806115b05750806005145b806115bb5750806006145b806115c65750806007145b806115d15750806008145b156116fd576115fd6040518060400160405280600681526020016568657265203160d01b815250611de8565b5f61164861160f610140880188612858565b8080601f0160208091040260200160405190810160405280939291908181526020018383808284375f9201919091525061059092505050565b80516020820151604080840151606085015160808601519251631d0b4d4560e31b815295965073a906cb4c5ed10292f8701cfb57f1ed3a652e35b69563e85a6a289561169c9590949093929160040161294f565b5f604051808303815f87803b1580156116b3575f80fd5b505af11580156116c5573d5f803e3d5ffd5b505050506116f76040518060400160405280600d81526020016c12195c9948199a5b9a5cda1959609a1b815250611de8565b506119b2565b806009036119b25761172e604051806040016040528060088152602001675374617274696e6760c01b815250611de8565b5f611779611740610140880188612858565b8080601f0160208091040260200160405190810160405280939291908181526020018383808284375f92019190915250610cc792505050565b604080516003808252608082019092529192505f91906020820160608036833750505f805483519394506001600160a01b0316928492506117bc576117bc6127c1565b6020026020010181815250505f806117f286604080518082019091525f6020820190815282825260108201929092525190519091565b84519193509150608083901c9084906001908110611812576118126127c1565b6020026020010181815250508060801c6fffffffffffffffffffffffffffffffff1683600281518110611847576118476127c1565b602002602001018181525050611893835f81518110611868576118686127c1565b602002602001015185606001515f81518110611886576118866127c1565b6020026020010151611e2b565b6118c8836001815181106118a9576118a96127c1565b60200260200101518560600151600181518110611886576118866127c1565b6118fd836002815181106118de576118de6127c1565b60200260200101518560600151600281518110611886576118866127c1565b83516020850151604080870151608088015160608901519251638bc5d8a360e01b81527305525ad1f2238b328b94534a3ada88ee7f19215595638bc5d8a39561195195919490939092909190600401612991565b5f604051808303815f87803b158015611968575f80fd5b505af115801561197a573d5f803e3d5ffd5b505050506119ad6040518060400160405280600e81526020016d5374617274696e6720313233343560901b815250611de8565b505050505b6119e16040518060400160405280600e81526020016d12195c994818dbdb5c1b195d195960921b815250611de8565b505f949350505050565b50565b80156119eb576040515f9033905f1990849084818181858888f193505050503d805f8114610a3d576040519150601f19603f3d011682016040523d82523d5f602084013e610a3d565b336001600160a01b037f0000000000000000000000000000000000000000000000000000000000000000161480611a7757505f546001600160a01b031633145b6114145760405162461bcd60e51b815260206004820181905260248201527f6163636f756e743a206e6f74204f776e6572206f7220456e747279506f696e7460448201526064016108a6565b5f80846001600160a01b03168484604051611ade91906129ef565b5f6040518083038185875af1925050503d805f8114611b18576040519150601f19603f3d011682016040523d82523d5f602084013e611b1d565b606091505b509150915081610a3d57805160208201fd5b5f546001600160a01b0316331480611b4657503330145b6114145760405162461bcd60e51b815260206004820152600a60248201526937b7363c9037bbb732b960b11b60448201526064016108a6565b306001600160a01b037f0000000000000000000000000000000000000000000000000000000000000000161480611c0557507f00000000000000000000000000000000000000000000000000000000000000006001600160a01b0316611bf95f80516020612a2c833981519152546001600160a01b031690565b6001600160a01b031614155b156114145760405163703e46dd60e11b815260040160405180910390fd5b6119eb611b2f565b816001600160a01b03166352d1902d6040518163ffffffff1660e01b8152600401602060405180830381865afa925050508015611c85575060408051601f3d908101601f19168201909252611c829181019061289a565b60015b611cad57604051634c9c8ce360e01b81526001600160a01b03831660048201526024016108a6565b5f80516020612a2c8339815191528114611cdd57604051632a87526960e21b8152600481018290526024016108a6565b611ce78383611e71565b505050565b306001600160a01b037f000000000000000000000000000000000000000000000000000000000000000016146114145760405163703e46dd60e11b815260040160405180910390fd5b5f80546001600160a01b0319166001600160a01b03838116918217835560405191927f0000000000000000000000000000000000000000000000000000000000000000909116917f47e55c76e7a6f1fd8996a1da8008c1ea29699cca35e7bcd057f2dec313b6e5de9190a350565b610ae38282604051602401611db9929190612a0a565b60408051601f198184030181529190526020810180516001600160e01b03166309710a9d60e41b179052611ec6565b6119eb81604051602401611dfc919061262d565b60408051601f198184030181529190526020810180516001600160e01b031663104c13eb60e21b179052611ec6565b6040516024810183905260448101829052610ae39060640160408051601f198184030181529190526020810180516001600160e01b031662d81ed360e71b179052611ec6565b611e7a82611ee6565b6040516001600160a01b038316907fbc7cd75a20ee27fd9adebab32041f755214dbc6bffa90cc0225b39da2e5c2d3b905f90a2805115611ebe57611ce78282611f49565b610ae3611fbb565b80516a636f6e736f6c652e6c6f67602083015f808483855afa5050505050565b806001600160a01b03163b5f03611f1b57604051634c9c8ce360e01b81526001600160a01b03821660048201526024016108a6565b5f80516020612a2c83398151915280546001600160a01b0319166001600160a01b0392909216919091179055565b60605f80846001600160a01b031684604051611f6591906129ef565b5f60405180830381855af49150503d805f8114611f9d576040519150601f19603f3d011682016040523d82523d5f602084013e611fa2565b606091505b5091509150611fb2858383611fda565b95945050505050565b34156114145760405163b398979f60e01b815260040160405180910390fd5b606082611fef57611fea82612036565b610843565b815115801561200657506001600160a01b0384163b155b1561202f57604051639996b31560e01b81526001600160a01b03851660048201526024016108a6565b5080610843565b8051156120465780518082602001fd5b604051630a12f52160e11b815260040160405180910390fd5b6001600160a01b03811681146119eb575f80fd5b5f8083601f840112612083575f80fd5b5081356001600160401b03811115612099575f80fd5b6020830191508360208285010111156120b0575f80fd5b9250929050565b5f805f805f805f8060c0898b0312156120ce575f80fd5b88356120d98161205f565b975060208901356120e98161205f565b965060408901356120f98161205f565b95506060890135945060808901356001600160401b038082111561211b575f80fd5b6121278c838d01612073565b909650945060a08b013591508082111561213f575f80fd5b5061214c8b828c01612073565b999c989b5096995094979396929594505050565b5f60208284031215612170575f80fd5b81356001600160e01b031981168114610843575f80fd5b634e487b7160e01b5f52604160045260245ffd5b5f82601f8301126121aa575f80fd5b81356001600160401b03808211156121c4576121c4612187565b604051601f8301601f19908116603f011681019082821181831017156121ec576121ec612187565b81604052838152866020858801011115612204575f80fd5b836020870160208301375f602085830101528094505050505092915050565b5f60208284031215612233575f80fd5b81356001600160401b03811115612248575f80fd5b6122548482850161219b565b949350505050565b5f805f805f60808688031215612270575f80fd5b853561227b8161205f565b9450602086013561228b8161205f565b93506040860135925060608601356001600160401b038111156122ac575f80fd5b6122b888828901612073565b969995985093965092949392505050565b5f815180845260208085019450602084015f5b838110156122f8578151875295820195908201906001016122dc565b509495945050505050565b602081525f825160a0602084015261231e60c08401826122c9565b90506020840151601f1984830301604085015261233b82826122c9565b9150506040840151606084015260608401516080840152608084015160a08401528091505092915050565b5f805f60608486031215612378575f80fd5b83356001600160401b0381111561238d575f80fd5b8401610160818703121561239f575f80fd5b95602085013595506040909401359392505050565b5f8083601f8401126123c4575f80fd5b5081356001600160401b038111156123da575f80fd5b6020830191508360208260051b85010111156120b0575f80fd5b5f805f805f8060608789031215612409575f80fd5b86356001600160401b038082111561241f575f80fd5b61242b8a838b016123b4565b90985096506020890135915080821115612443575f80fd5b61244f8a838b016123b4565b90965094506040890135915080821115612467575f80fd5b5061247489828a016123b4565b979a9699509497509295939492505050565b5f8060408385031215612497575f80fd5b82356124a28161205f565b946020939093013593505050565b5f80604083850312156124c1575f80fd5b82356124cc8161205f565b915060208301356001600160401b038111156124e6575f80fd5b6124f28582860161219b565b9150509250929050565b602081525f82516080602084015261251760a08401826122c9565b90506020840151601f1984830301604085015261253482826122c9565b91505060408401516060840152606084015160808401528091505092915050565b602081525f825160a0602084015261257060c08401826122c9565b90506020840151601f198085840301604086015261258e83836122c9565b925060408601519150808584030160608601526125ab83836122c9565b92506060860151915080858403016080860152506125c982826122c9565b915050608084015160a08401528091505092915050565b5f5b838110156125fa5781810151838201526020016125e2565b50505f910152565b5f81518084526126198160208601602086016125e0565b601f01601f19169290920160200192915050565b602081525f6108436020830184612602565b5f805f8060608587031215612652575f80fd5b843561265d8161205f565b93506020850135925060408501356001600160401b0381111561267e575f80fd5b61268a87828801612073565b95989497509550505050565b5f805f805f805f8060a0898b0312156126ad575f80fd5b88356126b88161205f565b975060208901356126c88161205f565b965060408901356001600160401b03808211156126e3575f80fd5b6126ef8c838d016123b4565b909850965060608b0135915080821115612707575f80fd5b6127138c838d016123b4565b909650945060808b013591508082111561213f575f80fd5b5f6020828403121561273b575f80fd5b5035919050565b5f60208284031215612752575f80fd5b81356108438161205f565b5f805f805f8060a08789031215612772575f80fd5b863561277d8161205f565b9550602087013561278d8161205f565b9450604087013593506060870135925060808701356001600160401b038111156127b5575f80fd5b61247489828a01612073565b634e487b7160e01b5f52603260045260245ffd5b634e487b7160e01b5f52601160045260245ffd5b808202811582820484141761053c5761053c6127d5565b8082018082111561053c5761053c6127d5565b63ffffffff818116838216028082169190828114612833576128336127d5565b505092915050565b63ffffffff818116838216019080821115610589576105896127d5565b5f808335601e1984360301811261286d575f80fd5b8301803591506001600160401b03821115612886575f80fd5b6020019150368190038213156120b0575f80fd5b5f602082840312156128aa575f80fd5b5051919050565b6bffffffffffffffffffffffff198760601b168152856014820152838560348301375f848201603481015f815284868237505f930160340192835250909695505050505050565b5f8261291257634e487b7160e01b5f52601260045260245ffd5b500690565b608081525f61292960808301876122c9565b828103602084015261293b81876122c9565b604084019590955250506060015292915050565b60a081525f61296160a08301886122c9565b828103602084015261297381886122c9565b60408401969096525050606081019290925260809091015292915050565b60a081525f6129a360a08301886122c9565b82810360208401526129b581886122c9565b905082810360408401526129c981876122c9565b905084606084015282810360808401526129e381856122c9565b98975050505050505050565b5f8251612a008184602087016125e0565b9190910192915050565b604081525f612a1c6040830185612602565b9050826020830152939250505056fe360894a13ba1a3210667c828492db98dca3e2076cc3735a920a3ca505d382bbca26469706673582212207c86ebef87d1fafca96d29fb2a71048ff22867feba0df743cbc14213e20dbd1564736f6c63430008160033",
			"opcodes": "PUSH1 0xC0 PUSH1 0x40 MSTORE ADDRESS PUSH1 0x80 MSTORE CALLVALUE DUP1 ISZERO PUSH3 0x14 JUMPI PUSH0 DUP1 REVERT JUMPDEST POP PUSH1 0x40 MLOAD PUSH3 0x2C80 CODESIZE SUB DUP1 PUSH3 0x2C80 DUP4 CODECOPY DUP2 ADD PUSH1 0x40 DUP2 SWAP1 MSTORE PUSH3 0x37 SWAP2 PUSH3 0x16F JUMP JUMPDEST PUSH1 0x1 PUSH1 0x1 PUSH1 0xA0 SHL SUB DUP2 AND PUSH1 0xA0 MSTORE PUSH3 0x4E PUSH3 0xBB JUMP JUMPDEST POP PUSH1 0x1 DUP1 SLOAD PUSH1 0x1 PUSH1 0x1 PUSH1 0xA0 SHL SUB NOT SWAP1 DUP2 AND PUSH20 0x88DB8A45622716071D822C6A3CEC5FE06EFF1C09 OR SWAP1 SWAP2 SSTORE PUSH1 0x2 DUP1 SLOAD DUP3 AND PUSH20 0x757C47A259FC8D3D4FDB53DB53972C1B207976C1 OR SWAP1 SSTORE PUSH1 0x3 DUP1 SLOAD SWAP1 SWAP2 AND PUSH20 0x7FE523743A8F002E9D64A1CCAFCDFCFA16FEB6B3 OR SWAP1 SSTORE PUSH3 0x19E JUMP JUMPDEST PUSH32 0xF0C57E16840DF040F15088DC2F81FE391C3923BEC73E23A9662EFC9C229C6A00 DUP1 SLOAD PUSH9 0x10000000000000000 SWAP1 DIV PUSH1 0xFF AND ISZERO PUSH3 0x10C JUMPI PUSH1 0x40 MLOAD PUSH4 0xF92EE8A9 PUSH1 0xE0 SHL DUP2 MSTORE PUSH1 0x4 ADD PUSH1 0x40 MLOAD DUP1 SWAP2 SUB SWAP1 REVERT JUMPDEST DUP1 SLOAD PUSH1 0x1 PUSH1 0x1 PUSH1 0x40 SHL SUB SWAP1 DUP2 AND EQ PUSH3 0x16C JUMPI DUP1 SLOAD PUSH1 0x1 PUSH1 0x1 PUSH1 0x40 SHL SUB NOT AND PUSH1 0x1 PUSH1 0x1 PUSH1 0x40 SHL SUB SWAP1 DUP2 OR DUP3 SSTORE PUSH1 0x40 MLOAD SWAP1 DUP2 MSTORE PUSH32 0xC7F505B2F371AE2175EE4913F4499E1F2633A7B5936321EED1CDAEB6115181D2 SWAP1 PUSH1 0x20 ADD PUSH1 0x40 MLOAD DUP1 SWAP2 SUB SWAP1 LOG1 JUMPDEST POP JUMP JUMPDEST PUSH0 PUSH1 0x20 DUP3 DUP5 SUB SLT ISZERO PUSH3 0x180 JUMPI PUSH0 DUP1 REVERT JUMPDEST DUP2 MLOAD PUSH1 0x1 PUSH1 0x1 PUSH1 0xA0 SHL SUB DUP2 AND DUP2 EQ PUSH3 0x197 JUMPI PUSH0 DUP1 REVERT JUMPDEST SWAP4 SWAP3 POP POP POP JUMP JUMPDEST PUSH1 0x80 MLOAD PUSH1 0xA0 MLOAD PUSH2 0x2A81 PUSH3 0x1FF PUSH0 CODECOPY PUSH0 DUP2 DUP2 PUSH2 0x3A5 ADD MSTORE DUP2 DUP2 PUSH2 0x9CA ADD MSTORE DUP2 DUP2 PUSH2 0xA4E ADD MSTORE DUP2 DUP2 PUSH2 0x10C1 ADD MSTORE DUP2 DUP2 PUSH2 0x1261 ADD MSTORE DUP2 DUP2 PUSH2 0x13A7 ADD MSTORE DUP2 DUP2 PUSH2 0x1A42 ADD MSTORE PUSH2 0x1D59 ADD MSTORE PUSH0 DUP2 DUP2 PUSH2 0x1B8A ADD MSTORE DUP2 DUP2 PUSH2 0x1BB3 ADD MSTORE PUSH2 0x1CF7 ADD MSTORE PUSH2 0x2A81 PUSH0 RETURN INVALID PUSH1 0x80 PUSH1 0x40 MSTORE PUSH1 0x4 CALLDATASIZE LT PUSH2 0x13E JUMPI PUSH0 CALLDATALOAD PUSH1 0xE0 SHR DUP1 PUSH4 0x52D1902D GT PUSH2 0xB3 JUMPI DUP1 PUSH4 0xBC197C81 GT PUSH2 0x6D JUMPI DUP1 PUSH4 0xBC197C81 EQ PUSH2 0x3E8 JUMPI DUP1 PUSH4 0xC399EC88 EQ PUSH2 0x416 JUMPI DUP1 PUSH4 0xC465EC42 EQ PUSH2 0x42A JUMPI DUP1 PUSH4 0xC4D66DE8 EQ PUSH2 0x492 JUMPI DUP1 PUSH4 0xD087D288 EQ PUSH2 0x4B1 JUMPI DUP1 PUSH4 0xF23A6E61 EQ PUSH2 0x4C5 JUMPI PUSH0 DUP1 REVERT JUMPDEST DUP1 PUSH4 0x52D1902D EQ PUSH2 0x2E4 JUMPI DUP1 PUSH4 0x8DA5CB5B EQ PUSH2 0x2F8 JUMPI DUP1 PUSH4 0x9EC26EF2 EQ PUSH2 0x32E JUMPI DUP1 PUSH4 0xAD3CB1CC EQ PUSH2 0x35A JUMPI DUP1 PUSH4 0xB0D691FE EQ PUSH2 0x397 JUMPI DUP1 PUSH4 0xB61D27F6 EQ PUSH2 0x3C9 JUMPI PUSH0 DUP1 REVERT JUMPDEST DUP1 PUSH4 0x3A871CDD GT PUSH2 0x104 JUMPI DUP1 PUSH4 0x3A871CDD EQ PUSH2 0x240 JUMPI DUP1 PUSH4 0x47E1DA2A EQ PUSH2 0x25F JUMPI DUP1 PUSH4 0x4A58DB19 EQ PUSH2 0x27E JUMPI DUP1 PUSH4 0x4D44560D EQ PUSH2 0x286 JUMPI DUP1 PUSH4 0x4F1EF286 EQ PUSH2 0x2A5 JUMPI DUP1 PUSH4 0x4F889199 EQ PUSH2 0x2B8 JUMPI PUSH0 DUP1 REVERT JUMPDEST DUP1 PUSH3 0x23DE29 EQ PUSH2 0x149 JUMPI DUP1 PUSH4 0x1FFC9A7 EQ PUSH2 0x16F JUMPI DUP1 PUSH4 0x2D06D05 EQ PUSH2 0x1A3 JUMPI DUP1 PUSH4 0x150B7A02 EQ PUSH2 0x1D0 JUMPI DUP1 PUSH4 0x2ED3F24E EQ PUSH2 0x214 JUMPI PUSH0 DUP1 REVERT JUMPDEST CALLDATASIZE PUSH2 0x145 JUMPI STOP JUMPDEST PUSH0 DUP1 REVERT JUMPDEST CALLVALUE DUP1 ISZERO PUSH2 0x154 JUMPI PUSH0 DUP1 REVERT JUMPDEST POP PUSH2 0x16D PUSH2 0x163 CALLDATASIZE PUSH1 0x4 PUSH2 0x20B7 JUMP JUMPDEST POP POP POP POP POP POP POP POP JUMP JUMPDEST STOP JUMPDEST CALLVALUE DUP1 ISZERO PUSH2 0x17A JUMPI PUSH0 DUP1 REVERT JUMPDEST POP PUSH2 0x18E PUSH2 0x189 CALLDATASIZE PUSH1 0x4 PUSH2 0x2160 JUMP JUMPDEST PUSH2 0x4F1 JUMP JUMPDEST PUSH1 0x40 MLOAD SWAP1 ISZERO ISZERO DUP2 MSTORE PUSH1 0x20 ADD JUMPDEST PUSH1 0x40 MLOAD DUP1 SWAP2 SUB SWAP1 RETURN JUMPDEST CALLVALUE DUP1 ISZERO PUSH2 0x1AE JUMPI PUSH0 DUP1 REVERT JUMPDEST POP PUSH2 0x1C2 PUSH2 0x1BD CALLDATASIZE PUSH1 0x4 PUSH2 0x2223 JUMP JUMPDEST PUSH2 0x542 JUMP JUMPDEST PUSH1 0x40 MLOAD SWAP1 DUP2 MSTORE PUSH1 0x20 ADD PUSH2 0x19A JUMP JUMPDEST CALLVALUE DUP1 ISZERO PUSH2 0x1DB JUMPI PUSH0 DUP1 REVERT JUMPDEST POP PUSH2 0x1FB PUSH2 0x1EA CALLDATASIZE PUSH1 0x4 PUSH2 0x225C JUMP JUMPDEST PUSH4 0xA85BD01 PUSH1 0xE1 SHL SWAP6 SWAP5 POP POP POP POP POP JUMP JUMPDEST PUSH1 0x40 MLOAD PUSH1 0x1 PUSH1 0x1 PUSH1 0xE0 SHL SUB NOT SWAP1 SWAP2 AND DUP2 MSTORE PUSH1 0x20 ADD PUSH2 0x19A JUMP JUMPDEST CALLVALUE DUP1 ISZERO PUSH2 0x21F JUMPI PUSH0 DUP1 REVERT JUMPDEST POP PUSH2 0x233 PUSH2 0x22E CALLDATASIZE PUSH1 0x4 PUSH2 0x2223 JUMP JUMPDEST PUSH2 0x590 JUMP JUMPDEST PUSH1 0x40 MLOAD PUSH2 0x19A SWAP2 SWAP1 PUSH2 0x2303 JUMP JUMPDEST CALLVALUE DUP1 ISZERO PUSH2 0x24B JUMPI PUSH0 DUP1 REVERT JUMPDEST POP PUSH2 0x1C2 PUSH2 0x25A CALLDATASIZE PUSH1 0x4 PUSH2 0x2366 JUMP JUMPDEST PUSH2 0x825 JUMP JUMPDEST CALLVALUE DUP1 ISZERO PUSH2 0x26A JUMPI PUSH0 DUP1 REVERT JUMPDEST POP PUSH2 0x16D PUSH2 0x279 CALLDATASIZE PUSH1 0x4 PUSH2 0x23F4 JUMP JUMPDEST PUSH2 0x84A JUMP JUMPDEST PUSH2 0x16D PUSH2 0x9C8 JUMP JUMPDEST CALLVALUE DUP1 ISZERO PUSH2 0x291 JUMPI PUSH0 DUP1 REVERT JUMPDEST POP PUSH2 0x16D PUSH2 0x2A0 CALLDATASIZE PUSH1 0x4 PUSH2 0x2486 JUMP JUMPDEST PUSH2 0xA44 JUMP JUMPDEST PUSH2 0x16D PUSH2 0x2B3 CALLDATASIZE PUSH1 0x4 PUSH2 0x24B0 JUMP JUMPDEST PUSH2 0xAC8 JUMP JUMPDEST CALLVALUE DUP1 ISZERO PUSH2 0x2C3 JUMPI PUSH0 DUP1 REVERT JUMPDEST POP PUSH2 0x2D7 PUSH2 0x2D2 CALLDATASIZE PUSH1 0x4 PUSH2 0x2223 JUMP JUMPDEST PUSH2 0xAE7 JUMP JUMPDEST PUSH1 0x40 MLOAD PUSH2 0x19A SWAP2 SWAP1 PUSH2 0x24FC JUMP JUMPDEST CALLVALUE DUP1 ISZERO PUSH2 0x2EF JUMPI PUSH0 DUP1 REVERT JUMPDEST POP PUSH2 0x1C2 PUSH2 0xCAC JUMP JUMPDEST CALLVALUE DUP1 ISZERO PUSH2 0x303 JUMPI PUSH0 DUP1 REVERT JUMPDEST POP PUSH0 SLOAD PUSH2 0x316 SWAP1 PUSH1 0x1 PUSH1 0x1 PUSH1 0xA0 SHL SUB AND DUP2 JUMP JUMPDEST PUSH1 0x40 MLOAD PUSH1 0x1 PUSH1 0x1 PUSH1 0xA0 SHL SUB SWAP1 SWAP2 AND DUP2 MSTORE PUSH1 0x20 ADD PUSH2 0x19A JUMP JUMPDEST CALLVALUE DUP1 ISZERO PUSH2 0x339 JUMPI PUSH0 DUP1 REVERT JUMPDEST POP PUSH2 0x34D PUSH2 0x348 CALLDATASIZE PUSH1 0x4 PUSH2 0x2223 JUMP JUMPDEST PUSH2 0xCC7 JUMP JUMPDEST PUSH1 0x40 MLOAD PUSH2 0x19A SWAP2 SWAP1 PUSH2 0x2555 JUMP JUMPDEST CALLVALUE DUP1 ISZERO PUSH2 0x365 JUMPI PUSH0 DUP1 REVERT JUMPDEST POP PUSH2 0x38A PUSH1 0x40 MLOAD DUP1 PUSH1 0x40 ADD PUSH1 0x40 MSTORE DUP1 PUSH1 0x5 DUP2 MSTORE PUSH1 0x20 ADD PUSH5 0x352E302E3 PUSH1 0xDC SHL DUP2 MSTORE POP DUP2 JUMP JUMPDEST PUSH1 0x40 MLOAD PUSH2 0x19A SWAP2 SWAP1 PUSH2 0x262D JUMP JUMPDEST CALLVALUE DUP1 ISZERO PUSH2 0x3A2 JUMPI PUSH0 DUP1 REVERT JUMPDEST POP PUSH32 0x0 PUSH2 0x316 JUMP JUMPDEST CALLVALUE DUP1 ISZERO PUSH2 0x3D4 JUMPI PUSH0 DUP1 REVERT JUMPDEST POP PUSH2 0x16D PUSH2 0x3E3 CALLDATASIZE PUSH1 0x4 PUSH2 0x263F JUMP JUMPDEST PUSH2 0x1054 JUMP JUMPDEST CALLVALUE DUP1 ISZERO PUSH2 0x3F3 JUMPI PUSH0 DUP1 REVERT JUMPDEST POP PUSH2 0x1FB PUSH2 0x402 CALLDATASIZE PUSH1 0x4 PUSH2 0x2696 JUMP JUMPDEST PUSH4 0xBC197C81 PUSH1 0xE0 SHL SWAP9 SWAP8 POP POP POP POP POP POP POP POP JUMP JUMPDEST CALLVALUE DUP1 ISZERO PUSH2 0x421 JUMPI PUSH0 DUP1 REVERT JUMPDEST POP PUSH2 0x1C2 PUSH2 0x10A2 JUMP JUMPDEST CALLVALUE DUP1 ISZERO PUSH2 0x435 JUMPI PUSH0 DUP1 REVERT JUMPDEST POP PUSH2 0x468 PUSH2 0x444 CALLDATASIZE PUSH1 0x4 PUSH2 0x272B JUMP JUMPDEST PUSH1 0x40 DUP1 MLOAD DUP1 DUP3 ADD SWAP1 SWAP2 MSTORE PUSH0 PUSH1 0x20 DUP3 ADD SWAP1 DUP2 MSTORE DUP3 DUP3 MSTORE PUSH1 0x10 DUP3 ADD SWAP3 SWAP1 SWAP3 MSTORE MLOAD SWAP1 MLOAD SWAP1 SWAP2 JUMP JUMPDEST PUSH1 0x40 DUP1 MLOAD PUSH16 0xFFFFFFFFFFFFFFFFFFFFFFFFFFFFFFFF NOT SWAP4 DUP5 AND DUP2 MSTORE SWAP3 SWAP1 SWAP2 AND PUSH1 0x20 DUP4 ADD MSTORE ADD PUSH2 0x19A JUMP JUMPDEST CALLVALUE DUP1 ISZERO PUSH2 0x49D JUMPI PUSH0 DUP1 REVERT JUMPDEST POP PUSH2 0x16D PUSH2 0x4AC CALLDATASIZE PUSH1 0x4 PUSH2 0x2742 JUMP JUMPDEST PUSH2 0x1130 JUMP JUMPDEST CALLVALUE DUP1 ISZERO PUSH2 0x4BC JUMPI PUSH0 DUP1 REVERT JUMPDEST POP PUSH2 0x1C2 PUSH2 0x123B JUMP JUMPDEST CALLVALUE DUP1 ISZERO PUSH2 0x4D0 JUMPI PUSH0 DUP1 REVERT JUMPDEST POP PUSH2 0x1FB PUSH2 0x4DF CALLDATASIZE PUSH1 0x4 PUSH2 0x275D JUMP JUMPDEST PUSH4 0xF23A6E61 PUSH1 0xE0 SHL SWAP7 SWAP6 POP POP POP POP POP POP JUMP JUMPDEST PUSH0 PUSH1 0x1 PUSH1 0x1 PUSH1 0xE0 SHL SUB NOT DUP3 AND PUSH4 0xA85BD01 PUSH1 0xE1 SHL EQ DUP1 PUSH2 0x521 JUMPI POP PUSH1 0x1 PUSH1 0x1 PUSH1 0xE0 SHL SUB NOT DUP3 AND PUSH4 0x2711897 PUSH1 0xE5 SHL EQ JUMPDEST DUP1 PUSH2 0x53C JUMPI POP PUSH1 0x1 PUSH1 0x1 PUSH1 0xE0 SHL SUB NOT DUP3 AND PUSH4 0x1FFC9A7 PUSH1 0xE0 SHL EQ JUMPDEST SWAP3 SWAP2 POP POP JUMP JUMPDEST PUSH0 DUP1 DUP1 JUMPDEST DUP4 MLOAD DUP2 LT ISZERO PUSH2 0x589 JUMPI DUP4 DUP2 DUP2 MLOAD DUP2 LT PUSH2 0x561 JUMPI PUSH2 0x561 PUSH2 0x27C1 JUMP JUMPDEST ADD PUSH1 0x20 ADD MLOAD PUSH1 0xF8 SHR PUSH2 0x575 DUP4 PUSH2 0x100 PUSH2 0x27E9 JUMP JUMPDEST PUSH2 0x57F SWAP2 SWAP1 PUSH2 0x2800 JUMP JUMPDEST SWAP2 POP PUSH1 0x1 ADD PUSH2 0x546 JUMP JUMPDEST POP SWAP3 SWAP2 POP POP JUMP JUMPDEST PUSH2 0x5BF PUSH1 0x40 MLOAD DUP1 PUSH1 0xA0 ADD PUSH1 0x40 MSTORE DUP1 PUSH1 0x60 DUP2 MSTORE PUSH1 0x20 ADD PUSH1 0x60 DUP2 MSTORE PUSH1 0x20 ADD PUSH0 DUP2 MSTORE PUSH1 0x20 ADD PUSH0 DUP2 MSTORE PUSH1 0x20 ADD PUSH0 DUP2 MSTORE POP SWAP1 JUMP JUMPDEST PUSH0 PUSH2 0x5CF PUSH2 0x1BD DUP5 PUSH0 PUSH1 0x20 PUSH2 0x1290 JUMP JUMPDEST SWAP1 POP PUSH0 PUSH2 0x5E1 PUSH2 0x1BD DUP6 PUSH1 0x20 DUP1 PUSH2 0x1290 JUMP JUMPDEST SWAP1 POP PUSH0 DUP3 PUSH4 0xFFFFFFFF AND PUSH1 0x1 PUSH1 0x1 PUSH1 0x40 SHL SUB DUP2 GT ISZERO PUSH2 0x602 JUMPI PUSH2 0x602 PUSH2 0x2187 JUMP JUMPDEST PUSH1 0x40 MLOAD SWAP1 DUP1 DUP3 MSTORE DUP1 PUSH1 0x20 MUL PUSH1 0x20 ADD DUP3 ADD PUSH1 0x40 MSTORE DUP1 ISZERO PUSH2 0x62B JUMPI DUP2 PUSH1 0x20 ADD PUSH1 0x20 DUP3 MUL DUP1 CALLDATASIZE DUP4 CALLDATACOPY ADD SWAP1 POP JUMPDEST POP SWAP1 POP PUSH0 DUP3 PUSH4 0xFFFFFFFF AND PUSH1 0x1 PUSH1 0x1 PUSH1 0x40 SHL SUB DUP2 GT ISZERO PUSH2 0x64D JUMPI PUSH2 0x64D PUSH2 0x2187 JUMP JUMPDEST PUSH1 0x40 MLOAD SWAP1 DUP1 DUP3 MSTORE DUP1 PUSH1 0x20 MUL PUSH1 0x20 ADD DUP3 ADD PUSH1 0x40 MSTORE DUP1 ISZERO PUSH2 0x676 JUMPI DUP2 PUSH1 0x20 ADD PUSH1 0x20 DUP3 MUL DUP1 CALLDATASIZE DUP4 CALLDATACOPY ADD SWAP1 POP JUMPDEST POP SWAP1 POP PUSH0 JUMPDEST DUP5 PUSH4 0xFFFFFFFF AND DUP2 LT ISZERO PUSH2 0x6D2 JUMPI PUSH2 0x6AD PUSH2 0x1BD DUP9 PUSH2 0x69B DUP5 PUSH1 0x20 PUSH2 0x27E9 JUMP JUMPDEST PUSH2 0x6A6 SWAP1 PUSH1 0x40 PUSH2 0x2800 JUMP JUMPDEST PUSH1 0x20 PUSH2 0x1290 JUMP JUMPDEST DUP4 DUP3 DUP2 MLOAD DUP2 LT PUSH2 0x6BF JUMPI PUSH2 0x6BF PUSH2 0x27C1 JUMP JUMPDEST PUSH1 0x20 SWAP1 DUP2 MUL SWAP2 SWAP1 SWAP2 ADD ADD MSTORE PUSH1 0x1 ADD PUSH2 0x67B JUMP JUMPDEST POP PUSH0 JUMPDEST DUP4 PUSH4 0xFFFFFFFF AND DUP2 LT ISZERO PUSH2 0x740 JUMPI PUSH2 0x71B PUSH2 0x1BD DUP9 PUSH2 0x6F5 DUP9 PUSH1 0x20 PUSH2 0x2813 JUMP JUMPDEST PUSH4 0xFFFFFFFF AND PUSH2 0x706 DUP6 PUSH1 0x20 PUSH2 0x27E9 JUMP JUMPDEST PUSH2 0x711 SWAP1 PUSH1 0x40 PUSH2 0x2800 JUMP JUMPDEST PUSH2 0x6A6 SWAP2 SWAP1 PUSH2 0x2800 JUMP JUMPDEST DUP3 DUP3 DUP2 MLOAD DUP2 LT PUSH2 0x72D JUMPI PUSH2 0x72D PUSH2 0x27C1 JUMP JUMPDEST PUSH1 0x20 SWAP1 DUP2 MUL SWAP2 SWAP1 SWAP2 ADD ADD MSTORE PUSH1 0x1 ADD PUSH2 0x6D5 JUMP JUMPDEST POP PUSH0 PUSH2 0x781 PUSH2 0x1BD DUP9 PUSH2 0x754 DUP8 PUSH1 0x20 PUSH2 0x2813 JUMP JUMPDEST PUSH2 0x75F DUP10 PUSH1 0x20 PUSH2 0x2813 JUMP JUMPDEST PUSH2 0x769 SWAP2 SWAP1 PUSH2 0x283B JUMP JUMPDEST PUSH2 0x774 SWAP1 PUSH1 0x40 PUSH2 0x283B JUMP JUMPDEST PUSH4 0xFFFFFFFF AND PUSH1 0x20 PUSH2 0x1290 JUMP JUMPDEST SWAP1 POP PUSH0 PUSH2 0x7C1 PUSH2 0x1BD DUP10 PUSH2 0x796 DUP9 PUSH1 0x20 PUSH2 0x2813 JUMP JUMPDEST PUSH2 0x7A1 DUP11 PUSH1 0x20 PUSH2 0x2813 JUMP JUMPDEST PUSH2 0x7AB SWAP2 SWAP1 PUSH2 0x283B JUMP JUMPDEST PUSH2 0x7B6 SWAP1 PUSH1 0x40 PUSH2 0x283B JUMP JUMPDEST PUSH2 0x774 SWAP1 PUSH1 0x20 PUSH2 0x283B JUMP JUMPDEST SWAP1 POP PUSH0 PUSH2 0x7F6 PUSH2 0x1BD DUP11 PUSH2 0x7D6 DUP10 PUSH1 0x20 PUSH2 0x2813 JUMP JUMPDEST PUSH2 0x7E1 DUP12 PUSH1 0x20 PUSH2 0x2813 JUMP JUMPDEST PUSH2 0x7EB SWAP2 SWAP1 PUSH2 0x283B JUMP JUMPDEST PUSH2 0x769 SWAP1 PUSH1 0x40 PUSH2 0x283B JUMP JUMPDEST PUSH1 0x40 DUP1 MLOAD PUSH1 0xA0 DUP2 ADD DUP3 MSTORE SWAP7 DUP8 MSTORE PUSH1 0x20 DUP8 ADD SWAP6 SWAP1 SWAP6 MSTORE SWAP4 DUP6 ADD SWAP3 SWAP1 SWAP3 MSTORE PUSH1 0x60 DUP5 ADD MSTORE POP PUSH1 0x80 DUP3 ADD MSTORE SWAP5 SWAP4 POP POP POP POP JUMP JUMPDEST PUSH0 PUSH2 0x82E PUSH2 0x139C JUMP JUMPDEST PUSH2 0x838 DUP5 DUP5 PUSH2 0x1416 JUMP JUMPDEST SWAP1 POP PUSH2 0x843 DUP3 PUSH2 0x19EE JUMP JUMPDEST SWAP4 SWAP3 POP POP POP JUMP JUMPDEST PUSH2 0x852 PUSH2 0x1A37 JUMP JUMPDEST DUP5 DUP2 EQ DUP1 ISZERO PUSH2 0x868 JUMPI POP DUP3 ISZERO DUP1 PUSH2 0x868 JUMPI POP DUP3 DUP2 EQ JUMPDEST PUSH2 0x8AF JUMPI PUSH1 0x40 MLOAD PUSH3 0x461BCD PUSH1 0xE5 SHL DUP2 MSTORE PUSH1 0x20 PUSH1 0x4 DUP3 ADD MSTORE PUSH1 0x13 PUSH1 0x24 DUP3 ADD MSTORE PUSH19 0x77726F6E67206172726179206C656E67746873 PUSH1 0x68 SHL PUSH1 0x44 DUP3 ADD MSTORE PUSH1 0x64 ADD JUMPDEST PUSH1 0x40 MLOAD DUP1 SWAP2 SUB SWAP1 REVERT JUMPDEST PUSH0 DUP4 SWAP1 SUB PUSH2 0x957 JUMPI PUSH0 JUMPDEST DUP6 DUP2 LT ISZERO PUSH2 0x951 JUMPI PUSH2 0x949 DUP8 DUP8 DUP4 DUP2 DUP2 LT PUSH2 0x8D6 JUMPI PUSH2 0x8D6 PUSH2 0x27C1 JUMP JUMPDEST SWAP1 POP PUSH1 0x20 MUL ADD PUSH1 0x20 DUP2 ADD SWAP1 PUSH2 0x8EB SWAP2 SWAP1 PUSH2 0x2742 JUMP JUMPDEST PUSH0 DUP6 DUP6 DUP6 DUP2 DUP2 LT PUSH2 0x8FE JUMPI PUSH2 0x8FE PUSH2 0x27C1 JUMP JUMPDEST SWAP1 POP PUSH1 0x20 MUL DUP2 ADD SWAP1 PUSH2 0x910 SWAP2 SWAP1 PUSH2 0x2858 JUMP JUMPDEST DUP1 DUP1 PUSH1 0x1F ADD PUSH1 0x20 DUP1 SWAP2 DIV MUL PUSH1 0x20 ADD PUSH1 0x40 MLOAD SWAP1 DUP2 ADD PUSH1 0x40 MSTORE DUP1 SWAP4 SWAP3 SWAP2 SWAP1 DUP2 DUP2 MSTORE PUSH1 0x20 ADD DUP4 DUP4 DUP1 DUP3 DUP5 CALLDATACOPY PUSH0 SWAP3 ADD SWAP2 SWAP1 SWAP2 MSTORE POP PUSH2 0x1AC3 SWAP3 POP POP POP JUMP JUMPDEST PUSH1 0x1 ADD PUSH2 0x8B9 JUMP JUMPDEST POP PUSH2 0x9C0 JUMP JUMPDEST PUSH0 JUMPDEST DUP6 DUP2 LT ISZERO PUSH2 0x9BE JUMPI PUSH2 0x9B6 DUP8 DUP8 DUP4 DUP2 DUP2 LT PUSH2 0x976 JUMPI PUSH2 0x976 PUSH2 0x27C1 JUMP JUMPDEST SWAP1 POP PUSH1 0x20 MUL ADD PUSH1 0x20 DUP2 ADD SWAP1 PUSH2 0x98B SWAP2 SWAP1 PUSH2 0x2742 JUMP JUMPDEST DUP7 DUP7 DUP5 DUP2 DUP2 LT PUSH2 0x99D JUMPI PUSH2 0x99D PUSH2 0x27C1 JUMP JUMPDEST SWAP1 POP PUSH1 0x20 MUL ADD CALLDATALOAD DUP6 DUP6 DUP6 DUP2 DUP2 LT PUSH2 0x8FE JUMPI PUSH2 0x8FE PUSH2 0x27C1 JUMP JUMPDEST PUSH1 0x1 ADD PUSH2 0x959 JUMP JUMPDEST POP JUMPDEST POP POP POP POP POP POP JUMP JUMPDEST PUSH32 0x0 PUSH1 0x40 MLOAD PUSH4 0xB760FAF9 PUSH1 0xE0 SHL DUP2 MSTORE ADDRESS PUSH1 0x4 DUP3 ADD MSTORE PUSH1 0x1 PUSH1 0x1 PUSH1 0xA0 SHL SUB SWAP2 SWAP1 SWAP2 AND SWAP1 PUSH4 0xB760FAF9 SWAP1 CALLVALUE SWAP1 PUSH1 0x24 ADD PUSH0 PUSH1 0x40 MLOAD DUP1 DUP4 SUB DUP2 DUP6 DUP9 DUP1 EXTCODESIZE ISZERO DUP1 ISZERO PUSH2 0xA2B JUMPI PUSH0 DUP1 REVERT JUMPDEST POP GAS CALL ISZERO DUP1 ISZERO PUSH2 0xA3D JUMPI RETURNDATASIZE PUSH0 DUP1 RETURNDATACOPY RETURNDATASIZE PUSH0 REVERT JUMPDEST POP POP POP POP POP JUMP JUMPDEST PUSH2 0xA4C PUSH2 0x1B2F JUMP JUMPDEST PUSH32 0x0 PUSH1 0x40 MLOAD PUSH4 0x40B850F PUSH1 0xE3 SHL DUP2 MSTORE PUSH1 0x1 PUSH1 0x1 PUSH1 0xA0 SHL SUB DUP5 DUP2 AND PUSH1 0x4 DUP4 ADD MSTORE PUSH1 0x24 DUP3 ADD DUP5 SWAP1 MSTORE SWAP2 SWAP1 SWAP2 AND SWAP1 PUSH4 0x205C2878 SWAP1 PUSH1 0x44 ADD PUSH0 PUSH1 0x40 MLOAD DUP1 DUP4 SUB DUP2 PUSH0 DUP8 DUP1 EXTCODESIZE ISZERO DUP1 ISZERO PUSH2 0xAB6 JUMPI PUSH0 DUP1 REVERT JUMPDEST POP GAS CALL ISZERO DUP1 ISZERO PUSH2 0x9C0 JUMPI RETURNDATASIZE PUSH0 DUP1 RETURNDATACOPY RETURNDATASIZE PUSH0 REVERT JUMPDEST PUSH2 0xAD0 PUSH2 0x1B7F JUMP JUMPDEST PUSH2 0xAD9 DUP3 PUSH2 0x1C23 JUMP JUMPDEST PUSH2 0xAE3 DUP3 DUP3 PUSH2 0x1C2B JUMP JUMPDEST POP POP JUMP JUMPDEST PUSH2 0xB10 PUSH1 0x40 MLOAD DUP1 PUSH1 0x80 ADD PUSH1 0x40 MSTORE DUP1 PUSH1 0x60 DUP2 MSTORE PUSH1 0x20 ADD PUSH1 0x60 DUP2 MSTORE PUSH1 0x20 ADD PUSH0 DUP2 MSTORE PUSH1 0x20 ADD PUSH0 DUP2 MSTORE POP SWAP1 JUMP JUMPDEST PUSH0 PUSH2 0xB20 PUSH2 0x1BD DUP5 PUSH0 PUSH1 0x20 PUSH2 0x1290 JUMP JUMPDEST SWAP1 POP PUSH0 PUSH2 0xB32 PUSH2 0x1BD DUP6 PUSH1 0x20 DUP1 PUSH2 0x1290 JUMP JUMPDEST SWAP1 POP PUSH0 DUP3 PUSH4 0xFFFFFFFF AND PUSH1 0x1 PUSH1 0x1 PUSH1 0x40 SHL SUB DUP2 GT ISZERO PUSH2 0xB53 JUMPI PUSH2 0xB53 PUSH2 0x2187 JUMP JUMPDEST PUSH1 0x40 MLOAD SWAP1 DUP1 DUP3 MSTORE DUP1 PUSH1 0x20 MUL PUSH1 0x20 ADD DUP3 ADD PUSH1 0x40 MSTORE DUP1 ISZERO PUSH2 0xB7C JUMPI DUP2 PUSH1 0x20 ADD PUSH1 0x20 DUP3 MUL DUP1 CALLDATASIZE DUP4 CALLDATACOPY ADD SWAP1 POP JUMPDEST POP SWAP1 POP PUSH0 DUP3 PUSH4 0xFFFFFFFF AND PUSH1 0x1 PUSH1 0x1 PUSH1 0x40 SHL SUB DUP2 GT ISZERO PUSH2 0xB9E JUMPI PUSH2 0xB9E PUSH2 0x2187 JUMP JUMPDEST PUSH1 0x40 MLOAD SWAP1 DUP1 DUP3 MSTORE DUP1 PUSH1 0x20 MUL PUSH1 0x20 ADD DUP3 ADD PUSH1 0x40 MSTORE DUP1 ISZERO PUSH2 0xBC7 JUMPI DUP2 PUSH1 0x20 ADD PUSH1 0x20 DUP3 MUL DUP1 CALLDATASIZE DUP4 CALLDATACOPY ADD SWAP1 POP JUMPDEST POP SWAP1 POP PUSH0 JUMPDEST DUP5 PUSH4 0xFFFFFFFF AND DUP2 LT ISZERO PUSH2 0xC11 JUMPI PUSH2 0xBEC PUSH2 0x1BD DUP9 PUSH2 0x69B DUP5 PUSH1 0x20 PUSH2 0x27E9 JUMP JUMPDEST DUP4 DUP3 DUP2 MLOAD DUP2 LT PUSH2 0xBFE JUMPI PUSH2 0xBFE PUSH2 0x27C1 JUMP JUMPDEST PUSH1 0x20 SWAP1 DUP2 MUL SWAP2 SWAP1 SWAP2 ADD ADD MSTORE PUSH1 0x1 ADD PUSH2 0xBCC JUMP JUMPDEST POP PUSH0 JUMPDEST DUP4 PUSH4 0xFFFFFFFF AND DUP2 LT ISZERO PUSH2 0xC59 JUMPI PUSH2 0xC34 PUSH2 0x1BD DUP9 PUSH2 0x6F5 DUP9 PUSH1 0x20 PUSH2 0x2813 JUMP JUMPDEST DUP3 DUP3 DUP2 MLOAD DUP2 LT PUSH2 0xC46 JUMPI PUSH2 0xC46 PUSH2 0x27C1 JUMP JUMPDEST PUSH1 0x20 SWAP1 DUP2 MUL SWAP2 SWAP1 SWAP2 ADD ADD MSTORE PUSH1 0x1 ADD PUSH2 0xC14 JUMP JUMPDEST POP PUSH0 PUSH2 0xC6D PUSH2 0x1BD DUP9 PUSH2 0x754 DUP8 PUSH1 0x20 PUSH2 0x2813 JUMP JUMPDEST SWAP1 POP PUSH0 PUSH2 0xC82 PUSH2 0x1BD DUP10 PUSH2 0x796 DUP9 PUSH1 0x20 PUSH2 0x2813 JUMP JUMPDEST PUSH1 0x40 DUP1 MLOAD PUSH1 0x80 DUP2 ADD DUP3 MSTORE SWAP6 DUP7 MSTORE PUSH1 0x20 DUP7 ADD SWAP5 SWAP1 SWAP5 MSTORE SWAP3 DUP5 ADD SWAP2 SWAP1 SWAP2 MSTORE POP PUSH1 0x60 DUP3 ADD MSTORE SWAP5 SWAP4 POP POP POP POP JUMP JUMPDEST PUSH0 PUSH2 0xCB5 PUSH2 0x1CEC JUMP JUMPDEST POP PUSH0 DUP1 MLOAD PUSH1 0x20 PUSH2 0x2A2C DUP4 CODECOPY DUP2 MLOAD SWAP2 MSTORE SWAP1 JUMP JUMPDEST PUSH2 0xCF8 PUSH1 0x40 MLOAD DUP1 PUSH1 0xA0 ADD PUSH1 0x40 MSTORE DUP1 PUSH1 0x60 DUP2 MSTORE PUSH1 0x20 ADD PUSH1 0x60 DUP2 MSTORE PUSH1 0x20 ADD PUSH1 0x60 DUP2 MSTORE PUSH1 0x20 ADD PUSH1 0x60 DUP2 MSTORE PUSH1 0x20 ADD PUSH0 DUP2 MSTORE POP SWAP1 JUMP JUMPDEST PUSH0 PUSH2 0xD08 PUSH2 0x1BD DUP5 PUSH0 PUSH1 0x20 PUSH2 0x1290 JUMP JUMPDEST SWAP1 POP PUSH0 PUSH2 0xD1A PUSH2 0x1BD DUP6 PUSH1 0x20 DUP1 PUSH2 0x1290 JUMP JUMPDEST SWAP1 POP PUSH0 PUSH2 0xD2D PUSH2 0x1BD DUP7 PUSH1 0x40 PUSH1 0x20 PUSH2 0x1290 JUMP JUMPDEST SWAP1 POP PUSH0 PUSH2 0xD40 PUSH2 0x1BD DUP8 PUSH1 0x60 PUSH1 0x20 PUSH2 0x1290 JUMP JUMPDEST SWAP1 POP PUSH0 DUP1 DUP6 PUSH4 0xFFFFFFFF AND PUSH1 0x1 PUSH1 0x1 PUSH1 0x40 SHL SUB DUP2 GT ISZERO PUSH2 0xD62 JUMPI PUSH2 0xD62 PUSH2 0x2187 JUMP JUMPDEST PUSH1 0x40 MLOAD SWAP1 DUP1 DUP3 MSTORE DUP1 PUSH1 0x20 MUL PUSH1 0x20 ADD DUP3 ADD PUSH1 0x40 MSTORE DUP1 ISZERO PUSH2 0xD8B JUMPI DUP2 PUSH1 0x20 ADD PUSH1 0x20 DUP3 MUL DUP1 CALLDATASIZE DUP4 CALLDATACOPY ADD SWAP1 POP JUMPDEST POP SWAP1 POP PUSH0 DUP6 PUSH4 0xFFFFFFFF AND PUSH1 0x1 PUSH1 0x1 PUSH1 0x40 SHL SUB DUP2 GT ISZERO PUSH2 0xDAD JUMPI PUSH2 0xDAD PUSH2 0x2187 JUMP JUMPDEST PUSH1 0x40 MLOAD SWAP1 DUP1 DUP3 MSTORE DUP1 PUSH1 0x20 MUL PUSH1 0x20 ADD DUP3 ADD PUSH1 0x40 MSTORE DUP1 ISZERO PUSH2 0xDD6 JUMPI DUP2 PUSH1 0x20 ADD PUSH1 0x20 DUP3 MUL DUP1 CALLDATASIZE DUP4 CALLDATACOPY ADD SWAP1 POP JUMPDEST POP SWAP1 POP PUSH0 DUP6 PUSH4 0xFFFFFFFF AND PUSH1 0x1 PUSH1 0x1 PUSH1 0x40 SHL SUB DUP2 GT ISZERO PUSH2 0xDF8 JUMPI PUSH2 0xDF8 PUSH2 0x2187 JUMP JUMPDEST PUSH1 0x40 MLOAD SWAP1 DUP1 DUP3 MSTORE DUP1 PUSH1 0x20 MUL PUSH1 0x20 ADD DUP3 ADD PUSH1 0x40 MSTORE DUP1 ISZERO PUSH2 0xE21 JUMPI DUP2 PUSH1 0x20 ADD PUSH1 0x20 DUP3 MUL DUP1 CALLDATASIZE DUP4 CALLDATACOPY ADD SWAP1 POP JUMPDEST POP SWAP1 POP PUSH0 DUP6 PUSH4 0xFFFFFFFF AND PUSH1 0x1 PUSH1 0x1 PUSH1 0x40 SHL SUB DUP2 GT ISZERO PUSH2 0xE43 JUMPI PUSH2 0xE43 PUSH2 0x2187 JUMP JUMPDEST PUSH1 0x40 MLOAD SWAP1 DUP1 DUP3 MSTORE DUP1 PUSH1 0x20 MUL PUSH1 0x20 ADD DUP3 ADD PUSH1 0x40 MSTORE DUP1 ISZERO PUSH2 0xE6C JUMPI DUP2 PUSH1 0x20 ADD PUSH1 0x20 DUP3 MUL DUP1 CALLDATASIZE DUP4 CALLDATACOPY ADD SWAP1 POP JUMPDEST POP SWAP1 POP PUSH0 JUMPDEST DUP10 PUSH4 0xFFFFFFFF AND DUP2 LT ISZERO PUSH2 0xEC1 JUMPI PUSH2 0xE9C PUSH2 0x1BD DUP14 PUSH2 0xE91 DUP5 PUSH1 0x20 PUSH2 0x27E9 JUMP JUMPDEST PUSH2 0x6A6 SWAP1 PUSH1 0x80 PUSH2 0x2800 JUMP JUMPDEST DUP6 DUP3 DUP2 MLOAD DUP2 LT PUSH2 0xEAE JUMPI PUSH2 0xEAE PUSH2 0x27C1 JUMP JUMPDEST PUSH1 0x20 SWAP1 DUP2 MUL SWAP2 SWAP1 SWAP2 ADD ADD MSTORE PUSH1 0x1 ADD PUSH2 0xE71 JUMP JUMPDEST POP PUSH2 0xECD DUP10 PUSH1 0x20 PUSH2 0x2813 JUMP JUMPDEST PUSH2 0xED8 SWAP1 PUSH1 0x80 PUSH2 0x283B JUMP JUMPDEST SWAP5 POP PUSH0 JUMPDEST DUP9 PUSH4 0xFFFFFFFF AND DUP2 LT ISZERO PUSH2 0xF28 JUMPI PUSH2 0xF03 PUSH2 0x1BD DUP14 PUSH4 0xFFFFFFFF DUP10 AND PUSH2 0x711 DUP6 PUSH1 0x20 PUSH2 0x27E9 JUMP JUMPDEST DUP5 DUP3 DUP2 MLOAD DUP2 LT PUSH2 0xF15 JUMPI PUSH2 0xF15 PUSH2 0x27C1 JUMP JUMPDEST PUSH1 0x20 SWAP1 DUP2 MUL SWAP2 SWAP1 SWAP2 ADD ADD MSTORE PUSH1 0x1 ADD PUSH2 0xEDC JUMP JUMPDEST POP PUSH2 0xF34 DUP9 PUSH1 0x20 PUSH2 0x2813 JUMP JUMPDEST PUSH2 0xF3E SWAP1 DUP7 PUSH2 0x283B JUMP JUMPDEST SWAP5 POP PUSH0 JUMPDEST DUP8 PUSH4 0xFFFFFFFF AND DUP2 LT ISZERO PUSH2 0xF8E JUMPI PUSH2 0xF69 PUSH2 0x1BD DUP14 PUSH4 0xFFFFFFFF DUP10 AND PUSH2 0x711 DUP6 PUSH1 0x20 PUSH2 0x27E9 JUMP JUMPDEST DUP4 DUP3 DUP2 MLOAD DUP2 LT PUSH2 0xF7B JUMPI PUSH2 0xF7B PUSH2 0x27C1 JUMP JUMPDEST PUSH1 0x20 SWAP1 DUP2 MUL SWAP2 SWAP1 SWAP2 ADD ADD MSTORE PUSH1 0x1 ADD PUSH2 0xF42 JUMP JUMPDEST POP PUSH2 0xF9A DUP8 PUSH1 0x20 PUSH2 0x2813 JUMP JUMPDEST PUSH2 0xFA4 SWAP1 DUP7 PUSH2 0x283B JUMP JUMPDEST SWAP5 POP PUSH0 JUMPDEST DUP7 PUSH4 0xFFFFFFFF AND DUP2 LT ISZERO PUSH2 0xFF4 JUMPI PUSH2 0xFCF PUSH2 0x1BD DUP14 PUSH4 0xFFFFFFFF DUP10 AND PUSH2 0x711 DUP6 PUSH1 0x20 PUSH2 0x27E9 JUMP JUMPDEST DUP3 DUP3 DUP2 MLOAD DUP2 LT PUSH2 0xFE1 JUMPI PUSH2 0xFE1 PUSH2 0x27C1 JUMP JUMPDEST PUSH1 0x20 SWAP1 DUP2 MUL SWAP2 SWAP1 SWAP2 ADD ADD MSTORE PUSH1 0x1 ADD PUSH2 0xFA8 JUMP JUMPDEST POP PUSH2 0x1000 DUP7 PUSH1 0x20 PUSH2 0x2813 JUMP JUMPDEST PUSH2 0x100A SWAP1 DUP7 PUSH2 0x283B JUMP JUMPDEST SWAP5 POP PUSH0 PUSH2 0x1022 PUSH2 0x1BD DUP14 DUP9 PUSH4 0xFFFFFFFF AND PUSH1 0x20 PUSH2 0x1290 JUMP JUMPDEST PUSH1 0x40 DUP1 MLOAD PUSH1 0xA0 DUP2 ADD DUP3 MSTORE SWAP7 DUP8 MSTORE PUSH1 0x20 DUP8 ADD SWAP6 SWAP1 SWAP6 MSTORE SWAP4 DUP6 ADD SWAP3 SWAP1 SWAP3 MSTORE PUSH1 0x60 DUP5 ADD MSTORE POP PUSH1 0x80 DUP3 ADD MSTORE SWAP8 SWAP7 POP POP POP POP POP POP POP JUMP JUMPDEST PUSH2 0x105C PUSH2 0x1A37 JUMP JUMPDEST PUSH2 0x109C DUP5 DUP5 DUP5 DUP5 DUP1 DUP1 PUSH1 0x1F ADD PUSH1 0x20 DUP1 SWAP2 DIV MUL PUSH1 0x20 ADD PUSH1 0x40 MLOAD SWAP1 DUP2 ADD PUSH1 0x40 MSTORE DUP1 SWAP4 SWAP3 SWAP2 SWAP1 DUP2 DUP2 MSTORE PUSH1 0x20 ADD DUP4 DUP4 DUP1 DUP3 DUP5 CALLDATACOPY PUSH0 SWAP3 ADD SWAP2 SWAP1 SWAP2 MSTORE POP PUSH2 0x1AC3 SWAP3 POP POP POP JUMP JUMPDEST POP POP POP POP JUMP JUMPDEST PUSH1 0x40 MLOAD PUSH4 0x70A08231 PUSH1 0xE0 SHL DUP2 MSTORE ADDRESS PUSH1 0x4 DUP3 ADD MSTORE PUSH0 SWAP1 PUSH1 0x1 PUSH1 0x1 PUSH1 0xA0 SHL SUB PUSH32 0x0 AND SWAP1 PUSH4 0x70A08231 SWAP1 PUSH1 0x24 ADD JUMPDEST PUSH1 0x20 PUSH1 0x40 MLOAD DUP1 DUP4 SUB DUP2 DUP7 GAS STATICCALL ISZERO DUP1 ISZERO PUSH2 0x1107 JUMPI RETURNDATASIZE PUSH0 DUP1 RETURNDATACOPY RETURNDATASIZE PUSH0 REVERT JUMPDEST POP POP POP POP PUSH1 0x40 MLOAD RETURNDATASIZE PUSH1 0x1F NOT PUSH1 0x1F DUP3 ADD AND DUP3 ADD DUP1 PUSH1 0x40 MSTORE POP DUP2 ADD SWAP1 PUSH2 0x112B SWAP2 SWAP1 PUSH2 0x289A JUMP JUMPDEST SWAP1 POP SWAP1 JUMP JUMPDEST PUSH32 0xF0C57E16840DF040F15088DC2F81FE391C3923BEC73E23A9662EFC9C229C6A00 DUP1 SLOAD PUSH1 0x1 PUSH1 0x40 SHL DUP2 DIV PUSH1 0xFF AND ISZERO SWAP1 PUSH1 0x1 PUSH1 0x1 PUSH1 0x40 SHL SUB AND PUSH0 DUP2 ISZERO DUP1 ISZERO PUSH2 0x1174 JUMPI POP DUP3 JUMPDEST SWAP1 POP PUSH0 DUP3 PUSH1 0x1 PUSH1 0x1 PUSH1 0x40 SHL SUB AND PUSH1 0x1 EQ DUP1 ISZERO PUSH2 0x118F JUMPI POP ADDRESS EXTCODESIZE ISZERO JUMPDEST SWAP1 POP DUP2 ISZERO DUP1 ISZERO PUSH2 0x119D JUMPI POP DUP1 ISZERO JUMPDEST ISZERO PUSH2 0x11BB JUMPI PUSH1 0x40 MLOAD PUSH4 0xF92EE8A9 PUSH1 0xE0 SHL DUP2 MSTORE PUSH1 0x4 ADD PUSH1 0x40 MLOAD DUP1 SWAP2 SUB SWAP1 REVERT JUMPDEST DUP5 SLOAD PUSH8 0xFFFFFFFFFFFFFFFF NOT AND PUSH1 0x1 OR DUP6 SSTORE DUP4 ISZERO PUSH2 0x11E5 JUMPI DUP5 SLOAD PUSH1 0xFF PUSH1 0x40 SHL NOT AND PUSH1 0x1 PUSH1 0x40 SHL OR DUP6 SSTORE JUMPDEST PUSH2 0x11EE DUP7 PUSH2 0x1D35 JUMP JUMPDEST DUP4 ISZERO PUSH2 0x9C0 JUMPI DUP5 SLOAD PUSH1 0xFF PUSH1 0x40 SHL NOT AND DUP6 SSTORE PUSH1 0x40 MLOAD PUSH1 0x1 DUP2 MSTORE PUSH32 0xC7F505B2F371AE2175EE4913F4499E1F2633A7B5936321EED1CDAEB6115181D2 SWAP1 PUSH1 0x20 ADD PUSH1 0x40 MLOAD DUP1 SWAP2 SUB SWAP1 LOG1 POP POP POP POP POP POP JUMP JUMPDEST PUSH1 0x40 MLOAD PUSH4 0x1AAB3F0D PUSH1 0xE1 SHL DUP2 MSTORE ADDRESS PUSH1 0x4 DUP3 ADD MSTORE PUSH0 PUSH1 0x24 DUP3 ADD DUP2 SWAP1 MSTORE SWAP1 PUSH1 0x1 PUSH1 0x1 PUSH1 0xA0 SHL SUB PUSH32 0x0 AND SWAP1 PUSH4 0x35567E1A SWAP1 PUSH1 0x44 ADD PUSH2 0x10EC JUMP JUMPDEST DUP3 MLOAD PUSH1 0x60 SWAP1 PUSH2 0x129F DUP4 DUP6 PUSH2 0x2800 JUMP JUMPDEST GT ISZERO PUSH2 0x12ED JUMPI PUSH1 0x40 MLOAD PUSH3 0x461BCD PUSH1 0xE5 SHL DUP2 MSTORE PUSH1 0x20 PUSH1 0x4 DUP3 ADD MSTORE PUSH1 0x18 PUSH1 0x24 DUP3 ADD MSTORE PUSH32 0x496E76616C696420736C69636520706172616D65746572730000000000000000 PUSH1 0x44 DUP3 ADD MSTORE PUSH1 0x64 ADD PUSH2 0x8A6 JUMP JUMPDEST PUSH0 DUP3 PUSH1 0x1 PUSH1 0x1 PUSH1 0x40 SHL SUB DUP2 GT ISZERO PUSH2 0x1306 JUMPI PUSH2 0x1306 PUSH2 0x2187 JUMP JUMPDEST PUSH1 0x40 MLOAD SWAP1 DUP1 DUP3 MSTORE DUP1 PUSH1 0x1F ADD PUSH1 0x1F NOT AND PUSH1 0x20 ADD DUP3 ADD PUSH1 0x40 MSTORE DUP1 ISZERO PUSH2 0x1330 JUMPI PUSH1 0x20 DUP3 ADD DUP2 DUP1 CALLDATASIZE DUP4 CALLDATACOPY ADD SWAP1 POP JUMPDEST POP SWAP1 POP PUSH0 JUMPDEST DUP4 DUP2 LT ISZERO PUSH2 0x1393 JUMPI DUP6 PUSH2 0x1348 DUP3 DUP8 PUSH2 0x2800 JUMP JUMPDEST DUP2 MLOAD DUP2 LT PUSH2 0x1358 JUMPI PUSH2 0x1358 PUSH2 0x27C1 JUMP JUMPDEST PUSH1 0x20 ADD ADD MLOAD PUSH1 0xF8 SHR PUSH1 0xF8 SHL DUP3 DUP3 DUP2 MLOAD DUP2 LT PUSH2 0x1375 JUMPI PUSH2 0x1375 PUSH2 0x27C1 JUMP JUMPDEST PUSH1 0x20 ADD ADD SWAP1 PUSH1 0x1 PUSH1 0x1 PUSH1 0xF8 SHL SUB NOT AND SWAP1 DUP2 PUSH0 BYTE SWAP1 MSTORE8 POP PUSH1 0x1 ADD PUSH2 0x1335 JUMP JUMPDEST POP SWAP5 SWAP4 POP POP POP POP JUMP JUMPDEST CALLER PUSH1 0x1 PUSH1 0x1 PUSH1 0xA0 SHL SUB PUSH32 0x0 AND EQ PUSH2 0x1414 JUMPI PUSH1 0x40 MLOAD PUSH3 0x461BCD PUSH1 0xE5 SHL DUP2 MSTORE PUSH1 0x20 PUSH1 0x4 DUP3 ADD MSTORE PUSH1 0x1C PUSH1 0x24 DUP3 ADD MSTORE PUSH32 0x6163636F756E743A206E6F742066726F6D20456E747279506F696E7400000000 PUSH1 0x44 DUP3 ADD MSTORE PUSH1 0x64 ADD PUSH2 0x8A6 JUMP JUMPDEST JUMP JUMPDEST PUSH0 DUP1 PUSH2 0x1425 PUSH1 0x20 DUP6 ADD DUP6 PUSH2 0x2742 JUMP JUMPDEST PUSH1 0x20 DUP6 ADD CALLDATALOAD PUSH2 0x1437 PUSH1 0x40 DUP8 ADD DUP8 PUSH2 0x2858 JUMP JUMPDEST PUSH2 0x1445 PUSH2 0x120 DUP10 ADD DUP10 PUSH2 0x2858 JUMP JUMPDEST PUSH1 0x40 MLOAD PUSH1 0x20 ADD PUSH2 0x145A SWAP7 SWAP6 SWAP5 SWAP4 SWAP3 SWAP2 SWAP1 PUSH2 0x28B1 JUMP JUMPDEST PUSH1 0x40 MLOAD PUSH1 0x20 DUP2 DUP4 SUB SUB DUP2 MSTORE SWAP1 PUSH1 0x40 MSTORE DUP1 MLOAD SWAP1 PUSH1 0x20 ADD KECCAK256 SWAP1 POP PUSH0 PUSH1 0xA DUP6 PUSH1 0x20 ADD CALLDATALOAD PUSH2 0x1484 SWAP2 SWAP1 PUSH2 0x28F8 JUMP JUMPDEST SWAP1 POP PUSH2 0x14AD PUSH1 0x40 MLOAD DUP1 PUSH1 0x40 ADD PUSH1 0x40 MSTORE DUP1 PUSH1 0x5 DUP2 MSTORE PUSH1 0x20 ADD PUSH5 0x1D1E1B9259 PUSH1 0xDA SHL DUP2 MSTORE POP DUP3 PUSH2 0x1DA3 JUMP JUMPDEST DUP1 ISZERO DUP1 PUSH2 0x14BA JUMPI POP DUP1 PUSH1 0x1 EQ JUMPDEST DUP1 PUSH2 0x14C5 JUMPI POP DUP1 PUSH1 0x2 EQ JUMPDEST ISZERO PUSH2 0x1596 JUMPI PUSH0 PUSH2 0x1515 PUSH2 0x14DC PUSH2 0x140 DUP9 ADD DUP9 PUSH2 0x2858 JUMP JUMPDEST DUP1 DUP1 PUSH1 0x1F ADD PUSH1 0x20 DUP1 SWAP2 DIV MUL PUSH1 0x20 ADD PUSH1 0x40 MLOAD SWAP1 DUP2 ADD PUSH1 0x40 MSTORE DUP1 SWAP4 SWAP3 SWAP2 SWAP1 DUP2 DUP2 MSTORE PUSH1 0x20 ADD DUP4 DUP4 DUP1 DUP3 DUP5 CALLDATACOPY PUSH0 SWAP3 ADD SWAP2 SWAP1 SWAP2 MSTORE POP PUSH2 0xAE7 SWAP3 POP POP POP JUMP JUMPDEST DUP1 MLOAD PUSH1 0x20 DUP3 ADD MLOAD PUSH1 0x40 DUP1 DUP5 ADD MLOAD PUSH1 0x60 DUP6 ADD MLOAD SWAP2 MLOAD PUSH4 0x1FF18BD3 PUSH1 0xE1 SHL DUP2 MSTORE SWAP5 SWAP6 POP PUSH20 0xE23195D7359297BE8D89F37A06240D63E527B623 SWAP5 PUSH4 0x3FE317A6 SWAP5 PUSH2 0x1563 SWAP5 SWAP1 SWAP4 SWAP1 SWAP3 SWAP2 PUSH1 0x4 ADD PUSH2 0x2917 JUMP JUMPDEST PUSH0 PUSH1 0x40 MLOAD DUP1 DUP4 SUB DUP2 PUSH0 DUP8 DUP1 EXTCODESIZE ISZERO DUP1 ISZERO PUSH2 0x157A JUMPI PUSH0 DUP1 REVERT JUMPDEST POP GAS CALL ISZERO DUP1 ISZERO PUSH2 0x158C JUMPI RETURNDATASIZE PUSH0 DUP1 RETURNDATACOPY RETURNDATASIZE PUSH0 REVERT JUMPDEST POP POP POP POP POP PUSH2 0x19B2 JUMP JUMPDEST DUP1 PUSH1 0x3 EQ DUP1 PUSH2 0x15A5 JUMPI POP DUP1 PUSH1 0x4 EQ JUMPDEST DUP1 PUSH2 0x15B0 JUMPI POP DUP1 PUSH1 0x5 EQ JUMPDEST DUP1 PUSH2 0x15BB JUMPI POP DUP1 PUSH1 0x6 EQ JUMPDEST DUP1 PUSH2 0x15C6 JUMPI POP DUP1 PUSH1 0x7 EQ JUMPDEST DUP1 PUSH2 0x15D1 JUMPI POP DUP1 PUSH1 0x8 EQ JUMPDEST ISZERO PUSH2 0x16FD JUMPI PUSH2 0x15FD PUSH1 0x40 MLOAD DUP1 PUSH1 0x40 ADD PUSH1 0x40 MSTORE DUP1 PUSH1 0x6 DUP2 MSTORE PUSH1 0x20 ADD PUSH6 0x686572652031 PUSH1 0xD0 SHL DUP2 MSTORE POP PUSH2 0x1DE8 JUMP JUMPDEST PUSH0 PUSH2 0x1648 PUSH2 0x160F PUSH2 0x140 DUP9 ADD DUP9 PUSH2 0x2858 JUMP JUMPDEST DUP1 DUP1 PUSH1 0x1F ADD PUSH1 0x20 DUP1 SWAP2 DIV MUL PUSH1 0x20 ADD PUSH1 0x40 MLOAD SWAP1 DUP2 ADD PUSH1 0x40 MSTORE DUP1 SWAP4 SWAP3 SWAP2 SWAP1 DUP2 DUP2 MSTORE PUSH1 0x20 ADD DUP4 DUP4 DUP1 DUP3 DUP5 CALLDATACOPY PUSH0 SWAP3 ADD SWAP2 SWAP1 SWAP2 MSTORE POP PUSH2 0x590 SWAP3 POP POP POP JUMP JUMPDEST DUP1 MLOAD PUSH1 0x20 DUP3 ADD MLOAD PUSH1 0x40 DUP1 DUP5 ADD MLOAD PUSH1 0x60 DUP6 ADD MLOAD PUSH1 0x80 DUP7 ADD MLOAD SWAP3 MLOAD PUSH4 0x1D0B4D45 PUSH1 0xE3 SHL DUP2 MSTORE SWAP6 SWAP7 POP PUSH20 0xA906CB4C5ED10292F8701CFB57F1ED3A652E35B6 SWAP6 PUSH4 0xE85A6A28 SWAP6 PUSH2 0x169C SWAP6 SWAP1 SWAP5 SWAP1 SWAP4 SWAP3 SWAP2 PUSH1 0x4 ADD PUSH2 0x294F JUMP JUMPDEST PUSH0 PUSH1 0x40 MLOAD DUP1 DUP4 SUB DUP2 PUSH0 DUP8 DUP1 EXTCODESIZE ISZERO DUP1 ISZERO PUSH2 0x16B3 JUMPI PUSH0 DUP1 REVERT JUMPDEST POP GAS CALL ISZERO DUP1 ISZERO PUSH2 0x16C5 JUMPI RETURNDATASIZE PUSH0 DUP1 RETURNDATACOPY RETURNDATASIZE PUSH0 REVERT JUMPDEST POP POP POP POP PUSH2 0x16F7 PUSH1 0x40 MLOAD DUP1 PUSH1 0x40 ADD PUSH1 0x40 MSTORE DUP1 PUSH1 0xD DUP2 MSTORE PUSH1 0x20 ADD PUSH13 0x12195C9948199A5B9A5CDA1959 PUSH1 0x9A SHL DUP2 MSTORE POP PUSH2 0x1DE8 JUMP JUMPDEST POP PUSH2 0x19B2 JUMP JUMPDEST DUP1 PUSH1 0x9 SUB PUSH2 0x19B2 JUMPI PUSH2 0x172E PUSH1 0x40 MLOAD DUP1 PUSH1 0x40 ADD PUSH1 0x40 MSTORE DUP1 PUSH1 0x8 DUP2 MSTORE PUSH1 0x20 ADD PUSH8 0x5374617274696E67 PUSH1 0xC0 SHL DUP2 MSTORE POP PUSH2 0x1DE8 JUMP JUMPDEST PUSH0 PUSH2 0x1779 PUSH2 0x1740 PUSH2 0x140 DUP9 ADD DUP9 PUSH2 0x2858 JUMP JUMPDEST DUP1 DUP1 PUSH1 0x1F ADD PUSH1 0x20 DUP1 SWAP2 DIV MUL PUSH1 0x20 ADD PUSH1 0x40 MLOAD SWAP1 DUP2 ADD PUSH1 0x40 MSTORE DUP1 SWAP4 SWAP3 SWAP2 SWAP1 DUP2 DUP2 MSTORE PUSH1 0x20 ADD DUP4 DUP4 DUP1 DUP3 DUP5 CALLDATACOPY PUSH0 SWAP3 ADD SWAP2 SWAP1 SWAP2 MSTORE POP PUSH2 0xCC7 SWAP3 POP POP POP JUMP JUMPDEST PUSH1 0x40 DUP1 MLOAD PUSH1 0x3 DUP1 DUP3 MSTORE PUSH1 0x80 DUP3 ADD SWAP1 SWAP3 MSTORE SWAP2 SWAP3 POP PUSH0 SWAP2 SWAP1 PUSH1 0x20 DUP3 ADD PUSH1 0x60 DUP1 CALLDATASIZE DUP4 CALLDATACOPY POP POP PUSH0 DUP1 SLOAD DUP4 MLOAD SWAP4 SWAP5 POP PUSH1 0x1 PUSH1 0x1 PUSH1 0xA0 SHL SUB AND SWAP3 DUP5 SWAP3 POP PUSH2 0x17BC JUMPI PUSH2 0x17BC PUSH2 0x27C1 JUMP JUMPDEST PUSH1 0x20 MUL PUSH1 0x20 ADD ADD DUP2 DUP2 MSTORE POP POP PUSH0 DUP1 PUSH2 0x17F2 DUP7 PUSH1 0x40 DUP1 MLOAD DUP1 DUP3 ADD SWAP1 SWAP2 MSTORE PUSH0 PUSH1 0x20 DUP3 ADD SWAP1 DUP2 MSTORE DUP3 DUP3 MSTORE PUSH1 0x10 DUP3 ADD SWAP3 SWAP1 SWAP3 MSTORE MLOAD SWAP1 MLOAD SWAP1 SWAP2 JUMP JUMPDEST DUP5 MLOAD SWAP2 SWAP4 POP SWAP2 POP PUSH1 0x80 DUP4 SWAP1 SHR SWAP1 DUP5 SWAP1 PUSH1 0x1 SWAP1 DUP2 LT PUSH2 0x1812 JUMPI PUSH2 0x1812 PUSH2 0x27C1 JUMP JUMPDEST PUSH1 0x20 MUL PUSH1 0x20 ADD ADD DUP2 DUP2 MSTORE POP POP DUP1 PUSH1 0x80 SHR PUSH16 0xFFFFFFFFFFFFFFFFFFFFFFFFFFFFFFFF AND DUP4 PUSH1 0x2 DUP2 MLOAD DUP2 LT PUSH2 0x1847 JUMPI PUSH2 0x1847 PUSH2 0x27C1 JUMP JUMPDEST PUSH1 0x20 MUL PUSH1 0x20 ADD ADD DUP2 DUP2 MSTORE POP POP PUSH2 0x1893 DUP4 PUSH0 DUP2 MLOAD DUP2 LT PUSH2 0x1868 JUMPI PUSH2 0x1868 PUSH2 0x27C1 JUMP JUMPDEST PUSH1 0x20 MUL PUSH1 0x20 ADD ADD MLOAD DUP6 PUSH1 0x60 ADD MLOAD PUSH0 DUP2 MLOAD DUP2 LT PUSH2 0x1886 JUMPI PUSH2 0x1886 PUSH2 0x27C1 JUMP JUMPDEST PUSH1 0x20 MUL PUSH1 0x20 ADD ADD MLOAD PUSH2 0x1E2B JUMP JUMPDEST PUSH2 0x18C8 DUP4 PUSH1 0x1 DUP2 MLOAD DUP2 LT PUSH2 0x18A9 JUMPI PUSH2 0x18A9 PUSH2 0x27C1 JUMP JUMPDEST PUSH1 0x20 MUL PUSH1 0x20 ADD ADD MLOAD DUP6 PUSH1 0x60 ADD MLOAD PUSH1 0x1 DUP2 MLOAD DUP2 LT PUSH2 0x1886 JUMPI PUSH2 0x1886 PUSH2 0x27C1 JUMP JUMPDEST PUSH2 0x18FD DUP4 PUSH1 0x2 DUP2 MLOAD DUP2 LT PUSH2 0x18DE JUMPI PUSH2 0x18DE PUSH2 0x27C1 JUMP JUMPDEST PUSH1 0x20 MUL PUSH1 0x20 ADD ADD MLOAD DUP6 PUSH1 0x60 ADD MLOAD PUSH1 0x2 DUP2 MLOAD DUP2 LT PUSH2 0x1886 JUMPI PUSH2 0x1886 PUSH2 0x27C1 JUMP JUMPDEST DUP4 MLOAD PUSH1 0x20 DUP6 ADD MLOAD PUSH1 0x40 DUP1 DUP8 ADD MLOAD PUSH1 0x80 DUP9 ADD MLOAD PUSH1 0x60 DUP10 ADD MLOAD SWAP3 MLOAD PUSH4 0x8BC5D8A3 PUSH1 0xE0 SHL DUP2 MSTORE PUSH20 0x5525AD1F2238B328B94534A3ADA88EE7F192155 SWAP6 PUSH4 0x8BC5D8A3 SWAP6 PUSH2 0x1951 SWAP6 SWAP2 SWAP5 SWAP1 SWAP4 SWAP1 SWAP3 SWAP1 SWAP2 SWAP1 PUSH1 0x4 ADD PUSH2 0x2991 JUMP JUMPDEST PUSH0 PUSH1 0x40 MLOAD DUP1 DUP4 SUB DUP2 PUSH0 DUP8 DUP1 EXTCODESIZE ISZERO DUP1 ISZERO PUSH2 0x1968 JUMPI PUSH0 DUP1 REVERT JUMPDEST POP GAS CALL ISZERO DUP1 ISZERO PUSH2 0x197A JUMPI RETURNDATASIZE PUSH0 DUP1 RETURNDATACOPY RETURNDATASIZE PUSH0 REVERT JUMPDEST POP POP POP POP PUSH2 0x19AD PUSH1 0x40 MLOAD DUP1 PUSH1 0x40 ADD PUSH1 0x40 MSTORE DUP1 PUSH1 0xE DUP2 MSTORE PUSH1 0x20 ADD PUSH14 0x5374617274696E67203132333435 PUSH1 0x90 SHL DUP2 MSTORE POP PUSH2 0x1DE8 JUMP JUMPDEST POP POP POP POP JUMPDEST PUSH2 0x19E1 PUSH1 0x40 MLOAD DUP1 PUSH1 0x40 ADD PUSH1 0x40 MSTORE DUP1 PUSH1 0xE DUP2 MSTORE PUSH1 0x20 ADD PUSH14 0x12195C994818DBDB5C1B195D1959 PUSH1 0x92 SHL DUP2 MSTORE POP PUSH2 0x1DE8 JUMP JUMPDEST POP PUSH0 SWAP5 SWAP4 POP POP POP POP JUMP JUMPDEST POP JUMP JUMPDEST DUP1 ISZERO PUSH2 0x19EB JUMPI PUSH1 0x40 MLOAD PUSH0 SWAP1 CALLER SWAP1 PUSH0 NOT SWAP1 DUP5 SWAP1 DUP5 DUP2 DUP2 DUP2 DUP6 DUP9 DUP9 CALL SWAP4 POP POP POP POP RETURNDATASIZE DUP1 PUSH0 DUP2 EQ PUSH2 0xA3D JUMPI PUSH1 0x40 MLOAD SWAP2 POP PUSH1 0x1F NOT PUSH1 0x3F RETURNDATASIZE ADD AND DUP3 ADD PUSH1 0x40 MSTORE RETURNDATASIZE DUP3 MSTORE RETURNDATASIZE PUSH0 PUSH1 0x20 DUP5 ADD RETURNDATACOPY PUSH2 0xA3D JUMP JUMPDEST CALLER PUSH1 0x1 PUSH1 0x1 PUSH1 0xA0 SHL SUB PUSH32 0x0 AND EQ DUP1 PUSH2 0x1A77 JUMPI POP PUSH0 SLOAD PUSH1 0x1 PUSH1 0x1 PUSH1 0xA0 SHL SUB AND CALLER EQ JUMPDEST PUSH2 0x1414 JUMPI PUSH1 0x40 MLOAD PUSH3 0x461BCD PUSH1 0xE5 SHL DUP2 MSTORE PUSH1 0x20 PUSH1 0x4 DUP3 ADD DUP2 SWAP1 MSTORE PUSH1 0x24 DUP3 ADD MSTORE PUSH32 0x6163636F756E743A206E6F74204F776E6572206F7220456E747279506F696E74 PUSH1 0x44 DUP3 ADD MSTORE PUSH1 0x64 ADD PUSH2 0x8A6 JUMP JUMPDEST PUSH0 DUP1 DUP5 PUSH1 0x1 PUSH1 0x1 PUSH1 0xA0 SHL SUB AND DUP5 DUP5 PUSH1 0x40 MLOAD PUSH2 0x1ADE SWAP2 SWAP1 PUSH2 0x29EF JUMP JUMPDEST PUSH0 PUSH1 0x40 MLOAD DUP1 DUP4 SUB DUP2 DUP6 DUP8 GAS CALL SWAP3 POP POP POP RETURNDATASIZE DUP1 PUSH0 DUP2 EQ PUSH2 0x1B18 JUMPI PUSH1 0x40 MLOAD SWAP2 POP PUSH1 0x1F NOT PUSH1 0x3F RETURNDATASIZE ADD AND DUP3 ADD PUSH1 0x40 MSTORE RETURNDATASIZE DUP3 MSTORE RETURNDATASIZE PUSH0 PUSH1 0x20 DUP5 ADD RETURNDATACOPY PUSH2 0x1B1D JUMP JUMPDEST PUSH1 0x60 SWAP2 POP JUMPDEST POP SWAP2 POP SWAP2 POP DUP2 PUSH2 0xA3D JUMPI DUP1 MLOAD PUSH1 0x20 DUP3 ADD REVERT JUMPDEST PUSH0 SLOAD PUSH1 0x1 PUSH1 0x1 PUSH1 0xA0 SHL SUB AND CALLER EQ DUP1 PUSH2 0x1B46 JUMPI POP CALLER ADDRESS EQ JUMPDEST PUSH2 0x1414 JUMPI PUSH1 0x40 MLOAD PUSH3 0x461BCD PUSH1 0xE5 SHL DUP2 MSTORE PUSH1 0x20 PUSH1 0x4 DUP3 ADD MSTORE PUSH1 0xA PUSH1 0x24 DUP3 ADD MSTORE PUSH10 0x37B7363C9037BBB732B9 PUSH1 0xB1 SHL PUSH1 0x44 DUP3 ADD MSTORE PUSH1 0x64 ADD PUSH2 0x8A6 JUMP JUMPDEST ADDRESS PUSH1 0x1 PUSH1 0x1 PUSH1 0xA0 SHL SUB PUSH32 0x0 AND EQ DUP1 PUSH2 0x1C05 JUMPI POP PUSH32 0x0 PUSH1 0x1 PUSH1 0x1 PUSH1 0xA0 SHL SUB AND PUSH2 0x1BF9 PUSH0 DUP1 MLOAD PUSH1 0x20 PUSH2 0x2A2C DUP4 CODECOPY DUP2 MLOAD SWAP2 MSTORE SLOAD PUSH1 0x1 PUSH1 0x1 PUSH1 0xA0 SHL SUB AND SWAP1 JUMP JUMPDEST PUSH1 0x1 PUSH1 0x1 PUSH1 0xA0 SHL SUB AND EQ ISZERO JUMPDEST ISZERO PUSH2 0x1414 JUMPI PUSH1 0x40 MLOAD PUSH4 0x703E46DD PUSH1 0xE1 SHL DUP2 MSTORE PUSH1 0x4 ADD PUSH1 0x40 MLOAD DUP1 SWAP2 SUB SWAP1 REVERT JUMPDEST PUSH2 0x19EB PUSH2 0x1B2F JUMP JUMPDEST DUP2 PUSH1 0x1 PUSH1 0x1 PUSH1 0xA0 SHL SUB AND PUSH4 0x52D1902D PUSH1 0x40 MLOAD DUP2 PUSH4 0xFFFFFFFF AND PUSH1 0xE0 SHL DUP2 MSTORE PUSH1 0x4 ADD PUSH1 0x20 PUSH1 0x40 MLOAD DUP1 DUP4 SUB DUP2 DUP7 GAS STATICCALL SWAP3 POP POP POP DUP1 ISZERO PUSH2 0x1C85 JUMPI POP PUSH1 0x40 DUP1 MLOAD PUSH1 0x1F RETURNDATASIZE SWAP1 DUP2 ADD PUSH1 0x1F NOT AND DUP3 ADD SWAP1 SWAP3 MSTORE PUSH2 0x1C82 SWAP2 DUP2 ADD SWAP1 PUSH2 0x289A JUMP JUMPDEST PUSH1 0x1 JUMPDEST PUSH2 0x1CAD JUMPI PUSH1 0x40 MLOAD PUSH4 0x4C9C8CE3 PUSH1 0xE0 SHL DUP2 MSTORE PUSH1 0x1 PUSH1 0x1 PUSH1 0xA0 SHL SUB DUP4 AND PUSH1 0x4 DUP3 ADD MSTORE PUSH1 0x24 ADD PUSH2 0x8A6 JUMP JUMPDEST PUSH0 DUP1 MLOAD PUSH1 0x20 PUSH2 0x2A2C DUP4 CODECOPY DUP2 MLOAD SWAP2 MSTORE DUP2 EQ PUSH2 0x1CDD JUMPI PUSH1 0x40 MLOAD PUSH4 0x2A875269 PUSH1 0xE2 SHL DUP2 MSTORE PUSH1 0x4 DUP2 ADD DUP3 SWAP1 MSTORE PUSH1 0x24 ADD PUSH2 0x8A6 JUMP JUMPDEST PUSH2 0x1CE7 DUP4 DUP4 PUSH2 0x1E71 JUMP JUMPDEST POP POP POP JUMP JUMPDEST ADDRESS PUSH1 0x1 PUSH1 0x1 PUSH1 0xA0 SHL SUB PUSH32 0x0 AND EQ PUSH2 0x1414 JUMPI PUSH1 0x40 MLOAD PUSH4 0x703E46DD PUSH1 0xE1 SHL DUP2 MSTORE PUSH1 0x4 ADD PUSH1 0x40 MLOAD DUP1 SWAP2 SUB SWAP1 REVERT JUMPDEST PUSH0 DUP1 SLOAD PUSH1 0x1 PUSH1 0x1 PUSH1 0xA0 SHL SUB NOT AND PUSH1 0x1 PUSH1 0x1 PUSH1 0xA0 SHL SUB DUP4 DUP2 AND SWAP2 DUP3 OR DUP4 SSTORE PUSH1 0x40 MLOAD SWAP2 SWAP3 PUSH32 0x0 SWAP1 SWAP2 AND SWAP2 PUSH32 0x47E55C76E7A6F1FD8996A1DA8008C1EA29699CCA35E7BCD057F2DEC313B6E5DE SWAP2 SWAP1 LOG3 POP JUMP JUMPDEST PUSH2 0xAE3 DUP3 DUP3 PUSH1 0x40 MLOAD PUSH1 0x24 ADD PUSH2 0x1DB9 SWAP3 SWAP2 SWAP1 PUSH2 0x2A0A JUMP JUMPDEST PUSH1 0x40 DUP1 MLOAD PUSH1 0x1F NOT DUP2 DUP5 SUB ADD DUP2 MSTORE SWAP2 SWAP1 MSTORE PUSH1 0x20 DUP2 ADD DUP1 MLOAD PUSH1 0x1 PUSH1 0x1 PUSH1 0xE0 SHL SUB AND PUSH4 0x9710A9D PUSH1 0xE4 SHL OR SWAP1 MSTORE PUSH2 0x1EC6 JUMP JUMPDEST PUSH2 0x19EB DUP2 PUSH1 0x40 MLOAD PUSH1 0x24 ADD PUSH2 0x1DFC SWAP2 SWAP1 PUSH2 0x262D JUMP JUMPDEST PUSH1 0x40 DUP1 MLOAD PUSH1 0x1F NOT DUP2 DUP5 SUB ADD DUP2 MSTORE SWAP2 SWAP1 MSTORE PUSH1 0x20 DUP2 ADD DUP1 MLOAD PUSH1 0x1 PUSH1 0x1 PUSH1 0xE0 SHL SUB AND PUSH4 0x104C13EB PUSH1 0xE2 SHL OR SWAP1 MSTORE PUSH2 0x1EC6 JUMP JUMPDEST PUSH1 0x40 MLOAD PUSH1 0x24 DUP2 ADD DUP4 SWAP1 MSTORE PUSH1 0x44 DUP2 ADD DUP3 SWAP1 MSTORE PUSH2 0xAE3 SWAP1 PUSH1 0x64 ADD PUSH1 0x40 DUP1 MLOAD PUSH1 0x1F NOT DUP2 DUP5 SUB ADD DUP2 MSTORE SWAP2 SWAP1 MSTORE PUSH1 0x20 DUP2 ADD DUP1 MLOAD PUSH1 0x1 PUSH1 0x1 PUSH1 0xE0 SHL SUB AND PUSH3 0xD81ED3 PUSH1 0xE7 SHL OR SWAP1 MSTORE PUSH2 0x1EC6 JUMP JUMPDEST PUSH2 0x1E7A DUP3 PUSH2 0x1EE6 JUMP JUMPDEST PUSH1 0x40 MLOAD PUSH1 0x1 PUSH1 0x1 PUSH1 0xA0 SHL SUB DUP4 AND SWAP1 PUSH32 0xBC7CD75A20EE27FD9ADEBAB32041F755214DBC6BFFA90CC0225B39DA2E5C2D3B SWAP1 PUSH0 SWAP1 LOG2 DUP1 MLOAD ISZERO PUSH2 0x1EBE JUMPI PUSH2 0x1CE7 DUP3 DUP3 PUSH2 0x1F49 JUMP JUMPDEST PUSH2 0xAE3 PUSH2 0x1FBB JUMP JUMPDEST DUP1 MLOAD PUSH11 0x636F6E736F6C652E6C6F67 PUSH1 0x20 DUP4 ADD PUSH0 DUP1 DUP5 DUP4 DUP6 GAS STATICCALL POP POP POP POP POP JUMP JUMPDEST DUP1 PUSH1 0x1 PUSH1 0x1 PUSH1 0xA0 SHL SUB AND EXTCODESIZE PUSH0 SUB PUSH2 0x1F1B JUMPI PUSH1 0x40 MLOAD PUSH4 0x4C9C8CE3 PUSH1 0xE0 SHL DUP2 MSTORE PUSH1 0x1 PUSH1 0x1 PUSH1 0xA0 SHL SUB DUP3 AND PUSH1 0x4 DUP3 ADD MSTORE PUSH1 0x24 ADD PUSH2 0x8A6 JUMP JUMPDEST PUSH0 DUP1 MLOAD PUSH1 0x20 PUSH2 0x2A2C DUP4 CODECOPY DUP2 MLOAD SWAP2 MSTORE DUP1 SLOAD PUSH1 0x1 PUSH1 0x1 PUSH1 0xA0 SHL SUB NOT AND PUSH1 0x1 PUSH1 0x1 PUSH1 0xA0 SHL SUB SWAP3 SWAP1 SWAP3 AND SWAP2 SWAP1 SWAP2 OR SWAP1 SSTORE JUMP JUMPDEST PUSH1 0x60 PUSH0 DUP1 DUP5 PUSH1 0x1 PUSH1 0x1 PUSH1 0xA0 SHL SUB AND DUP5 PUSH1 0x40 MLOAD PUSH2 0x1F65 SWAP2 SWAP1 PUSH2 0x29EF JUMP JUMPDEST PUSH0 PUSH1 0x40 MLOAD DUP1 DUP4 SUB DUP2 DUP6 GAS DELEGATECALL SWAP2 POP POP RETURNDATASIZE DUP1 PUSH0 DUP2 EQ PUSH2 0x1F9D JUMPI PUSH1 0x40 MLOAD SWAP2 POP PUSH1 0x1F NOT PUSH1 0x3F RETURNDATASIZE ADD AND DUP3 ADD PUSH1 0x40 MSTORE RETURNDATASIZE DUP3 MSTORE RETURNDATASIZE PUSH0 PUSH1 0x20 DUP5 ADD RETURNDATACOPY PUSH2 0x1FA2 JUMP JUMPDEST PUSH1 0x60 SWAP2 POP JUMPDEST POP SWAP2 POP SWAP2 POP PUSH2 0x1FB2 DUP6 DUP4 DUP4 PUSH2 0x1FDA JUMP JUMPDEST SWAP6 SWAP5 POP POP POP POP POP JUMP JUMPDEST CALLVALUE ISZERO PUSH2 0x1414 JUMPI PUSH1 0x40 MLOAD PUSH4 0xB398979F PUSH1 0xE0 SHL DUP2 MSTORE PUSH1 0x4 ADD PUSH1 0x40 MLOAD DUP1 SWAP2 SUB SWAP1 REVERT JUMPDEST PUSH1 0x60 DUP3 PUSH2 0x1FEF JUMPI PUSH2 0x1FEA DUP3 PUSH2 0x2036 JUMP JUMPDEST PUSH2 0x843 JUMP JUMPDEST DUP2 MLOAD ISZERO DUP1 ISZERO PUSH2 0x2006 JUMPI POP PUSH1 0x1 PUSH1 0x1 PUSH1 0xA0 SHL SUB DUP5 AND EXTCODESIZE ISZERO JUMPDEST ISZERO PUSH2 0x202F JUMPI PUSH1 0x40 MLOAD PUSH4 0x9996B315 PUSH1 0xE0 SHL DUP2 MSTORE PUSH1 0x1 PUSH1 0x1 PUSH1 0xA0 SHL SUB DUP6 AND PUSH1 0x4 DUP3 ADD MSTORE PUSH1 0x24 ADD PUSH2 0x8A6 JUMP JUMPDEST POP DUP1 PUSH2 0x843 JUMP JUMPDEST DUP1 MLOAD ISZERO PUSH2 0x2046 JUMPI DUP1 MLOAD DUP1 DUP3 PUSH1 0x20 ADD REVERT JUMPDEST PUSH1 0x40 MLOAD PUSH4 0xA12F521 PUSH1 0xE1 SHL DUP2 MSTORE PUSH1 0x4 ADD PUSH1 0x40 MLOAD DUP1 SWAP2 SUB SWAP1 REVERT JUMPDEST PUSH1 0x1 PUSH1 0x1 PUSH1 0xA0 SHL SUB DUP2 AND DUP2 EQ PUSH2 0x19EB JUMPI PUSH0 DUP1 REVERT JUMPDEST PUSH0 DUP1 DUP4 PUSH1 0x1F DUP5 ADD SLT PUSH2 0x2083 JUMPI PUSH0 DUP1 REVERT JUMPDEST POP DUP2 CALLDATALOAD PUSH1 0x1 PUSH1 0x1 PUSH1 0x40 SHL SUB DUP2 GT ISZERO PUSH2 0x2099 JUMPI PUSH0 DUP1 REVERT JUMPDEST PUSH1 0x20 DUP4 ADD SWAP2 POP DUP4 PUSH1 0x20 DUP3 DUP6 ADD ADD GT ISZERO PUSH2 0x20B0 JUMPI PUSH0 DUP1 REVERT JUMPDEST SWAP3 POP SWAP3 SWAP1 POP JUMP JUMPDEST PUSH0 DUP1 PUSH0 DUP1 PUSH0 DUP1 PUSH0 DUP1 PUSH1 0xC0 DUP10 DUP12 SUB SLT ISZERO PUSH2 0x20CE JUMPI PUSH0 DUP1 REVERT JUMPDEST DUP9 CALLDATALOAD PUSH2 0x20D9 DUP2 PUSH2 0x205F JUMP JUMPDEST SWAP8 POP PUSH1 0x20 DUP10 ADD CALLDATALOAD PUSH2 0x20E9 DUP2 PUSH2 0x205F JUMP JUMPDEST SWAP7 POP PUSH1 0x40 DUP10 ADD CALLDATALOAD PUSH2 0x20F9 DUP2 PUSH2 0x205F JUMP JUMPDEST SWAP6 POP PUSH1 0x60 DUP10 ADD CALLDATALOAD SWAP5 POP PUSH1 0x80 DUP10 ADD CALLDATALOAD PUSH1 0x1 PUSH1 0x1 PUSH1 0x40 SHL SUB DUP1 DUP3 GT ISZERO PUSH2 0x211B JUMPI PUSH0 DUP1 REVERT JUMPDEST PUSH2 0x2127 DUP13 DUP4 DUP14 ADD PUSH2 0x2073 JUMP JUMPDEST SWAP1 SWAP7 POP SWAP5 POP PUSH1 0xA0 DUP12 ADD CALLDATALOAD SWAP2 POP DUP1 DUP3 GT ISZERO PUSH2 0x213F JUMPI PUSH0 DUP1 REVERT JUMPDEST POP PUSH2 0x214C DUP12 DUP3 DUP13 ADD PUSH2 0x2073 JUMP JUMPDEST SWAP10 SWAP13 SWAP9 SWAP12 POP SWAP7 SWAP10 POP SWAP5 SWAP8 SWAP4 SWAP7 SWAP3 SWAP6 SWAP5 POP POP POP JUMP JUMPDEST PUSH0 PUSH1 0x20 DUP3 DUP5 SUB SLT ISZERO PUSH2 0x2170 JUMPI PUSH0 DUP1 REVERT JUMPDEST DUP2 CALLDATALOAD PUSH1 0x1 PUSH1 0x1 PUSH1 0xE0 SHL SUB NOT DUP2 AND DUP2 EQ PUSH2 0x843 JUMPI PUSH0 DUP1 REVERT JUMPDEST PUSH4 0x4E487B71 PUSH1 0xE0 SHL PUSH0 MSTORE PUSH1 0x41 PUSH1 0x4 MSTORE PUSH1 0x24 PUSH0 REVERT JUMPDEST PUSH0 DUP3 PUSH1 0x1F DUP4 ADD SLT PUSH2 0x21AA JUMPI PUSH0 DUP1 REVERT JUMPDEST DUP2 CALLDATALOAD PUSH1 0x1 PUSH1 0x1 PUSH1 0x40 SHL SUB DUP1 DUP3 GT ISZERO PUSH2 0x21C4 JUMPI PUSH2 0x21C4 PUSH2 0x2187 JUMP JUMPDEST PUSH1 0x40 MLOAD PUSH1 0x1F DUP4 ADD PUSH1 0x1F NOT SWAP1 DUP2 AND PUSH1 0x3F ADD AND DUP2 ADD SWAP1 DUP3 DUP3 GT DUP2 DUP4 LT OR ISZERO PUSH2 0x21EC JUMPI PUSH2 0x21EC PUSH2 0x2187 JUMP JUMPDEST DUP2 PUSH1 0x40 MSTORE DUP4 DUP2 MSTORE DUP7 PUSH1 0x20 DUP6 DUP9 ADD ADD GT ISZERO PUSH2 0x2204 JUMPI PUSH0 DUP1 REVERT JUMPDEST DUP4 PUSH1 0x20 DUP8 ADD PUSH1 0x20 DUP4 ADD CALLDATACOPY PUSH0 PUSH1 0x20 DUP6 DUP4 ADD ADD MSTORE DUP1 SWAP5 POP POP POP POP POP SWAP3 SWAP2 POP POP JUMP JUMPDEST PUSH0 PUSH1 0x20 DUP3 DUP5 SUB SLT ISZERO PUSH2 0x2233 JUMPI PUSH0 DUP1 REVERT JUMPDEST DUP2 CALLDATALOAD PUSH1 0x1 PUSH1 0x1 PUSH1 0x40 SHL SUB DUP2 GT ISZERO PUSH2 0x2248 JUMPI PUSH0 DUP1 REVERT JUMPDEST PUSH2 0x2254 DUP5 DUP3 DUP6 ADD PUSH2 0x219B JUMP JUMPDEST SWAP5 SWAP4 POP POP POP POP JUMP JUMPDEST PUSH0 DUP1 PUSH0 DUP1 PUSH0 PUSH1 0x80 DUP7 DUP9 SUB SLT ISZERO PUSH2 0x2270 JUMPI PUSH0 DUP1 REVERT JUMPDEST DUP6 CALLDATALOAD PUSH2 0x227B DUP2 PUSH2 0x205F JUMP JUMPDEST SWAP5 POP PUSH1 0x20 DUP7 ADD CALLDATALOAD PUSH2 0x228B DUP2 PUSH2 0x205F JUMP JUMPDEST SWAP4 POP PUSH1 0x40 DUP7 ADD CALLDATALOAD SWAP3 POP PUSH1 0x60 DUP7 ADD CALLDATALOAD PUSH1 0x1 PUSH1 0x1 PUSH1 0x40 SHL SUB DUP2 GT ISZERO PUSH2 0x22AC JUMPI PUSH0 DUP1 REVERT JUMPDEST PUSH2 0x22B8 DUP9 DUP3 DUP10 ADD PUSH2 0x2073 JUMP JUMPDEST SWAP7 SWAP10 SWAP6 SWAP9 POP SWAP4 SWAP7 POP SWAP3 SWAP5 SWAP4 SWAP3 POP POP POP JUMP JUMPDEST PUSH0 DUP2 MLOAD DUP1 DUP5 MSTORE PUSH1 0x20 DUP1 DUP6 ADD SWAP5 POP PUSH1 0x20 DUP5 ADD PUSH0 JUMPDEST DUP4 DUP2 LT ISZERO PUSH2 0x22F8 JUMPI DUP2 MLOAD DUP8 MSTORE SWAP6 DUP3 ADD SWAP6 SWAP1 DUP3 ADD SWAP1 PUSH1 0x1 ADD PUSH2 0x22DC JUMP JUMPDEST POP SWAP5 SWAP6 SWAP5 POP POP POP POP POP JUMP JUMPDEST PUSH1 0x20 DUP2 MSTORE PUSH0 DUP3 MLOAD PUSH1 0xA0 PUSH1 0x20 DUP5 ADD MSTORE PUSH2 0x231E PUSH1 0xC0 DUP5 ADD DUP3 PUSH2 0x22C9 JUMP JUMPDEST SWAP1 POP PUSH1 0x20 DUP5 ADD MLOAD PUSH1 0x1F NOT DUP5 DUP4 SUB ADD PUSH1 0x40 DUP6 ADD MSTORE PUSH2 0x233B DUP3 DUP3 PUSH2 0x22C9 JUMP JUMPDEST SWAP2 POP POP PUSH1 0x40 DUP5 ADD MLOAD PUSH1 0x60 DUP5 ADD MSTORE PUSH1 0x60 DUP5 ADD MLOAD PUSH1 0x80 DUP5 ADD MSTORE PUSH1 0x80 DUP5 ADD MLOAD PUSH1 0xA0 DUP5 ADD MSTORE DUP1 SWAP2 POP POP SWAP3 SWAP2 POP POP JUMP JUMPDEST PUSH0 DUP1 PUSH0 PUSH1 0x60 DUP5 DUP7 SUB SLT ISZERO PUSH2 0x2378 JUMPI PUSH0 DUP1 REVERT JUMPDEST DUP4 CALLDATALOAD PUSH1 0x1 PUSH1 0x1 PUSH1 0x40 SHL SUB DUP2 GT ISZERO PUSH2 0x238D JUMPI PUSH0 DUP1 REVERT JUMPDEST DUP5 ADD PUSH2 0x160 DUP2 DUP8 SUB SLT ISZERO PUSH2 0x239F JUMPI PUSH0 DUP1 REVERT JUMPDEST SWAP6 PUSH1 0x20 DUP6 ADD CALLDATALOAD SWAP6 POP PUSH1 0x40 SWAP1 SWAP5 ADD CALLDATALOAD SWAP4 SWAP3 POP POP POP JUMP JUMPDEST PUSH0 DUP1 DUP4 PUSH1 0x1F DUP5 ADD SLT PUSH2 0x23C4 JUMPI PUSH0 DUP1 REVERT JUMPDEST POP DUP2 CALLDATALOAD PUSH1 0x1 PUSH1 0x1 PUSH1 0x40 SHL SUB DUP2 GT ISZERO PUSH2 0x23DA JUMPI PUSH0 DUP1 REVERT JUMPDEST PUSH1 0x20 DUP4 ADD SWAP2 POP DUP4 PUSH1 0x20 DUP3 PUSH1 0x5 SHL DUP6 ADD ADD GT ISZERO PUSH2 0x20B0 JUMPI PUSH0 DUP1 REVERT JUMPDEST PUSH0 DUP1 PUSH0 DUP1 PUSH0 DUP1 PUSH1 0x60 DUP8 DUP10 SUB SLT ISZERO PUSH2 0x2409 JUMPI PUSH0 DUP1 REVERT JUMPDEST DUP7 CALLDATALOAD PUSH1 0x1 PUSH1 0x1 PUSH1 0x40 SHL SUB DUP1 DUP3 GT ISZERO PUSH2 0x241F JUMPI PUSH0 DUP1 REVERT JUMPDEST PUSH2 0x242B DUP11 DUP4 DUP12 ADD PUSH2 0x23B4 JUMP JUMPDEST SWAP1 SWAP9 POP SWAP7 POP PUSH1 0x20 DUP10 ADD CALLDATALOAD SWAP2 POP DUP1 DUP3 GT ISZERO PUSH2 0x2443 JUMPI PUSH0 DUP1 REVERT JUMPDEST PUSH2 0x244F DUP11 DUP4 DUP12 ADD PUSH2 0x23B4 JUMP JUMPDEST SWAP1 SWAP7 POP SWAP5 POP PUSH1 0x40 DUP10 ADD CALLDATALOAD SWAP2 POP DUP1 DUP3 GT ISZERO PUSH2 0x2467 JUMPI PUSH0 DUP1 REVERT JUMPDEST POP PUSH2 0x2474 DUP10 DUP3 DUP11 ADD PUSH2 0x23B4 JUMP JUMPDEST SWAP8 SWAP11 SWAP7 SWAP10 POP SWAP5 SWAP8 POP SWAP3 SWAP6 SWAP4 SWAP5 SWAP3 POP POP POP JUMP JUMPDEST PUSH0 DUP1 PUSH1 0x40 DUP4 DUP6 SUB SLT ISZERO PUSH2 0x2497 JUMPI PUSH0 DUP1 REVERT JUMPDEST DUP3 CALLDATALOAD PUSH2 0x24A2 DUP2 PUSH2 0x205F JUMP JUMPDEST SWAP5 PUSH1 0x20 SWAP4 SWAP1 SWAP4 ADD CALLDATALOAD SWAP4 POP POP POP JUMP JUMPDEST PUSH0 DUP1 PUSH1 0x40 DUP4 DUP6 SUB SLT ISZERO PUSH2 0x24C1 JUMPI PUSH0 DUP1 REVERT JUMPDEST DUP3 CALLDATALOAD PUSH2 0x24CC DUP2 PUSH2 0x205F JUMP JUMPDEST SWAP2 POP PUSH1 0x20 DUP4 ADD CALLDATALOAD PUSH1 0x1 PUSH1 0x1 PUSH1 0x40 SHL SUB DUP2 GT ISZERO PUSH2 0x24E6 JUMPI PUSH0 DUP1 REVERT JUMPDEST PUSH2 0x24F2 DUP6 DUP3 DUP7 ADD PUSH2 0x219B JUMP JUMPDEST SWAP2 POP POP SWAP3 POP SWAP3 SWAP1 POP JUMP JUMPDEST PUSH1 0x20 DUP2 MSTORE PUSH0 DUP3 MLOAD PUSH1 0x80 PUSH1 0x20 DUP5 ADD MSTORE PUSH2 0x2517 PUSH1 0xA0 DUP5 ADD DUP3 PUSH2 0x22C9 JUMP JUMPDEST SWAP1 POP PUSH1 0x20 DUP5 ADD MLOAD PUSH1 0x1F NOT DUP5 DUP4 SUB ADD PUSH1 0x40 DUP6 ADD MSTORE PUSH2 0x2534 DUP3 DUP3 PUSH2 0x22C9 JUMP JUMPDEST SWAP2 POP POP PUSH1 0x40 DUP5 ADD MLOAD PUSH1 0x60 DUP5 ADD MSTORE PUSH1 0x60 DUP5 ADD MLOAD PUSH1 0x80 DUP5 ADD MSTORE DUP1 SWAP2 POP POP SWAP3 SWAP2 POP POP JUMP JUMPDEST PUSH1 0x20 DUP2 MSTORE PUSH0 DUP3 MLOAD PUSH1 0xA0 PUSH1 0x20 DUP5 ADD MSTORE PUSH2 0x2570 PUSH1 0xC0 DUP5 ADD DUP3 PUSH2 0x22C9 JUMP JUMPDEST SWAP1 POP PUSH1 0x20 DUP5 ADD MLOAD PUSH1 0x1F NOT DUP1 DUP6 DUP5 SUB ADD PUSH1 0x40 DUP7 ADD MSTORE PUSH2 0x258E DUP4 DUP4 PUSH2 0x22C9 JUMP JUMPDEST SWAP3 POP PUSH1 0x40 DUP7 ADD MLOAD SWAP2 POP DUP1 DUP6 DUP5 SUB ADD PUSH1 0x60 DUP7 ADD MSTORE PUSH2 0x25AB DUP4 DUP4 PUSH2 0x22C9 JUMP JUMPDEST SWAP3 POP PUSH1 0x60 DUP7 ADD MLOAD SWAP2 POP DUP1 DUP6 DUP5 SUB ADD PUSH1 0x80 DUP7 ADD MSTORE POP PUSH2 0x25C9 DUP3 DUP3 PUSH2 0x22C9 JUMP JUMPDEST SWAP2 POP POP PUSH1 0x80 DUP5 ADD MLOAD PUSH1 0xA0 DUP5 ADD MSTORE DUP1 SWAP2 POP POP SWAP3 SWAP2 POP POP JUMP JUMPDEST PUSH0 JUMPDEST DUP4 DUP2 LT ISZERO PUSH2 0x25FA JUMPI DUP2 DUP2 ADD MLOAD DUP4 DUP3 ADD MSTORE PUSH1 0x20 ADD PUSH2 0x25E2 JUMP JUMPDEST POP POP PUSH0 SWAP2 ADD MSTORE JUMP JUMPDEST PUSH0 DUP2 MLOAD DUP1 DUP5 MSTORE PUSH2 0x2619 DUP2 PUSH1 0x20 DUP7 ADD PUSH1 0x20 DUP7 ADD PUSH2 0x25E0 JUMP JUMPDEST PUSH1 0x1F ADD PUSH1 0x1F NOT AND SWAP3 SWAP1 SWAP3 ADD PUSH1 0x20 ADD SWAP3 SWAP2 POP POP JUMP JUMPDEST PUSH1 0x20 DUP2 MSTORE PUSH0 PUSH2 0x843 PUSH1 0x20 DUP4 ADD DUP5 PUSH2 0x2602 JUMP JUMPDEST PUSH0 DUP1 PUSH0 DUP1 PUSH1 0x60 DUP6 DUP8 SUB SLT ISZERO PUSH2 0x2652 JUMPI PUSH0 DUP1 REVERT JUMPDEST DUP5 CALLDATALOAD PUSH2 0x265D DUP2 PUSH2 0x205F JUMP JUMPDEST SWAP4 POP PUSH1 0x20 DUP6 ADD CALLDATALOAD SWAP3 POP PUSH1 0x40 DUP6 ADD CALLDATALOAD PUSH1 0x1 PUSH1 0x1 PUSH1 0x40 SHL SUB DUP2 GT ISZERO PUSH2 0x267E JUMPI PUSH0 DUP1 REVERT JUMPDEST PUSH2 0x268A DUP8 DUP3 DUP9 ADD PUSH2 0x2073 JUMP JUMPDEST SWAP6 SWAP9 SWAP5 SWAP8 POP SWAP6 POP POP POP POP JUMP JUMPDEST PUSH0 DUP1 PUSH0 DUP1 PUSH0 DUP1 PUSH0 DUP1 PUSH1 0xA0 DUP10 DUP12 SUB SLT ISZERO PUSH2 0x26AD JUMPI PUSH0 DUP1 REVERT JUMPDEST DUP9 CALLDATALOAD PUSH2 0x26B8 DUP2 PUSH2 0x205F JUMP JUMPDEST SWAP8 POP PUSH1 0x20 DUP10 ADD CALLDATALOAD PUSH2 0x26C8 DUP2 PUSH2 0x205F JUMP JUMPDEST SWAP7 POP PUSH1 0x40 DUP10 ADD CALLDATALOAD PUSH1 0x1 PUSH1 0x1 PUSH1 0x40 SHL SUB DUP1 DUP3 GT ISZERO PUSH2 0x26E3 JUMPI PUSH0 DUP1 REVERT JUMPDEST PUSH2 0x26EF DUP13 DUP4 DUP14 ADD PUSH2 0x23B4 JUMP JUMPDEST SWAP1 SWAP9 POP SWAP7 POP PUSH1 0x60 DUP12 ADD CALLDATALOAD SWAP2 POP DUP1 DUP3 GT ISZERO PUSH2 0x2707 JUMPI PUSH0 DUP1 REVERT JUMPDEST PUSH2 0x2713 DUP13 DUP4 DUP14 ADD PUSH2 0x23B4 JUMP JUMPDEST SWAP1 SWAP7 POP SWAP5 POP PUSH1 0x80 DUP12 ADD CALLDATALOAD SWAP2 POP DUP1 DUP3 GT ISZERO PUSH2 0x213F JUMPI PUSH0 DUP1 REVERT JUMPDEST PUSH0 PUSH1 0x20 DUP3 DUP5 SUB SLT ISZERO PUSH2 0x273B JUMPI PUSH0 DUP1 REVERT JUMPDEST POP CALLDATALOAD SWAP2 SWAP1 POP JUMP JUMPDEST PUSH0 PUSH1 0x20 DUP3 DUP5 SUB SLT ISZERO PUSH2 0x2752 JUMPI PUSH0 DUP1 REVERT JUMPDEST DUP2 CALLDATALOAD PUSH2 0x843 DUP2 PUSH2 0x205F JUMP JUMPDEST PUSH0 DUP1 PUSH0 DUP1 PUSH0 DUP1 PUSH1 0xA0 DUP8 DUP10 SUB SLT ISZERO PUSH2 0x2772 JUMPI PUSH0 DUP1 REVERT JUMPDEST DUP7 CALLDATALOAD PUSH2 0x277D DUP2 PUSH2 0x205F JUMP JUMPDEST SWAP6 POP PUSH1 0x20 DUP8 ADD CALLDATALOAD PUSH2 0x278D DUP2 PUSH2 0x205F JUMP JUMPDEST SWAP5 POP PUSH1 0x40 DUP8 ADD CALLDATALOAD SWAP4 POP PUSH1 0x60 DUP8 ADD CALLDATALOAD SWAP3 POP PUSH1 0x80 DUP8 ADD CALLDATALOAD PUSH1 0x1 PUSH1 0x1 PUSH1 0x40 SHL SUB DUP2 GT ISZERO PUSH2 0x27B5 JUMPI PUSH0 DUP1 REVERT JUMPDEST PUSH2 0x2474 DUP10 DUP3 DUP11 ADD PUSH2 0x2073 JUMP JUMPDEST PUSH4 0x4E487B71 PUSH1 0xE0 SHL PUSH0 MSTORE PUSH1 0x32 PUSH1 0x4 MSTORE PUSH1 0x24 PUSH0 REVERT JUMPDEST PUSH4 0x4E487B71 PUSH1 0xE0 SHL PUSH0 MSTORE PUSH1 0x11 PUSH1 0x4 MSTORE PUSH1 0x24 PUSH0 REVERT JUMPDEST DUP1 DUP3 MUL DUP2 ISZERO DUP3 DUP3 DIV DUP5 EQ OR PUSH2 0x53C JUMPI PUSH2 0x53C PUSH2 0x27D5 JUMP JUMPDEST DUP1 DUP3 ADD DUP1 DUP3 GT ISZERO PUSH2 0x53C JUMPI PUSH2 0x53C PUSH2 0x27D5 JUMP JUMPDEST PUSH4 0xFFFFFFFF DUP2 DUP2 AND DUP4 DUP3 AND MUL DUP1 DUP3 AND SWAP2 SWAP1 DUP3 DUP2 EQ PUSH2 0x2833 JUMPI PUSH2 0x2833 PUSH2 0x27D5 JUMP JUMPDEST POP POP SWAP3 SWAP2 POP POP JUMP JUMPDEST PUSH4 0xFFFFFFFF DUP2 DUP2 AND DUP4 DUP3 AND ADD SWAP1 DUP1 DUP3 GT ISZERO PUSH2 0x589 JUMPI PUSH2 0x589 PUSH2 0x27D5 JUMP JUMPDEST PUSH0 DUP1 DUP4 CALLDATALOAD PUSH1 0x1E NOT DUP5 CALLDATASIZE SUB ADD DUP2 SLT PUSH2 0x286D JUMPI PUSH0 DUP1 REVERT JUMPDEST DUP4 ADD DUP1 CALLDATALOAD SWAP2 POP PUSH1 0x1 PUSH1 0x1 PUSH1 0x40 SHL SUB DUP3 GT ISZERO PUSH2 0x2886 JUMPI PUSH0 DUP1 REVERT JUMPDEST PUSH1 0x20 ADD SWAP2 POP CALLDATASIZE DUP2 SWAP1 SUB DUP3 SGT ISZERO PUSH2 0x20B0 JUMPI PUSH0 DUP1 REVERT JUMPDEST PUSH0 PUSH1 0x20 DUP3 DUP5 SUB SLT ISZERO PUSH2 0x28AA JUMPI PUSH0 DUP1 REVERT JUMPDEST POP MLOAD SWAP2 SWAP1 POP JUMP JUMPDEST PUSH12 0xFFFFFFFFFFFFFFFFFFFFFFFF NOT DUP8 PUSH1 0x60 SHL AND DUP2 MSTORE DUP6 PUSH1 0x14 DUP3 ADD MSTORE DUP4 DUP6 PUSH1 0x34 DUP4 ADD CALLDATACOPY PUSH0 DUP5 DUP3 ADD PUSH1 0x34 DUP2 ADD PUSH0 DUP2 MSTORE DUP5 DUP7 DUP3 CALLDATACOPY POP PUSH0 SWAP4 ADD PUSH1 0x34 ADD SWAP3 DUP4 MSTORE POP SWAP1 SWAP7 SWAP6 POP POP POP POP POP POP JUMP JUMPDEST PUSH0 DUP3 PUSH2 0x2912 JUMPI PUSH4 0x4E487B71 PUSH1 0xE0 SHL PUSH0 MSTORE PUSH1 0x12 PUSH1 0x4 MSTORE PUSH1 0x24 PUSH0 REVERT JUMPDEST POP MOD SWAP1 JUMP JUMPDEST PUSH1 0x80 DUP2 MSTORE PUSH0 PUSH2 0x2929 PUSH1 0x80 DUP4 ADD DUP8 PUSH2 0x22C9 JUMP JUMPDEST DUP3 DUP2 SUB PUSH1 0x20 DUP5 ADD MSTORE PUSH2 0x293B DUP2 DUP8 PUSH2 0x22C9 JUMP JUMPDEST PUSH1 0x40 DUP5 ADD SWAP6 SWAP1 SWAP6 MSTORE POP POP PUSH1 0x60 ADD MSTORE SWAP3 SWAP2 POP POP JUMP JUMPDEST PUSH1 0xA0 DUP2 MSTORE PUSH0 PUSH2 0x2961 PUSH1 0xA0 DUP4 ADD DUP9 PUSH2 0x22C9 JUMP JUMPDEST DUP3 DUP2 SUB PUSH1 0x20 DUP5 ADD MSTORE PUSH2 0x2973 DUP2 DUP9 PUSH2 0x22C9 JUMP JUMPDEST PUSH1 0x40 DUP5 ADD SWAP7 SWAP1 SWAP7 MSTORE POP POP PUSH1 0x60 DUP2 ADD SWAP3 SWAP1 SWAP3 MSTORE PUSH1 0x80 SWAP1 SWAP2 ADD MSTORE SWAP3 SWAP2 POP POP JUMP JUMPDEST PUSH1 0xA0 DUP2 MSTORE PUSH0 PUSH2 0x29A3 PUSH1 0xA0 DUP4 ADD DUP9 PUSH2 0x22C9 JUMP JUMPDEST DUP3 DUP2 SUB PUSH1 0x20 DUP5 ADD MSTORE PUSH2 0x29B5 DUP2 DUP9 PUSH2 0x22C9 JUMP JUMPDEST SWAP1 POP DUP3 DUP2 SUB PUSH1 0x40 DUP5 ADD MSTORE PUSH2 0x29C9 DUP2 DUP8 PUSH2 0x22C9 JUMP JUMPDEST SWAP1 POP DUP5 PUSH1 0x60 DUP5 ADD MSTORE DUP3 DUP2 SUB PUSH1 0x80 DUP5 ADD MSTORE PUSH2 0x29E3 DUP2 DUP6 PUSH2 0x22C9 JUMP JUMPDEST SWAP9 SWAP8 POP POP POP POP POP POP POP POP JUMP JUMPDEST PUSH0 DUP3 MLOAD PUSH2 0x2A00 DUP2 DUP5 PUSH1 0x20 DUP8 ADD PUSH2 0x25E0 JUMP JUMPDEST SWAP2 SWAP1 SWAP2 ADD SWAP3 SWAP2 POP POP JUMP JUMPDEST PUSH1 0x40 DUP2 MSTORE PUSH0 PUSH2 0x2A1C PUSH1 0x40 DUP4 ADD DUP6 PUSH2 0x2602 JUMP JUMPDEST SWAP1 POP DUP3 PUSH1 0x20 DUP4 ADD MSTORE SWAP4 SWAP3 POP POP POP JUMP INVALID CALLDATASIZE ADDMOD SWAP5 LOG1 EXTCODESIZE LOG1 LOG3 0x21 MOD PUSH8 0xC828492DB98DCA3E KECCAK256 PUSH23 0xCC3735A920A3CA505D382BBCA26469706673582212207C DUP7 0xEB 0xEF DUP8 0xD1 STATICCALL 0xFC 0xA9 PUSH14 0x29FB2A71048FF22867FEBA0DF743 0xCB 0xC1 TIMESTAMP SGT 0xE2 0xD 0xBD ISZERO PUSH5 0x736F6C6343 STOP ADDMOD AND STOP CALLER "
		},
		"gasEstimates": {
			"creation": {
				"codeDepositCost": "2176200",
				"executionCost": "infinite",
				"totalCost": "infinite"
			},
			"external": {
				"UPGRADE_INTERFACE_VERSION()": "infinite",
				"addDeposit()": "infinite",
				"bytes32Break(bytes32)": "467",
				"bytesToUint(bytes)": "infinite",
				"entryPoint()": "infinite",
				"execute(address,uint256,bytes)": "infinite",
				"executeBatch(address[],uint256[],bytes[])": "infinite",
				"getDeposit()": "infinite",
				"getNonce()": "infinite",
				"giveFRI(bytes)": "infinite",
				"giveGPS(bytes)": "infinite",
				"giveMerkle(bytes)": "infinite",
				"initialize(address)": "infinite",
				"onERC1155BatchReceived(address,address,uint256[],uint256[],bytes)": "infinite",
				"onERC1155Received(address,address,uint256,uint256,bytes)": "infinite",
				"onERC721Received(address,address,uint256,bytes)": "infinite",
				"owner()": "2380",
				"proxiableUUID()": "infinite",
				"supportsInterface(bytes4)": "524",
				"tokensReceived(address,address,address,uint256,bytes,bytes)": "infinite",
				"upgradeToAndCall(address,bytes)": "infinite",
				"validateUserOp((address,uint256,bytes,bytes,uint256,uint256,uint256,uint256,uint256,bytes,bytes),bytes32,uint256)": "infinite",
				"withdrawDepositTo(address,uint256)": "infinite"
			},
			"internal": {
				"_authorizeUpgrade(address)": "infinite",
				"_call(address,uint256,bytes memory)": "infinite",
				"_initialize(address)": "infinite",
				"_onlyOwner()": "infinite",
				"_requireFromEntryPointOrOwner()": "infinite",
				"_validateSignature(struct UserOperation calldata,bytes32)": "infinite",
				"slice(bytes memory,uint256,uint256)": "infinite"
			}
		},
		"methodIdentifiers": {
			"UPGRADE_INTERFACE_VERSION()": "ad3cb1cc",
			"addDeposit()": "4a58db19",
			"bytes32Break(bytes32)": "c465ec42",
			"bytesToUint(bytes)": "02d06d05",
			"entryPoint()": "b0d691fe",
			"execute(address,uint256,bytes)": "b61d27f6",
			"executeBatch(address[],uint256[],bytes[])": "47e1da2a",
			"getDeposit()": "c399ec88",
			"getNonce()": "d087d288",
			"giveFRI(bytes)": "2ed3f24e",
			"giveGPS(bytes)": "9ec26ef2",
			"giveMerkle(bytes)": "4f889199",
			"initialize(address)": "c4d66de8",
			"onERC1155BatchReceived(address,address,uint256[],uint256[],bytes)": "bc197c81",
			"onERC1155Received(address,address,uint256,uint256,bytes)": "f23a6e61",
			"onERC721Received(address,address,uint256,bytes)": "150b7a02",
			"owner()": "8da5cb5b",
			"proxiableUUID()": "52d1902d",
			"supportsInterface(bytes4)": "01ffc9a7",
			"tokensReceived(address,address,address,uint256,bytes,bytes)": "0023de29",
			"upgradeToAndCall(address,bytes)": "4f1ef286",
			"validateUserOp((address,uint256,bytes,bytes,uint256,uint256,uint256,uint256,uint256,bytes,bytes),bytes32,uint256)": "3a871cdd",
			"withdrawDepositTo(address,uint256)": "4d44560d"
		}
	},
	"abi": [
		{
			"inputs": [
				{
					"internalType": "contract IEntryPoint",
					"name": "anEntryPoint",
					"type": "address"
				}
			],
			"stateMutability": "nonpayable",
			"type": "constructor"
		},
		{
			"inputs": [
				{
					"internalType": "address",
					"name": "target",
					"type": "address"
				}
			],
			"name": "AddressEmptyCode",
			"type": "error"
		},
		{
			"inputs": [
				{
					"internalType": "address",
					"name": "implementation",
					"type": "address"
				}
			],
			"name": "ERC1967InvalidImplementation",
			"type": "error"
		},
		{
			"inputs": [],
			"name": "ERC1967NonPayable",
			"type": "error"
		},
		{
			"inputs": [],
			"name": "FailedInnerCall",
			"type": "error"
		},
		{
			"inputs": [],
			"name": "InvalidInitialization",
			"type": "error"
		},
		{
			"inputs": [],
			"name": "NotInitializing",
			"type": "error"
		},
		{
			"inputs": [],
			"name": "UUPSUnauthorizedCallContext",
			"type": "error"
		},
		{
			"inputs": [
				{
					"internalType": "bytes32",
					"name": "slot",
					"type": "bytes32"
				}
			],
			"name": "UUPSUnsupportedProxiableUUID",
			"type": "error"
		},
		{
			"anonymous": false,
			"inputs": [
				{
					"indexed": false,
					"internalType": "uint64",
					"name": "version",
					"type": "uint64"
				}
			],
			"name": "Initialized",
			"type": "event"
		},
		{
			"anonymous": false,
			"inputs": [
				{
					"indexed": true,
					"internalType": "contract IEntryPoint",
					"name": "entryPoint",
					"type": "address"
				},
				{
					"indexed": true,
					"internalType": "address",
					"name": "owner",
					"type": "address"
				}
			],
			"name": "SimpleAccountInitialized",
			"type": "event"
		},
		{
			"anonymous": false,
			"inputs": [
				{
					"indexed": true,
					"internalType": "address",
					"name": "implementation",
					"type": "address"
				}
			],
			"name": "Upgraded",
			"type": "event"
		},
		{
			"inputs": [],
			"name": "UPGRADE_INTERFACE_VERSION",
			"outputs": [
				{
					"internalType": "string",
					"name": "",
					"type": "string"
				}
			],
			"stateMutability": "view",
			"type": "function"
		},
		{
			"inputs": [],
			"name": "addDeposit",
			"outputs": [],
			"stateMutability": "payable",
			"type": "function"
		},
		{
			"inputs": [
				{
					"internalType": "bytes32",
					"name": "source",
					"type": "bytes32"
				}
			],
			"name": "bytes32Break",
			"outputs": [
				{
					"internalType": "bytes16",
					"name": "",
					"type": "bytes16"
				},
				{
					"internalType": "bytes16",
					"name": "",
					"type": "bytes16"
				}
			],
			"stateMutability": "nonpayable",
			"type": "function"
		},
		{
			"inputs": [
				{
					"internalType": "bytes",
					"name": "data",
					"type": "bytes"
				}
			],
			"name": "bytesToUint",
			"outputs": [
				{
					"internalType": "uint256",
					"name": "",
					"type": "uint256"
				}
			],
			"stateMutability": "pure",
			"type": "function"
		},
		{
			"inputs": [],
			"name": "entryPoint",
			"outputs": [
				{
					"internalType": "contract IEntryPoint",
					"name": "",
					"type": "address"
				}
			],
			"stateMutability": "view",
			"type": "function"
		},
		{
			"inputs": [
				{
					"internalType": "address",
					"name": "dest",
					"type": "address"
				},
				{
					"internalType": "uint256",
					"name": "value",
					"type": "uint256"
				},
				{
					"internalType": "bytes",
					"name": "func",
					"type": "bytes"
				}
			],
			"name": "execute",
			"outputs": [],
			"stateMutability": "nonpayable",
			"type": "function"
		},
		{
			"inputs": [
				{
					"internalType": "address[]",
					"name": "dest",
					"type": "address[]"
				},
				{
					"internalType": "uint256[]",
					"name": "value",
					"type": "uint256[]"
				},
				{
					"internalType": "bytes[]",
					"name": "func",
					"type": "bytes[]"
				}
			],
			"name": "executeBatch",
			"outputs": [],
			"stateMutability": "nonpayable",
			"type": "function"
		},
		{
			"inputs": [],
			"name": "getDeposit",
			"outputs": [
				{
					"internalType": "uint256",
					"name": "",
					"type": "uint256"
				}
			],
			"stateMutability": "view",
			"type": "function"
		},
		{
			"inputs": [],
			"name": "getNonce",
			"outputs": [
				{
					"internalType": "uint256",
					"name": "",
					"type": "uint256"
				}
			],
			"stateMutability": "view",
			"type": "function"
		},
		{
			"inputs": [
				{
					"internalType": "bytes",
					"name": "data",
					"type": "bytes"
				}
			],
			"name": "giveFRI",
			"outputs": [
				{
					"components": [
						{
							"internalType": "uint256[]",
							"name": "proofItems",
							"type": "uint256[]"
						},
						{
							"internalType": "uint256[]",
							"name": "queueItems",
							"type": "uint256[]"
						},
						{
							"internalType": "uint256",
							"name": "evalPoint",
							"type": "uint256"
						},
						{
							"internalType": "uint256",
							"name": "stepSize",
							"type": "uint256"
						},
						{
							"internalType": "uint256",
							"name": "root",
							"type": "uint256"
						}
					],
					"internalType": "struct SimpleAccount.Fri",
					"name": "",
					"type": "tuple"
				}
			],
			"stateMutability": "pure",
			"type": "function"
		},
		{
			"inputs": [
				{
					"internalType": "bytes",
					"name": "data",
					"type": "bytes"
				}
			],
			"name": "giveGPS",
			"outputs": [
				{
					"components": [
						{
							"internalType": "uint256[]",
							"name": "proofParams",
							"type": "uint256[]"
						},
						{
							"internalType": "uint256[]",
							"name": "proof",
							"type": "uint256[]"
						},
						{
							"internalType": "uint256[]",
							"name": "cairoAuxInput",
							"type": "uint256[]"
						},
						{
							"internalType": "uint256[]",
							"name": "publicMemoryData",
							"type": "uint256[]"
						},
						{
							"internalType": "uint256",
							"name": "cairoVerifierId",
							"type": "uint256"
						}
					],
					"internalType": "struct SimpleAccount.GPS",
					"name": "",
					"type": "tuple"
				}
			],
			"stateMutability": "pure",
			"type": "function"
		},
		{
			"inputs": [
				{
					"internalType": "bytes",
					"name": "data",
					"type": "bytes"
				}
			],
			"name": "giveMerkle",
			"outputs": [
				{
					"components": [
						{
							"internalType": "uint256[]",
							"name": "View",
							"type": "uint256[]"
						},
						{
							"internalType": "uint256[]",
							"name": "Initials",
							"type": "uint256[]"
						},
						{
							"internalType": "uint256",
							"name": "height",
							"type": "uint256"
						},
						{
							"internalType": "uint256",
							"name": "root",
							"type": "uint256"
						}
					],
					"internalType": "struct SimpleAccount.Merkle",
					"name": "",
					"type": "tuple"
				}
			],
			"stateMutability": "pure",
			"type": "function"
		},
		{
			"inputs": [
				{
					"internalType": "address",
					"name": "anOwner",
					"type": "address"
				}
			],
			"name": "initialize",
			"outputs": [],
			"stateMutability": "nonpayable",
			"type": "function"
		},
		{
			"inputs": [
				{
					"internalType": "address",
					"name": "",
					"type": "address"
				},
				{
					"internalType": "address",
					"name": "",
					"type": "address"
				},
				{
					"internalType": "uint256[]",
					"name": "",
					"type": "uint256[]"
				},
				{
					"internalType": "uint256[]",
					"name": "",
					"type": "uint256[]"
				},
				{
					"internalType": "bytes",
					"name": "",
					"type": "bytes"
				}
			],
			"name": "onERC1155BatchReceived",
			"outputs": [
				{
					"internalType": "bytes4",
					"name": "",
					"type": "bytes4"
				}
			],
			"stateMutability": "pure",
			"type": "function"
		},
		{
			"inputs": [
				{
					"internalType": "address",
					"name": "",
					"type": "address"
				},
				{
					"internalType": "address",
					"name": "",
					"type": "address"
				},
				{
					"internalType": "uint256",
					"name": "",
					"type": "uint256"
				},
				{
					"internalType": "uint256",
					"name": "",
					"type": "uint256"
				},
				{
					"internalType": "bytes",
					"name": "",
					"type": "bytes"
				}
			],
			"name": "onERC1155Received",
			"outputs": [
				{
					"internalType": "bytes4",
					"name": "",
					"type": "bytes4"
				}
			],
			"stateMutability": "pure",
			"type": "function"
		},
		{
			"inputs": [
				{
					"internalType": "address",
					"name": "",
					"type": "address"
				},
				{
					"internalType": "address",
					"name": "",
					"type": "address"
				},
				{
					"internalType": "uint256",
					"name": "",
					"type": "uint256"
				},
				{
					"internalType": "bytes",
					"name": "",
					"type": "bytes"
				}
			],
			"name": "onERC721Received",
			"outputs": [
				{
					"internalType": "bytes4",
					"name": "",
					"type": "bytes4"
				}
			],
			"stateMutability": "pure",
			"type": "function"
		},
		{
			"inputs": [],
			"name": "owner",
			"outputs": [
				{
					"internalType": "address",
					"name": "",
					"type": "address"
				}
			],
			"stateMutability": "view",
			"type": "function"
		},
		{
			"inputs": [],
			"name": "proxiableUUID",
			"outputs": [
				{
					"internalType": "bytes32",
					"name": "",
					"type": "bytes32"
				}
			],
			"stateMutability": "view",
			"type": "function"
		},
		{
			"inputs": [
				{
					"internalType": "bytes4",
					"name": "interfaceId",
					"type": "bytes4"
				}
			],
			"name": "supportsInterface",
			"outputs": [
				{
					"internalType": "bool",
					"name": "",
					"type": "bool"
				}
			],
			"stateMutability": "view",
			"type": "function"
		},
		{
			"inputs": [
				{
					"internalType": "address",
					"name": "",
					"type": "address"
				},
				{
					"internalType": "address",
					"name": "",
					"type": "address"
				},
				{
					"internalType": "address",
					"name": "",
					"type": "address"
				},
				{
					"internalType": "uint256",
					"name": "",
					"type": "uint256"
				},
				{
					"internalType": "bytes",
					"name": "",
					"type": "bytes"
				},
				{
					"internalType": "bytes",
					"name": "",
					"type": "bytes"
				}
			],
			"name": "tokensReceived",
			"outputs": [],
			"stateMutability": "pure",
			"type": "function"
		},
		{
			"inputs": [
				{
					"internalType": "address",
					"name": "newImplementation",
					"type": "address"
				},
				{
					"internalType": "bytes",
					"name": "data",
					"type": "bytes"
				}
			],
			"name": "upgradeToAndCall",
			"outputs": [],
			"stateMutability": "payable",
			"type": "function"
		},
		{
			"inputs": [
				{
					"components": [
						{
							"internalType": "address",
							"name": "sender",
							"type": "address"
						},
						{
							"internalType": "uint256",
							"name": "nonce",
							"type": "uint256"
						},
						{
							"internalType": "bytes",
							"name": "initCode",
							"type": "bytes"
						},
						{
							"internalType": "bytes",
							"name": "callData",
							"type": "bytes"
						},
						{
							"internalType": "uint256",
							"name": "callGasLimit",
							"type": "uint256"
						},
						{
							"internalType": "uint256",
							"name": "verificationGasLimit",
							"type": "uint256"
						},
						{
							"internalType": "uint256",
							"name": "preVerificationGas",
							"type": "uint256"
						},
						{
							"internalType": "uint256",
							"name": "maxFeePerGas",
							"type": "uint256"
						},
						{
							"internalType": "uint256",
							"name": "maxPriorityFeePerGas",
							"type": "uint256"
						},
						{
							"internalType": "bytes",
							"name": "paymasterAndData",
							"type": "bytes"
						},
						{
							"internalType": "bytes",
							"name": "signature",
							"type": "bytes"
						}
					],
					"internalType": "struct UserOperation",
					"name": "userOp",
					"type": "tuple"
				},
				{
					"internalType": "bytes32",
					"name": "userOpHash",
					"type": "bytes32"
				},
				{
					"internalType": "uint256",
					"name": "missingAccountFunds",
					"type": "uint256"
				}
			],
			"name": "validateUserOp",
			"outputs": [
				{
					"internalType": "uint256",
					"name": "validationData",
					"type": "uint256"
				}
			],
			"stateMutability": "nonpayable",
			"type": "function"
		},
		{
			"inputs": [
				{
					"internalType": "address payable",
					"name": "withdrawAddress",
					"type": "address"
				},
				{
					"internalType": "uint256",
					"name": "amount",
					"type": "uint256"
				}
			],
			"name": "withdrawDepositTo",
			"outputs": [],
			"stateMutability": "nonpayable",
			"type": "function"
		},
		{
			"stateMutability": "payable",
			"type": "receive"
		}
	]
}