{
	"AA/contracts/verifier/MerkleStatementContract.sol": {
		"MerkleStatementContract": {
			"abi": [
				{
					"inputs": [],
					"name": "hasRegisteredFact",
					"outputs": [
						{
							"internalType": "bool",
							"name": "",
							"type": "bool"
						}
					],
					"stateMutability": "view",
					"type": "function"
				},
				{
					"inputs": [
						{
							"internalType": "bytes32",
							"name": "fact",
							"type": "bytes32"
						}
					],
					"name": "isValid",
					"outputs": [
						{
							"internalType": "bool",
							"name": "",
							"type": "bool"
						}
					],
					"stateMutability": "view",
					"type": "function"
				},
				{
					"inputs": [
						{
							"internalType": "uint256[]",
							"name": "merkleView",
							"type": "uint256[]"
						},
						{
							"internalType": "uint256[]",
							"name": "initialMerkleQueue",
							"type": "uint256[]"
						},
						{
							"internalType": "uint256",
							"name": "height",
							"type": "uint256"
						},
						{
							"internalType": "uint256",
							"name": "expectedRoot",
							"type": "uint256"
						}
					],
					"name": "verifyMerkle",
					"outputs": [],
					"stateMutability": "nonpayable",
					"type": "function"
				}
			],
			"devdoc": {
				"kind": "dev",
				"methods": {},
				"version": 1
			},
			"evm": {
				"assembly": "    /* \"AA/contracts/verifier/MerkleStatementContract.sol\":725:5249  contract MerkleStatementContract is MerkleVerifier, FactRegistry {... */\n  mstore(0x40, 0x80)\n    /* \"AA/contracts/FactRegistry.sol\":921:951  bool anyFactRegistered = false */\n  0x01\n  dup1\n  sload\n  not(0xff)\n  and\n  swap1\n  sstore\n    /* \"AA/contracts/verifier/MerkleStatementContract.sol\":725:5249  contract MerkleStatementContract is MerkleVerifier, FactRegistry {... */\n  callvalue\n  dup1\n  iszero\n  tag_1\n  jumpi\n  0x00\n  dup1\n  revert\ntag_1:\n  pop\n  dataSize(sub_0)\n  dup1\n  dataOffset(sub_0)\n  0x00\n  codecopy\n  0x00\n  return\nstop\n\nsub_0: assembly {\n        /* \"AA/contracts/verifier/MerkleStatementContract.sol\":725:5249  contract MerkleStatementContract is MerkleVerifier, FactRegistry {... */\n      mstore(0x40, 0x80)\n      callvalue\n      dup1\n      iszero\n      tag_1\n      jumpi\n      0x00\n      dup1\n      revert\n    tag_1:\n      pop\n      jumpi(tag_2, lt(calldatasize, 0x04))\n      shr(0xe0, calldataload(0x00))\n      dup1\n      0x3fe317a6\n      eq\n      tag_3\n      jumpi\n      dup1\n      0x6a938567\n      eq\n      tag_4\n      jumpi\n      dup1\n      0xd6354e15\n      eq\n      tag_5\n      jumpi\n    tag_2:\n      0x00\n      dup1\n      revert\n        /* \"AA/contracts/verifier/MerkleStatementContract.sol\":1211:5247  function verifyMerkle(... */\n    tag_3:\n      tag_6\n      tag_7\n      calldatasize\n      0x04\n      tag_8\n      jump\t// in\n    tag_7:\n      tag_9\n      jump\t// in\n    tag_6:\n      stop\n        /* \"AA/contracts/FactRegistry.sol\":1014:1123  function isValid(bytes32 fact) external view override returns (bool) {... */\n    tag_4:\n      tag_10\n      tag_11\n      calldatasize\n      0x04\n      tag_12\n      jump\t// in\n    tag_11:\n      tag_13\n      jump\t// in\n    tag_10:\n      mload(0x40)\n        /* \"#utility.yul\":2146:2160   */\n      swap1\n      iszero\n        /* \"#utility.yul\":2139:2161   */\n      iszero\n        /* \"#utility.yul\":2121:2162   */\n      dup2\n      mstore\n        /* \"#utility.yul\":2109:2111   */\n      0x20\n        /* \"#utility.yul\":2094:2112   */\n      add\n        /* \"AA/contracts/FactRegistry.sol\":1014:1123  function isValid(bytes32 fact) external view override returns (bool) {... */\n      mload(0x40)\n      dup1\n      swap2\n      sub\n      swap1\n      return\n        /* \"AA/contracts/FactRegistry.sol\":1880:1988  function hasRegisteredFact() external view override returns (bool) {... */\n    tag_5:\n        /* \"AA/contracts/FactRegistry.sol\":1964:1981  anyFactRegistered */\n      and(0xff, sload(0x01))\n        /* \"AA/contracts/FactRegistry.sol\":1880:1988  function hasRegisteredFact() external view override returns (bool) {... */\n      jump(tag_10)\n        /* \"AA/contracts/verifier/MerkleStatementContract.sol\":1211:5247  function verifyMerkle(... */\n    tag_9:\n        /* \"AA/contracts/verifier/MerkleStatementContract.sol\":1500:1503  200 */\n      0xc8\n        /* \"AA/contracts/verifier/MerkleStatementContract.sol\":1491:1497  height */\n      dup3\n        /* \"AA/contracts/verifier/MerkleStatementContract.sol\":1491:1503  height < 200 */\n      lt\n        /* \"AA/contracts/verifier/MerkleStatementContract.sol\":1483:1522  require(height < 200, \"Height too big\") */\n      tag_20\n      jumpi\n      mload(0x40)\n      shl(0xe5, 0x461bcd)\n      dup2\n      mstore\n        /* \"#utility.yul\":2375:2377   */\n      0x20\n        /* \"AA/contracts/verifier/MerkleStatementContract.sol\":1483:1522  require(height < 200, \"Height too big\") */\n      0x04\n      dup3\n      add\n        /* \"#utility.yul\":2357:2378   */\n      mstore\n        /* \"#utility.yul\":2414:2416   */\n      0x0e\n        /* \"#utility.yul\":2394:2412   */\n      0x24\n      dup3\n      add\n        /* \"#utility.yul\":2387:2417   */\n      mstore\n      shl(0x90, 0x48656967687420746f6f20626967)\n        /* \"#utility.yul\":2433:2451   */\n      0x44\n      dup3\n      add\n        /* \"#utility.yul\":2426:2470   */\n      mstore\n        /* \"#utility.yul\":2487:2505   */\n      0x64\n      add\n        /* \"AA/contracts/verifier/MerkleStatementContract.sol\":1483:1522  require(height < 200, \"Height too big\") */\n    tag_21:\n      mload(0x40)\n      dup1\n      swap2\n      sub\n      swap1\n      revert\n    tag_20:\n        /* \"AA/contracts/verifier/MerkleStatementContract.sol\":1583:1616  MAX_N_MERKLE_VERIFIER_QUERIES * 2 */\n      tag_23\n        /* \"AA/contracts/verifier/IMerkleVerifier.sol\":761:764  128 */\n      0x80\n        /* \"AA/contracts/verifier/MerkleStatementContract.sol\":1615:1616  2 */\n      0x02\n        /* \"AA/contracts/verifier/MerkleStatementContract.sol\":1583:1616  MAX_N_MERKLE_VERIFIER_QUERIES * 2 */\n      tag_24\n      jump\t// in\n    tag_23:\n        /* \"AA/contracts/verifier/MerkleStatementContract.sol\":1554:1572  initialMerkleQueue */\n      dup4\n        /* \"AA/contracts/verifier/MerkleStatementContract.sol\":1554:1579  initialMerkleQueue.length */\n      mload\n        /* \"AA/contracts/verifier/MerkleStatementContract.sol\":1554:1616  initialMerkleQueue.length <= MAX_N_MERKLE_VERIFIER_QUERIES * 2 */\n      gt\n      iszero\n        /* \"AA/contracts/verifier/MerkleStatementContract.sol\":1533:1665  require(... */\n      tag_25\n      jumpi\n      mload(0x40)\n      shl(0xe5, 0x461bcd)\n      dup2\n      mstore\n        /* \"#utility.yul\":2988:2990   */\n      0x20\n        /* \"AA/contracts/verifier/MerkleStatementContract.sol\":1533:1665  require(... */\n      0x04\n      dup3\n      add\n        /* \"#utility.yul\":2970:2991   */\n      mstore\n        /* \"#utility.yul\":3027:3029   */\n      0x17\n        /* \"#utility.yul\":3007:3025   */\n      0x24\n      dup3\n      add\n        /* \"#utility.yul\":3000:3030   */\n      mstore\n      shl(0x48, 0x544f4f5f4d414e595f4d45524b4c455f51554552494553)\n        /* \"#utility.yul\":3046:3064   */\n      0x44\n      dup3\n      add\n        /* \"#utility.yul\":3039:3092   */\n      mstore\n        /* \"#utility.yul\":3109:3127   */\n      0x64\n      add\n        /* \"AA/contracts/verifier/MerkleStatementContract.sol\":1533:1665  require(... */\n      tag_21\n        /* \"#utility.yul\":2786:3133   */\n      jump\n        /* \"AA/contracts/verifier/MerkleStatementContract.sol\":1533:1665  require(... */\n    tag_25:\n        /* \"AA/contracts/verifier/MerkleStatementContract.sol\":1711:1712  2 */\n      0x02\n        /* \"AA/contracts/verifier/MerkleStatementContract.sol\":1683:1701  initialMerkleQueue */\n      dup4\n        /* \"AA/contracts/verifier/MerkleStatementContract.sol\":1683:1708  initialMerkleQueue.length */\n      mload\n        /* \"AA/contracts/verifier/MerkleStatementContract.sol\":1683:1712  initialMerkleQueue.length % 2 */\n      tag_28\n      swap2\n      swap1\n      tag_29\n      jump\t// in\n    tag_28:\n        /* \"AA/contracts/verifier/MerkleStatementContract.sol\":1683:1717  initialMerkleQueue.length % 2 == 0 */\n      iszero\n        /* \"AA/contracts/verifier/MerkleStatementContract.sol\":1675:1743  require(initialMerkleQueue.length % 2 == 0, \"ODD_MERKLE_QUEUE_SIZE\") */\n      tag_30\n      jumpi\n      mload(0x40)\n      shl(0xe5, 0x461bcd)\n      dup2\n      mstore\n        /* \"#utility.yul\":3554:3556   */\n      0x20\n        /* \"AA/contracts/verifier/MerkleStatementContract.sol\":1675:1743  require(initialMerkleQueue.length % 2 == 0, \"ODD_MERKLE_QUEUE_SIZE\") */\n      0x04\n      dup3\n      add\n        /* \"#utility.yul\":3536:3557   */\n      mstore\n        /* \"#utility.yul\":3593:3595   */\n      0x15\n        /* \"#utility.yul\":3573:3591   */\n      0x24\n      dup3\n      add\n        /* \"#utility.yul\":3566:3596   */\n      mstore\n      shl(0x58, 0x4f44445f4d45524b4c455f51554555455f53495a45)\n        /* \"#utility.yul\":3612:3630   */\n      0x44\n      dup3\n      add\n        /* \"#utility.yul\":3605:3656   */\n      mstore\n        /* \"#utility.yul\":3673:3691   */\n      0x64\n      add\n        /* \"AA/contracts/verifier/MerkleStatementContract.sol\":1675:1743  require(initialMerkleQueue.length % 2 == 0, \"ODD_MERKLE_QUEUE_SIZE\") */\n      tag_21\n        /* \"#utility.yul\":3352:3697   */\n      jump\n        /* \"AA/contracts/verifier/MerkleStatementContract.sol\":1675:1743  require(initialMerkleQueue.length % 2 == 0, \"ODD_MERKLE_QUEUE_SIZE\") */\n    tag_30:\n        /* \"AA/contracts/verifier/MerkleStatementContract.sol\":2127:2131  0x40 */\n      0x40\n        /* \"AA/contracts/verifier/MerkleStatementContract.sol\":2121:2132  mload(0x40) */\n      dup1\n      mload\n        /* \"AA/contracts/verifier/MerkleStatementContract.sol\":2036:2040  0x20 */\n      0x20\n        /* \"AA/contracts/verifier/MerkleStatementContract.sol\":2020:2041  add(merkleView, 0x20) */\n      dup7\n      dup2\n      add\n        /* \"AA/contracts/verifier/MerkleStatementContract.sol\":2293:2326  mstore(channelPtr, merkleViewPtr) */\n      dup3\n      mstore\n        /* \"AA/contracts/verifier/MerkleStatementContract.sol\":2535:2560  mload(initialMerkleQueue) */\n      dup6\n      mload\n        /* \"AA/contracts/verifier/MerkleStatementContract.sol\":2439:2468  add(initialMerkleQueue, 0x20) */\n      dup7\n      dup3\n      add\n      swap4\n        /* \"AA/contracts/verifier/MerkleStatementContract.sol\":2562:2565  0x2 */\n      0x02\n        /* \"AA/contracts/verifier/MerkleStatementContract.sol\":2531:2566  div(mload(initialMerkleQueue), 0x2) */\n      swap1\n      swap2\n      div\n      swap2\n        /* \"AA/contracts/verifier/MerkleStatementContract.sol\":2902:2923  add(channelPtr, 0x20) */\n      dup4\n      dup2\n      add\n      swap2\n        /* \"AA/contracts/verifier/MerkleStatementContract.sol\":1754:1776  uint256 merkleQueuePtr */\n      0x00\n      swap2\n        /* \"AA/contracts/verifier/MerkleStatementContract.sol\":2761:2801  mul(nQueries, MERKLE_SLOT_SIZE_IN_BYTES) */\n      swap1\n      dup5\n      mul\n        /* \"AA/contracts/verifier/MerkleStatementContract.sol\":2708:2815  add(... */\n      dup10\n      add\n      add\n        /* \"AA/contracts/verifier/MerkleStatementContract.sol\":3245:3246  1 */\n      0x01\n        /* \"AA/contracts/verifier/MerkleStatementContract.sol\":3233:3247  shl(height, 1) */\n      dup9\n      shl\n        /* \"AA/contracts/verifier/MerkleStatementContract.sol\":3260:4041  for {... */\n    tag_33:\n        /* \"AA/contracts/verifier/MerkleStatementContract.sol\":3300:3324  initialMerkleQueueEndPtr */\n      dup2\n        /* \"AA/contracts/verifier/MerkleStatementContract.sol\":3284:3298  merkleQueuePtr */\n      dup8\n        /* \"AA/contracts/verifier/MerkleStatementContract.sol\":3281:3325  lt(merkleQueuePtr, initialMerkleQueueEndPtr) */\n      lt\n        /* \"AA/contracts/verifier/MerkleStatementContract.sol\":3260:4041  for {... */\n      iszero\n      tag_35\n      jumpi\n        /* \"AA/contracts/verifier/MerkleStatementContract.sol\":3375:3396  mload(merkleQueuePtr) */\n      dup7\n      mload\n        /* \"AA/contracts/verifier/MerkleStatementContract.sol\":3717:3746  mstore(dataToHashPtr, curIdx) */\n      dup1\n      dup6\n      mstore\n        /* \"AA/contracts/verifier/MerkleStatementContract.sol\":3863:3867  0x20 */\n      0x20\n        /* \"AA/contracts/verifier/MerkleStatementContract.sol\":3843:3868  add(merkleQueuePtr, 0x20) */\n      dup1\n      dup10\n      add\n        /* \"AA/contracts/verifier/MerkleStatementContract.sol\":3837:3869  mload(add(merkleQueuePtr, 0x20)) */\n      mload\n        /* \"AA/contracts/verifier/MerkleStatementContract.sol\":3791:3815  add(dataToHashPtr, 0x20) */\n      swap1\n      dup7\n      add\n        /* \"AA/contracts/verifier/MerkleStatementContract.sol\":3763:3887  mstore(... */\n      mstore\n        /* \"AA/contracts/verifier/MerkleStatementContract.sol\":3941:3945  0x40 */\n      0x40\n        /* \"AA/contracts/verifier/MerkleStatementContract.sol\":3981:4027  add(merkleQueuePtr, MERKLE_SLOT_SIZE_IN_BYTES) */\n      swap8\n      dup9\n      add\n      swap8\n        /* \"AA/contracts/verifier/MerkleStatementContract.sol\":3922:3946  add(dataToHashPtr, 0x40) */\n      swap1\n      swap5\n      add\n      swap4\n        /* \"AA/contracts/verifier/MerkleStatementContract.sol\":3493:3518  lt(curIdx, idxLowerLimit) */\n      swap1\n      dup2\n      lt\n        /* \"AA/contracts/verifier/MerkleStatementContract.sol\":3480:3519  or(badInput, lt(curIdx, idxLowerLimit)) */\n      swap3\n      swap1\n      swap3\n      or\n      swap2\n        /* \"AA/contracts/verifier/MerkleStatementContract.sol\":3627:3628  1 */\n      0x01\n        /* \"AA/contracts/verifier/MerkleStatementContract.sol\":3615:3629  add(curIdx, 1) */\n      add\n        /* \"AA/contracts/verifier/MerkleStatementContract.sol\":3260:4041  for {... */\n      jump(tag_33)\n    tag_35:\n        /* \"AA/contracts/verifier/MerkleStatementContract.sol\":4434:4438  0x20 */\n      0x20\n        /* \"AA/contracts/verifier/MerkleStatementContract.sol\":4591:4615  add(dataToHashPtr, 0x20) */\n      dup5\n      dup2\n      add\n        /* \"AA/contracts/verifier/MerkleStatementContract.sol\":4585:4589  0x40 */\n      0x40\n        /* \"AA/contracts/verifier/MerkleStatementContract.sol\":4578:4616  mstore(0x40, add(dataToHashPtr, 0x20)) */\n      mstore\n        /* \"AA/contracts/verifier/MerkleStatementContract.sol\":4410:4439  add(initialMerkleQueue, 0x20) */\n      dup11\n      add\n      swap7\n      pop\n        /* \"AA/contracts/verifier/MerkleStatementContract.sol\":4337:4338  2 */\n      0x02\n        /* \"AA/contracts/verifier/MerkleStatementContract.sol\":4325:4339  shl(height, 2) */\n      dup10\n      shl\n      lt\n        /* \"AA/contracts/verifier/MerkleStatementContract.sol\":4294:4341  or(badInput, gt(idxLowerLimit, shl(height, 2))) */\n      swap2\n      swap1\n      swap2\n      or\n      swap1\n      pop\n        /* \"AA/contracts/verifier/MerkleStatementContract.sol\":4644:4657  badInput == 0 */\n      dup1\n      iszero\n        /* \"AA/contracts/verifier/MerkleStatementContract.sol\":4636:4684  require(badInput == 0, \"INVALID_MERKLE_INDICES\") */\n      tag_36\n      jumpi\n      mload(0x40)\n      shl(0xe5, 0x461bcd)\n      dup2\n      mstore\n        /* \"#utility.yul\":3904:3906   */\n      0x20\n        /* \"AA/contracts/verifier/MerkleStatementContract.sol\":4636:4684  require(badInput == 0, \"INVALID_MERKLE_INDICES\") */\n      0x04\n      dup3\n      add\n        /* \"#utility.yul\":3886:3907   */\n      mstore\n        /* \"#utility.yul\":3943:3945   */\n      0x16\n        /* \"#utility.yul\":3923:3941   */\n      0x24\n      dup3\n      add\n        /* \"#utility.yul\":3916:3946   */\n      mstore\n      shl(0x50, 0x494e56414c49445f4d45524b4c455f494e4449434553)\n        /* \"#utility.yul\":3962:3980   */\n      0x44\n      dup3\n      add\n        /* \"#utility.yul\":3955:4007   */\n      mstore\n        /* \"#utility.yul\":4024:4042   */\n      0x64\n      add\n        /* \"AA/contracts/verifier/MerkleStatementContract.sol\":4636:4684  require(badInput == 0, \"INVALID_MERKLE_INDICES\") */\n      tag_21\n        /* \"#utility.yul\":3702:4048   */\n      jump\n        /* \"AA/contracts/verifier/MerkleStatementContract.sol\":4636:4684  require(badInput == 0, \"INVALID_MERKLE_INDICES\") */\n    tag_36:\n        /* \"AA/contracts/verifier/MerkleStatementContract.sol\":4694:4709  bytes32 resRoot */\n      0x00\n        /* \"AA/contracts/verifier/MerkleStatementContract.sol\":4712:4843  verifyMerkle(... */\n      tag_39\n        /* \"AA/contracts/verifier/MerkleStatementContract.sol\":4738:4748  channelPtr */\n      dup6\n        /* \"AA/contracts/verifier/MerkleStatementContract.sol\":4762:4776  merkleQueuePtr */\n      dup8\n        /* \"AA/contracts/verifier/MerkleStatementContract.sol\":4798:4810  expectedRoot */\n      dup10\n        /* \"AA/contracts/verifier/MerkleStatementContract.sol\":4825:4833  nQueries */\n      dup8\n        /* \"AA/contracts/verifier/MerkleStatementContract.sol\":4712:4724  verifyMerkle */\n      tag_40\n        /* \"AA/contracts/verifier/MerkleStatementContract.sol\":4712:4843  verifyMerkle(... */\n      jump\t// in\n    tag_39:\n        /* \"AA/contracts/verifier/MerkleStatementContract.sol\":4694:4843  bytes32 resRoot = verifyMerkle(... */\n      swap1\n      pop\n        /* \"AA/contracts/verifier/MerkleStatementContract.sol\":4854:4870  bytes32 factHash */\n      0x00\n        /* \"AA/contracts/verifier/MerkleStatementContract.sol\":5022:5029  resRoot */\n      dup2\n        /* \"AA/contracts/verifier/MerkleStatementContract.sol\":5007:5020  dataToHashPtr */\n      dup5\n        /* \"AA/contracts/verifier/MerkleStatementContract.sol\":5000:5030  mstore(dataToHashPtr, resRoot) */\n      mstore\n        /* \"AA/contracts/verifier/MerkleStatementContract.sol\":5112:5116  0x20 */\n      0x20\n        /* \"AA/contracts/verifier/MerkleStatementContract.sol\":5100:5110  channelPtr */\n      dup7\n        /* \"AA/contracts/verifier/MerkleStatementContract.sol\":5096:5117  add(channelPtr, 0x20) */\n      add\n        /* \"AA/contracts/verifier/MerkleStatementContract.sol\":5079:5117  dataToHashPtr := add(channelPtr, 0x20) */\n      swap4\n      pop\n        /* \"AA/contracts/verifier/MerkleStatementContract.sol\":5192:5196  0x20 */\n      0x20\n        /* \"AA/contracts/verifier/MerkleStatementContract.sol\":5185:5189  0x40 */\n      0x40\n        /* \"AA/contracts/verifier/MerkleStatementContract.sol\":5175:5183  nQueries */\n      dup7\n        /* \"AA/contracts/verifier/MerkleStatementContract.sol\":5171:5190  mul(nQueries, 0x40) */\n      mul\n        /* \"AA/contracts/verifier/MerkleStatementContract.sol\":5167:5197  add(mul(nQueries, 0x40), 0x20) */\n      add\n        /* \"AA/contracts/verifier/MerkleStatementContract.sol\":5152:5165  dataToHashPtr */\n      dup5\n        /* \"AA/contracts/verifier/MerkleStatementContract.sol\":5142:5198  keccak256(dataToHashPtr, add(mul(nQueries, 0x40), 0x20)) */\n      keccak256\n        /* \"AA/contracts/verifier/MerkleStatementContract.sol\":5130:5198  factHash := keccak256(dataToHashPtr, add(mul(nQueries, 0x40), 0x20)) */\n      swap1\n      pop\n        /* \"AA/contracts/verifier/MerkleStatementContract.sol\":5218:5240  registerFact(factHash) */\n      tag_41\n        /* \"AA/contracts/verifier/MerkleStatementContract.sol\":5231:5239  factHash */\n      dup2\n        /* \"AA/contracts/verifier/MerkleStatementContract.sol\":5218:5230  registerFact */\n      tag_42\n        /* \"AA/contracts/verifier/MerkleStatementContract.sol\":5218:5240  registerFact(factHash) */\n      jump\t// in\n    tag_41:\n        /* \"AA/contracts/verifier/MerkleStatementContract.sol\":1382:5247  {... */\n      pop\n      pop\n      pop\n      pop\n      pop\n      pop\n      pop\n        /* \"AA/contracts/verifier/MerkleStatementContract.sol\":1211:5247  function verifyMerkle(... */\n      pop\n      pop\n      pop\n      pop\n      jump\t// out\n        /* \"AA/contracts/FactRegistry.sol\":1014:1123  function isValid(bytes32 fact) external view override returns (bool) {... */\n    tag_13:\n        /* \"AA/contracts/FactRegistry.sol\":1077:1081  bool */\n      0x00\n        /* \"AA/contracts/FactRegistry.sol\":1499:1517  verifiedFact[fact] */\n      dup2\n      dup2\n      mstore\n      0x20\n      dup2\n      swap1\n      mstore\n      0x40\n      dup2\n      keccak256\n      sload\n      0xff\n      and\n        /* \"AA/contracts/FactRegistry.sol\":1100:1116  _factCheck(fact) */\n    tag_44:\n        /* \"AA/contracts/FactRegistry.sol\":1093:1116  return _factCheck(fact) */\n      swap3\n        /* \"AA/contracts/FactRegistry.sol\":1014:1123  function isValid(bytes32 fact) external view override returns (bool) {... */\n      swap2\n      pop\n      pop\n      jump\t// out\n        /* \"AA/contracts/verifier/MerkleVerifier.sol\":1996:5942  function verifyMerkle(... */\n    tag_40:\n        /* \"AA/contracts/verifier/MerkleVerifier.sol\":2159:2171  bytes32 hash */\n      0x00\n        /* \"AA/contracts/verifier/IMerkleVerifier.sol\":761:764  128 */\n      0x80\n        /* \"AA/contracts/verifier/MerkleVerifier.sol\":2191:2192  n */\n      dup3\n        /* \"AA/contracts/verifier/MerkleVerifier.sol\":2191:2225  n <= MAX_N_MERKLE_VERIFIER_QUERIES */\n      gt\n      iszero\n        /* \"AA/contracts/verifier/MerkleVerifier.sol\":2183:2253  require(n <= MAX_N_MERKLE_VERIFIER_QUERIES, \"TOO_MANY_MERKLE_QUERIES\") */\n      tag_48\n      jumpi\n      mload(0x40)\n      shl(0xe5, 0x461bcd)\n      dup2\n      mstore\n        /* \"#utility.yul\":2988:2990   */\n      0x20\n        /* \"AA/contracts/verifier/MerkleVerifier.sol\":2183:2253  require(n <= MAX_N_MERKLE_VERIFIER_QUERIES, \"TOO_MANY_MERKLE_QUERIES\") */\n      0x04\n      dup3\n      add\n        /* \"#utility.yul\":2970:2991   */\n      mstore\n        /* \"#utility.yul\":3027:3029   */\n      0x17\n        /* \"#utility.yul\":3007:3025   */\n      0x24\n      dup3\n      add\n        /* \"#utility.yul\":3000:3030   */\n      mstore\n      shl(0x48, 0x544f4f5f4d414e595f4d45524b4c455f51554552494553)\n        /* \"#utility.yul\":3046:3064   */\n      0x44\n      dup3\n      add\n        /* \"#utility.yul\":3039:3092   */\n      mstore\n        /* \"#utility.yul\":3109:3127   */\n      0x64\n      add\n        /* \"AA/contracts/verifier/MerkleVerifier.sol\":2183:2253  require(n <= MAX_N_MERKLE_VERIFIER_QUERIES, \"TOO_MANY_MERKLE_QUERIES\") */\n      tag_21\n        /* \"#utility.yul\":2786:3133   */\n      jump\n        /* \"AA/contracts/verifier/MerkleVerifier.sol\":2183:2253  require(n <= MAX_N_MERKLE_VERIFIER_QUERIES, \"TOO_MANY_MERKLE_QUERIES\") */\n    tag_48:\n        /* \"AA/contracts/verifier/MerkleVerifier.sol\":2500:2519  INDEX_SIZE_IN_BYTES */\n      0x20\n        /* \"AA/contracts/verifier/MerkleVerifier.sol\":2490:2498  queuePtr */\n      dup5\n        /* \"AA/contracts/verifier/MerkleVerifier.sol\":2486:2520  add(queuePtr, INDEX_SIZE_IN_BYTES) */\n      add\n        /* \"AA/contracts/verifier/MerkleVerifier.sol\":2557:2582  MERKLE_SLOT_SIZE_IN_BYTES */\n      0x40\n        /* \"AA/contracts/verifier/MerkleVerifier.sol\":2554:2555  n */\n      dup4\n        /* \"AA/contracts/verifier/MerkleVerifier.sol\":2550:2583  mul(n, MERKLE_SLOT_SIZE_IN_BYTES) */\n      mul\n        /* \"AA/contracts/verifier/MerkleVerifier.sol\":2658:2659  0 */\n      0x00\n        /* \"AA/contracts/verifier/MerkleVerifier.sol\":2685:2686  0 */\n      dup1\n        /* \"AA/contracts/verifier/MerkleVerifier.sol\":2798:2806  queuePtr */\n      dup8\n        /* \"AA/contracts/verifier/MerkleVerifier.sol\":2791:2796  rdIdx */\n      dup3\n        /* \"AA/contracts/verifier/MerkleVerifier.sol\":2787:2807  add(rdIdx, queuePtr) */\n      add\n        /* \"AA/contracts/verifier/MerkleVerifier.sol\":2781:2808  mload(add(rdIdx, queuePtr)) */\n      mload\n        /* \"AA/contracts/verifier/MerkleVerifier.sol\":2843:2853  channelPtr */\n      dup10\n        /* \"AA/contracts/verifier/MerkleVerifier.sol\":2837:2854  mload(channelPtr) */\n      mload\n        /* \"AA/contracts/verifier/MerkleVerifier.sol\":2901:5724  for {... */\n    tag_50:\n        /* \"AA/contracts/verifier/MerkleVerifier.sol\":2932:2933  1 */\n      0x01\n        /* \"AA/contracts/verifier/MerkleVerifier.sol\":2925:2930  index */\n      dup3\n        /* \"AA/contracts/verifier/MerkleVerifier.sol\":2922:2934  gt(index, 1) */\n      gt\n        /* \"AA/contracts/verifier/MerkleVerifier.sol\":2901:5724  for {... */\n      iszero\n      tag_52\n      jumpi\n        /* \"AA/contracts/verifier/MerkleVerifier.sol\":3001:3002  1 */\n      0x01\n        /* \"AA/contracts/verifier/MerkleVerifier.sol\":2994:2999  index */\n      dup3\n        /* \"AA/contracts/verifier/MerkleVerifier.sol\":2990:3003  xor(index, 1) */\n      xor\n        /* \"AA/contracts/verifier/MerkleVerifier.sol\":3233:3262  TWO_COMMITMENTS_SIZE_IN_BYTES */\n      0x40\n        /* \"AA/contracts/verifier/MerkleVerifier.sol\":3187:3211  COMMITMENT_SIZE_IN_BYTES */\n      0x20\n        /* \"AA/contracts/verifier/MerkleVerifier.sol\":3153:3165  siblingIndex */\n      dup3\n        /* \"AA/contracts/verifier/MerkleVerifier.sol\":3125:3280  mulmod(... */\n      mulmod\n        /* \"AA/contracts/verifier/MerkleVerifier.sol\":3569:3578  hashesPtr */\n      dup8\n        /* \"AA/contracts/verifier/MerkleVerifier.sol\":3562:3567  rdIdx */\n      dup7\n        /* \"AA/contracts/verifier/MerkleVerifier.sol\":3558:3579  add(rdIdx, hashesPtr) */\n      add\n        /* \"AA/contracts/verifier/MerkleVerifier.sol\":3552:3580  mload(add(rdIdx, hashesPtr)) */\n      mload\n        /* \"AA/contracts/verifier/MerkleVerifier.sol\":3535:3549  sibblingOffset */\n      dup2\n        /* \"AA/contracts/verifier/MerkleVerifier.sol\":3529:3533  0x20 */\n      0x20\n        /* \"AA/contracts/verifier/MerkleVerifier.sol\":3525:3550  xor(0x20, sibblingOffset) */\n      xor\n        /* \"AA/contracts/verifier/MerkleVerifier.sol\":3518:3581  mstore(xor(0x20, sibblingOffset), mload(add(rdIdx, hashesPtr))) */\n      mstore\n        /* \"AA/contracts/verifier/MerkleVerifier.sol\":3648:3657  queueSize */\n      dup7\n        /* \"AA/contracts/verifier/MerkleVerifier.sol\":3621:3646  MERKLE_SLOT_SIZE_IN_BYTES */\n      0x40\n        /* \"AA/contracts/verifier/MerkleVerifier.sol\":3614:3619  rdIdx */\n      dup8\n        /* \"AA/contracts/verifier/MerkleVerifier.sol\":3607:3658  addmod(rdIdx, MERKLE_SLOT_SIZE_IN_BYTES, queueSize) */\n      addmod\n        /* \"AA/contracts/verifier/MerkleVerifier.sol\":4376:4377  2 */\n      0x02\n        /* \"AA/contracts/verifier/MerkleVerifier.sol\":4365:4378  div(index, 2) */\n      swap1\n      swap5\n      div\n        /* \"AA/contracts/verifier/MerkleVerifier.sol\":4343:4363  add(wrIdx, queuePtr) */\n      dup6\n      dup14\n      add\n        /* \"AA/contracts/verifier/MerkleVerifier.sol\":4336:4379  mstore(add(wrIdx, queuePtr), div(index, 2)) */\n      mstore\n        /* \"AA/contracts/verifier/MerkleVerifier.sol\":4498:4518  add(rdIdx, queuePtr) */\n      dup12\n      dup5\n      add\n        /* \"AA/contracts/verifier/MerkleVerifier.sol\":4492:4519  mload(add(rdIdx, queuePtr)) */\n      mload\n        /* \"AA/contracts/verifier/MerkleVerifier.sol\":3598:3658  rdIdx := addmod(rdIdx, MERKLE_SLOT_SIZE_IN_BYTES, queueSize) */\n      swap4\n      swap6\n      pop\n        /* \"AA/contracts/verifier/MerkleVerifier.sol\":3965:3989  COMMITMENT_SIZE_IN_BYTES */\n      0x20\n        /* \"AA/contracts/verifier/MerkleVerifier.sol\":3951:3990  add(proofPtr, COMMITMENT_SIZE_IN_BYTES) */\n      dup4\n      add\n      swap3\n        /* \"AA/contracts/verifier/MerkleVerifier.sol\":4539:4562  eq(index, siblingIndex) */\n      dup3\n      dup6\n      sub\n        /* \"AA/contracts/verifier/MerkleVerifier.sol\":4536:5267  if eq(index, siblingIndex) {... */\n      tag_53\n      jumpi\n      pop\n      not(0x1f)\n        /* \"AA/contracts/verifier/MerkleVerifier.sol\":4774:4813  sub(proofPtr, COMMITMENT_SIZE_IN_BYTES) */\n      swap1\n      swap3\n      add\n      swap2\n        /* \"AA/contracts/verifier/MerkleVerifier.sol\":4670:4691  add(rdIdx, hashesPtr) */\n      dup6\n      dup9\n      add\n        /* \"AA/contracts/verifier/MerkleVerifier.sol\":4884:4893  queueSize */\n      dup8\n        /* \"AA/contracts/verifier/MerkleVerifier.sol\":4857:4882  MERKLE_SLOT_SIZE_IN_BYTES */\n      0x40\n        /* \"AA/contracts/verifier/MerkleVerifier.sol\":4674:4679  rdIdx */\n      dup9\n        /* \"AA/contracts/verifier/MerkleVerifier.sol\":4843:4894  addmod(rdIdx, MERKLE_SLOT_SIZE_IN_BYTES, queueSize) */\n      addmod\n        /* \"AA/contracts/verifier/MerkleVerifier.sol\":4834:4894  rdIdx := addmod(rdIdx, MERKLE_SLOT_SIZE_IN_BYTES, queueSize) */\n      swap7\n      pop\n        /* \"AA/contracts/verifier/MerkleVerifier.sol\":5239:5247  queuePtr */\n      dup13\n        /* \"AA/contracts/verifier/MerkleVerifier.sol\":5232:5237  rdIdx */\n      dup8\n        /* \"AA/contracts/verifier/MerkleVerifier.sol\":5228:5248  add(rdIdx, queuePtr) */\n      add\n        /* \"AA/contracts/verifier/MerkleVerifier.sol\":5222:5249  mload(add(rdIdx, queuePtr)) */\n      mload\n        /* \"AA/contracts/verifier/MerkleVerifier.sol\":5213:5249  index := mload(add(rdIdx, queuePtr)) */\n      swap5\n      pop\n        /* \"AA/contracts/verifier/MerkleVerifier.sol\":4536:5267  if eq(index, siblingIndex) {... */\n    tag_53:\n        /* \"AA/contracts/verifier/MerkleVerifier.sol\":5308:5325  mload(newHashPtr) */\n      mload\n        /* \"AA/contracts/verifier/MerkleVerifier.sol\":5285:5326  mstore(sibblingOffset, mload(newHashPtr)) */\n      swap1\n      mstore\n      pop\n        /* \"AA/contracts/verifier/MerkleVerifier.sol\":5563:5592  TWO_COMMITMENTS_SIZE_IN_BYTES */\n      0x40\n        /* \"AA/contracts/verifier/MerkleVerifier.sol\":5557:5561  0x00 */\n      0x00\n        /* \"AA/contracts/verifier/MerkleVerifier.sol\":5547:5593  keccak256(0x00, TWO_COMMITMENTS_SIZE_IN_BYTES) */\n      dup2\n      swap1\n      keccak256\n      not(0xffffffffffffffffffffffff)\n        /* \"AA/contracts/verifier/MerkleVerifier.sol\":5477:5615  and(... */\n      and\n        /* \"AA/contracts/verifier/MerkleVerifier.sol\":5434:5455  add(wrIdx, hashesPtr) */\n      dup5\n      dup9\n      add\n        /* \"AA/contracts/verifier/MerkleVerifier.sol\":5406:5633  mstore(... */\n      mstore\n        /* \"AA/contracts/verifier/MerkleVerifier.sol\":5700:5709  queueSize */\n      dup6\n      swap1\n        /* \"AA/contracts/verifier/MerkleVerifier.sol\":5438:5443  wrIdx */\n      dup5\n        /* \"AA/contracts/verifier/MerkleVerifier.sol\":5659:5710  addmod(wrIdx, MERKLE_SLOT_SIZE_IN_BYTES, queueSize) */\n      addmod\n        /* \"AA/contracts/verifier/MerkleVerifier.sol\":5650:5710  wrIdx := addmod(wrIdx, MERKLE_SLOT_SIZE_IN_BYTES, queueSize) */\n      swap3\n      pop\n        /* \"AA/contracts/verifier/MerkleVerifier.sol\":2901:5724  for {... */\n      jump(tag_50)\n    tag_52:\n        /* \"AA/contracts/verifier/MerkleVerifier.sol\":5751:5772  add(rdIdx, hashesPtr) */\n      swap3\n      swap1\n      swap5\n      add\n        /* \"AA/contracts/verifier/MerkleVerifier.sol\":5745:5773  mload(add(rdIdx, hashesPtr)) */\n      mload\n        /* \"AA/contracts/verifier/MerkleVerifier.sol\":5843:5871  mstore(channelPtr, proofPtr) */\n      swap2\n      dup10\n      mstore\n      pop\n        /* \"AA/contracts/verifier/MerkleVerifier.sol\":5745:5773  mload(add(rdIdx, hashesPtr)) */\n      swap3\n      pop\n      pop\n      pop\n        /* \"AA/contracts/verifier/MerkleVerifier.sol\":5898:5910  hash == root */\n      dup3\n      dup2\n      eq\n        /* \"AA/contracts/verifier/MerkleVerifier.sol\":5890:5935  require(hash == root, \"INVALID_MERKLE_PROOF\") */\n      tag_54\n      jumpi\n      mload(0x40)\n      shl(0xe5, 0x461bcd)\n      dup2\n      mstore\n        /* \"#utility.yul\":4255:4257   */\n      0x20\n        /* \"AA/contracts/verifier/MerkleVerifier.sol\":5890:5935  require(hash == root, \"INVALID_MERKLE_PROOF\") */\n      0x04\n      dup3\n      add\n        /* \"#utility.yul\":4237:4258   */\n      mstore\n        /* \"#utility.yul\":4294:4296   */\n      0x14\n        /* \"#utility.yul\":4274:4292   */\n      0x24\n      dup3\n      add\n        /* \"#utility.yul\":4267:4297   */\n      mstore\n      shl(0x61, 0x24a72b20a624a22fa6a2a925a622afa82927a7a3)\n        /* \"#utility.yul\":4313:4331   */\n      0x44\n      dup3\n      add\n        /* \"#utility.yul\":4306:4356   */\n      mstore\n        /* \"#utility.yul\":4373:4391   */\n      0x64\n      add\n        /* \"AA/contracts/verifier/MerkleVerifier.sol\":5890:5935  require(hash == root, \"INVALID_MERKLE_PROOF\") */\n      tag_21\n        /* \"#utility.yul\":4053:4397   */\n      jump\n        /* \"AA/contracts/verifier/MerkleVerifier.sol\":5890:5935  require(hash == root, \"INVALID_MERKLE_PROOF\") */\n    tag_54:\n        /* \"AA/contracts/verifier/MerkleVerifier.sol\":1996:5942  function verifyMerkle(... */\n      swap5\n      swap4\n      pop\n      pop\n      pop\n      pop\n      jump\t// out\n        /* \"AA/contracts/FactRegistry.sol\":1530:1802  function registerFact(bytes32 factHash) internal {... */\n    tag_42:\n        /* \"AA/contracts/FactRegistry.sol\":1651:1663  verifiedFact */\n      0x00\n        /* \"AA/contracts/FactRegistry.sol\":1651:1673  verifiedFact[factHash] */\n      dup2\n      dup2\n      mstore\n      0x20\n      dup2\n      swap1\n      mstore\n      0x40\n      swap1\n      keccak256\n        /* \"AA/contracts/FactRegistry.sol\":1651:1680  verifiedFact[factHash] = true */\n      dup1\n      sload\n      not(0xff)\n      and\n        /* \"AA/contracts/FactRegistry.sol\":1676:1680  true */\n      0x01\n        /* \"AA/contracts/FactRegistry.sol\":1651:1680  verifiedFact[factHash] = true */\n      swap1\n      dup2\n      or\n      swap1\n      swap2\n      sstore\n        /* \"AA/contracts/FactRegistry.sol\":1728:1745  anyFactRegistered */\n      sload\n        /* \"AA/contracts/FactRegistry.sol\":1651:1680  verifiedFact[factHash] = true */\n      0xff\n        /* \"AA/contracts/FactRegistry.sol\":1728:1745  anyFactRegistered */\n      and\n        /* \"AA/contracts/FactRegistry.sol\":1723:1796  if (!anyFactRegistered) {... */\n      tag_58\n      jumpi\n        /* \"AA/contracts/FactRegistry.sol\":1781:1785  true */\n      0x01\n        /* \"AA/contracts/FactRegistry.sol\":1761:1785  anyFactRegistered = true */\n      dup1\n      sload\n      not(0xff)\n      and\n      dup2\n      or\n      swap1\n      sstore\n        /* \"AA/contracts/FactRegistry.sol\":1723:1796  if (!anyFactRegistered) {... */\n    tag_58:\n        /* \"AA/contracts/FactRegistry.sol\":1530:1802  function registerFact(bytes32 factHash) internal {... */\n      pop\n      jump\t// out\n        /* \"#utility.yul\":14:141   */\n    tag_60:\n        /* \"#utility.yul\":75:85   */\n      0x4e487b71\n        /* \"#utility.yul\":70:73   */\n      0xe0\n        /* \"#utility.yul\":66:86   */\n      shl\n        /* \"#utility.yul\":63:64   */\n      0x00\n        /* \"#utility.yul\":56:87   */\n      mstore\n        /* \"#utility.yul\":106:110   */\n      0x41\n        /* \"#utility.yul\":103:104   */\n      0x04\n        /* \"#utility.yul\":96:111   */\n      mstore\n        /* \"#utility.yul\":130:134   */\n      0x24\n        /* \"#utility.yul\":127:128   */\n      0x00\n        /* \"#utility.yul\":120:135   */\n      revert\n        /* \"#utility.yul\":146:1054   */\n    tag_61:\n        /* \"#utility.yul\":200:205   */\n      0x00\n        /* \"#utility.yul\":253:256   */\n      dup3\n        /* \"#utility.yul\":246:250   */\n      0x1f\n        /* \"#utility.yul\":238:244   */\n      dup4\n        /* \"#utility.yul\":234:251   */\n      add\n        /* \"#utility.yul\":230:257   */\n      slt\n        /* \"#utility.yul\":220:275   */\n      tag_65\n      jumpi\n        /* \"#utility.yul\":271:272   */\n      0x00\n        /* \"#utility.yul\":268:269   */\n      dup1\n        /* \"#utility.yul\":261:273   */\n      revert\n        /* \"#utility.yul\":220:275   */\n    tag_65:\n        /* \"#utility.yul\":307:313   */\n      dup2\n        /* \"#utility.yul\":294:314   */\n      calldataload\n        /* \"#utility.yul\":333:337   */\n      0x20\n        /* \"#utility.yul\":356:374   */\n      0xffffffffffffffff\n        /* \"#utility.yul\":393:395   */\n      dup1\n        /* \"#utility.yul\":389:391   */\n      dup4\n        /* \"#utility.yul\":386:396   */\n      gt\n        /* \"#utility.yul\":383:419   */\n      iszero\n      tag_67\n      jumpi\n        /* \"#utility.yul\":399:417   */\n      tag_67\n      tag_60\n      jump\t// in\n    tag_67:\n        /* \"#utility.yul\":445:447   */\n      dup3\n        /* \"#utility.yul\":442:443   */\n      0x05\n        /* \"#utility.yul\":438:448   */\n      shl\n        /* \"#utility.yul\":477:479   */\n      0x40\n        /* \"#utility.yul\":471:480   */\n      mload\n        /* \"#utility.yul\":540:542   */\n      0x1f\n        /* \"#utility.yul\":536:543   */\n      not\n        /* \"#utility.yul\":531:533   */\n      0x3f\n        /* \"#utility.yul\":527:529   */\n      dup4\n        /* \"#utility.yul\":523:534   */\n      add\n        /* \"#utility.yul\":519:544   */\n      and\n        /* \"#utility.yul\":511:517   */\n      dup2\n        /* \"#utility.yul\":507:545   */\n      add\n        /* \"#utility.yul\":595:601   */\n      dup2\n        /* \"#utility.yul\":583:593   */\n      dup2\n        /* \"#utility.yul\":580:602   */\n      lt\n        /* \"#utility.yul\":575:577   */\n      dup5\n        /* \"#utility.yul\":563:573   */\n      dup3\n        /* \"#utility.yul\":560:578   */\n      gt\n        /* \"#utility.yul\":557:603   */\n      or\n        /* \"#utility.yul\":554:626   */\n      iszero\n      tag_69\n      jumpi\n        /* \"#utility.yul\":606:624   */\n      tag_69\n      tag_60\n      jump\t// in\n    tag_69:\n        /* \"#utility.yul\":642:644   */\n      0x40\n        /* \"#utility.yul\":635:657   */\n      mstore\n        /* \"#utility.yul\":692:710   */\n      swap4\n      dup5\n      mstore\n        /* \"#utility.yul\":738:742   */\n      0x20\n        /* \"#utility.yul\":770:785   */\n      dup2\n      dup8\n      add\n        /* \"#utility.yul\":766:792   */\n      dup2\n      add\n      swap5\n        /* \"#utility.yul\":726:743   */\n      swap1\n      dup2\n      add\n      swap3\n      pop\n        /* \"#utility.yul\":804:819   */\n      dup8\n      dup6\n      gt\n        /* \"#utility.yul\":801:836   */\n      iszero\n      tag_70\n      jumpi\n        /* \"#utility.yul\":832:833   */\n      0x00\n        /* \"#utility.yul\":829:830   */\n      dup1\n        /* \"#utility.yul\":822:834   */\n      revert\n        /* \"#utility.yul\":801:836   */\n    tag_70:\n        /* \"#utility.yul\":868:872   */\n      0x20\n        /* \"#utility.yul\":860:866   */\n      dup8\n        /* \"#utility.yul\":856:873   */\n      add\n        /* \"#utility.yul\":845:873   */\n      swap2\n      pop\n        /* \"#utility.yul\":882:1024   */\n    tag_71:\n        /* \"#utility.yul\":898:904   */\n      dup5\n        /* \"#utility.yul\":893:896   */\n      dup3\n        /* \"#utility.yul\":890:905   */\n      lt\n        /* \"#utility.yul\":882:1024   */\n      iszero\n      tag_73\n      jumpi\n        /* \"#utility.yul\":964:981   */\n      dup2\n      calldataload\n        /* \"#utility.yul\":952:982   */\n      dup4\n      mstore\n        /* \"#utility.yul\":1002:1014   */\n      swap2\n      dup4\n      add\n      swap2\n        /* \"#utility.yul\":915:927   */\n      swap1\n      dup4\n      add\n      swap1\n        /* \"#utility.yul\":882:1024   */\n      jump(tag_71)\n    tag_73:\n        /* \"#utility.yul\":1042:1048   */\n      swap8\n        /* \"#utility.yul\":146:1054   */\n      swap7\n      pop\n      pop\n      pop\n      pop\n      pop\n      pop\n      pop\n      jump\t// out\n        /* \"#utility.yul\":1059:1791   */\n    tag_8:\n        /* \"#utility.yul\":1195:1201   */\n      0x00\n        /* \"#utility.yul\":1203:1209   */\n      dup1\n        /* \"#utility.yul\":1211:1217   */\n      0x00\n        /* \"#utility.yul\":1219:1225   */\n      dup1\n        /* \"#utility.yul\":1272:1275   */\n      0x80\n        /* \"#utility.yul\":1260:1269   */\n      dup6\n        /* \"#utility.yul\":1251:1258   */\n      dup8\n        /* \"#utility.yul\":1247:1270   */\n      sub\n        /* \"#utility.yul\":1243:1276   */\n      slt\n        /* \"#utility.yul\":1240:1293   */\n      iszero\n      tag_75\n      jumpi\n        /* \"#utility.yul\":1289:1290   */\n      0x00\n        /* \"#utility.yul\":1286:1287   */\n      dup1\n        /* \"#utility.yul\":1279:1291   */\n      revert\n        /* \"#utility.yul\":1240:1293   */\n    tag_75:\n        /* \"#utility.yul\":1329:1338   */\n      dup5\n        /* \"#utility.yul\":1316:1339   */\n      calldataload\n        /* \"#utility.yul\":1358:1376   */\n      0xffffffffffffffff\n        /* \"#utility.yul\":1399:1401   */\n      dup1\n        /* \"#utility.yul\":1391:1397   */\n      dup3\n        /* \"#utility.yul\":1388:1402   */\n      gt\n        /* \"#utility.yul\":1385:1419   */\n      iszero\n      tag_76\n      jumpi\n        /* \"#utility.yul\":1415:1416   */\n      0x00\n        /* \"#utility.yul\":1412:1413   */\n      dup1\n        /* \"#utility.yul\":1405:1417   */\n      revert\n        /* \"#utility.yul\":1385:1419   */\n    tag_76:\n        /* \"#utility.yul\":1438:1499   */\n      tag_77\n        /* \"#utility.yul\":1491:1498   */\n      dup9\n        /* \"#utility.yul\":1482:1488   */\n      dup4\n        /* \"#utility.yul\":1471:1480   */\n      dup10\n        /* \"#utility.yul\":1467:1489   */\n      add\n        /* \"#utility.yul\":1438:1499   */\n      tag_61\n      jump\t// in\n    tag_77:\n        /* \"#utility.yul\":1428:1499   */\n      swap6\n      pop\n        /* \"#utility.yul\":1552:1554   */\n      0x20\n        /* \"#utility.yul\":1541:1550   */\n      dup8\n        /* \"#utility.yul\":1537:1555   */\n      add\n        /* \"#utility.yul\":1524:1556   */\n      calldataload\n        /* \"#utility.yul\":1508:1556   */\n      swap2\n      pop\n        /* \"#utility.yul\":1581:1583   */\n      dup1\n        /* \"#utility.yul\":1571:1579   */\n      dup3\n        /* \"#utility.yul\":1568:1584   */\n      gt\n        /* \"#utility.yul\":1565:1601   */\n      iszero\n      tag_78\n      jumpi\n        /* \"#utility.yul\":1597:1598   */\n      0x00\n        /* \"#utility.yul\":1594:1595   */\n      dup1\n        /* \"#utility.yul\":1587:1599   */\n      revert\n        /* \"#utility.yul\":1565:1601   */\n    tag_78:\n      pop\n        /* \"#utility.yul\":1620:1683   */\n      tag_79\n        /* \"#utility.yul\":1675:1682   */\n      dup8\n        /* \"#utility.yul\":1664:1672   */\n      dup3\n        /* \"#utility.yul\":1653:1662   */\n      dup9\n        /* \"#utility.yul\":1649:1673   */\n      add\n        /* \"#utility.yul\":1620:1683   */\n      tag_61\n      jump\t// in\n    tag_79:\n        /* \"#utility.yul\":1059:1791   */\n      swap5\n      swap8\n        /* \"#utility.yul\":1610:1683   */\n      swap5\n      swap7\n      pop\n      pop\n      pop\n      pop\n        /* \"#utility.yul\":1730:1732   */\n      0x40\n        /* \"#utility.yul\":1715:1733   */\n      dup4\n      add\n        /* \"#utility.yul\":1702:1734   */\n      calldataload\n      swap3\n        /* \"#utility.yul\":1781:1783   */\n      0x60\n        /* \"#utility.yul\":1766:1784   */\n      add\n        /* \"#utility.yul\":1753:1785   */\n      calldataload\n      swap2\n        /* \"#utility.yul\":1059:1791   */\n      swap1\n      pop\n      jump\t// out\n        /* \"#utility.yul\":1796:1976   */\n    tag_12:\n        /* \"#utility.yul\":1855:1861   */\n      0x00\n        /* \"#utility.yul\":1908:1910   */\n      0x20\n        /* \"#utility.yul\":1896:1905   */\n      dup3\n        /* \"#utility.yul\":1887:1894   */\n      dup5\n        /* \"#utility.yul\":1883:1906   */\n      sub\n        /* \"#utility.yul\":1879:1911   */\n      slt\n        /* \"#utility.yul\":1876:1928   */\n      iszero\n      tag_81\n      jumpi\n        /* \"#utility.yul\":1924:1925   */\n      0x00\n        /* \"#utility.yul\":1921:1922   */\n      dup1\n        /* \"#utility.yul\":1914:1926   */\n      revert\n        /* \"#utility.yul\":1876:1928   */\n    tag_81:\n      pop\n        /* \"#utility.yul\":1947:1970   */\n      calldataload\n      swap2\n        /* \"#utility.yul\":1796:1976   */\n      swap1\n      pop\n      jump\t// out\n        /* \"#utility.yul\":2516:2781   */\n    tag_24:\n        /* \"#utility.yul\":2589:2598   */\n      dup1\n      dup3\n      mul\n        /* \"#utility.yul\":2620:2629   */\n      dup2\n      iszero\n        /* \"#utility.yul\":2637:2652   */\n      dup3\n      dup3\n      div\n        /* \"#utility.yul\":2631:2653   */\n      dup5\n      eq\n        /* \"#utility.yul\":2617:2654   */\n      or\n        /* \"#utility.yul\":2607:2775   */\n      tag_44\n      jumpi\n        /* \"#utility.yul\":2697:2707   */\n      0x4e487b71\n        /* \"#utility.yul\":2692:2695   */\n      0xe0\n        /* \"#utility.yul\":2688:2708   */\n      shl\n        /* \"#utility.yul\":2685:2686   */\n      0x00\n        /* \"#utility.yul\":2678:2709   */\n      mstore\n        /* \"#utility.yul\":2732:2736   */\n      0x11\n        /* \"#utility.yul\":2729:2730   */\n      0x04\n        /* \"#utility.yul\":2722:2737   */\n      mstore\n        /* \"#utility.yul\":2760:2764   */\n      0x24\n        /* \"#utility.yul\":2757:2758   */\n      0x00\n        /* \"#utility.yul\":2750:2765   */\n      revert\n        /* \"#utility.yul\":3138:3347   */\n    tag_29:\n        /* \"#utility.yul\":3170:3171   */\n      0x00\n        /* \"#utility.yul\":3196:3197   */\n      dup3\n        /* \"#utility.yul\":3186:3318   */\n      tag_88\n      jumpi\n        /* \"#utility.yul\":3240:3250   */\n      0x4e487b71\n        /* \"#utility.yul\":3235:3238   */\n      0xe0\n        /* \"#utility.yul\":3231:3251   */\n      shl\n        /* \"#utility.yul\":3228:3229   */\n      0x00\n        /* \"#utility.yul\":3221:3252   */\n      mstore\n        /* \"#utility.yul\":3275:3279   */\n      0x12\n        /* \"#utility.yul\":3272:3273   */\n      0x04\n        /* \"#utility.yul\":3265:3280   */\n      mstore\n        /* \"#utility.yul\":3303:3307   */\n      0x24\n        /* \"#utility.yul\":3300:3301   */\n      0x00\n        /* \"#utility.yul\":3293:3308   */\n      revert\n        /* \"#utility.yul\":3186:3318   */\n    tag_88:\n      pop\n        /* \"#utility.yul\":3332:3341   */\n      mod\n      swap1\n        /* \"#utility.yul\":3138:3347   */\n      jump\t// out\n\n    auxdata: 0xa264697066735822122086b7d21023747acc14e5ec3e7fe8c0978cb46e2dbbe62593a7ffe7a99358d6c164736f6c63430008160033\n}\n",
				"bytecode": {
					"linkReferences": {},
					"object": "60806040526001805460ff19169055348015610019575f80fd5b50610598806100275f395ff3fe608060405234801561000f575f80fd5b506004361061003f575f3560e01c80633fe317a6146100435780636a93856714610058578063d6354e151461007f575b5f80fd5b61005661005136600461049a565b61008a565b005b61006b610066366004610509565b61026a565b604051901515815260200160405180910390f35b60015460ff1661006b565b60c882106100d05760405162461bcd60e51b815260206004820152600e60248201526d48656967687420746f6f2062696760901b60448201526064015b60405180910390fd5b6100dc60806002610520565b835111156101265760405162461bcd60e51b8152602060048201526017602482015276544f4f5f4d414e595f4d45524b4c455f5155455249455360481b60448201526064016100c7565b600283516101349190610543565b156101795760405162461bcd60e51b81526020600482015260156024820152744f44445f4d45524b4c455f51554555455f53495a4560581b60448201526064016100c7565b6040805160208681018252855186820193600290910491838101915f919084028901016001881b5b818710156101d2578651808552602080890151908601526040978801979094019390811092909217916001016101a1565b60208481016040528a0196506002891b1091909117905080156102305760405162461bcd60e51b8152602060048201526016602482015275494e56414c49445f4d45524b4c455f494e444943455360501b60448201526064016100c7565b5f61023d85878987610282565b90505f818452602086019350602060408602018420905061025d816103b8565b5050505050505050505050565b5f8181526020819052604081205460ff165b92915050565b5f60808211156102ce5760405162461bcd60e51b8152602060048201526017602482015276544f4f5f4d414e595f4d45524b4c455f5155455249455360481b60448201526064016100c7565b60208401604083025f808782015189515b600182111561035d576001821860406020820987860151816020185286604087086002909404858d01528b84015193955060208301928285036103355750601f1990920191858801876040880896508c87015194505b5190525060405f8190206bffffffffffffffffffffffff1916848801528590840892506102df565b929094015191895250925050508281146103b05760405162461bcd60e51b815260206004820152601460248201527324a72b20a624a22fa6a2a925a622afa82927a7a360611b60448201526064016100c7565b949350505050565b5f818152602081905260409020805460ff191660019081179091555460ff166103e8576001805460ff1916811790555b50565b634e487b7160e01b5f52604160045260245ffd5b5f82601f83011261040e575f80fd5b8135602067ffffffffffffffff8083111561042b5761042b6103eb565b8260051b604051601f19603f83011681018181108482111715610450576104506103eb565b604052938452602081870181019490810192508785111561046f575f80fd5b6020870191505b8482101561048f57813583529183019190830190610476565b979650505050505050565b5f805f80608085870312156104ad575f80fd5b843567ffffffffffffffff808211156104c4575f80fd5b6104d0888389016103ff565b955060208701359150808211156104e5575f80fd5b506104f2878288016103ff565b949794965050505060408301359260600135919050565b5f60208284031215610519575f80fd5b5035919050565b808202811582820484141761027c57634e487b7160e01b5f52601160045260245ffd5b5f8261055d57634e487b7160e01b5f52601260045260245ffd5b50069056fea264697066735822122086b7d21023747acc14e5ec3e7fe8c0978cb46e2dbbe62593a7ffe7a99358d6c164736f6c63430008160033",
					"opcodes": "PUSH1 0x80 PUSH1 0x40 MSTORE PUSH1 0x1 DUP1 SLOAD PUSH1 0xFF NOT AND SWAP1 SSTORE CALLVALUE DUP1 ISZERO PUSH2 0x19 JUMPI PUSH0 DUP1 REVERT JUMPDEST POP PUSH2 0x598 DUP1 PUSH2 0x27 PUSH0 CODECOPY PUSH0 RETURN INVALID PUSH1 0x80 PUSH1 0x40 MSTORE CALLVALUE DUP1 ISZERO PUSH2 0xF JUMPI PUSH0 DUP1 REVERT JUMPDEST POP PUSH1 0x4 CALLDATASIZE LT PUSH2 0x3F JUMPI PUSH0 CALLDATALOAD PUSH1 0xE0 SHR DUP1 PUSH4 0x3FE317A6 EQ PUSH2 0x43 JUMPI DUP1 PUSH4 0x6A938567 EQ PUSH2 0x58 JUMPI DUP1 PUSH4 0xD6354E15 EQ PUSH2 0x7F JUMPI JUMPDEST PUSH0 DUP1 REVERT JUMPDEST PUSH2 0x56 PUSH2 0x51 CALLDATASIZE PUSH1 0x4 PUSH2 0x49A JUMP JUMPDEST PUSH2 0x8A JUMP JUMPDEST STOP JUMPDEST PUSH2 0x6B PUSH2 0x66 CALLDATASIZE PUSH1 0x4 PUSH2 0x509 JUMP JUMPDEST PUSH2 0x26A JUMP JUMPDEST PUSH1 0x40 MLOAD SWAP1 ISZERO ISZERO DUP2 MSTORE PUSH1 0x20 ADD PUSH1 0x40 MLOAD DUP1 SWAP2 SUB SWAP1 RETURN JUMPDEST PUSH1 0x1 SLOAD PUSH1 0xFF AND PUSH2 0x6B JUMP JUMPDEST PUSH1 0xC8 DUP3 LT PUSH2 0xD0 JUMPI PUSH1 0x40 MLOAD PUSH3 0x461BCD PUSH1 0xE5 SHL DUP2 MSTORE PUSH1 0x20 PUSH1 0x4 DUP3 ADD MSTORE PUSH1 0xE PUSH1 0x24 DUP3 ADD MSTORE PUSH14 0x48656967687420746F6F20626967 PUSH1 0x90 SHL PUSH1 0x44 DUP3 ADD MSTORE PUSH1 0x64 ADD JUMPDEST PUSH1 0x40 MLOAD DUP1 SWAP2 SUB SWAP1 REVERT JUMPDEST PUSH2 0xDC PUSH1 0x80 PUSH1 0x2 PUSH2 0x520 JUMP JUMPDEST DUP4 MLOAD GT ISZERO PUSH2 0x126 JUMPI PUSH1 0x40 MLOAD PUSH3 0x461BCD PUSH1 0xE5 SHL DUP2 MSTORE PUSH1 0x20 PUSH1 0x4 DUP3 ADD MSTORE PUSH1 0x17 PUSH1 0x24 DUP3 ADD MSTORE PUSH23 0x544F4F5F4D414E595F4D45524B4C455F51554552494553 PUSH1 0x48 SHL PUSH1 0x44 DUP3 ADD MSTORE PUSH1 0x64 ADD PUSH2 0xC7 JUMP JUMPDEST PUSH1 0x2 DUP4 MLOAD PUSH2 0x134 SWAP2 SWAP1 PUSH2 0x543 JUMP JUMPDEST ISZERO PUSH2 0x179 JUMPI PUSH1 0x40 MLOAD PUSH3 0x461BCD PUSH1 0xE5 SHL DUP2 MSTORE PUSH1 0x20 PUSH1 0x4 DUP3 ADD MSTORE PUSH1 0x15 PUSH1 0x24 DUP3 ADD MSTORE PUSH21 0x4F44445F4D45524B4C455F51554555455F53495A45 PUSH1 0x58 SHL PUSH1 0x44 DUP3 ADD MSTORE PUSH1 0x64 ADD PUSH2 0xC7 JUMP JUMPDEST PUSH1 0x40 DUP1 MLOAD PUSH1 0x20 DUP7 DUP2 ADD DUP3 MSTORE DUP6 MLOAD DUP7 DUP3 ADD SWAP4 PUSH1 0x2 SWAP1 SWAP2 DIV SWAP2 DUP4 DUP2 ADD SWAP2 PUSH0 SWAP2 SWAP1 DUP5 MUL DUP10 ADD ADD PUSH1 0x1 DUP9 SHL JUMPDEST DUP2 DUP8 LT ISZERO PUSH2 0x1D2 JUMPI DUP7 MLOAD DUP1 DUP6 MSTORE PUSH1 0x20 DUP1 DUP10 ADD MLOAD SWAP1 DUP7 ADD MSTORE PUSH1 0x40 SWAP8 DUP9 ADD SWAP8 SWAP1 SWAP5 ADD SWAP4 SWAP1 DUP2 LT SWAP3 SWAP1 SWAP3 OR SWAP2 PUSH1 0x1 ADD PUSH2 0x1A1 JUMP JUMPDEST PUSH1 0x20 DUP5 DUP2 ADD PUSH1 0x40 MSTORE DUP11 ADD SWAP7 POP PUSH1 0x2 DUP10 SHL LT SWAP2 SWAP1 SWAP2 OR SWAP1 POP DUP1 ISZERO PUSH2 0x230 JUMPI PUSH1 0x40 MLOAD PUSH3 0x461BCD PUSH1 0xE5 SHL DUP2 MSTORE PUSH1 0x20 PUSH1 0x4 DUP3 ADD MSTORE PUSH1 0x16 PUSH1 0x24 DUP3 ADD MSTORE PUSH22 0x494E56414C49445F4D45524B4C455F494E4449434553 PUSH1 0x50 SHL PUSH1 0x44 DUP3 ADD MSTORE PUSH1 0x64 ADD PUSH2 0xC7 JUMP JUMPDEST PUSH0 PUSH2 0x23D DUP6 DUP8 DUP10 DUP8 PUSH2 0x282 JUMP JUMPDEST SWAP1 POP PUSH0 DUP2 DUP5 MSTORE PUSH1 0x20 DUP7 ADD SWAP4 POP PUSH1 0x20 PUSH1 0x40 DUP7 MUL ADD DUP5 KECCAK256 SWAP1 POP PUSH2 0x25D DUP2 PUSH2 0x3B8 JUMP JUMPDEST POP POP POP POP POP POP POP POP POP POP POP JUMP JUMPDEST PUSH0 DUP2 DUP2 MSTORE PUSH1 0x20 DUP2 SWAP1 MSTORE PUSH1 0x40 DUP2 KECCAK256 SLOAD PUSH1 0xFF AND JUMPDEST SWAP3 SWAP2 POP POP JUMP JUMPDEST PUSH0 PUSH1 0x80 DUP3 GT ISZERO PUSH2 0x2CE JUMPI PUSH1 0x40 MLOAD PUSH3 0x461BCD PUSH1 0xE5 SHL DUP2 MSTORE PUSH1 0x20 PUSH1 0x4 DUP3 ADD MSTORE PUSH1 0x17 PUSH1 0x24 DUP3 ADD MSTORE PUSH23 0x544F4F5F4D414E595F4D45524B4C455F51554552494553 PUSH1 0x48 SHL PUSH1 0x44 DUP3 ADD MSTORE PUSH1 0x64 ADD PUSH2 0xC7 JUMP JUMPDEST PUSH1 0x20 DUP5 ADD PUSH1 0x40 DUP4 MUL PUSH0 DUP1 DUP8 DUP3 ADD MLOAD DUP10 MLOAD JUMPDEST PUSH1 0x1 DUP3 GT ISZERO PUSH2 0x35D JUMPI PUSH1 0x1 DUP3 XOR PUSH1 0x40 PUSH1 0x20 DUP3 MULMOD DUP8 DUP7 ADD MLOAD DUP2 PUSH1 0x20 XOR MSTORE DUP7 PUSH1 0x40 DUP8 ADDMOD PUSH1 0x2 SWAP1 SWAP5 DIV DUP6 DUP14 ADD MSTORE DUP12 DUP5 ADD MLOAD SWAP4 SWAP6 POP PUSH1 0x20 DUP4 ADD SWAP3 DUP3 DUP6 SUB PUSH2 0x335 JUMPI POP PUSH1 0x1F NOT SWAP1 SWAP3 ADD SWAP2 DUP6 DUP9 ADD DUP8 PUSH1 0x40 DUP9 ADDMOD SWAP7 POP DUP13 DUP8 ADD MLOAD SWAP5 POP JUMPDEST MLOAD SWAP1 MSTORE POP PUSH1 0x40 PUSH0 DUP2 SWAP1 KECCAK256 PUSH12 0xFFFFFFFFFFFFFFFFFFFFFFFF NOT AND DUP5 DUP9 ADD MSTORE DUP6 SWAP1 DUP5 ADDMOD SWAP3 POP PUSH2 0x2DF JUMP JUMPDEST SWAP3 SWAP1 SWAP5 ADD MLOAD SWAP2 DUP10 MSTORE POP SWAP3 POP POP POP DUP3 DUP2 EQ PUSH2 0x3B0 JUMPI PUSH1 0x40 MLOAD PUSH3 0x461BCD PUSH1 0xE5 SHL DUP2 MSTORE PUSH1 0x20 PUSH1 0x4 DUP3 ADD MSTORE PUSH1 0x14 PUSH1 0x24 DUP3 ADD MSTORE PUSH20 0x24A72B20A624A22FA6A2A925A622AFA82927A7A3 PUSH1 0x61 SHL PUSH1 0x44 DUP3 ADD MSTORE PUSH1 0x64 ADD PUSH2 0xC7 JUMP JUMPDEST SWAP5 SWAP4 POP POP POP POP JUMP JUMPDEST PUSH0 DUP2 DUP2 MSTORE PUSH1 0x20 DUP2 SWAP1 MSTORE PUSH1 0x40 SWAP1 KECCAK256 DUP1 SLOAD PUSH1 0xFF NOT AND PUSH1 0x1 SWAP1 DUP2 OR SWAP1 SWAP2 SSTORE SLOAD PUSH1 0xFF AND PUSH2 0x3E8 JUMPI PUSH1 0x1 DUP1 SLOAD PUSH1 0xFF NOT AND DUP2 OR SWAP1 SSTORE JUMPDEST POP JUMP JUMPDEST PUSH4 0x4E487B71 PUSH1 0xE0 SHL PUSH0 MSTORE PUSH1 0x41 PUSH1 0x4 MSTORE PUSH1 0x24 PUSH0 REVERT JUMPDEST PUSH0 DUP3 PUSH1 0x1F DUP4 ADD SLT PUSH2 0x40E JUMPI PUSH0 DUP1 REVERT JUMPDEST DUP2 CALLDATALOAD PUSH1 0x20 PUSH8 0xFFFFFFFFFFFFFFFF DUP1 DUP4 GT ISZERO PUSH2 0x42B JUMPI PUSH2 0x42B PUSH2 0x3EB JUMP JUMPDEST DUP3 PUSH1 0x5 SHL PUSH1 0x40 MLOAD PUSH1 0x1F NOT PUSH1 0x3F DUP4 ADD AND DUP2 ADD DUP2 DUP2 LT DUP5 DUP3 GT OR ISZERO PUSH2 0x450 JUMPI PUSH2 0x450 PUSH2 0x3EB JUMP JUMPDEST PUSH1 0x40 MSTORE SWAP4 DUP5 MSTORE PUSH1 0x20 DUP2 DUP8 ADD DUP2 ADD SWAP5 SWAP1 DUP2 ADD SWAP3 POP DUP8 DUP6 GT ISZERO PUSH2 0x46F JUMPI PUSH0 DUP1 REVERT JUMPDEST PUSH1 0x20 DUP8 ADD SWAP2 POP JUMPDEST DUP5 DUP3 LT ISZERO PUSH2 0x48F JUMPI DUP2 CALLDATALOAD DUP4 MSTORE SWAP2 DUP4 ADD SWAP2 SWAP1 DUP4 ADD SWAP1 PUSH2 0x476 JUMP JUMPDEST SWAP8 SWAP7 POP POP POP POP POP POP POP JUMP JUMPDEST PUSH0 DUP1 PUSH0 DUP1 PUSH1 0x80 DUP6 DUP8 SUB SLT ISZERO PUSH2 0x4AD JUMPI PUSH0 DUP1 REVERT JUMPDEST DUP5 CALLDATALOAD PUSH8 0xFFFFFFFFFFFFFFFF DUP1 DUP3 GT ISZERO PUSH2 0x4C4 JUMPI PUSH0 DUP1 REVERT JUMPDEST PUSH2 0x4D0 DUP9 DUP4 DUP10 ADD PUSH2 0x3FF JUMP JUMPDEST SWAP6 POP PUSH1 0x20 DUP8 ADD CALLDATALOAD SWAP2 POP DUP1 DUP3 GT ISZERO PUSH2 0x4E5 JUMPI PUSH0 DUP1 REVERT JUMPDEST POP PUSH2 0x4F2 DUP8 DUP3 DUP9 ADD PUSH2 0x3FF JUMP JUMPDEST SWAP5 SWAP8 SWAP5 SWAP7 POP POP POP POP PUSH1 0x40 DUP4 ADD CALLDATALOAD SWAP3 PUSH1 0x60 ADD CALLDATALOAD SWAP2 SWAP1 POP JUMP JUMPDEST PUSH0 PUSH1 0x20 DUP3 DUP5 SUB SLT ISZERO PUSH2 0x519 JUMPI PUSH0 DUP1 REVERT JUMPDEST POP CALLDATALOAD SWAP2 SWAP1 POP JUMP JUMPDEST DUP1 DUP3 MUL DUP2 ISZERO DUP3 DUP3 DIV DUP5 EQ OR PUSH2 0x27C JUMPI PUSH4 0x4E487B71 PUSH1 0xE0 SHL PUSH0 MSTORE PUSH1 0x11 PUSH1 0x4 MSTORE PUSH1 0x24 PUSH0 REVERT JUMPDEST PUSH0 DUP3 PUSH2 0x55D JUMPI PUSH4 0x4E487B71 PUSH1 0xE0 SHL PUSH0 MSTORE PUSH1 0x12 PUSH1 0x4 MSTORE PUSH1 0x24 PUSH0 REVERT JUMPDEST POP MOD SWAP1 JUMP INVALID LOG2 PUSH5 0x6970667358 0x22 SLT KECCAK256 DUP7 0xB7 0xD2 LT 0x23 PUSH21 0x7ACC14E5EC3E7FE8C0978CB46E2DBBE62593A7FFE7 0xA9 SWAP4 PC 0xD6 0xC1 PUSH5 0x736F6C6343 STOP ADDMOD AND STOP CALLER "
				},
				"gasEstimates": {
					"creation": {
						"codeDepositCost": "286400",
						"executionCost": "24540",
						"totalCost": "310940"
					},
					"external": {
						"hasRegisteredFact()": "2313",
						"isValid(bytes32)": "2458",
						"verifyMerkle(uint256[],uint256[],uint256,uint256)": "infinite"
					}
				},
				"methodIdentifiers": {
					"hasRegisteredFact()": "d6354e15",
					"isValid(bytes32)": "6a938567",
					"verifyMerkle(uint256[],uint256[],uint256,uint256)": "3fe317a6"
				}
			},
			"storageLayout": {
				"storage": [
					{
						"astId": 8,
						"contract": "AA/contracts/verifier/MerkleStatementContract.sol:MerkleStatementContract",
						"label": "verifiedFact",
						"offset": 0,
						"slot": "0",
						"type": "t_mapping(t_bytes32,t_bool)"
					},
					{
						"astId": 11,
						"contract": "AA/contracts/verifier/MerkleStatementContract.sol:MerkleStatementContract",
						"label": "anyFactRegistered",
						"offset": 0,
						"slot": "1",
						"type": "t_bool"
					}
				],
				"types": {
					"t_bool": {
						"encoding": "inplace",
						"label": "bool",
						"numberOfBytes": "1"
					},
					"t_bytes32": {
						"encoding": "inplace",
						"label": "bytes32",
						"numberOfBytes": "32"
					},
					"t_mapping(t_bytes32,t_bool)": {
						"encoding": "mapping",
						"key": "t_bytes32",
						"label": "mapping(bytes32 => bool)",
						"numberOfBytes": "32",
						"value": "t_bool"
					}
				}
			},
			"userdoc": {
				"kind": "user",
				"methods": {},
				"version": 1
			}
		}
	}
}