{
	"AA/contracts/FactRegistry.sol": {
		"FactRegistry": {
			"abi": [
				{
					"inputs": [],
					"name": "hasRegisteredFact",
					"outputs": [
						{
							"internalType": "bool",
							"name": "",
							"type": "bool"
						}
					],
					"stateMutability": "view",
					"type": "function"
				},
				{
					"inputs": [
						{
							"internalType": "bytes32",
							"name": "fact",
							"type": "bytes32"
						}
					],
					"name": "isValid",
					"outputs": [
						{
							"internalType": "bool",
							"name": "",
							"type": "bool"
						}
					],
					"stateMutability": "view",
					"type": "function"
				}
			],
			"devdoc": {
				"kind": "dev",
				"methods": {},
				"version": 1
			},
			"evm": {
				"assembly": "    /* \"AA/contracts/FactRegistry.sol\":703:1990  contract FactRegistry is IQueryableFactRegistry {... */\n  mstore(0x40, 0x80)\n    /* \"AA/contracts/FactRegistry.sol\":921:951  bool anyFactRegistered = false */\n  0x01\n  dup1\n  sload\n  not(0xff)\n  and\n  swap1\n  sstore\n    /* \"AA/contracts/FactRegistry.sol\":703:1990  contract FactRegistry is IQueryableFactRegistry {... */\n  callvalue\n  dup1\n  iszero\n  tag_1\n  jumpi\n  0x00\n  dup1\n  revert\ntag_1:\n  pop\n  dataSize(sub_0)\n  dup1\n  dataOffset(sub_0)\n  0x00\n  codecopy\n  0x00\n  return\nstop\n\nsub_0: assembly {\n        /* \"AA/contracts/FactRegistry.sol\":703:1990  contract FactRegistry is IQueryableFactRegistry {... */\n      mstore(0x40, 0x80)\n      callvalue\n      dup1\n      iszero\n      tag_1\n      jumpi\n      0x00\n      dup1\n      revert\n    tag_1:\n      pop\n      jumpi(tag_2, lt(calldatasize, 0x04))\n      shr(0xe0, calldataload(0x00))\n      dup1\n      0x6a938567\n      eq\n      tag_3\n      jumpi\n      dup1\n      0xd6354e15\n      eq\n      tag_4\n      jumpi\n    tag_2:\n      0x00\n      dup1\n      revert\n        /* \"AA/contracts/FactRegistry.sol\":1014:1123  function isValid(bytes32 fact) external view override returns (bool) {... */\n    tag_3:\n      tag_5\n      tag_6\n      calldatasize\n      0x04\n      tag_7\n      jump\t// in\n    tag_6:\n        /* \"AA/contracts/FactRegistry.sol\":1077:1081  bool */\n      0x00\n        /* \"AA/contracts/FactRegistry.sol\":1499:1517  verifiedFact[fact] */\n      swap1\n      dup2\n      mstore\n      0x20\n      dup2\n      swap1\n      mstore\n      0x40\n      swap1\n      keccak256\n      sload\n      0xff\n      and\n      swap1\n        /* \"AA/contracts/FactRegistry.sol\":1014:1123  function isValid(bytes32 fact) external view override returns (bool) {... */\n      jump\n    tag_5:\n      mload(0x40)\n        /* \"#utility.yul\":364:378   */\n      swap1\n      iszero\n        /* \"#utility.yul\":357:379   */\n      iszero\n        /* \"#utility.yul\":339:380   */\n      dup2\n      mstore\n        /* \"#utility.yul\":327:329   */\n      0x20\n        /* \"#utility.yul\":312:330   */\n      add\n        /* \"AA/contracts/FactRegistry.sol\":1014:1123  function isValid(bytes32 fact) external view override returns (bool) {... */\n      mload(0x40)\n      dup1\n      swap2\n      sub\n      swap1\n      return\n        /* \"AA/contracts/FactRegistry.sol\":1880:1988  function hasRegisteredFact() external view override returns (bool) {... */\n    tag_4:\n        /* \"AA/contracts/FactRegistry.sol\":1964:1981  anyFactRegistered */\n      and(0xff, sload(0x01))\n        /* \"AA/contracts/FactRegistry.sol\":1880:1988  function hasRegisteredFact() external view override returns (bool) {... */\n      jump(tag_5)\n        /* \"#utility.yul\":14:194   */\n    tag_7:\n        /* \"#utility.yul\":73:79   */\n      0x00\n        /* \"#utility.yul\":126:128   */\n      0x20\n        /* \"#utility.yul\":114:123   */\n      dup3\n        /* \"#utility.yul\":105:112   */\n      dup5\n        /* \"#utility.yul\":101:124   */\n      sub\n        /* \"#utility.yul\":97:129   */\n      slt\n        /* \"#utility.yul\":94:146   */\n      iszero\n      tag_21\n      jumpi\n        /* \"#utility.yul\":142:143   */\n      0x00\n        /* \"#utility.yul\":139:140   */\n      dup1\n        /* \"#utility.yul\":132:144   */\n      revert\n        /* \"#utility.yul\":94:146   */\n    tag_21:\n      pop\n        /* \"#utility.yul\":165:188   */\n      calldataload\n      swap2\n        /* \"#utility.yul\":14:194   */\n      swap1\n      pop\n      jump\t// out\n\n    auxdata: 0xa2646970667358221220da7bd44118edaa7fc5e70e77465f7fae825a39d677023f9c6bf994e1e915e62164736f6c63430008160033\n}\n",
				"bytecode": {
					"linkReferences": {},
					"object": "60806040526001805460ff19169055348015610019575f80fd5b5060bd806100265f395ff3fe6080604052348015600e575f80fd5b50600436106030575f3560e01c80636a938567146034578063d6354e15146067575b5f80fd5b6053603f3660046071565b5f9081526020819052604090205460ff1690565b604051901515815260200160405180910390f35b60015460ff166053565b5f602082840312156080575f80fd5b503591905056fea2646970667358221220da7bd44118edaa7fc5e70e77465f7fae825a39d677023f9c6bf994e1e915e62164736f6c63430008160033",
					"opcodes": "PUSH1 0x80 PUSH1 0x40 MSTORE PUSH1 0x1 DUP1 SLOAD PUSH1 0xFF NOT AND SWAP1 SSTORE CALLVALUE DUP1 ISZERO PUSH2 0x19 JUMPI PUSH0 DUP1 REVERT JUMPDEST POP PUSH1 0xBD DUP1 PUSH2 0x26 PUSH0 CODECOPY PUSH0 RETURN INVALID PUSH1 0x80 PUSH1 0x40 MSTORE CALLVALUE DUP1 ISZERO PUSH1 0xE JUMPI PUSH0 DUP1 REVERT JUMPDEST POP PUSH1 0x4 CALLDATASIZE LT PUSH1 0x30 JUMPI PUSH0 CALLDATALOAD PUSH1 0xE0 SHR DUP1 PUSH4 0x6A938567 EQ PUSH1 0x34 JUMPI DUP1 PUSH4 0xD6354E15 EQ PUSH1 0x67 JUMPI JUMPDEST PUSH0 DUP1 REVERT JUMPDEST PUSH1 0x53 PUSH1 0x3F CALLDATASIZE PUSH1 0x4 PUSH1 0x71 JUMP JUMPDEST PUSH0 SWAP1 DUP2 MSTORE PUSH1 0x20 DUP2 SWAP1 MSTORE PUSH1 0x40 SWAP1 KECCAK256 SLOAD PUSH1 0xFF AND SWAP1 JUMP JUMPDEST PUSH1 0x40 MLOAD SWAP1 ISZERO ISZERO DUP2 MSTORE PUSH1 0x20 ADD PUSH1 0x40 MLOAD DUP1 SWAP2 SUB SWAP1 RETURN JUMPDEST PUSH1 0x1 SLOAD PUSH1 0xFF AND PUSH1 0x53 JUMP JUMPDEST PUSH0 PUSH1 0x20 DUP3 DUP5 SUB SLT ISZERO PUSH1 0x80 JUMPI PUSH0 DUP1 REVERT JUMPDEST POP CALLDATALOAD SWAP2 SWAP1 POP JUMP INVALID LOG2 PUSH5 0x6970667358 0x22 SLT KECCAK256 0xDA PUSH28 0xD44118EDAA7FC5E70E77465F7FAE825A39D677023F9C6BF994E1E915 0xE6 0x21 PUSH5 0x736F6C6343 STOP ADDMOD AND STOP CALLER "
				},
				"gasEstimates": {
					"creation": {
						"codeDepositCost": "37800",
						"executionCost": "24303",
						"totalCost": "62103"
					},
					"external": {
						"hasRegisteredFact()": "2291",
						"isValid(bytes32)": "2416"
					},
					"internal": {
						"_factCheck(bytes32)": "infinite",
						"registerFact(bytes32)": "infinite"
					}
				},
				"methodIdentifiers": {
					"hasRegisteredFact()": "d6354e15",
					"isValid(bytes32)": "6a938567"
				}
			},
			"storageLayout": {
				"storage": [
					{
						"astId": 8,
						"contract": "AA/contracts/FactRegistry.sol:FactRegistry",
						"label": "verifiedFact",
						"offset": 0,
						"slot": "0",
						"type": "t_mapping(t_bytes32,t_bool)"
					},
					{
						"astId": 11,
						"contract": "AA/contracts/FactRegistry.sol:FactRegistry",
						"label": "anyFactRegistered",
						"offset": 0,
						"slot": "1",
						"type": "t_bool"
					}
				],
				"types": {
					"t_bool": {
						"encoding": "inplace",
						"label": "bool",
						"numberOfBytes": "1"
					},
					"t_bytes32": {
						"encoding": "inplace",
						"label": "bytes32",
						"numberOfBytes": "32"
					},
					"t_mapping(t_bytes32,t_bool)": {
						"encoding": "mapping",
						"key": "t_bytes32",
						"label": "mapping(bytes32 => bool)",
						"numberOfBytes": "32",
						"value": "t_bool"
					}
				}
			},
			"userdoc": {
				"kind": "user",
				"methods": {},
				"version": 1
			}
		}
	}
}